:100000000C94F7020C94BF070C94EC070C941F039C
:100010000C941F030C941F030C941F030C940A10E0
:100020000C941F030C941F030C941F030C941F03C8
:100030000C941F030C941F030C941F030C941F03B8
:100040000C9419080C941F030C94390A0C947C0A24
:100050000C941F030C941F030C941F030C941F0398
:100060000C94F72A0C941F037B226C6F6E676974E3
:10007000756465223A222573222C226C617469749E
:10008000756465223A222573222C226465766963A1
:10009000655F6964223A222573222C2276616C7591
:1000A00065223A222573222C22756E6974223A2227
:1000B00063706D227D004F4B2E095B00206220662D
:1000C0007265655D0D0A004D41435F616464726550
:1000D00073733A09253034580D0A004C6174697401
:1000E0007564653A0925730D0A004552524F522036
:1000F0002D20546F6F206D616E792063686172618D
:10010000637465727320696E206C617469747564C0
:10011000652E204D75737420626520756E6465725E
:1001200020313620636861726163746572732E0DCD
:100130000A004C6F6E6769747564653A0925730D22
:100140000A004552524F52202D20546F6F206D618E
:100150006E79206368617261637465727320696E81
:10016000206C6F6E6769747564652E204D757374AD
:1001700020626520756E6465722031362063686187
:10018000726163746572732E0D0A004669726D7731
:100190006172655F7665723A0925730D0A004465E0
:1001A000766963655F49443A0925730D0A00446521
:1001B000766963652049442073657420746F202537
:1001C000730D0A004552524F52202D20546F6F205C
:1001D0006D616E792063686172616374657273200A
:1001E000696E204465766963652049442E204D750B
:1001F000737420626520756E6465722031302063EF
:100200006861726163746572732E0D0A00467265CF
:10021000652052414D3A09002062797465730D0AD8
:10022000005573652074686520666F6C6C6F776924
:100230006E67207365742F67657420636F6D6D61E1
:100240006E64733A0D0A00097B7365747C6765748C
:100250007D6D61633A090963686962692077697233
:10026000656C657373204D414320616464726573EE
:1002700073202830202E2E2046464646290D0A009F
:10028000097B7365747C6765747D6465763A0909DA
:100290007468652064657669636520494420286E2A
:1002A00065656420746F2062652072656769737488
:1002B00065726564290D0A00097B7365747C676546
:1002C000747D6C61743A09097468652064657669A7
:1002D0006365206C617469747564650D0A00097B3F
:1002E0007365747C6765747D6C6F6E3A0909746818
:1002F0006520646576696365206C6F6E67697475E7
:1003000064650D0A000000000700020100000304FC
:100310000600000000000000000102040810204058
:1003200080010204081020010204081020040404C3
:10033000040404040402020202020203030303038E
:100340000300000000230026002900000000002513
:100350000028002B0000000000240027002A0002D3
:1003600000000000003E5B4F5B3E3E6B4F6B3E1C4F
:100370003E7C3E1C183C7E3C181C577D571C1C5E66
:100380007F5E1C00183C1800FFE7C3E7FF0018243D
:100390001800FFE7DBE7FF30483A060E26297929E7
:1003A00026407F050507407F05253F5A3CE73C5A1C
:1003B0007F3E1C1C08081C1C3E7F14227F22145FF9
:1003C0005F005F5F06097F017F006689956A606054
:1003D00060606094A2FFA29408047E040810207E4E
:1003E000201008082A1C08081C2A08081E101010D3
:1003F000100C1E0C1E0C30383E3830060E3E0E0619
:10040000000000000000005F00000007000700146B
:100410007F147F14242A7F2A12231308646236492A
:100420005620500008070300001C22410000412212
:100430001C002A1C7F1C2A08083E08080080703017
:100440000008080808080000606000201008040286
:100450003E5149453E00427F40007249494946218C
:1004600041494D331814127F1027454545393C4A00
:100470004949314121110907364949493646494917
:10048000291E00001400000040340000000814225F
:1004900041141414141400412214080201590906CD
:1004A0003E415D594E7C1211127C7F494949363ECE
:1004B000414141227F4141413E7F494949417F09B4
:1004C0000909013E414151737F0808087F00417FBF
:1004D00041002040413F017F081422417F404040BD
:1004E000407F021C027F7F0408107F3E4141413E55
:1004F0007F090909063E4151215E7F0919294626D7
:100500004949493203017F01033F4040403F1F20DA
:1005100040201F3F4038403F6314081463030478B1
:1005200004036159494D43007F41414102040810D1
:1005300020004141417F040201020440404040400C
:10054000000307080020545478407F28444438387A
:1005500044444428384444287F38545454180008EC
:100560007E090218A4A49C787F0804047800447DC6
:1005700040002040403D007F1028440000417F4063
:10058000007C047804787C080404783844444438B7
:10059000FC1824241818242418FC7C080404084897
:1005A0005454542404043F44243C4040207C1C20E8
:1005B00040201C3C4030403C44281028444C909043
:1005C000907C4464544C440008364100000077009D
:1005D0000000413608000201020402007407B70A55
:1005E0005D0B681355151317C1268129402A112464
:1005F0001FBECFEFD8E0DEBFCDBF14E0A0E0B1E07A
:10060000ECE1FAE602C005900D92AA3FB107D9F7D6
:1006100018E0AAEFB4E001C01D92A335B107E1F7DD
:1006200015E0CEEED5E004C02297FE010E94762FA1
:10063000CC3DD107C9F70E9451110C940C350C9494
:1006400000008091FE049091FF0401969093FF04B6
:100650008093FE0481E0809300050895682FE09167
:100660001A06F0911B060190F081E02D8AE196E0D8
:10067000099580E090E00895CF92DF92EF92FF928B
:100680000F931F936B017C010E946308DC01CB0177
:1006900097018601081B190B2A0B3B0BC816D906BC
:1006A000EA06FB0620F40095109520953095B801D8
:1006B000C9011F910F91FF90EF90DF90CF900895A7
:1006C000A0E0B0E0E6E6F3E00C94312FEC016A0123
:1006D0007B01CB01BA010E94712D162F072FB82E76
:1006E000A92E0E949D2D9B01AC01C701B6010E945D
:1006F0009B2C2FE632E143E05AE30E949C2C20E041
:1007000030E04AE754E40E94532E0E94712D6B01A1
:100710007C01CE01412F502F6B2D7A2D0E942F117D
:10072000CE0160E071E00E941E118AE0C816D1047B
:10073000E104F10420F4CE0162E071E009C084E636
:10074000C816D104E104F10428F4CE0165E071E09B
:100750000E941E11CE01B701A6010E942F11CDB734
:10076000DEB7EAE00C944D2FADE0B0E0EAEBF3E049
:100770000C94332F6B017C01CE01079667E071E08A
:100780000E94D61089E095E00E948214882321F00F
:1007900089E095E00E94A61481E994E09A83898318
:1007A0008091470590914805A0914905B0914A056F
:1007B0008B839C83AD83BE8389E095E0BE016F5F30
:1007C0007F4F40E550E00E94EC14009709F4D1C03F
:1007D0000E946308DC01CB018093FA049093FB0430
:1007E000A093FC04B093FD041092A205CE010796DD
:1007F000B701A6010E94600303EA15E084E6D80170
:100800001D928A95E9F7EDB7FEB73C970FB6F894BD
:10081000FEBF0FBEEDBF3196ADB7BEB712961C93AB
:100820000E93119788E690E0938382838FE695E09C
:10083000958384839C0124513040378326834496DA
:10084000918780878F819885938782870E944C3219
:10085000F80101900020E9F731971082EDB7FEB75B
:100860003C960FB6F894FEBF0FBEEDBF8AE196E04E
:10087000B8010E94CF0B89E095E068E071E00E942A
:10088000A50B60916C0270916D0289E095E00E9469
:10089000A50B89E095E069E271E00E94CF0B89E049
:1008A00095E063E371E00E94CF0B89E095E067E497
:1008B00071E00E94CF0B89E095E06EE571E00E9447
:1008C000A50BD8010D900020E9F7BD0161507040E3
:1008D000601B710B89E095E04AE050E00E94640CD7
:1008E00089E095E06FE671E00E94CF0B89E095E02A
:1008F0000E94BB0B89E095E0B8010E94CF0B86E116
:1009000095E062E00E948C1986E195E061E070E07C
:100910000E94921986E195E060E070E040E050E0CE
:100920000E94861986E195E00E942B1AC701B60144
:100930002DEE3DE04EE35BE30E94532EAB01BC0184
:1009400086E195E022E030E00E94D70D86E195E057
:1009500064E170E042E150E00E94861986E195E092
:100960006EE871E00E94CF0B86E195E00E94AD1B1E
:100970002AC02091A2052F5F2093A205233018F0F2
:1009800081E08093A10500D000D085E991E0EDB72A
:10099000FEB79283818383E090E0821B9109948368
:1009A00083830E9414320F900F900F900F900E943B
:1009B0006308DC01CB018093FA049093FB04A093BD
:1009C000FC04B093FD04CE0107960E9466102D969C
:1009D000E8E00C944F2F8091A105813009F0A89593
:1009E0008FED96E00E94F712809100058823D9F0E0
:1009F0001092000581E068EE73E020E030E0A9018C
:100A00000E94E90D80E061E00E94640964E170E009
:100A100080E090E00E949F0880E060E00E9464090E
:100A200081E00E94F40F6091FA047091FB048091C0
:100A3000FC049091FD040E943C03AB01BC01809139
:100A4000050590910605A0910705B0910805481786
:100A500059076A077B07B0F06091FE047091FF04AC
:100A6000882777FD8095982F0E949F2D1092FF0474
:100A70001092FE04462F572F682F792FCB01BA0111
:100A80000E94B4030895A2E0B0E0E9E4F5E00C941C
:100A9000392F2091490830914A082115310511F468
:100AA00023E538E0CE010196821B930B2296E2E00B
:100AB0000C94552F00D000D087EC90E0EDB7FEB736
:100AC000928381838091590590915A059483838301
:100AD0000E9429320F900F900F900F90089500D030
:100AE00000D08BED90E0EDB7FEB7928381838BE56C
:100AF00095E0948383830E9429320F900F900F908A
:100B00000F90089500D000D082E391E0EDB7FEB7DA
:100B1000928381838FE695E0948383830E942932B8
:100B20000F900F900F900F90089500D000D08BE899
:100B300091E0EDB7FEB79283818384E792E09483DE
:100B400083830E9429320F900F900F900F90089589
:100B500000D000D08EE991E0EDB7FEB7928381839B
:100B600083E895E0948383830E9429320F900F904D
:100B70000F900F9008950F931F93CF93DF93EC0185
:100B80008B010E94A805CE01B8010E945A05CE0132
:100B9000B8010E946F05CE01B8010E9482050E9433
:100BA000950500D08DE092E0EDB7FEB7928381838A
:100BB0000E9429320F900F900E944305BC018AE1E8
:100BC00096E04AE050E00E94B50C00D088E192E047
:100BD000EDB7FEB7928381830E9429320F900F9068
:100BE000DF91CF911F910F910895A2E1B0E0EBEF5B
:100BF000F5E00C94392F81E061E00E94300980E03B
:100C000061E00E9430098EE293E090935405809356
:100C10005305109256051092550582E080934E05BB
:100C200010925805109257058BE495E09093500868
:100C300080934F0881E161E00E94300981E161E029
:100C40000E9464098FE061E00E9430098FE061E05A
:100C50000E94640964E170E080E090E00E949F08D7
:100C60008FE060E00E94640964E170E080E090E061
:100C70000E949F088FE061E00E94640989E595E089
:100C800060E070E048E450E00E944C348AE196E075
:100C900061EB71E00E94CF0B1092A2051092A105AA
:100CA00029E288E190E00FB6F894A895809360005F
:100CB0000FBE209360008AE196E067E071E00E9439
:100CC000CF0B8AE196E067E071E00E94CF0B80E0F5
:100CD00090E060E070E00E94BB0581E064EF71E0AD
:100CE00020E030E0A9010E94E90D64E670E080E0B8
:100CF00090E00E949F0881E00E94F40F81E06CED7B
:100D000075E020E030E0A9010E94E90D62E370E0A7
:100D100080E090E00E949F0881E00E94F40F81E053
:100D200064EF71E020E030E0A9010E94E90D64E683
:100D300070E080E090E00E949F0881E00E94F40F44
:100D400086E195E062E04CE30E94A21A86E195E01C
:100D50000E94AD1B60ED77E080E090E00E949F086C
:100D600086E195E00E942B1A8FED96E06EE672E028
:100D70000E9484110097F9F48AE196E06CEB71E02F
:100D80000E94CF0B81E994E09E878D878091410579
:100D900090914205A0914305B09144058F87988BAF
:100DA000A98BBA8B8FED96E06EE672E0AE01435FE1
:100DB0005F4F0E94C8128AE196E064EE71E00E94E3
:100DC000A50BCE0107966FED76E00E9446138AE1EF
:100DD00096E0BE01695F7F4F0E94E10B81E061E216
:100DE00073E043E050E00E949F0780E69AEEA0E0A7
:100DF000B0E08093050590930605A0930705B09396
:100E000008050E946308DC01CB0140910505509163
:100E100006056091070570910805840F951FA61FB0
:100E2000B71F8093010590930205A0930305B0932B
:100E30000405A8958AE196E06FEE71E00E94CF0B61
:100E400086E195E06AE070E04AE050E021E030E0C1
:100E50000E94A51986E195E00E94AD1B60ED77E048
:100E600080E090E00E949F0886E195E061E00E94AA
:100E70008C1986E195E061E070E00E94921986E1AC
:100E800095E060E070E040E050E00E94861986E165
:100E900095E00E942B1A86E195E065E272E00E94DF
:100EA000CF0B86E195E060E070E04AE050E00E9400
:100EB0008619CE0101966FED76E00E94461386E119
:100EC00095E0BE016F5F7F4F0E94E10B86E195E0E8
:100ED0000E94AD1B60ED77E080E090E00E949F08EB
:100EE0006296E2E00C94552FEF920F9387E096E024
:100EF00060E040E020E000E00E94330B85E495E0F4
:100F000060EB48E32CEE0BE40E94330B8FE395E09B
:100F100060EC48EA21E008E20E94330B86E195E0AC
:100F200065E046E028E007E034E0E32E0E941A1A6C
:100F300089E095E00E9462140F91EF90089582304D
:100F4000E8F4E82FF0E0EE0FFF1FE35FF94F718345
:100F50006083813041F0809169008C7F842B809385
:100F60006900E89A089580916900440F551F440F65
:100F7000551F837F842B80936900E99A08951F92FF
:100F80000F920FB60F9211242F933F934F935F93BD
:100F90006F937F938F939F93AF93BF93EF93FF9341
:100FA00080910D0690910E06009729F0E0910D06B4
:100FB000F0910E060995FF91EF91BF91AF919F912E
:100FC0008F917F916F915F914F913F912F910F90F2
:100FD0000FBE0F901F9018951F920F920FB60F9291
:100FE00011242F933F934F935F936F937F938F932E
:100FF0009F93AF93BF93EF93FF9380910F069091D0
:101000001006009729F0E0910F06F091100609955F
:10101000FF91EF91BF91AF919F918F917F916F91D0
:101020005F914F913F912F910F900FBE0F901F90A6
:1010300018951F920F920FB60F9211242F933F9382
:101040008F939F93AF93BF93809111069091120657
:10105000A0911306B091140630911906232F2D5F2D
:101060002D3720F40196A11DB11D05C0232F2A574D
:101070000296A11DB11D209319068093110690932D
:101080001206A0931306B093140680911506909152
:101090001606A0911706B09118060196A11DB11D64
:1010A0008093150690931606A0931706B093180622
:1010B000BF91AF919F918F913F912F910F900FBE54
:1010C0000F901F9018950F931F938FB7F89400916E
:1010D00011061091120620911306309114068FBF4D
:1010E000B801C9011F910F9108950F931F939FB7E6
:1010F000F89400911506109116062091170630916C
:10110000180686B5A89B06C08F3F21F00F5F1F4FC2
:101110002F4F3F4F9FBF322F212F102F0027080F37
:10112000111D211D311D42E0000F111F221F331F11
:101130004A95D1F7B801C9011F910F910895CF9237
:10114000DF92EF92FF92CF93DF936B017C010E94BD
:101150007508DC01CB01EC010FC00E9475086C1B07
:101160007D0B83E0683E780738F00894C108D10809
:10117000E108F108C851DC4FC114D104E104F104C5
:1011800061F7DF91CF91FF90EF90DF90CF900895BE
:10119000789484B5826084BD84B5816084BD85B552
:1011A000826085BD85B5816085BDEEE6F0E0808119
:1011B00081608083E1E8F0E010828081826080833A
:1011C000808181608083E0E8F0E0808181608083BD
:1011D000E1EBF0E0808184608083E0EBF0E08081EF
:1011E00081608083EAE7F0E0808184608083808191
:1011F0008260808380818160808380818068808339
:101200001092C1000895833071F0843028F4813049
:10121000A1F0823021F514C08630B1F08730D1F0D2
:101220008430E9F404C0809180008F7703C08091FE
:1012300080008F7D80938000089584B58F7702C0F1
:1012400084B58F7D84BD08958091B0008F778093A1
:10125000B00008958091B0008F7D8093B000089514
:1012600090E0FC01E75EFC4F2491835D9C4FFC0104
:101270008491882341F190E0880F991FFC01EB5A7B
:10128000FC4F45915491DA01855B9C4FFC0185919F
:101290009491FC019FB7F8948C91662331F42095CA
:1012A00082238C938081822308C0623049F4322FDC
:1012B000309583238C938081822B80839FBF0895F8
:1012C000822B8C939FBF0895A1E0B0E0EAE6F9E09D
:1012D0000C94372F282F30E0F901EB5FFC4F8491FD
:1012E000F901E75EFC4F1491F901E35DFC4F0491B5
:1012F0000023D1F0882321F069830E9403096981CA
:10130000E02FF0E0EE0FFF1FE55BFC4F859194911D
:10131000DC019FB7F8948C91662319F41095812312
:1013200001C0812B8C939FBF2196E4E00C94532F36
:10133000FC0124853585F901E05CFF4F80819181B6
:101340002E5B3F4FF90120813181821B930B8F73FC
:1013500090700895FC0144855585FA01E05CFF4FCB
:1013600080819181FA01EE5BFF4F208131818217EC
:10137000930741F00190F081E02DE40FF51F80818B
:1013800090E008958FEF9FEF0895FC014485558507
:10139000FA01E05CFF4F20813181FA01EE5BFF4FE3
:1013A000808191812817390779F0A081B181A40F3C
:1013B000B51F8C91208131812F5F3F4F2F7330708B
:1013C0003183208390E008958FEF9FEF0895FC0113
:1013D00081A1882329F0A489B5898C9186FFFBCF50
:1013E00011A20895CF93DF93DC011E964D915C917D
:1013F0001F97EA01C05CDF4F288139812F5F3F4F83
:101400002F733070FA01EE5BFF4F808191812817B6
:101410003907D9F3E881F981E40FF51F60831E963F
:10142000ED91FC911F97E05CFF4F3183208356962E
:10143000ED91FC915797208181E090E05F960C90B0
:101440005F9702C0880F991F0A94E2F7282B208328
:1014500081E091968C9391975496ED91FC915597DC
:1014600080818064808381E090E0DF91CF91089556
:1014700008951F920F920FB60F9211242F933F934E
:101480004F938F939F93EF93FF938091C00082FDC2
:101490001CC04091C6008091C0069091C106019683
:1014A0008F7390702091C2063091C3068217930704
:1014B00071F0E091C006F091C106E058F94F408309
:1014C0009093C1068093C00602C08091C600FF9130
:1014D000EF919F918F914F913F912F910F900FBE60
:1014E0000F901F9018958AE196E00E949809009746
:1014F00011F00E94380A08951F920F920FB60F92B2
:1015000011242F933F938F939F93EF93FF932091F9
:101510007C0630917D0680917E0690917F0628178B
:10152000390731F48091C1008F7D8093C10014C0D0
:10153000E0917E06F0917F06E45CF94F2081809176
:101540007E0690917F0601968F73907090937F0630
:1015500080937E062093C600FF91EF919F918F911B
:101560003F912F910F900FBE0F901F9018951092E2
:101570001D0610921C0688EE93E0A0E0B0E0809378
:101580001E0690931F06A0932006B0932106ECE15F
:10159000F6E081E894E09293829380E896E0958764
:1015A00084878CE396E09787868785EC90E0918B23
:1015B000808B84EC90E0938B828B80EC90E0958B19
:1015C000848B81EC90E0978B868B82EC90E0918FFE
:1015D000808F86EC90E0938F828F84E0848F83E00D
:1015E000858F87E0868F85E0878F81E080A30895CF
:1015F000A0E0B0E0EEEFFAE00C94312F5C017B014B
:1016000000E010E0CC24DD24F501E00FF11FC7015C
:1016100062814AE050E00E947A0CEC01C7016EE260
:101620000E94A80BC80FD91FCC0EDD1E0F5F1F4FE5
:101630000330110549F7C701F50165814AE050E023
:101640000E947A0C8C0D9D1DCDB7DEB7EAE00C949C
:101650004D2FFC0181E994E09183808312821382F3
:101660001482158208950F93FC0181E994E091831F
:10167000808362834383248305830F910895CF93EE
:10168000DF93FC0181E994E091838083EB01888101
:101690009981AA81BB8182839383A483B583DF91DF
:1016A000CF910895FB014081518162817381FC01DA
:1016B0004283538364837583089581E994E0909312
:1016C000C5068093C4061092C6061092C7061092F3
:1016D000C8061092C9060895A0E0B0E0E2E7FBE07A
:1016E0000C94332F6C017B01EA0100E010E00EC086
:1016F000D7016D917D01D601ED91FC910190F081B2
:10170000E02DC6010995080F191F2197209781F731
:10171000C801CDB7DEB7E8E00C944F2F6115710515
:1017200089F0DB010D900020E9F7AD0141505040F8
:10173000461B570BDC01ED91FC910280F381E02DFB
:101740000995089580E090E008950E948E0B089519
:10175000DC01ED91FC910190F081E02D0995089557
:101760009C01CB01DB01ED91FC910190F081E02D1A
:10177000B901099508950F931F93CF93DF938C01BF
:101780006DE00E94A80BEC01C8016AE00E94A80B62
:101790008C0F9D1FDF91CF911F910F9108950F9393
:1017A0001F93CF93DF938C010E948E0BEC01C80135
:1017B0000E94BB0B8C0F9D1FDF91CF911F910F914A
:1017C00008950F931F93CF93DF938C010E94B00B6A
:1017D000EC01C8010E94BB0B8C0F9D1FDF91CF91C4
:1017E0001F910F9108954F925F926F927F92AF92E7
:1017F000BF92CF92DF92EF92FF920F931F93CF93FE
:10180000DF93CDB7DEB7A1970FB6F894DEBF0FBE5A
:10181000CDBF5C01E42ECB01F22E19A221E02F15E1
:1018200010F03AE0F32E21E2C22ED12CCC0EDD1EB8
:101830004F2C55246624772403C0E02E512FC90174
:101840006E2D752FA30192010E94EC2E89019A0141
:10185000F09E802D1124E81A8E2D0894C108D1081D
:101860008A3010F4805D01C0895CF6018083011527
:1018700011052105310509F7C501B6010E948E0B3E
:10188000A1960FB6F894DEBF0FBECDBFDF91CF910A
:101890001F910F91FF90EF90DF90CF90BF90AF908E
:1018A0007F906F905F904F9008952115310549F416
:1018B000DC01ED91FC910190F081E02D642F099500
:1018C00008950E94F30B08950F931F93CF93DF9316
:1018D0008C019A01AB0160E070E00E94550CEC01B4
:1018E000C8010E94BB0B8C0F9D1FDF91CF911F91F0
:1018F0000F9108959A01462F50E060E070E00E9439
:10190000550C0895A0E0B0E0E8E8FCE00C94332F1B
:10191000EC016A017B012115310541F4E881F9816F
:101920000190F081E02D642F09951AC02A3031050D
:10193000A9F477FF12C06DE20E94A80B8C01442726
:101940005527BA014C195D096E097F09CE012AE0BD
:101950000E94F30B800F911F03C02AE00E94F30B3B
:10196000CDB7DEB7E8E00C944F2F9A01FB01AF0131
:10197000662757FD6095762F0E94820C08952F925E
:101980003F924F925F927F928F929F92AF92BF92BF
:10199000CF92DF92EF92FF920F931F93CF93DF933B
:1019A0002C014A015B01722ECB01BA01A501940101
:1019B0000E94B62E882321F0C2016CE472E01BC0A5
:1019C00075016401E894F7F8C701B6012FEF3FEF06
:1019D0004FE75FE70E94B62E882389F4C701B6015E
:1019E0002FEF3FEF4FE75FE70E94002D18163CF402
:1019F000C20160E572E00E948E0B4C01C5C0C501BA
:101A0000B4012FEF3FEF4FE75FE40E944F2E18160F
:101A100054F0C501B4012FEF3FEF4FE75FEC0E9498
:101A2000002D87FF04C0C20164E572E0E4CFC50168
:101A3000B40120E030E0A9010E94002D87FF0AC018
:101A4000C2016DE20E94A80B1C01B7FAB094B7F86E
:101A5000B09402C022243324C0E050E040E030E0E3
:101A60002FE313C0FA01B9018F2F942FA72FB22FA4
:101A7000BC01CD0120E030E040E251E40E94042DA1
:101A8000562F472F382F292FCF5FC71559F7C5017C
:101A9000B401DA01F9010B2F142F2F2F3E2FA901CA
:101AA00098010E949C2C7B01182FD92F862F9F2DE7
:101AB000A12FBD2FBC01CD010E94712DC62E072F75
:101AC000882EC92F0E949D2D9B01AC018E2D9F2D2C
:101AD000A12FBD2FBC01CD010E949B2C7B01182F93
:101AE000D92FC2014C2D502F682D7C2F2AE030E0D9
:101AF0000E94550C4C01820C931C772009F442C0C3
:101B0000C20168E572E00E948E0B880E991E3AC0F1
:101B10008E2D9F2DA12FBD2FBC01CD0120E030E0E7
:101B200040E251E40E94532EEB01182F092F980137
:101B3000862F9D2FA32FB22FBC01CD010E946C2DAB
:101B40006B017C01EE24D7FCE094FE2CC201B701AE
:101B5000A6012AE030E00E94820C880E991EC7017F
:101B6000B6010E949F2D9B01AC01B8018C2F9D2FC7
:101B7000A72FB62FBC01CD010E949B2C7B01182FF3
:101B8000D92F7A94772021F6C401DF91CF911F914C
:101B90000F91FF90EF90DF90CF90BF90AF909F900C
:101BA0008F907F905F904F903F902F9008950F936C
:101BB0001F93CF93DF938C010E94BF0CEC01C801EF
:101BC0000E94BB0B8C0F9D1FDF91CF911F910F9136
:101BD0000895A4E0B0E0EFEEFDE00C942A2FA82FCA
:101BE0008B0129833A834B835C8380917A028A1725
:101BF00021F08F3F09F0D3C104C0EFE5F3E034904A
:101C00007FC0A0937A02EFE5F3E034908FEF3816AF
:101C100009F4C5C191E0391639F1B2E03B1609F477
:101C200049C0332009F06CC014BC15BC84B5826077
:101C300084BD85B5816085BD2A2F30E0F901E35D63
:101C4000FC4FE491F0E0EE0FFF1FE55BFC4F859148
:101C500094918093D9069093DA06275E3C4FF90160
:101C600024912093D8064EC01092800010928100DB
:101C700080918100886080938100809181008160E3
:101C8000809381002A2F30E0F901E35DFC4FE4915D
:101C9000F0E0EE0FFF1FE55BFC4F85919491809380
:101CA000D2069093D306275E3C4FF90124912093EE
:101CB000D10628C01092B0001092B1008091B000FF
:101CC00082608093B0008091B10081608093B10008
:101CD0002A2F30E0F901E35DFC4FE491F0E0EE0FD4
:101CE000FF1FE55BFC4F859194918093CB06909309
:101CF000CC06275E3C4FF90124912093CA0602C00E
:101D000037FC4DC18A2F61E00E9430094801AA24A6
:101D1000BB2460E072E18AE790E0A50194010E9493
:101D20000E2F332021F0F2E03F1609F0B6C0290152
:101D30003A0169017A010894C108D108E108F10863
:101D40008FEFC816D104E104F10409F008F498C03B
:101D500060E472E48FE090E0A50194010E940E2FF0
:101D600069017A010894C108D108E108F10892E0FC
:101D70003916C9F4AFEFCA16D104E104F10409F031
:101D800008F485C060E970ED83E090E0A50194015E
:101D90000E940E2F69017A010894C108D108E10858
:101DA000F10883E001C082E0BFEFCB16D104E1046B
:101DB000F10409F008F465C068E478EE81E090E091
:101DC000A50194010E940E2F69017A010894C108AF
:101DD000D108E108F1083320E1F0E2E03E16D9F441
:101DE000FFEFCF16D104E104F10409F008F451C06B
:101DF00064E274EF80E090E0A50194010E940E2F50
:101E000069017A010894C108D108E108F10885E068
:101E100003C083E001C084E09FEFC916D104E10450
:101E2000F10479F170F162E17AE780E090E0A501D8
:101E300094010E940E2F69017A010894C108D1080B
:101E4000E108F108332011F484E001C086E0AFEF2F
:101E5000CA16D104E104F104A1F098F07301620103
:101E60009AE0F594E794D794C7949A95D1F708949B
:101E7000C108D108E108F108332031F087E00AC039
:101E800081E0332011F006C085E085BD31C082E0DD
:101E900001C084E08093B1002BC069017A010894ED
:101EA000C108D108E108F108B0E0CB16B0E0DB06CC
:101EB000B1E0EB06B0E0FB0688F068E478EE81E084
:101EC00090E0A50194010E940E2F69017A01089407
:101ED000C108D108E108F10893E001C091E0E1E018
:101EE0003E1631F480918100887F892B8093810098
:101EF00089819A81AB81BC810097A105B105A1F0D0
:101F0000B801660F771F80E090E029813A814B810C
:101F10005C810E94BA2E28EE33E040E050E00E943F
:101F2000EC2E89019A0103C00FEF1FEF980191E099
:101F30003916A1F0A2E03A1619F1332081F5C7BC99
:101F40000093DB061093DC062093DD063093DE065B
:101F500080916E00826080936E0021C0D0928900D3
:101F6000C09288000093D4061093D5062093D6061D
:101F70003093D70680916F00826080936F000FC00E
:101F8000C092B3000093CD061093CE062093CF06E7
:101F90003093D00680917000826080937000249608
:101FA000E1E10C94462F813041F0813018F082300D
:101FB000D1F409C010926E00089580916F008D7F5A
:101FC00080936F000895809170008D7F80937000E2
:101FD00081E08093B0008091B100887F846080931D
:101FE000B1001092B3000895CF93C82F80917A0268
:101FF0008C1739F4EFE5F3E084919FEF90937A0228
:1020000001C08FEF0E94D30F8C2F60E00E94640903
:10201000CF9108951F920F920FB60F9211242F9314
:102020003F934F935F936F937F938F939F93AF9360
:10203000BF93EF93FF938091CD069091CE06A09130
:10204000CF06B091D0060097A105B10551F1E091FE
:10205000CB06F091CC0680819091CA0689278083B7
:102060008091CD069091CE06A091CF06B091D0067A
:10207000181619061A061B06C4F48091CD06909115
:10208000CE06A091CF06B091D0060197A109B10963
:102090008093CD069093CE06A093CF06B093D00642
:1020A00004C080917A020E94F40FFF91EF91BF91DA
:1020B000AF919F918F917F916F915F914F913F91E0
:1020C0002F910F900FBE0F901F901895FC018081EB
:1020D00091810E9410300895CF93DF93EC018881A5
:1020E0009981009711F00E941030198218821D8288
:1020F0001C821B821A82DF91CF9108950F931F9348
:10210000CF93DF93EC018B016F5F7F4F88819981C3
:102110000E940731009731F0998388831B830A83DB
:1021200081E001C080E0DF91CF911F910F91089570
:10213000CF93DF93EC0188819981009729F08A8100
:102140009B818617970778F4CE010E947E10882322
:1021500041F08C819D81009731F4E881F9811082F2
:1021600002C080E001C081E0DF91CF910895EF923D
:10217000FF920F931F93CF93DF93EC017B018A01B2
:10218000BA010E949810882321F4CE010E946C109D
:1021900007C01D830C8388819981B7010E94E831B3
:1021A000CE01CDB7DEB7E6E00C94512FCF93DF938D
:1021B000FC0111821082138212821582148216820F
:1021C0006115710559F0EB0109900020E9F7AE01A6
:1021D00041505040461B570B0E94B710DF91CF91E2
:1021E0000895EF92FF920F931F93CF93DF938C018B
:1021F0007B01FC01C481D58161157105C9F04115D0
:102200005105A1F0C40FD51FBE010E94981088236C
:1022100079F0F8018081918124813581820F931FAB
:10222000B7010E94E831F801D583C48381E001C081
:1022300080E0CDB7DEB7E6E00C94512F6115710553
:1022400061F0DB010D900020E9F7AD0141505040F5
:10225000461B570B0E94F110089580E00895ABE0F3
:10226000B0E0E5E3F1E10C94352F7C01CB01BA013C
:102270008E010F5F1F4FA8012AE030E00E94EF316E
:10228000F80101900020E9F7AF0141505040401B98
:10229000510BC701B8010E94F1102B96E6E00C9497
:1022A000512F0E94C8080E94F505C3E7DAE00E949A
:1022B000EB042097E1F30E94730AF9CF21E030E0AC
:1022C000FC018081882311F020E030E0C9010895ED
:1022D00021E0FC0120830895BC0181E090E044E00E
:1022E00050E00E94C91E0895BC0185E090E044E0E2
:1022F00050E00E94C91E0895BC018FE090E044E0C8
:1023000050E00E94C91E0895AEE1B0E0EAE8F1E1B4
:102310000C94332F6C017B018091EF06882371F4BC
:102320008FEE96E00E945E11009741F08EE397E0F9
:102330000E94B4168FEE96E00E94681187EF96E037
:10234000F601978386838DE697E00E948B1E89E0D5
:1023500090E0B70146E050E00E94C91ECE014996C8
:1023600060E040E020E000E00E94330BCE014B969D
:102370000E947C11F60186819781B70120E63AEE32
:1023800040E050E0A0EAEA2EAFE0FA2E012D112D38
:102390000E9481267C018130910589F5F6016681D4
:1023A0007781CE0143960E94ED22CE0145960E9490
:1023B0007C11F60166817781CE010D960E94032380
:1023C000CE010F960E946C11F60166817781CE01D5
:1023D00007960E94F822CE0109960E947411F60118
:1023E00066817781CE0101960E940E238B819C81AC
:1023F000AD81BE81F60182839383A483B583C70137
:102400006E96E8E00C944F2FA0E0B0E0EAE0F2E135
:102410000C942D2F3C014B015A0169018DE697E088
:102420000E948B1E89E090E0B40146E050E00E94DB
:10243000C91EC50102960E947C11C80102960E9425
:102440006C11C70102960E947411F601828193817A
:10245000A481B581F30182839383A483B583CDB72F
:10246000DEB7EEE00C94492FAEE1B0E0EAE3F2E132
:102470000C942D2F3C014B017A0169015801CE01CA
:1024800049966FEF4FEF2FEF00E00E94330B21E9E9
:1024900034E03C8B2B8BF70182819381A481B58141
:1024A0008D8B9E8BAF8BB88F3E872D87F6018281F7
:1024B0009381A481B5818F87988BA98BBA8B38873C
:1024C0002F83F50182819381A481B58189879A87C1
:1024D000AB87BC873A8329838B8D9C8DAD8DBE8D58
:1024E0008B839C83AD83BE83C301B401AE014D5E7B
:1024F0005F4F9E01235F3F4F8E01095F1F4F7E019B
:102500000894E11CF11C0E9404126E96EEE00C94FB
:10251000492FA8E1B0E0EFE8F2E10C94352F7B0100
:10252000DA0112964D915D916D917C9115974D8BCD
:102530005E8B6F8B788FE1E9F4E0FE87ED874F8744
:10254000588B698B7A8BF887EF83D90112960D919E
:102550001D912D913C91159709871A872B873C87F0
:10256000FA83E9834B835C836D837E8321E02E8332
:10257000B701AE01435F5F4F9E01295F3F4F8E0160
:102580000F5F1F4F0E9434126896E6E00C94512FA3
:10259000A2E1B0E0EEECF2E10C94392FFB01DA019C
:1025A00012964D915D916D917C9115974F87588B47
:1025B000698B7A8B21E934E038872F8349875A87E2
:1025C0006B877C873A8329834B835C836D837E830F
:1025D00021E02E83BF01AE01495F5F4F9E012F5F57
:1025E0003F4F0E9489126296E2E00C94552FA8E1B9
:1025F000B0E0EDEFF2E10C94352F8C01FC01868107
:1026000097810097E1F10E94C1257C0182309105FC
:1026100021F084E0E816F104A1F5F80166817781E4
:10262000CE0143960E94ED22CE0145960E947C1178
:10263000F80166817781CE010D960E940323CE01B9
:102640000F960E946C11F80166817781CE01079682
:102650000E94F822CE0109960E947411F801668149
:102660007781CE0101960E940E238B819C81AD81E2
:10267000BE81F80182839383A483B58302C0EE24D4
:10268000FF24C7016896E6E00C94512FCF93DF93A7
:10269000EC010E94290BBE016E5F7F4F8FE090E03E
:1026A00044E050E00E94EB1FCE01DF91CF910895EE
:1026B00021E934E0FC0131832083FB014281538115
:1026C00064817581FC01428353836483758308951B
:1026D0000F9389E597E060E040E020E000E00E9491
:1026E000330B8FED96E00E94290B0F910895A1E026
:1026F000B0E0EDE7F3E10C94392F6983DC01ED9153
:10270000FC910280F381E02DBE016F5F7F4F41E0BD
:1027100050E009952196E2E00C94552FCF93DF937A
:10272000EC0107C0E881F9810680F781E02DCE0138
:102730000995E881F9810480F581E02DCE010995A4
:10274000009781F7DF91CF91089521E0FC01848506
:10275000843009F420E0822F0895A1E0B0E0E3EB9B
:10276000F3E10C94372F8C01DC01ED91FC91048096
:10277000F581E02D0995009751F0F8018485BE019F
:102780006F5F7F4F0E94D71D898190E002C08FEF5D
:102790009FEF2196E4E00C94532FFC0184850E9466
:1027A0009B1D0895A1E0B0E0E8EDF3E10C94392F12
:1027B000FC018485BE016F5F7F4F41E050E00E94C5
:1027C0009B1D181619061CF4898190E002C08FEF3A
:1027D0009FEF2196E2E00C94552FA5E3B0E0E3EFE4
:1027E000F3E10C94332F7C018B016A01CE014396F7
:1027F0000E94290BCE014B960E94B416CE010D9675
:102800000E94290BCE0107966FED76E00E945813C7
:10281000CE014396BE01695F7F4F0E94CC26CE0158
:102820004396B801AE01435F5F4F0E94012981309A
:102830009105C1F4D701ED91FC910484F585E02D5B
:1028400081E994E09A8389838F859889A989BA89D7
:102850008B839C83AD83BE83C701BE016F5F7F4FB7
:10286000A6010995E596E8E00C944F2FFC016485DC
:10287000643031F08DE697E00E94A01F9C0102C0F9
:1028800020E030E0C90108950F931F93CF93DF93A9
:102890008C01EA01FC018485843019F481E090E028
:1028A00007C00E94481D009739F481E090E0F801CC
:1028B00093838283C0E0D0E0CE01DF91CF911F915E
:1028C0000F910895FC011382128248EE53E060E0FC
:1028D00070E0448355836683778387E994E091832E
:1028E000808384E084870895FC018485843041F0EE
:1028F000382F20E0C9018D5F9B4F0E94F31E089581
:1029000080E00895CF93DF93EC018C858430D1F083
:10291000CE010E947414843181F0882371F08831D3
:1029200061F08C3161F4E881F9810480F581E02D5A
:10293000CE01099521E0009719F420E001C021E0C3
:10294000822F01C080E0DF91CF910895CF92DF9276
:10295000EF92FF92CF93DF93EC018C858430A9F145
:102960000E94411D0E9463086B017C01CE010E9400
:102970007414882381F00E946308DC01CB018C1958
:102980009D09AE09BF09883E23E0920720E0A20717
:1029900020E0B20798F0CE010E947414882319F049
:1029A0008C850E94BE1CEC85F0E0EE0FFF1FE95104
:1029B000F94F1182108284E08C8707C061E070E0DB
:1029C00080E090E00E949F08D1CFDF91CF91FF90EF
:1029D000EF90DF90CF900895A1E0B0E0E2EFF4E156
:1029E0000C94312F5C017B016A01FC0184858430E9
:1029F00009F055C003E014E020E0C80129830E94DB
:102A0000F31E2981882321F0883111F08C3119F4CB
:102A1000F501248705C02F5F00501F4F243069F750
:102A2000F50184858430D9F120917B0230917C02BC
:102A30002F5F3F4F30937C0220937B02211531059D
:102A400031F420E034E030937C0220937B0240910B
:102A50007B0250917C0261E020E00E94CC1CB70117
:102A60006E5F7F4FF5018485A6010E940C1D09C091
:102A700061E070E080E090E00E949F08C5010E9444
:102A80007414882321F484E0F501848708C0C5010B
:102A90000E947414873161F781E090E002C080E009
:102AA00090E02196EAE00C944D2F0F938FE597E08C
:102AB00060E040E020E000E00E94330B0F910895B9
:102AC000DC01ED91FC91008CF18DE02D09950895CC
:102AD00021E934E0FC0131832083FB0141895289E3
:102AE00063897489FC0142835383648375830895E9
:102AF000FC01858996890895FC01818D928D089548
:102B0000A1E0B0E0E6E8F5E10C94392F6983DC013F
:102B1000ED91FC910280F381E02DBE016F5F7F4F4C
:102B200041E050E009952196E2E00C94552FCF93B7
:102B3000DF93EC0107C0E881F9810680F781E02D81
:102B4000CE010995898D9A8D0097A9F7DF91CF91D4
:102B50000895A1E0B0E0EFEAF5E10C94392FFC0113
:102B6000818D928D009749F08485BE016F5F7F4F04
:102B70000E94D71D898190E002C08FEF9FEF2196C0
:102B8000E2E00C94552FCF93DF93EC019A01498D2D
:102B90005A8D4115510589F08C852417350708F4A5
:102BA000A9010E949B1D181619063CF4298D3A8D27
:102BB000281B390B3A8F298F02C08FEF9FEFDF91CF
:102BC000CF910895A1E0B0E0E8EEF5E10C94372F45
:102BD0008C01FC01818D928D0097A1F08485BE014E
:102BE0006F5F7F4F41E050E00E949B1D1816190651
:102BF0004CF4F801818D928D0197928F818F89819C
:102C000090E002C08FEF9FEF2196E4E00C94532FE9
:102C1000CF93DF93EC019B01FA016F89788D8C854E
:102C2000A9019F010E94E61D2F89388D280F391FA9
:102C3000388F2F8BDF91CF910895FC0184850E94FE
:102C40003F1E0895FC01108E178A6E5F7F4F8485AA
:102C50000E941A1E0895A8E0B0E0E1E3F6E10C94AA
:102C6000372F8C01DC01ED91FC910284F385E02D7E
:102C700009958DE697E0F80164850E94A01F0097F2
:102C800021F1D8011C968C91BE016F5F7F4F48E007
:102C900050E00E949B1D18161906CCF4C8010F962F
:102CA000BE016F5F7F4F0E94520B9D8180E02E819D
:102CB000820F911DF801968B858B9F8180E028857E
:102CC000820F911D928F818F02C080E090E0289644
:102CD000E4E00C94532FCF93DF93EC018C85843088
:102CE00061F00E94BE1CEC85F0E0EE0FFF1FE95181
:102CF000F94F1182108284E08C87DF91CF91089583
:102D0000A1E0B0E0E6E8F6E10C94332F6C017B0122
:102D1000FC018485843019F503E014E020E0C8014B
:102D200029830E94F31E2981882311F0883119F428
:102D3000F601248705C02F5F00501F4F243079F71C
:102D4000F6018485843059F0F686E586128E118E60
:102D500062E0A70120E00E94CC1C81E001C080E07D
:102D60002196E8E00C944F2FFC011382128248EE6A
:102D700053E060E070E0448355836683778383EBA0
:102D800094E09183808384E08487CF010F960E9432
:102D9000290B0895A5E3B0E0E0EDF6E10C94332FA4
:102DA0007C018B016A01CE0143960E94290BCE0162
:102DB0004B960E94B416CE010D960E94290BCE01AF
:102DC00007966FED76E00E945813CE014396BE0140
:102DD000695F7F4F0E94CC26CE014396B801AE01B9
:102DE000435F5F4F0E94012981309105C1F4D701F3
:102DF000ED91FC910088F189E02D81E994E09A83BE
:102E000089838F859889A989BA898B839C83AD83AF
:102E1000BE83C701BE016F5F7F4FA6010995E5968E
:102E2000E8E00C944F2F0F9385E697E060E040E0D8
:102E300020E000E00E94330B0F910895FC017583A0
:102E40006483718760875783468353874287158AD7
:102E5000158614861786168621E0248B8FEF9FEF48
:102E6000938B828B918B808B268B0895A4E0B0E0AE
:102E7000ECE3F7E10C94292F2C017C836B836A012E
:102E800059011701C801841B950B97FF03C090954A
:102E900081959F4F95014B815C81241B350B37FF3A
:102EA00003C0309521953F4F41E0642E712C2817C7
:102EB000390714F0662477246114710459F09A2DAF
:102EC0008B2D5801092F182F9B818C81DC82CB829E
:102ED000C92ED82E8B819C81A816B9065CF49C2D36
:102EE0008D2D6801092F182F9B818C81BC82AB82AC
:102EF000A92EB82ED501EB81FC81AE1BBF0BBA8386
:102F0000A98348018C189D0897FE04C09094819471
:102F10009108939489819A8162E070E00E94D92E91
:102F20007B01C016D1061CF401E010E027C00FEFB2
:102F30001FEF24C0D201ED91FC9111970480F5811F
:102F4000E02DC2016114710421F0B6014B815C8156
:102F500003C06B817C81A60191010995E818F908ED
:102F6000F7FE06C0C00ED11EE981FA81EE0EFF1EEB
:102F70002B813C812F5F3F4F3C832B834B815C81B6
:102F8000A416B506BCF62496E2E10C94452FA0E009
:102F9000B0E0EDECF7E10C942D2FEC016B015A0140
:102FA00039014801E881F9810484F585E02D870124
:102FB0000995E881F981A501480D591D41505040FE
:102FC0000484F585E02DCE01B60193010995E881D1
:102FD000F9810284F385E02DCE01B601A5019401AB
:102FE0000995E881F981B601660D771D6150704041
:102FF0000284F385E02DCE01A50194010995CDB79A
:10300000DEB7EEE00C94492FA0E0B0E0EAE0F8E192
:103010000C94332FEB01D9017801FC01208131811F
:10302000A40FB51F1197F901C084D1849E018D01B1
:10303000F6010995CDB7DEB7E8E00C944F2FEF927B
:10304000FF920F931F93CF93DF93DA017801EC0186
:10305000E881F981260F371F215030400084F18527
:10306000E02D8D010995CDB7DEB7E6E00C94512F28
:10307000A0E0B0E0EEE3F8E10C942D2F5C013A0102
:1030800069014801EB01C60ED71E0DC0D501ED91B7
:10309000FC910284F385E02DC501BE01A3019401DA
:1030A000870109952196CC15DD0584F3CDB7DEB7F0
:1030B000EEE00C94492FAFE0B0E0E1E6F8E10C94CB
:1030C000292F5C015E834D83422F18870F83FA8678
:1030D000E986DC0118968D919C91199768177907FC
:1030E0000CF0B1C01A968D919C911B97ED81FE81D9
:1030F000E817F9070CF0A7C02C2D30E0C901880FA4
:10310000991F880F991F820F931F860F971F1816FC
:1031100019060CF098C0C90153E0880F991F5A9501
:10312000E1F78E0F9F1F181619060CF08CC0842F24
:1031300090E04C01880C991C880C991C880E991EF3
:10314000C9821A821B017C836B8330E02C2D3530C1
:1031500029F0F401E05AFC4FE49101C0E0E0C22CF8
:103160003D866D807E802301DD243F872E872E2FB4
:1031700030E03C872B87E0FF1EC0D501ED91FC912C
:10318000BE85B13051F40480F581E02DC5016B811D
:103190007C81A2012F81388524C00088F189E02D2F
:1031A000C5016C2D7D85A3012E8530E0022F10E036
:1031B000EF80F88425C0E985FA852F813885E217EC
:1031C000F307F9F0D501ED91FC91BE85B13059F4CA
:1031D0000480F581E02DC5016B817C81A2012985E8
:1031E0003A8509950EC00088F189E02DC5016C2D46
:1031F0007D85A3012E8530E0022F10E0E984FA845A
:103200000995EB85FC85F595E795D39429813A815D
:10321000620E731E0894411C511C38E0D31609F04D
:10322000A6CF3F852E853F5F89819A81280E391E62
:10323000AB81BC811196BC83AB830894811C911C2B
:10324000363009F084CF2F96E2E10C94452FCF92CF
:10325000EF92FF920F931F93CF93DF93EC01262FF2
:103260006A3061F42C8930E013E0220F331F1A9585
:10327000E1F78E859F85820F931F3AC06D30E1F193
:103280004C855D85EE85FF8508891989EA88FB886C
:10329000BA01AF01CC880E945B184C8950E09A01BA
:1032A000220F331F240F351F220F331F8C859D855E
:1032B000280F391F3D872C878E898823E9F08AEFF4
:1032C0009FEF489FB001499F700D589F700D1124CA
:1032D00088859985680F791F621773076CF4B3E0CE
:1032E000440F551FBA95E1F78E859F85840F951F72
:1032F0009F878E871D861C8681E090E0DF91CF91AD
:103300001F910F91FF90EF90CF900895FC0175876A
:103310006487578746870895662309F461E0FC01B6
:10332000648B0895FC01718B608B738B628B0895A5
:10333000FC0185898370858B0895FC0180859185CA
:103340000895FC01828593850895A0E0B0E0EBEA42
:10335000F9E10C94332FEC017B018A01690177FDBF
:1033600064C00E949D19E816F9060CF05EC017FDB6
:103370005CC0CE010E94A119081719070CF055C0B6
:1033800049C08C819D81801B910B87017C01089431
:10339000E108F10818C08C819D819C012E193F091C
:1033A00079010894E108F1088E819F819C01201B1E
:1033B000310B890106C08E819F818E199F0978018A
:1033C0008C0101501040C80168E070E00E94D92EC5
:1033D000FB01F695FE2FEE27F795E795EE0DFF1D05
:1033E000E358FD4F31E0C316D10441F402C0CC0CC8
:1033F000DD1C8A95E2F780818C290AC021E030E04B
:1034000002C0220F331F8A95E2F720958081822324
:1034100080830BC0CE010E949819823009F4BBCF83
:10342000833049F2813079F6ACCFCDB7DEB7E8E032
:103430000C944F2FEF920F93FC011382128287EDB1
:1034400094E091838083E48E038F228F418F608F7D
:103450000F91EF90089580E092E0EDE7F2E0DF0158
:103460009C011D9221503040E1F70895FC0188E055
:1034700090E030E8A78DB0A14C9126A1209524239F
:103480002C93432F4623A58DB68D25A1442321F0EF
:103490004C91422B4C9304C04C91209524232C93A7
:1034A000A78DB0A12C9146A1242B2C933695019782
:1034B00009F708951F93CF93DF93EC01162F888DA2
:1034C0008F3FF1F0E9A1FAA180819FA1892B808330
:1034D000EBA1FCA1908188A5809589238083E9A137
:1034E000FAA190818FA1809589238083CE010E94CB
:1034F000361AE9A1FAA180819FA1892B808316C089
:103500006F89772767FD709589E897E00E94262AE2
:1035100089E897E060E00E94E12989E897E0612F5F
:103520000E94E12989E897E00E943C2ADF91CF912F
:103530001F910895662311F067EA01C066EA0E94B0
:103540005A1A08950F931F93CF93DF93EC01162F10
:10355000042F60E870E040E250E00E941E170F8BDD
:10356000888D8F3F09F468C061E00E943009898D21
:1035700061E00E9430098A8D61E00E9430098C8DE3
:1035800061E00E943009298D332727FD3095F9012C
:10359000E35DFC4FE491F0E0EE0FFF1FE55BFC4FB5
:1035A000859194918F8F98A3275E3C4FF9012491C8
:1035B0002EA3288D332727FD3095F901E35DFC4FBD
:1035C000E491F0E0EE0FFF1FE55BFC4F85919491D5
:1035D0008D8F9E8F275E3C4FF90124912DA32C8D5A
:1035E000332727FD3095F901E35DFC4FE491F0E0CE
:1035F000EE0FFF1FE55BFC4F8591949189A39AA381
:10360000275E3C4FF90124912FA32A8D332727FDF4
:103610003095F901E35DFC4FE491F0E0EE0FFF1F00
:10362000E55BFC4F859194918BA39CA3275E3C4F57
:10363000F901249128A704C089E897E00E94112A83
:103640008B8D61E00E9430098B8D61E00E946409DE
:1036500061E070E080E090E00E949F088B8D60E068
:103660000E9464096AE070E080E090E00E949F0898
:103670008B8D61E00E946409CE016EEA0E945A1AA5
:10368000CE0165ED0E945A1ACE0160E80E945A1AD6
:10369000CE0168EA0E945A1ACE016FE10E945A1ABE
:1036A000CE0163ED0E945A1ACE0160E00E945A1AC0
:1036B000CE0160E40E945A1ACE016DE80E945A1AA7
:1036C000CE01113011F460E101C064E10E945A1A88
:1036D000CE0160E20E945A1ACE0160E00E945A1A9E
:1036E000CE0161EA0E945A1ACE0168EC0E945A1A71
:1036F000CE016AED0E945A1ACE0162E00E945A1A67
:10370000CE0161E80E945A1ACE016FE80E945A1A4F
:10371000CE0169ED0E945A1ACE01113011F462E215
:1037200001C061EF0E945A1ACE016BED0E945A1A35
:10373000CE0160E40E945A1ACE0164EA0E945A1A2D
:10374000CE0166EA0E945A1ACE016FEA0E945A1A06
:10375000DF91CF911F910F910895A0E0B0E0E3EBCE
:10376000FBE10C94322F8C0160E00E945A1AC801D0
:1037700060E10E945A1AC80160E40E945A1AD801F6
:1037800058968C9158978F3F09F443C09196ED91CC
:10379000FC919297808197969C919797892B808333
:1037A0009396ED91FC919497808198969C9198972F
:1037B000892B80839196ED91FC91929790819796B9
:1037C0008C918095892380839DE7E92E92E0F92EE4
:1037D000C0E0D0E0F70161917F01C8010E94361A74
:1037E0002196F2E0C030DF07A9F7C0E0D2E0C801BF
:1037F00060E00E94361A2197D1F7D8019196ED9199
:10380000FC919297808197969C919797892B8083C2
:1038100064C0B090B8008CE08093B800CC24DD2464
:10382000F8016789772767FD709589E897E00E941E
:10383000262AE0918907F0918A070190F081E02D16
:1038400089E897E060E40995EE24FF24E601C35877
:10385000DD4FFE01EE0DFF1D89E897E060810E94BB
:10386000E1290894E11CF11CF0E1EF16F10489F75D
:1038700080E190E0C80ED91E89E897E00E943C2ABA
:1038800090E0C91692E0D90659F6C0E2D0E0D8011E
:1038900057966C91772767FD709589E897E00E94AD
:1038A000262AE0918907F0918A070190F081E02DA6
:1038B00089E897E060E4099580E1E82E89E897E0DF
:1038C00060E00E94E129EA94C9F789E897E00E9444
:1038D0003C2A2197E1F6B092B800CDB7DEB7E9E017
:1038E0000C944E2F90E0982F8827845F9B4F44E0E4
:1038F00050E00E94C91E089590E00496982F8827F2
:10390000860F971F0E94F31E089562E070E00E94E8
:103910007C1C089590E00496982F8827860F971FA7
:10392000642F0E946B1E0895462F62E070E00E9493
:103930008A1C0895CF93DF93C82FD62F472F60E1BD
:1039400070E00E948A1C8C2F61E170E04D2F0E9474
:103950008A1CDF91CF910895CF93DF93C82FD62F84
:10396000472F64E070E00E948A1C8C2F65E070E0B5
:103970004D2F0E948A1CDF91CF910895CF93C82FBD
:103980008DE697E06C2F40E10E9485208C2F6FEF31
:103990000E94941CCF910895EF92FF921F93CF93B2
:1039A000DF9300D0CDB7DEB7182F7A01862F815074
:1039B000853048F5812F2A8369830E94BE1C2A81A5
:1039C0006981422F462B812F60E070E00E948A1CA3
:1039D000E114F10419F0812FB7010BC060916B075E
:1039E00070916C076F5F7F4F70936C0760936B07EC
:1039F000812F0E94AC1C8DE697E0612F41E00E9470
:103A0000852081E001C080E00F900F90DF91CF9181
:103A10001F91FF90EF9008951F93CF93DF93182F7E
:103A2000FB01EA0180818F3F51F481818F3F91F446
:103A300082818F3F79F483818F3F61F41DC0882399
:103A400049F48181882331F48281882319F48381A8
:103A5000882391F0209781F0812FBF010E94721C72
:103A6000812FBE010E949A1C8DE697E0612F44E0F1
:103A70000E94852081E001C080E0DF91CF911F91FD
:103A80000895682F8DE697E048E00E94852008950C
:103A9000CF92DF92EF92FF921F93CF93DF93182F75
:103AA0006B017A0188E04130580718F0E12C68E09A
:103AB000F62E8DE697E0612F0E94D01FEC01812F3A
:103AC00063E070E00E947C1C873111F08C3121F49E
:103AD000CE15DF0570F302C0EE24FF248DE697E0DB
:103AE000612FA60197010E947F1F8DE697E0612F4D
:103AF00040E20E9485200DC0812F63E070E00E94AB
:103B00007C1C882331F4812F0E94BE1CEE24FF24EC
:103B100009C0812F0E94851C84FFEECF812F60E1B8
:103B20000E94941CC701DF91CF911F91FF90EF90ED
:103B3000DF90CF900895A0E0B0E0E1EAFDE10C94C1
:103B4000332F182F6B01EA018DE697E0612F0E9459
:103B5000A01F7C01009761F4812F63E070E00E9458
:103B60007C1C8431D1F08823C1F08C31B1F01BC0B2
:103B7000C817D9070CF47E011E141F0474F48DE6D7
:103B800097E0612FA601970100E00E944D208DE68D
:103B900097E0612F40E40E948520C701CDB7DEB7D2
:103BA000E8E00C944F2FEE24EA94FE2CF6CF0F930E
:103BB000282FAB018DE697E0622F21E030E001E095
:103BC0000E944D2081E090E00F910895AF92BF9246
:103BD000CF92DF92FF920F931F93CF93DF93F82E34
:103BE0006B015A0189018DE697E06F2D0E94D01F6D
:103BF0008017910740F48DE697E06F2D0E94D01F4B
:103C0000D82FC92F02C0D02FC12F8DE697E06F2D7E
:103C1000A60195010D2F1C2F0E94121F8D2F9C2F86
:103C2000DF91CF911F910F91FF90DF90CF90BF90C8
:103C3000AF9008951F93CF93DF93182FFB01EA01F4
:103C40008081882349F48181882331F4828188230B
:103C500019F48381882369F0209759F0812FBF01DF
:103C60000E94721C812FBE010E949A1C81E090E08C
:103C700002C080E090E0DF91CF911F910895CF9333
:103C8000C82F8DE697E06C2F40E20E9485200CC083
:103C90008C2F0E94851C83FF07C08C2F68E10E9437
:103CA000941C80E090E00BC08C2F0E94851C84FF48
:103CB000EFCF8C2F60E10E94941C81E090E0CF91C7
:103CC00008958EBD0DB407FEFDCF8EB508952A98D8
:103CD00008952A9A0895A2E0B0E0E1E7FEE10C948D
:103CE000382F182F6A8399830E94671E80EF0E94E5
:103CF000611E9981892F0E94611E812F0E94611E81
:103D00006A81862F0E94611E0E94691E81E02296B0
:103D1000E3E00C94542FCF93DF93EC016CE271E05D
:103D200080E090E00E949F080E949520229A80E007
:103D300090E060E80E946B1E8BE190E065E50E94D8
:103D40006B1E8AE190E065E50E946B1E80E090E4C6
:103D50009983888380E090E69987888780E098E45B
:103D60009B838A8380E098E69B878A8780E090E542
:103D70009D838C8380E090E79D878C8780E098E529
:103D80009F838E8380E098E79F878E87DF91CF9116
:103D90000895A0E0B0E0EFECFEE10C94332F8C012D
:103DA0006A017B01C0E0D0E015C00E94671E80EF71
:103DB0000E94611E812F0E94611E802F0E94611E41
:103DC0000F5F1F4FF70181917F010E94611E0E94CA
:103DD000691E2196CC15DD0541F7CE01CDB7DEB7C2
:103DE000E8E00C944F2FA1E0B0E0E9EFFEE10C9485
:103DF000382F182F99830E94671E8FE00E94611E42
:103E00009981892F0E94611E812F0E94611E80E08E
:103E10000E94611E89830E94691E89812196E3E0C8
:103E20000C94542F6F927F928F929F92AF92BF9279
:103E3000CF92DF92FF920F931F93CF93DF935C019A
:103E4000F62E3A0149016801862F64E270E00E9473
:103E50007C1CC82F8F2D65E270E00E947C1C3C2FDB
:103E600020E0082F10E0022B132B060D171DA801D0
:103E700057708F2D90E0880F991FA80EB91EF5017D
:103E800020813181240F351FCA018C0D9D1DF8E062
:103E900081309F0798F0C0E0D8E0C41BD50BC90162
:103EA000B401AE010E94C91EB4016C0F7D1FA601B2
:103EB0004C1B5D0BF5018081918103C0C901B401E8
:103EC000A6010E94C91E0C0D1D1D8F2D64E270E01D
:103ED000412F0E948A1C8F2D65E270E0402F0E94C6
:103EE0008A1CDF91CF911F910F91FF90DF90CF90AF
:103EF000BF90AF909F908F907F906F9008950F9399
:103F00001F93FA01890140E050E09F010E94121FB7
:103F10001F910F910895CF93DF93C82F66E270E051
:103F20000E947C1CD82F8C2F67E270E00E947C1CC2
:103F30003D2F20E090E0822B932BDF91CF910895CD
:103F4000FF920F931F93CF93DF93F62EC0E0D0E044
:103F50008F2D0E948B1F8C01009721F08F2D0E94C6
:103F60008B1FEC01C017D10799F7CE01CDB7DEB793
:103F7000E5E00C94522FCF93DF93C82F60E270E0FE
:103F80000E947C1CD82F8C2F61E270E00E947C1C68
:103F90003D2F20E090E0822B932BDF91CF9108956D
:103FA000FF920F931F93CF93DF93F62EC0E0D0E0E4
:103FB0008F2D0E94BB1F8C01009721F08F2D0E9436
:103FC000BB1FEC01C017D10799F7CE01CDB7DEB703
:103FD000E5E00C94522FA0E0B0E0E1EFFFE10C949B
:103FE000332F8C016A017B01C0E0D0E016C00E9433
:103FF000671E8FE00E94611E812F0E94611E802F2C
:104000000E94611E0F5F1F4F80E00E94611EF7013A
:1040100081937F010E94691E2196CC15DD0539F739
:10402000CE01CDB7DEB7E8E00C944F2FA0E0B0E0B2
:10403000ECE1F0E20C94332F690178015770C62F40
:10404000D0E02496CC0FDD1FC80FD91F28813981FD
:10405000240F351FC801840F951F68E08130960733
:1040600090F000E018E0041B150BC901B601A8018F
:104070000E94EB1FB601600F711FA701401B510B7F
:104080008881998103C0C901B601A8010E94EB1F74
:10409000CDB7DEB7E8E00C944F2FA0E0B0E0E3E549
:1040A000F0E20C942F2F5C01F62E4A016901E02EFC
:1040B000862F68E270E00E947C1CC82F8F2D69E279
:1040C00070E00E947C1C3C2F20E0C82FD0E0C22B67
:1040D000D32BC5016F2DAE01940186010E941620DD
:1040E000EE2071F4CC0DDD1D8F2D68E270E04D2FB8
:1040F0000E948A1C8F2D69E270E04C2F0E948A1C5E
:10410000CDB7DEB7ECE00C944B2FCF93C62F862FA4
:1041100061E070E00E948A1C8C2F61E070E00E94D8
:104120007C1C8823C9F7CF9108958AE061E00E9442
:1041300064098AE061E00E9430098CB580618CBD21
:104140008CB580648CBD8DE061E00E9430098BE00D
:1041500061E00E94300908950E96FC0184E1DF01C0
:104160001D928A95E9F70895A2E3B0E0EAEBF0E248
:104170000C94292F4C012A013B0189010E946308FC
:104180006B017C01E7E4AE2EB12CA80CB91C14C065
:104190000E946308DC01CB018C199D09AE09BF099F
:1041A000481659066A067B0608F410C262E370E0FE
:1041B00080E090E00E949F08C5010E942B1618160F
:1041C000190634F7C501BE01695F7F4F42E250E036
:1041D0000E94C3158F81823009F0F3C1F5018589F2
:1041E00096898334910509F0ECC14B855C856D851A
:1041F0007E85C72EDD24EE24FF24B42FAA2799271D
:104200008827C82AD92AEA2AFB2AB62FA52F942F55
:10421000882780709070B070C82AD92AEA2AFB2AB1
:10422000452F562F672F7727407060707070C42A13
:10423000D52AE62AF72AF801C082D182E282F382E7
:10424000B401685F7F4FCE01839646E050E00E9444
:10425000D231009799F4F40180819181A281B381D8
:10426000C816D906EA06FB0648F084819581A68126
:10427000B7818C159D05AE05BF0528F4C5010E94C8
:1042800097154424A5C18F89988DA98DBA8DF40105
:1042900086879787A08BB18B0EEC10E0C5010E943A
:1042A000E21501501040D1F7442482E2682E712CAF
:1042B000680C791C96E2292E312C280C391CC4017B
:1042C0008A969AA789A72AE1E22EF12CE80CF91C1C
:1042D000F401E85AFF4FFCA7EBA7C40142969EA742
:1042E0008DA7F4017696F8ABEFA7C4014E969AAB72
:1042F00089AB67015EC1C5010E94E2158333910558
:1043000009F410C18433910594F48130910579F159
:104310008230910524F4009709F44BC13CC18330ED
:10432000910561F18630910509F035C142C08A33AB
:10433000910509F48CC08B33910544F485339105C4
:1043400071F08633910509F026C14EC08B3391057B
:1043500009F4B2C08F3F910509F01DC12AC1C50102
:104360000E94E215C5010E94E215482E22C1C50136
:104370000E94E215C5016DA57EA55CC0C5010E9425
:10438000E215082FC5016FA578A944E050E00E940E
:10439000C315EE24FF2410E00450104006C0C501F0
:1043A0000E94E2150894E11CF11CE016F106BCF332
:1043B00000C1C5010E94E215082FC50169A97AA9AB
:1043C00044E050E00E94C315EE24FF2410E00450A6
:1043D000104006C0C5010E94E2150894E11CF11CC2
:1043E000E016F106BCF3E5C0C5010E94E215E82E17
:1043F000F401828D938DA48DB58D0097A105B10533
:10440000B9F0CE010196B6010E943F0B8B819C81D1
:10441000AD81BE81EBA5FCA5408151816281738194
:1044200084179507A607B70719F000E010E00CC045
:10443000C501B60144E050E00E94C315BAC0C501F1
:104440000E94E2150F5F1F4FE016C9F7B2C0C50109
:104450000E94E215C501B10144E050E00E94C3157D
:10446000F40106A117A120A531A5432F55276627E2
:104470007727B02FAA2799278827482B592B6A2BF3
:104480007B2BB22FA12F902F882780709070B07057
:10449000482B592B6A2B7B2BBB27A32F922F812FC5
:1044A0008070A070B070482B592B6A2B7B2B46A3D1
:1044B00057A360A771A77DC0C5010E94E215C50181
:1044C00069A57AA544E050E00E94C315F40102A555
:1044D00013A524A535A5432F552766277727B02F89
:1044E000AA2799278827482B592B6A2B7B2BB22F79
:1044F000A12F902F882780709070B070482B592B77
:104500006A2B7B2BBB27A32F922F812F8070A0704B
:10451000B070482B592B6A2B7B2B42A753A764A75B
:1045200075A747C0C5010E94E215C501B30144E06B
:1045300050E00E94C315F40102A113A124A135A1EA
:10454000432F552766277727B02FAA279927882733
:10455000482B592B6A2B7B2BB22FA12F902F88270A
:1045600080709070B070482B592B6A2B7B2BBB2727
:10457000A32F922F812F8070A070B070482B592BE1
:104580006A2B7B2B42A353A364A375A346A757A70B
:1045900060AB71AB0EC0C5010E94E215E82E00E0D1
:1045A00010E005C0C5010E94E2150F5F1F4FE01625
:1045B000C9F7C5010E947C15181619060CF49BCE8C
:1045C00001C04424C5010E94971502C044244A94A6
:1045D000842DE296E2E10C94452FCF93DF93EC011A
:1045E000625F7F4F0E943F0BCE01DF91CF91089514
:1045F000CF93DF93EC016E5E7F4F0E943F0BCE01A5
:10460000DF91CF910895CF93DF93EC016A5E7F4FE6
:104610000E943F0BCE01DF91CF910895CF93DF939E
:10462000EC01625E7F4F0E943F0BCE01DF91CF9184
:10463000089580E3FB018083329601C0482F842FC8
:1046400082958F704F704A3010F4405D01C0495C14
:104650004293882399F70895ACE2B0E0E2E3F3E2F5
:104660000C942C2F7C01562E842E652E2DE0C22E0C
:10467000D12CCC0EDD1E30E2932EF601292D1192A5
:104680002A95E9F7CE0107966FEF4FEF2FEF0FEF67
:104690000E94330B47E4A42EB12CAE0CBF1C81E961
:1046A00094E09A83898389859A85AB85BC858B83C1
:1046B0009C83AD83BE83C501BE016F5F7F4F43E422
:1046C00050E00E942216EFEF8F3F9E0709F4ECC0E6
:1046D00081E08D878E8786E08F87188AF7010481B5
:1046E000158126813781432F552766277727B02FDD
:1046F000AA2799278827482B592B6A2B7B2BB22F67
:10470000A12F902F882780709070B070482B592B64
:104710006A2B7B2BBB27A32F922F812F8070A07039
:10472000B070482B592B6A2B7B2B498B5A8B6B8B88
:104730007C8B6D8A8E8A80E890E0988F8F8BC50184
:10474000B6014CE150E00E940816F60111929A94CD
:10475000E9F788E0682E712C6E0C7F1CF601D301FE
:1047600086E00D9001928150E1F7FDE0CF2ED12C33
:10477000CC0EDD1EC501B60140E150E00E940816D6
:1047800080E2F60111928A95E9F706E010E09C2C90
:10479000CD2CC501692D7C2D40E250E00E94081609
:1047A00001501040B1F783E68D8792E89E8793E52C
:1047B0009F87888B85E3898B81E08A8B5B8A9DE369
:1047C0009C8B97E09D8B8E8BDE015796F30186E0E4
:1047D00001900D928150E1F78CE08D8F8E8FCE018C
:1047E0004F966BE572E00E94E831C701BE016B5D38
:1047F0007F4FF70143850E941923C701BE01695D00
:104800007F4FF70144850E941923C701BE01675DF0
:104810007F4FF70145850E941923C501BE01635FE3
:104820007F4F4EE150E00E940816F3E05F1601F55D
:1048300082E38D8784E08E87F70196859F87978531
:10484000988B9089998B91899A8B96E39B8B8C8B13
:10485000828D8D8B838D8E8B848D8F8B858D888FB4
:10486000C501BE01635F7F4F4CE050E00E94081617
:1048700087E38D8786E08E8791E09F8793E0988B12
:10488000898B8FE08A8B8AE38B8B8BE38C8B8FEF0A
:104890008D8BC501BE01635F7F4F49E050E00E94F0
:1048A0000816C5010E941D16AC96EFE00C94482F27
:1048B000A8E0B0E0EEE5F4E20C94292F8C0161E071
:1048C00070E080E090E020ED37E040E050E00E94B2
:1048D000792CD80114966C93149715967C931597A0
:1048E00016968C93169717969C9317976C93119620
:1048F0007C93119712968C93129713969C93F801C0
:10490000E95BFF4FFE83ED83CF010E946B168D8123
:104910009E8164E470E00E948016882309F42AC115
:104920000E9463084B015C0122243324FF2456E4D7
:10493000C52ED12CC00ED11EC801CE9698878F836C
:10494000E3E0EE2EF8EE4F2EF3E05F2E612C712C9B
:10495000FBC08823F9F4F80184819581A681B78191
:104960000196A11DB11D84839583A683B7830E9400
:104970006308681979098A099B09A30192010E94B9
:10498000EC2EC80161E0A9010E942C2381E0D60130
:104990008C93BEC08430F9F4F80184819581A6819E
:1049A000B7810196A11DB11D84839583A683B7832A
:1049B0000E946308681979098A099B09A301920179
:1049C0000E94EC2EC80163E0A9010E942C23E2E0C2
:1049D000D601EC939DC0813061F5AF81B8854D91D2
:1049E0005D916D917C91C8019E012F5F3F4F0E94A8
:1049F000B420F82EB2E08B1709F08AC089819A8121
:104A0000AB81BC81F80184839583A683B7830E9420
:104A10006308681979098A099B09A30192010E9418
:104A2000EC2EC80163E0A9010E942C23D601FC9260
:104A300075C0823009F06CC0EF81F88540815181EA
:104A400062817381C8019E012F5F3F4F0E94B42095
:104A5000F82EF5E08F1709F055C0D601EC92F80159
:104A600082A193A1A4A1B5A10097A105B10541F42C
:104A700084E893E0A0E0B0E082A393A3A4A3B5A34D
:104A8000F80186A197A1A0A5B1A50097A105B10540
:104A900061F482A193A1A4A1B5A1B695A79597951C
:104AA000879586A397A3A0A7B1A7F80182A593A590
:104AB000A4A5B5A546A157A160A571A50097A1051C
:104AC000B10551F4DB01CA01880F991FAA1FBB1F52
:104AD00082A793A7A4A7B5A7D8019E964D935D93EF
:104AE0006D937C93D1979A968D919D910D90BC91E9
:104AF000A02DF80182AB93ABA4ABB5AB21E0222E85
:104B0000312C0CC0F6E08F1719F4D6011C9206C0A8
:104B1000BFEFFB1619F4F6011082FF24F1E02F1607
:104B2000310491F00E946308DC01CB0188199909D6
:104B3000AA09BB09F80142AD53AD64AD75AD481784
:104B400059076A077B0728F0D6018C91833009F05A
:104B500000CF8D819E810E946B16F8018481958122
:104B6000A681B7810196A11DB11D84839583A6837B
:104B7000B78302C022243324C1012896E2E10C94B9
:104B8000452FA0E0B0E0E7ECF5E20C942F2FEC010C
:104B90000E9463084B015C018EA99FA9A8ADB9AD25
:104BA0008E010E5B1F4F0097A105B10509F493C05C
:104BB000F80180819181A281B381A5019401281B14
:104BC000390B4A0B5B0BCA01B90157FD52C0A8EE65
:104BD000CA2EA3E0DA2EE12CF12CC80CD91CEA1C59
:104BE000FB1C28EE33E040E050E00E940E2FDC0179
:104BF000CB01C81AD90AEA0AFB0AF801C082D1829D
:104C0000E282F382DA01C9010196A11DB11D4EA510
:104C10005FA568A979A98C019D01000F111F221FB2
:104C2000331F40175107620773072CF41EA61FA6F7
:104C300018AA19AA08C0481B590B6A0B7B0B4EA770
:104C40005FA768AB79AB4AA95BA96CA97DA940179E
:104C50005107620773072CF41AAA1BAA1CAA1DAAE3
:104C600008C0481B590B6A0B7B0B4AAB5BAB6CABA8
:104C70007DABFE01EA5BFF4F8081833081F48EA51E
:104C80009FA5A8A9B9A9181619061A061B063CF073
:104C900084E08083CE010E945824019602C080E007
:104CA00090E0FE01EA5BFF4F2081233011F02223C8
:104CB000F9F44AA95BA96CA97DA914161506160674
:104CC0001706B4F01082CE010E94AC20CE010E94E3
:104CD000582403960DC0D501C40188519C4FAF4F95
:104CE000BF4FF80180839183A283B38380E090E07B
:104CF0008EAA9FAAA8AEB9AECDB7DEB7ECE00C94F1
:104D00004B2FA0E0B0E0E7E8F6E20C94312F6C0105
:104D10005B01DA01C901F60112A213A214A215A2C5
:104D200016A217A210A611A612A613A614A615A6BF
:104D300016AA17AA10AE11AE82AF93AFA4AFB5AF4B
:104D4000FE96E082F18202831383E601289686E0D4
:104D5000FE0111928A95E9F7C6010E94AC20F50187
:104D600086E0019009928150E1F7F601EA5BFF4F7E
:104D70001082C6010E945824CDB7DEB7EAE00C9439
:104D80004D2F0F938DE797E060E040E020E000E0DA
:104D90000E94330B0F910895CF93DF93FC01EB0139
:104DA0008A819B81AC81BD8182839383A483B583F7
:104DB00017821682DF91CF910895CF93DF93EA0196
:104DC000DB01FB0181918823E9F740E050E060E0DE
:104DD00070E01BC04F3F510509F06CF5FE01E60F76
:104DE000F71F42836F5F7F4F40E050E00EC09A0193
:104DF000220F331FE3E0440F551FEA95E1F7420FFE
:104E0000531F90E0C097480F591F8D91882331F0B0
:104E1000643071051CF48E3251F7DCCF4F3F5105E1
:104E200009F04CF46430710534F4C60FD71F4A837F
:104E300081E090E002C080E090E0DF91CF910895A2
:104E4000A3E0B0E0E6E2F7E20C942F2F8C01962E5F
:104E5000872E0E946308DC01CB01F80197838683CB
:104E6000A8E0EA2EF12CE00EF11EB8016A5F7F4F38
:104E7000C70142E050E00E94081681E090E09B8369
:104E80008A83C701BE016E5F7F4F42E050E00E94FF
:104E9000081680E091E09B838A83C701BE016E5FA4
:104EA0007F4F42E050E00E9408161B821A82C70121
:104EB000BE016E5F7F4F42E050E00E940816C701BE
:104EC000BE016E5F7F4F42E050E00E940816C701AE
:104ED000BE016E5F7F4F42E050E00E940816C92C71
:104EE000D82CA92CB82C1FC0F5016F018191882303
:104EF00011F08E32D1F786010A191B09101611061E
:104F000074F40983C701BE016F5F7F4F41E050E039
:104F10000E940816C701B501A8010E940816560193
:104F20000894A11CB11CF60180818823E9F619823E
:104F3000C701BE016F5F7F4F41E050E00E9408163D
:104F400000E011E01B830A83C701BE016E5F7F4F43
:104F500042E050E00E9408161B830A83C701BE018D
:104F60006E5F7F4F42E050E00E94081681E090E0C3
:104F70002396ECE00C944B2FA3E1B0E0E2ECF7E2D7
:104F80000C942B2F8C016B014A010E9463082B01AA
:104F90003C0128E0A22EB12CA00EB11EEE24FF246D
:104FA00014C00E946308DC01CB0184199509A6098D
:104FB000B709C816D906EA06FB0608F40FC162E372
:104FC00070E080E090E00E949F08C5010E942B16CF
:104FD0001816190634F7F80182819381A481B581EE
:104FE000418D528D638D748D84179507A607B70781
:104FF00009F0F7C0858D968D8533910509F0F1C0D4
:10500000F9C0B8E0EB2EF12CEC0EFD1EC501B70186
:105010004CE050E00E94C315F701428153815427B0
:10502000452754275F834E83F80186819781288521
:1050300039858217930711F457FD06C0C5010E94F8
:1050400097158CEF9FEFD2C04F70527041155105EC
:1050500031F0C5010E9497158BEF9FEFC7C0F70194
:1050600086819781582E492E4114510451F5C5016E
:105070000E9497158AEF9FEFB9C0C501BE016F5F0F
:105080007F4F41E050E00E94C3158981882321F4BD
:1050900009C0C5010E94E2158981982F915099831A
:1050A0008823B9F78981882341F704E010E0C5011E
:1050B0000E94E21501501040D1F70894C11CD11C88
:1050C00002C0CC24DD24F7018481958198278927AB
:1050D0009827C816D90688F2EE24FF24C501BE0120
:1050E0006F5F7F4F41E050E00E94C3158981982F88
:1050F000907C69F4882321F40EC0C5010E94E2155A
:105100008981982F915099838823B9F704C0C501EC
:105110000E94E21519828981882301F7C501BE0129
:105120006C5F7F4F42E050E00E94C315C501BE0195
:105130006E5F7F4F42E050E00E94C31504E010E034
:10514000C5010E94E21501501040D1F7C501BE0112
:105150006A5F7F4F42E050E00E94C3158C819D81C1
:10516000F1E080309F0719F58A819B8121E0803032
:105170009207E9F48E819F81E4E080309E0731F050
:10518000C5010E94971587EF9FEF30C0B4016E5F95
:105190007F4FC50144E050E00E94C31581E090E0DC
:1051A00025C0C5010E94E2150F5F1F4F02C000E03D
:1051B00010E08E819F819827892798270817190763
:1051C00080F30894E11CF11CE414F50409F086CF87
:1051D000C5010E94971586EF9FEF08C08FEF9FEFE4
:1051E00005C08EEF9FEF02C08DEF9FEF6396E0E169
:1051F0000C94472FC5010E947C158C309105A4F3B7
:1052000000CFA6E0B0E0E7E0F9E20C942F2F6C01AC
:105210007B014A010E94DD26009709F065C0F60176
:1052200082819381A481B581409185075091860741
:10523000609187077091880784179507A607B707BD
:1052400009F455C048E0A42EB12CAC0CBD1C0E9442
:1052500063086F70707060507C4FC5010E948016AB
:10526000813009F047C081E994E09A838983F6018F
:1052700082819381A481B5818B839C83AD83BE831E
:10528000C501BE016F5F7F4F45E350E00E942216CB
:105290008C01009729F1C601B7010E9420270097D1
:1052A000E9F0C5010E941D168C01009731F418C069
:1052B000FFEF0F3F1F07A1F403C033E0E32EF12CF3
:1052C000C60168E873E1A4010E94BC278C01089420
:1052D000E108F108E114F10419F0EACF00E010E070
:1052E000C5010E946B1608C001E010E005C00EEF7A
:1052F0001FEF02C000E010E0C8012696ECE00C941D
:105300004B2F0F9383E897E060E040E020E000E05F
:105310000E94330B0F9108958091B90790E020917E
:10532000BA07821B910908952091BA078091B907A5
:10533000281750F4E22FF0E0E554F84F808190E018
:105340002F5F2093BA0708958FEF9FEF0895E091A4
:10535000BA078091B907E81730F4F0E0E554F84F48
:10536000808190E008958FEF9FEF08950895A0E069
:10537000B0E0EDEBF9E20C94332F6C01CB018A0124
:10538000209195072223A1F07B01C0E0D0E00CC062
:10539000D7016D917D01D601ED91FC910190F081D5
:1053A000E02DC60109952196C017D10789F703C0E2
:1053B000642F0E94C72AC801CDB7DEB7E8E00C947D
:1053C0004F2FA1E0B0E0E7EEF9E20C94392F6983AA
:1053D000209195072223D1F020919607203240F0AA
:1053E00021E030E0FC013383228380E090E015C0AF
:1053F00080919707E82FF0E0E856F84F9981908365
:105400008F5F809397078093960705C0CE01019622
:1054100061E00E94C72A81E090E02196E2E00C94CE
:10542000552F1092BA071092B90710929707109251
:1054300096070E94572A089581E08093950760930C
:10544000B807109297071092960708950E941C2A99
:1054500008950F93062F8091B80768E977E040918F
:10546000960721E00E94752A1092970710929607DE
:10547000109295070F91089561E00E94292A0895DE
:1054800010928C0710928B0788EE93E0A0E0B0E0BA
:1054900080938D0790938E07A0938F07B09390070A
:1054A0008DEE94E090938A07809389070895109277
:1054B000E40781E08093E2071092E10782E161E076
:1054C0000E94640983E161E00E946409E9EBF0E075
:1054D00080818E7F808380818D7F808388E480932C
:1054E000B80085E48093BC0008950F93413208F022
:1054F00045C09091E4079923E1F792E09093E40787
:105500000093E2079FEF9093DB071092E007409330
:10551000DF07A5EEB7E0FB0102C091919D939E2F9E
:10552000961B9417D0F31092E3079091E307880F2E
:10553000892B8093E3078091E107813041F4109239
:10554000E1078091E3078093BB0085EC01C085EE05
:105550008093BC00222321F08091E4078230E1F3A4
:105560008091DB078F3F61F08091DB07803251F043
:105570008091DB07803341F483E007C081E005C000
:1055800080E003C082E001C084E00F9108956132A1
:1055900090F42091E407243081F46093DD07A5E0C6
:1055A000B8E0FC0102C091919D939E2F981B961725
:1055B000D0F380E0089581E0089582E00895882383
:1055C00011F085EC01C085E88093BC00089585ED5D
:1055D0008093BC008091BC0084FDFCCF1092E40756
:1055E000089585EC8093BC001092E40708951F9203
:1055F0000F920FB60F9211242F933F934F935F9307
:105600006F937F938F939F93AF93BF93EF93FF938A
:105610008091B90090E0887F90708036910509F400
:10562000CCC081369105E4F58832910509F47EC03D
:1056300089329105C4F48031910509F472C0813139
:10564000910544F4009709F41DC18830910509F0D3
:105650001DC167C08831910509F468C08032910589
:1056600009F014C177C08034910509F489C08134F0
:1056700091054CF48033910509F46EC0883391058F
:1056800009F004C16DC08035910509F46DC08835FD
:10569000910509F47AC08834910509F0F7C0F4C087
:1056A0008839910509F4E4C089399105ECF488370B
:1056B000910509F482C0893791054CF4883691052B
:1056C00009F47BC08037910509F0E0C076C08838C6
:1056D000910509F4CDC08039910509F474C0803872
:1056E000910509F0D3C06FC0803B910509F498C0C3
:1056F000813B91054CF4803A910509F476C0883AD3
:10570000910509F0C3C08CC0803C910509F4B4C078
:10571000883C910509F4B0C0883B910509F0B6C0FA
:1057200094C08091E3078093BB0012C09091E00782
:105730008091DF079817A8F58091E007E82FF0E047
:10574000EB51F84F90819093BB008F5F8093E007FF
:1057500081E08FC080E201C080E38093DB0794C0CA
:1057600088E38093DB0759C08091E0079091BB00EC
:10577000E82FF0E0EB51F84F90838F5F8093E007C4
:105780009091E0078091DF0770C08091E0079091D1
:10579000BB00E82FF0E0EB51F84F90838F5F8093D0
:1057A000E0078091E207882309F06EC081E08093D2
:1057B000E10784EA8093BC0062C083E08093E40741
:1057C0001092DC07C5CF8091DC07803208F050C012
:1057D0008091DC079091BB00E82FF0E0E75DF74F88
:1057E00090838F5F8093DC07B3CF8091DC0780329A
:1057F00030F4E091DC07F0E0E75DF74F10820E94A3
:10580000E72A6091DC07E0912508F091260889E2FB
:1058100098E070E009951092DC070E94F12A36C0EA
:1058200084E08093E4071092DE071092DD07E09198
:105830002708F091280809958091DD07882329F42D
:1058400081E08093DD07109205088091DE07E82F44
:10585000F0E0EB5FF74F90819093BB008F5F8093F8
:10586000DE079091DE078091DD07981708F470CF6E
:1058700080E00E94DF2A0AC081E00E94DF2A1092A5
:10588000E40704C01092DB070E94E72AFF91EF9122
:10589000BF91AF919F918F917F916F915F914F9148
:1058A0003F912F910F900FBE0F901F901895CF92A0
:1058B000DF92EF92FF920F931F936B017C016115B2
:1058C00071058105910549F00E94F730A701960105
:1058D0000E940E2F8B019C0103C000E010E0980194
:1058E000B801C9011F910F91FF90EF90DF90CF9009
:1058F0000895CF92DF92EF92FF926B017C01DA0163
:10590000C901C216D306E406F50674F48C199D0984
:10591000AE09BF09BC01CD010E94572CDC01CB01AF
:10592000C80ED91EEA1EFB1EB601C701FF90EF90FC
:10593000DF90CF9008955058BB27AA270ED075C18D
:1059400066D130F06BD120F031F49F3F11F41EF49A
:105950005BC10EF4E095E7FB51C1E92F77D180F3ED
:10596000BA17620773078407950718F071F49EF55C
:105970008FC10EF4E0950B2EBA2FA02D0B01B901AB
:1059800090010C01CA01A0011124FF27591B99F0B5
:10599000593F50F4503E68F11A16F040A22F232FC1
:1059A000342F4427585FF3CF469537952795A79511
:1059B000F0405395C9F77EF41F16BA0B620B730BB8
:1059C000840BBAF09150A1F0FF0FBB1F661F771F29
:1059D000881FC2F70EC0BA0F621F731F841F48F4DE
:1059E000879577956795B795F7959E3F08F0B3CF64
:1059F0009395880F08F09927EE0F9795879508954E
:105A0000D9D008F481E008950CD00FC107D140F03F
:105A1000FED030F021F45F3F19F0F0C0511139C1D0
:105A2000F3C014D198F39923C9F35523B1F3951B0F
:105A3000550BBB27AA2762177307840738F09F5FAF
:105A40005F4F220F331F441FAA1FA9F333D00E2E1E
:105A50003AF0E0E830D091505040E695001CCAF78B
:105A600029D0FE2F27D0660F771F881FBB1F261750
:105A700037074807AB07B0E809F0BB0B802DBF0123
:105A8000FF2793585F4F2AF09E3F510568F0B6C03C
:105A900000C15F3FECF3983EDCF386957795679500
:105AA000B795F7959F5FC9F7880F911D96958795D4
:105AB00097F90895E1E0660F771F881FBB1F6217F3
:105AC00073078407BA0720F0621B730B840BBA0BB1
:105AD000EE1F88F7E095089504D06894B111D9C0FD
