:100000000C9404020C945C070C9489070C9404165D
:100010000C942C020C942C020C942C020C941A0DAF
:100020000C942C020C942C020C942C020C942C0298
:100030000C942C020C942C020C942C020C942C0288
:100040000C94B6070C942C020C94E0090C94230A2F
:100050000C942C020C942C020C942C020C942C0268
:100060000C942C020C942C027B226C6F6E676974CA
:10007000756465223A222573222C226C617469749E
:10008000756465223A222573222C226465766963A1
:10009000655F6964223A222573222C2276616C7591
:1000A00065223A222573222C22756E6974223A2227
:1000B00063706D227D004F4B2E095B00206220662D
:1000C0007265655D0D0A004D41435F616464726550
:1000D00073733A09253034580D0A004C6174697401
:1000E0007564653A0925730D0A004552524F522036
:1000F0002D20546F6F206D616E792063686172618D
:10010000637465727320696E206C617469747564C0
:10011000652E204D75737420626520756E6465725E
:1001200020313620636861726163746572732E0DCD
:100130000A004C6F6E6769747564653A0925730D22
:100140000A004552524F52202D20546F6F206D618E
:100150006E79206368617261637465727320696E81
:10016000206C6F6E6769747564652E204D757374AD
:1001700020626520756E6465722031362063686187
:10018000726163746572732E0D0A004669726D7731
:100190006172655F7665723A0925730D0A004465E0
:1001A000766963655F49443A0925730D0A00455233
:1001B000524F52202D20546F6F206D616E79206355
:1001C00068617261637465727320696E204465763C
:1001D0006963652049442E204D7573742062652043
:1001E000756E64657220313020636861726163747A
:1001F0006572732E0D0A0044657669636520494473
:100200002073657420746F2025730D0A0046726593
:10021000652052414D3A09002062797465730D0AD8
:10022000005573652074686520666F6C6C6F776924
:100230006E67207365742F67657420636F6D6D61E1
:100240006E64733A0D0A00097B7365747C6765748C
:100250007D6D61633A090963686962692077697233
:10026000656C657373204D414320616464726573EE
:1002700073202830202E2E2046464646290D0A009F
:10028000097B7365747C6765747D6465763A0909DA
:100290007468652064657669636520494420286E2A
:1002A00065656420746F2062652072656769737488
:1002B00065726564290D0A00097B7365747C676546
:1002C000747D6C61743A09097468652064657669A7
:1002D0006365206C617469747564650D0A00097B3F
:1002E0007365747C6765747D6C6F6E3A0909746818
:1002F0006520646576696365206C6F6E67697475E7
:1003000064650D0A000000000700020100000304FC
:100310000600000000000000000102040810204058
:1003200080010204081020010204081020040404C3
:10033000040404040402020202020203030303038E
:100340000300000000230026002900000000002513
:100350000028002B0000000000240027002A0002D3
:10036000524144494F204E4F5420494E495449412F
:100370004C495A45442050524F5045524C590A005E
:1003800043484942493A20436F6D6D616E64206E67
:100390006F74207265636F676E697A65642E002AD8
:1003A0002A2A2A2A2A2A2A2A2A2A2A2A2A2A20439E
:1003B00048494249202A2A2A2A2A2A2A2A2A2A2A33
:1003C0002A2A2A2A2A2A2A2A004348494249203E20
:1003D0003E20004255464645522046554C4C2E2064
:1003E000544F5353494E4720494E434F4D494E4772
:1003F00020444154410A00001D07DB0A810B78109C
:10040000651223144521052411241FBECFEFD8E027
:10041000DEBFCDBF12E0A0E0B1E0EEE3FBE502C03D
:1004200005900D92A43FB107D9F716E0A4EFB2E012
:1004300001C01D92AC35B107E1F713E0C8E0D4E08C
:1004400004C02297FE010E946B26C83FD107C9F75E
:100450000E94610E0C949D2D0C9400008091FA0274
:100460009091FB0201969093FB028093FA0281E047
:100470008093FC020895682FE091ED03F091EE0364
:100480000190F081E02D8DEE93E0099580E090E001
:10049000089500D081E292E0EDB7FEB792838183A8
:1004A0000E949F2A87E492E0EDB7FEB79283818392
:1004B0000E949F2A80E892E0EDB7FEB79283818385
:1004C0000E949F2A88EB92E0EDB7FEB7928381836A
:1004D0000E949F2A8EED92E0EDB7FEB79283818352
:1004E0000E949F2A0F900F90089500D000D08EE9AF
:1004F00091E0EDB7FEB79283818386E593E0948324
:1005000083830E949F2A0F900F900F900F90089561
:1005100000D000D082E391E0EDB7FEB792838183F3
:1005200082E493E0948383830E949F2A0F900F902C
:100530000F900F90089500D000D08BED90E0EDB7B4
:10054000FEB7928381838EE293E0948383830E943B
:100550009F2A0F900F900F900F90089500D000D019
:1005600087EC90E0EDB7FEB79283818380912C03F6
:1005700090912D03948383830E949F2A0F900F9064
:100580000F900F900895CF93DF93FB0162817381E9
:10059000FB01DF010D900020E9F7AD014150504013
:1005A0004E1B5F0B4A30510500F5C6E5D3E04F5FA7
:1005B0005F4FCE010E94252ACE018A9760E070E04D
:1005C00048E450E00E94D22C00D000D087EF91E0A8
:1005D000EDB7FEB792838183D483C3830E949F2AA1
:1005E0000F900F900F900F900DC000D08EEA91E009
:1005F000ADB7BEB712969C938E9311970E949F2A17
:100600000F900F90DF91CF910895CF92DF92EF92EC
:10061000FF920F931F936B017C010E940008DC0185
:10062000CB0197018601081B190B2A0B3B0BC8163F
:10063000D906EA06FB0620F4009510952095309522
:10064000B801C9011F910F91FF90EF90DF90CF90FB
:100650000895A0E0B0E0EFE2F3E00C943A26EC015C
:100660006A017B01CB01BA010E94B924162F072F22
:10067000B82EA92E0E94E5249B01AC01C701B6014A
:100680000E9454242FE632E143E05AE30E945524AD
:1006900020E030E04AE754E40E9473250E94B92428
:1006A0006B017C01CE01412F502F6B2D7A2D0E94C2
:1006B0003F0ECE0160E071E00E942E0E8AE0C81667
:1006C000D104E104F10420F4CE0162E071E009C03C
:1006D00084E6C816D104E104F10428F4CE0165E0F3
:1006E00071E00E942E0ECE01B701A6010E943F0EBE
:1006F000CDB7DEB7EAE00C945626ADE0B0E0E3E813
:10070000F3E00C943C266B017C01CE01079667E078
:1007100071E00E94E60D85E093E00E94921188232B
:1007200021F085E093E00E94B61182EB92E09A837B
:10073000898380911A0390911B03A0911C03B091AF
:100740001D038B839C83AD83BE8385E093E0BE0154
:100750006F5F7F4F40E550E00E94FC11009709F465
:1007600098C00E940008DC01CB018093F6029093B0
:10077000F702A093F802B093F90210927503CE012C
:100780000796B701A6010E94290306E713E084E655
:10079000D8011D928A95E9F7EDB7FEB73C970FB6E1
:1007A000F894FEBF0FBEEDBF3196ADB7BEB712963F
:1007B0001C930E93119788E690E09383828382E4E2
:1007C00093E0958384839C012451304037832683B2
:1007D0004496918780878F819885938782870E942E
:1007E000C22AF80101900020E9F731971082EDB795
:1007F000FEB73C960FB6F894FEBF0FBEEDBF8DEE70
:1008000093E0B8010E94F30B85E093E068E071E0AB
:100810000E94C90B60918D0270918E0285E093E079
:100820000E94C90B85E093E06AE271E00E94F30B3D
:1008300085E093E064E371E00E94F30B85E093E0D0
:1008400068E471E00E94F30B85E093E06CE571E0F1
:100850000E94C90BD8010D900020E9F7BD0161503D
:100860007040601B710B85E093E04AE050E00E940D
:10087000880C85E093E06DE671E00E94F30B85E063
:1008800093E00E94DF0B85E093E0B8010E94F30B38
:100890002AC0209175032F5F20937503233018F031
:1008A00081E08093740300D000D08CE891E0EDB734
:1008B000FEB79283818383E090E0821B9109948349
:1008C00083830E948A2A0F900F900F900F900E94AE
:1008D0000008DC01CB018093F6029093F702A0930D
:1008E000F802B093F902CE0107960E94760D2D967C
:1008F000E8E00C94582680917403813009F0A895A3
:100900000E94F01684EA94E00E9407108091FC0295
:10091000882399F01092FC0280E061E00E940B09AC
:1009200064E170E080E090E00E943C0880E060E0DC
:100930000E940B0981E00E94040D6091F602709103
:10094000F7028091F8029091F9020E940503AB0131
:10095000BC018091010390910203A0910303B09127
:100960000403481759076A077B07B0F06091FA0241
:100970007091FB02882777FD8095982F0E94E724CD
:100980001092FB021092FA02462F572F682F792FF0
:10099000CB01BA010E947D030895A2E0B0E0E3ED2F
:1009A000F4E00C9442262091500630915106211516
:1009B000310511F42CE536E0CE010196821B930B34
:1009C0002296E2E00C945E2600D086EB90E0EDB734
:1009D000FEB7928381830E949F2A0F900F900E94FE
:1009E000CD04BC018DEE93E04AE050E00E94D90CAA
:1009F00000D08CEB90E0EDB7FEB7928381830E942C
:100A00009F2A0F900F900895CF93DF93FB0182816F
:100A1000C82FA381DA2FDE010D900020E9F711978E
:100A2000AC1BBD0BA031B10528F5C2E4D3E084E1D5
:100A3000DE011D928A95E9F762817381FB01DF0176
:100A40000D900020E9F7AD014E1B5F0BCE010E9417
:100A5000252ACE01469760E070E048E450E00E940D
:100A6000D22C0E94E40480E090E060E070E00E94FC
:100A700088020BC000D082E491E0EDB7FEB792830C
:100A800081830E949F2A0F900F90DF91CF9108954C
:100A9000CF93DF93FB018281C82FA381DA2FDE0180
:100AA0000D900020E9F71197AC1BBD0BA031B105EB
:100AB00028F5CEE2D3E084E1DE011D928A95E9F7C4
:100AC00062817381FB01DF010D900020E9F7AD0128
:100AD0004E1B5F0BCE010E94252ACE01029760E0DB
:100AE00070E048E450E00E94D22C0E94E40480E0D0
:100AF00090E060E070E00E949B020BC000D08AEEA4
:100B000090E0EDB7FEB7928381830E949F2A0F90F9
:100B10000F90DF91CF910895FB018281938160E076
:100B200070E040E150E00E94C728DC01CB019093C7
:100B30002D0380932C038CE293E060E070E048E4A6
:100B400050E00E94D22C0E94E40480E090E060E03B
:100B500070E00E94AE02089500D000D08BE891E0D2
:100B6000EDB7FEB79283818385E992E09483838316
:100B70000E949F2A0F900F900F900F9008950F934F
:100B80001F93CF93DF93EC018B010E947502CE017E
:100B9000B8010E94AE02CE01B8010E949B02CE01B4
:100BA000B8010E9488020E94AC0500D08DE092E05E
:100BB000EDB7FEB7928381830E949F2A0F900F901A
:100BC0000E94CD04BC018DEE93E04AE050E00E940B
:100BD000D90C00D088E192E0EDB7FEB79283818313
:100BE0000E949F2A0F900F90DF91CF911F910F913C
:100BF0000895ACE0B0E0EFEFF5E00C94422681E020
:100C000061E00E94D70880E061E00E94D7088BE392
:100C100092E0909327038093260310922903109269
:100C2000280382E08093210310922B0310922A0361
:100C30008EE193E0909357068093560660E071EE44
:100C400080E090E00E94ED1681E161E00E94D7080B
:100C500081E161E00E940B098FE061E00E94D7080A
:100C60008FE061E00E940B0964E170E080E090E0B9
:100C70000E943C088FE060E00E940B0964E170E094
:100C800080E090E00E943C088FE061E00E940B0948
:100C900088EA91E06EEA72E00E94F3168FEA91E032
:100CA0006CE875E00E94F31686EB91E06BE972E068
:100CB0000E94F3168DEB91E068E475E00E94F31654
:100CC00084EC91E068E872E00E94F3168BEC91E00E
:100CD00064E075E00E94F31682ED91E065E772E052
:100CE0000E94F31689ED91E063EC72E00E94F31626
:100CF00080EE91E06FEB75E00E94F31685EE91E0D7
:100D000069E472E00E94F3168CE293E060E070E028
:100D100048E450E00E94C22C1092750310927403B4
:100D200029E288E190E00FB6F894A89580936000DE
:100D30000FBE209360008DEE93E067E071E00E94AB
:100D4000F30B8DEE93E067E071E00E94F30B80E01F
:100D500090E060E070E00E94BF0584EA94E06FE8F4
:100D600072E00E94940E0097F9F48DEE93E06AEE23
:100D700071E00E94F30B82EB92E098878F83809161
:100D8000140390911503A0911603B091170389875E
:100D90009A87AB87BC8784EA94E06FE872E0AE0183
:100DA000495F5F4F0E94D80F8DEE93E062E172E0E1
:100DB0000E94C90BCE01019664EA74E00E945610AD
:100DC0008DEE93E0BE016F5F7F4F0E94050C81E0C6
:100DD0006EE272E043E050E00E943C0780E69AEE4B
:100DE000A0E0B0E08093010390930203A09303037B
:100DF000B09304030E940008DC01CB014091010381
:100E0000509102036091030370910403840F951FB6
:100E1000A61FB71F8093FD029093FE02A093FF02CE
:100E2000B0930003A8958DEE93E06DE172E00E940F
:100E3000F30B2C96E2E00C945E260F938AED93E080
:100E400060E040E020E000E00E94570B88E193E082
:100E500060EB48E32CEE0BE40E94570B82E193E039
:100E600060EC48EA21E008E20E94570B85E093E03D
:100E70000E9472110F9108958230E8F4E82FF0E09B
:100E8000EE0FFF1FE052FC4F71836083813041F011
:100E9000809169008C7F842B80936900E89A089583
:100EA00080916900440F551F440F551F837F842B89
:100EB00080936900E99A08951F920F920FB60F92DE
:100EC00011242F933F934F935F936F937F938F934F
:100ED0009F93AF93BF93EF93FF938091E003909123
:100EE000E103009729F0E091E003F091E103099517
:100EF000FF91EF91BF91AF919F918F917F916F91F2
:100F00005F914F913F912F910F900FBE0F901F90C7
:100F100018951F920F920FB60F9211242F933F93A3
:100F20004F935F936F937F938F939F93AF93BF93F1
:100F3000EF93FF938091E2039091E303009729F0F0
:100F4000E091E203F091E3030995FF91EF91BF91E6
:100F5000AF919F918F917F916F915F914F913F9151
:100F60002F910F900FBE0F901F9018951F920F9208
:100F70000FB60F9211242F933F938F939F93AF93AC
:100F8000BF938091E4039091E503A091E603B091B3
:100F9000E7033091EC03232F2D5F2D3720F40196CA
:100FA000A11DB11D05C0232F2A570296A11DB11DF9
:100FB0002093EC038093E4039093E503A093E6036E
:100FC000B093E7038091E8039091E903A091EA03CD
:100FD000B091EB030196A11DB11D8093E80390939E
:100FE000E903A093EA03B093EB03BF91AF919F9104
:100FF0008F913F912F910F900FBE0F901F901895DA
:101000000F931F938FB7F8940091E4031091E503B9
:101010002091E6033091E7038FBFB801C9011F910A
:101020000F9108950F931F939FB7F8940091E803D1
:101030001091E9032091EA033091EB0386B5A89B58
:1010400006C08F3F21F00F5F1F4F2F4F3F4F9FBFB5
:10105000322F212F102F0027080F111D211D311DA8
:1010600042E0000F111F221F331F4A95D1F7B8012C
:10107000C9011F910F910895CF92DF92EF92FF92D5
:10108000CF93DF936B017C010E941208DC01CB013E
:10109000EC010FC00E9412086C1B7D0B83E0683EC0
:1010A000780738F00894C108D108E108F108C85160
:1010B000DC4FC114D104E104F10461F7DF91CF9159
:1010C000FF90EF90DF90CF900895019739F0880F4F
:1010D000991F880F991F02970197F1F70895789447
:1010E00084B5826084BD84B5816084BD85B582602D
:1010F00085BD85B5816085BDEEE6F0E080818160CB
:101100008083E1E8F0E010828081826080838081CA
:1011100081608083E0E8F0E0808181608083E1EBA2
:10112000F0E0808184608083E0EBF0E0808181608A
:101130008083EAE7F0E08081846080838081826040
:101140008083808181608083808180688083109229
:10115000C1000895833071F0843028F48130A1F00B
:10116000823021F514C08630B1F08730D1F0843060
:10117000E9F404C0809180008F7703C080918000E3
:101180008F7D80938000089584B58F7702C084B5E9
:101190008F7D84BD08958091B0008F778093B000DB
:1011A00008958091B0008F7D8093B000089590E005
:1011B000FC01E75EFC4F2491835D9C4FFC01849110
:1011C000882341F190E0880F991FFC01EB5AFC4FF6
:1011D00045915491DA01855B9C4FFC018591949176
:1011E000FC019FB7F8948C91662331F420958223FB
:1011F0008C938081822308C0623049F4322F30956D
:1012000083238C938081822B80839FBF0895822BC0
:101210008C939FBF0895A1E0B0E0E1E1F9E00C9468
:101220004026282F30E0F901EB5FFC4F8491F90153
:10123000E75EFC4F1491F901E35DFC4F049100233C
:10124000D1F0882321F069830E94AA086981E02FE8
:10125000F0E0EE0FFF1FE55BFC4F85919491DC0100
:101260009FB7F8948C91662319F41095812301C0DF
:10127000812B8C939FBF2196E4E00C945C26FC01AB
:1012800024853585F901E05CFF4F808191812E5BDB
:101290003F4FF90120813181821B930B8F73907036
:1012A0000895FC0144855585FA01E05CFF4F80817B
:1012B0009181FA01EE5BFF4F208131818217930704
:1012C00041F00190F081E02DE40FF51F808190E066
:1012D00008958FEF9FEF0895FC0144855585FA012D
:1012E000E05CFF4F20813181FA01EE5BFF4F80818E
:1012F00091812817390779F0A081B181A40FB51F1A
:101300008C91208131812F5F3F4F2F73307031835B
:10131000208390E008958FEF9FEF0895FC0181A155
:10132000882329F0A489B5898C9186FFFBCF11A26F
:101330000895CF93DF93DC011E964D915C911F972A
:10134000EA01C05CDF4F288139812F5F3F4F2F7347
:101350003070FA01EE5BFF4F8081918128173907C9
:10136000D9F3E881F981E40FF51F60831E96ED91B2
:10137000FC911F97E05CFF4F318320835696ED91DF
:10138000FC915797208181E090E05F960C905F97E9
:1013900002C0880F991F0A94E2F7282B208381E06E
:1013A00091968C9391975496ED91FC9155978081ED
:1013B0008064808381E090E0DF91CF91089508956B
:1013C0001F920F920FB60F9211242F933F934F93BA
:1013D0008F939F93EF93FF938091C00082FD1CC079
:1013E0004091C600809193049091940401968F736C
:1013F000907020919504309196048217930771F0B4
:10140000E0919304F0919404ED5AFB4F4083909344
:1014100094048093930402C08091C600FF91EF91E1
:101420009F918F914F913F912F910F900FBE0F90F1
:101430001F9018958DEE93E00E943F09009711F0E0
:101440000E94DF0908951F920F920FB60F92112488
:101450002F933F938F939F93EF93FF9320914F048C
:10146000309150048091510490915204281739070B
:1014700031F48091C1008F7D8093C10014C0E09150
:101480005104F0915204E15FFB4F2081809151049F
:101490009091520401968F739070909352048093B0
:1014A00051042093C600FF91EF919F918F913F913E
:1014B0002F910F900FBE0F901F901895A0E0B0E0F5
:1014C000E4E6FAE00C943B26EC016A017B01BB24C4
:1014D000B394403081EE580780E0680780E07807D9
:1014E00049F4BB24EC89FD89108260E874E88EE140
:1014F00090E00FC0EC89FD8981E090E008A002C077
:10150000880F991F0A94E2F7808360E079E08DE309
:1015100090E0A70196010E94F52589019A010150EA
:10152000104020403040369527951795079580E16B
:101530000030180710F0BB20A1F6E889F989108364
:10154000EA89FB89008319A2EE89FF89408121E0A5
:1015500030E0C9010C8C02C0880F991F0A94E2F791
:10156000482B4083EE89FF894081C9010D8C02C060
:10157000880F991F0A94E2F7482B4083EE89FF8970
:101580004081C9010E8C02C0880F991F0A94E2F7AE
:10159000482B4083EE89FF8980810F8C02C0220F87
:1015A000331F0A94E2F7209528232083CDB7DEB7B6
:1015B000E9E00C9457261092F0031092EF0388EEA6
:1015C00093E0A0E0B0E08093F1039093F203A09346
:1015D000F303B093F403EFEEF3E082EA92E0929328
:1015E000829383E594E0958784878FE094E09787E2
:1015F000868785EC90E0918B808B84EC90E0938BD8
:10160000828B80EC90E0958B848B81EC90E0978BC3
:10161000868B82EC90E0918F808F86EC90E0938FA8
:10162000828F84E0848F83E0858F87E0868F85E0DA
:10163000878F81E080A30895A0E0B0E0E2E2FBE0C4
:101640000C943A265C017B0100E010E0CC24DD2400
:10165000F501E00FF11FC70162814AE050E00E94EE
:101660009E0CEC01C7016EE20E94CC0BC80FD91F83
:10167000CC0EDD1E0F5F1F4F0330110549F7C70168
:10168000F50165814AE050E00E949E0C8C0D9D1D85
:10169000CDB7DEB7EAE00C945626FC0182EB92E06F
:1016A00091838083128213821482158208950F938E
:1016B000FC0182EB92E091838083628343832483E5
:1016C00005830F910895CF93DF93FC0182EB92E0A5
:1016D00091838083EB0188819981AA81BB81828378
:1016E0009383A483B583DF91CF910895FB0140815B
:1016F000518162817381FC014283538364837583CA
:10170000089582EB92E0909398048093970410924E
:10171000990410929A0410929B0410929C040895CC
:10172000A0E0B0E0E6E9FBE00C943C266C017B0114
:10173000EA0100E010E00EC0D7016D917D01D601F5
:10174000ED91FC910190F081E02DC6010995080F03
:10175000191F2197209781F7C801CDB7DEB7E8E0C0
:101760000C9458266115710589F0DB010D9000205D
:10177000E9F7AD0141505040461B570BDC01ED919C
:10178000FC910280F381E02D0995089580E090E0BE
:1017900008950E94B20B0895DC01ED91FC91019037
:1017A000F081E02D099508959C01CB01DB01ED91BD
:1017B000FC910190F081E02DB901099508950F93F6
:1017C0001F93CF93DF938C016DE00E94CC0BEC0153
:1017D000C8016AE00E94CC0B8C0F9D1FDF91CF9156
:1017E0001F910F9108950F931F93CF93DF938C0157
:1017F0000E94B20BEC01C8010E94DF0B8C0F9D1FF1
:10180000DF91CF911F910F9108950F931F93CF9365
:10181000DF938C010E94D40BEC01C8010E94DF0B06
:101820008C0F9D1FDF91CF911F910F9108954F92C3
:101830005F926F927F92AF92BF92CF92DF92EF92C0
:10184000FF920F931F93CF93DF93CDB7DEB7A1978E
:101850000FB6F894DEBF0FBECDBF5C01E42ECB0106
:10186000F22E19A221E02F1510F03AE0F32E21E21A
:10187000C22ED12CCC0EDD1E4F2C5524662477248D
:1018800003C0E02E512FC9016E2D752FA3019201C7
:101890000E94F52589019A01F09E802D1124E81AF5
:1018A0008E2D0894C108D1088A3010F4805D01C0E3
:1018B000895CF6018083011511052105310509F7C1
:1018C000C501B6010E94B20BA1960FB6F894DEBF17
:1018D0000FBECDBFDF91CF911F910F91FF90EF9081
:1018E000DF90CF90BF90AF907F906F905F904F90C0
:1018F00008952115310549F4DC01ED91FC91019029
:10190000F081E02D642F099508950E94170C089529
:101910000F931F93CF93DF938C019A01AB0160E08B
:1019200070E00E94790CEC01C8010E94DF0B8C0F63
:101930009D1FDF91CF911F910F9108959A01462F1E
:1019400050E060E070E00E94790C0895A0E0B0E003
:10195000ECEAFCE00C943C26EC016A017B012115C9
:10196000310541F4E881F9810190F081E02D642F87
:1019700009951AC02A303105A9F477FF12C06DE22B
:101980000E94CC0B8C0144275527BA014C195D09E4
:101990006E097F09CE012AE00E94170C800F911F6B
:1019A00003C02AE00E94170CCDB7DEB7E8E00C9424
:1019B00058269A01FB01AF01662757FD6095762FE7
:1019C0000E94A60C0895813041F0813018F08230D9
:1019D000D1F409C010926E00089580916F008D7F40
:1019E00080936F000895809170008D7F80937000C8
:1019F00081E08093B0008091B100887F8460809303
:101A0000B1001092B3000895CF93C82F80919B022C
:101A10008C1739F4EFE5F3E084919FEF90939B02EC
:101A200001C08FEF0E94E30C8C2F60E00E940B0935
:101A3000CF9108951F920F920FB60F9211242F93FA
:101A40003F934F935F936F937F938F939F93AF9346
:101A5000BF93EF93FF938091A0049091A104A09174
:101A6000A204B091A3040097A105B10551F1E09142
:101A70009E04F0919F04808190919D04892780832A
:101A80008091A0049091A104A091A204B091A3041C
:101A9000181619061A061B06C4F48091A00490912A
:101AA000A104A091A204B091A3040197A109B109D6
:101AB0008093A0049093A104A093A204B093A304E4
:101AC00004C080919B020E94040DFF91EF91BF9191
:101AD000AF919F918F917F916F915F914F913F91C6
:101AE0002F910F900FBE0F901F901895FC018081D1
:101AF00091810E9405270895CF93DF93EC0188819F
:101B00009981009711F00E940527198218821D8281
:101B10001C821B821A82DF91CF9108950F931F932D
:101B2000CF93DF93EC018B016F5F7F4F88819981A9
:101B30000E94FC27009731F0998388831B830A83D6
:101B400081E001C080E0DF91CF911F910F91089556
:101B5000CF93DF93EC0188819981009729F08A81E6
:101B60009B818617970778F4CE010E948E0D8823FB
:101B700041F08C819D81009731F4E881F9811082D8
:101B800002C080E001C081E0DF91CF910895EF9223
:101B9000FF920F931F93CF93DF93EC017B018A0198
:101BA000BA010E94A80D882321F4CE010E947C0D69
:101BB00007C01D830C8388819981B7010E94372A51
:101BC000CE01CDB7DEB7E6E00C945A26CF93DF9373
:101BD000FC011182108213821282158214821682F5
:101BE0006115710559F0EB0109900020E9F7AE018C
:101BF00041505040461B570B0E94C70DDF91CF91BB
:101C00000895EF92FF920F931F93CF93DF938C0170
:101C10007B01FC01C481D58161157105C9F04115B5
:101C20005105A1F0C40FD51FBE010E94A80D882345
:101C300079F0F8018081918124813581820F931F91
:101C4000B7010E94372AF801D583C48381E001C01F
:101C500080E0CDB7DEB7E6E00C945A266115710539
:101C600061F0DB010D900020E9F7AD0141505040DB
:101C7000461B570B0E94010E089580E00895ABE0CB
:101C8000B0E0E5E4FEE00C943E267C01CB01BA0115
:101C90008E010F5F1F4FA8012AE030E00E94652AE5
:101CA000F80101900020E9F7AF0141505040401B7E
:101CB000510BC701B8010E94010E2B96E6E00C946F
:101CC0005A260E946F080E94F905CAE1DAE00E94D4
:101CD0007B042097E1F30E941A0AF9CF21E030E05B
:101CE000FC018081882311F020E030E0C9010895D3
:101CF00021E0FC0120830895BC0181E090E044E0F4
:101D000050E00E944D190895BC0185E090E044E048
:101D100050E00E944D190895BC018FE090E044E02E
:101D200050E00E944D190895AEE1B0E0EAE9FEE00E
:101D30000C943C266C017B018091B404882371F4DF
:101D400084EB94E00E946E0E009741F083E095E0F2
:101D50000E94C41384EB94E00E94780E8CEB94E014
:101D6000F6019783868384E396E00E940F1989E049
:101D700090E0B70146E050E00E944D19CE0149962F
:101D800060E040E020E000E00E94570BCE014B965F
:101D90000E948C0EF60186819781B70120E63AEE0B
:101DA00040E050E0A0EAEA2EAFE0FA2E012D112D1E
:101DB0000E9405217C018130910589F5F60166813B
:101DC0007781CE0143960E94711DCE0145960E94F7
:101DD0008C0EF60166817781CE010D960E94871DDB
:101DE000CE010F960E947C0EF60166817781CE01AE
:101DF00007960E947C1DCE0109960E94840EF60172
:101E000066817781CE0101960E94921D8B819C8113
:101E1000AD81BE81F60182839383A483B583C7011C
:101E20006E96E8E00C945826A0E0B0E0EAE1FFE00E
:101E30000C9436263C014B015A01690184E396E07B
:101E40000E940F1989E090E0B40146E050E00E9442
:101E50004D19C50102960E948C0EC80102960E947F
:101E60007C0EC70102960E94840EF6018281938146
:101E7000A481B581F30182839383A483B583CDB715
:101E8000DEB7EEE00C945226AEE1B0E0EAE4FFE00B
:101E90000C9436263C014B017A0169015801CE01B0
:101EA00049966FEF4FEF2FEF00E00E94570B22EBA8
:101EB00032E03C8B2B8BF70182819381A481B58129
:101EC0008D8B9E8BAF8BB88F3E872D87F6018281DD
:101ED0009381A481B5818F87988BA98BBA8B388722
:101EE0002F83F50182819381A481B58189879A87A7
:101EF000AB87BC873A8329838B8D9C8DAD8DBE8D3E
:101F00008B839C83AD83BE83C301B401AE014D5E60
:101F10005F4F9E01235F3F4F8E01095F1F4F7E0180
:101F20000894E11CF11C0E94140F6E96EEE00C94D4
:101F30005226A8E1B0E0EFE9FFE00C943E267B01D9
:101F4000DA0112964D915D916D917C9115974D8BB3
:101F50005E8B6F8B788FE2EBF2E0FE87ED874F8729
:101F6000588B698B7A8BF887EF83D90112960D9184
:101F70001D912D913C91159709871A872B873C87D6
:101F8000FA83E9834B835C836D837E8321E02E8318
:101F9000B701AE01435F5F4F9E01295F3F4F8E0146
:101FA0000F5F1F4F0E94440F6896E6E00C945A267C
:101FB000A2E1B0E0EEEDFFE00C944226FB01DA0175
:101FC00012964D915D916D917C9115974F87588B2D
:101FD000698B7A8B22EB32E038872F8349875A87C7
:101FE0006B877C873A8329834B835C836D837E83F5
:101FF00021E02E83BF01AE01495F5F4F9E012F5F3D
:102000003F4F0E94990F6296E2E00C945E26A8E191
:10201000B0E0EDE0F0E10C943E268C01FC018681FD
:1020200097810097E1F10E9445207C018230910563
:1020300021F084E0E816F104A1F5F80166817781CA
:10204000CE0143960E94711DCE0145960E948C0ED2
:10205000F80166817781CE010D960E94871DCE0121
:102060000F960E947C0EF80166817781CE0107965B
:102070000E947C1DCE0109960E94840EF8016681A3
:102080007781CE0101960E94921D8B819C81AD814A
:10209000BE81F80182839383A483B58302C0EE24BA
:1020A000FF24C7016896E6E00C945A26CF93DF938D
:1020B000EC010E944D0BBE016E5F7F4F8FE090E000
:1020C00044E050E00E946F1ACE01DF91CF91089555
:1020D00022EB32E0FC0131832083FB0142815381FA
:1020E00064817581FC014283538364837583089501
:1020F0000F938EE195E060E040E020E000E00E9478
:10210000570B84EA94E00E944D0B0F910895A1E0D3
:10211000B0E0EDE8F0E10C9442266983DC01ED913A
:10212000FC910280F381E02DBE016F5F7F4F41E0A3
:1021300050E009952196E2E00C945E26CF93DF9360
:10214000EC0107C0E881F9810680F781E02DCE011E
:102150000995E881F9810480F581E02DCE0109958A
:10216000009781F7DF91CF91089521E0FC018485EC
:10217000843009F420E0822F0895A1E0B0E0E3EC80
:10218000F0E10C9440268C01DC01ED91FC9104807F
:10219000F581E02D0995009751F0F8018485BE0185
:1021A0006F5F7F4F0E945B18898190E002C08FEFC4
:1021B0009FEF2196E4E00C945C26FC0184850E944C
:1021C0001F180895A1E0B0E0E8EEF0E10C9442267B
:1021D000FC018485BE016F5F7F4F41E050E00E94AB
:1021E0001F18181619061CF4898190E002C08FEFA1
:1021F0009FEF2196E2E00C945E26A5E3B0E0E3E0D9
:10220000F1E10C943C267C018B016A01CE014396DE
:102210000E944D0BCE014B960E94C413CE010D9629
:102220000E944D0BCE01079664EA74E00E9468108C
:10223000CE014396BE01695F7F4F0E945021CE01BF
:102240004396B801AE01435F5F4F0E948523813002
:102250009105C1F4D701ED91FC910484F585E02D41
:1022600082EB92E09A8389838F859889A989BA89BC
:102270008B839C83AD83BE83C701BE016F5F7F4F9D
:10228000A6010995E596E8E00C945826FC016485C2
:10229000643031F084E396E00E94241A9C0102C06D
:1022A00020E030E0C90108950F931F93CF93DF938F
:1022B0008C01EA01FC018485843019F481E090E00E
:1022C00007C00E94CC17009739F481E090E0F80134
:1022D00093838283C0E0D0E0CE01DF91CF911F9144
:1022E0000F910895FC011382128248EE53E060E0E2
:1022F00070E0448355836683778388EB92E0918313
:10230000808384E084870895FC018485843041F0D3
:10231000382F20E0C9018D5F9B4F0E9477190895E7
:1023200080E00895CF93DF93EC018C858430D1F069
:10233000CE010E948411843181F0882371F08831AC
:1023400061F08C3161F4E881F9810480F581E02D40
:10235000CE01099521E0009719F420E001C021E0A9
:10236000822F01C080E0DF91CF910895CF92DF925C
:10237000EF92FF92CF93DF93EC018C858430A9F12B
:102380000E94C5170E9400086B017C01CE010E94CB
:102390008411882381F00E940008DC01CB018C1994
:1023A0009D09AE09BF09883E23E0920720E0A207FD
:1023B00020E0B20798F0CE010E948411882319F022
:1023C0008C850E944217EC85F0E0EE0FFF1FE4556C
:1023D000FB4F1182108284E08C8707C061E070E0BF
:1023E00080E090E00E943C08D1CFDF91CF91FF9038
:1023F000EF90DF90CF900895A1E0B0E0E2E0F2E14D
:102400000C943A265C017B016A01FC0184858430CE
:1024100009F055C003E014E020E0C80129830E94C0
:1024200077192981882321F0883111F08C3119F432
:10243000F501248705C02F5F00501F4F243069F736
:10244000F50184858430D9F120919C0230919D0260
:102450002F5F3F4F30939D0220939C022115310541
:1024600031F420E034E030939D0220939C024091AF
:102470009C0250919D0261E020E00E945017B7013C
:102480006E5F7F4FF5018485A6010E94901709C0F9
:1024900061E070E080E090E00E943C08C5010E948D
:1024A0008411882321F484E0F501848708C0C501E4
:1024B0000E948411873161F781E090E002C080E0E2
:1024C00090E02196EAE00C9456260F9384E295E082
:1024D00060E040E020E000E00E94570B0F9108957B
:1024E000DC01ED91FC91008CF18DE02D09950895B2
:1024F00022EB32E0FC0131832083FB0141895289C8
:1025000063897489FC0142835383648375830895CE
:10251000FC01858996890895FC01818D928D08952D
:10252000A1E0B0E0E6E9F2E10C9442266983DC0127
:10253000ED91FC910280F381E02DBE016F5F7F4F32
:1025400041E050E009952196E2E00C945E26CF939D
:10255000DF93EC0107C0E881F9810680F781E02D67
:10256000CE010995898D9A8D0097A9F7DF91CF91BA
:102570000895A1E0B0E0EFEBF2E10C944226FC01FB
:10258000818D928D009749F08485BE016F5F7F4FEA
:102590000E945B18898190E002C08FEF9FEF219627
:1025A000E2E00C945E26CF93DF93EC019A01498D13
:1025B0005A8D4115510589F08C852417350708F48B
:1025C000A9010E941F18181619063CF4298D3A8D8E
:1025D000281B390B3A8F298F02C08FEF9FEFDF91B5
:1025E000CF910895A1E0B0E0E8EFF2E10C9440262D
:1025F0008C01FC01818D928D0097A1F08485BE0134
:102600006F5F7F4F41E050E00E941F1818161906B7
:102610004CF4F801818D928D0197928F818F898181
:1026200090E002C08FEF9FEF2196E4E00C945C26CF
:10263000CF93DF93EC019B01FA016F89788D8C8534
:10264000A9019F010E946A182F89388D280F391F10
:10265000388F2F8BDF91CF910895FC0184850E94E4
:10266000C3180895FC01108E178A6E5F7F4F848512
:102670000E949E180895A8E0B0E0E1E4F3E10C9414
:1026800040268C01DC01ED91FC910284F385E02D64
:10269000099584E396E0F80164850E94241A009766
:1026A00021F1D8011C968C91BE016F5F7F4F48E0ED
:1026B00050E00E941F1818161906CCF4C8010F9696
:1026C000BE016F5F7F4F0E94760B9D8180E02E815F
:1026D000820F911DF801968B858B9F8180E0288564
:1026E000820F911D928F818F02C080E090E028962A
:1026F000E4E00C945C26CF93DF93EC018C8584306E
:1027000061F00E944217EC85F0E0EE0FFF1FE455E8
:10271000FB4F1182108284E08C87DF91CF91089566
:10272000A1E0B0E0E6E9F3E10C943C266C017B010A
:10273000FC018485843019F503E014E020E0C80131
:1027400029830E9477192981882311F0883119F48F
:10275000F601248705C02F5F00501F4F243079F702
:10276000F6018485843059F0F686E586128E118E46
:1027700062E0A70120E00E94501781E001C080E0E4
:102780002196E8E00C945826FC011382128248EE50
:1027900053E060E070E0448355836683778384ED83
:1027A00092E09183808384E08487CF010F960E941A
:1027B0004D0B0895A5E3B0E0E0EEF3E10C943C2668
:1027C0007C018B016A01CE0143960E944D0BCE0124
:1027D0004B960E94C413CE010D960E944D0BCE0164
:1027E000079664EA74E00E946810CE014396BE0129
:1027F000695F7F4F0E945021CE014396B801AE0120
:10280000435F5F4F0E94852381309105C1F4D7015A
:10281000ED91FC910088F189E02D82EB92E09A83A2
:1028200089838F859889A989BA898B839C83AD8395
:10283000BE83C701BE016F5F7F4FA6010995E59674
:10284000E8E00C9458260F938AE295E060E040E0BF
:1028500020E000E00E94570B0F910895CF93DF9383
:10286000EC01CE010E9465082197D9F7DF91CF9145
:102870000895A2E3B0E0EFE3F4E10C9440260DEEFE
:1028800013E0C8010E94DF0BCE0101966FE973E0EF
:102890000E940C2AC801BE016F5F7F4F0E94F30B9C
:1028A000CE01019669EC73E00E940C2AC801BE01BA
:1028B0006F5F7F4F0E94C90BE296E4E00C945C26A8
:1028C0002091470530E0F901E85BFA4F80832F5FE4
:1028D0003F4F2F77307020934705809146058F5FDB
:1028E0008093460508958EBD0DB407FEFDCF8EB5CD
:1028F0000895A2E0B0E0EFE7F4E10C9442269FB720
:102900009983F8944398806C6A830E9473146A8157
:10291000862F0E947314439A89818FBF2296E2E02A
:102920000C945E26A1E0B0E0E8E9F4E10C944226C4
:102930009FB79983F894439880680E9473140E940B
:102940007314439A99819FBF2196E2E00C945E260E
:1029500081E00E9492148F710895A1E0B0E0E3EB52
:10296000F4E10C944026182F062F49830E949214FC
:102970004981642F609568234023642B812F0E9436
:1029800079142196E4E00C945C26CF93DF93D82F42
:1029900042993FC00E94A814C82F8151823020F074
:1029A000C13011F0C23021F40E94A8148C17E1F359
:1029B000D63179F0D93151F0D830B1F4429886E06F
:1029C00090E00E942E1482E063E007C0C63161F4FB
:1029D00002C0C93149F482E069E04FE10E94AD14C0
:1029E00081E090E00E942E1482E06D2F4FE10E9462
:1029F000AD14C83011F484EB01C081E090E00E9476
:102A00002E140E94A8148D1711F480E403C083E4EF
:102A100001C084E4DF91CF910895AEE6B0E0E3E138
:102A2000F5E10C943A265AECA52E55E0B52E93C04C
:102A30008DEE93E00E946C09082F883009F464C081
:102A4000E091C805F091C9058D3009F071C0108280
:102A50008DEE93E067E772E00E94C90B8AEC95E087
:102A60006AE772E00E94132A9CAB8BAB45E3E42E2D
:102A7000F12CEC0EFD1E01E010E0D02EC12E80E006
:102A800090E06AE772E00E94132AD7018D939D932C
:102A90007D010E31110521F00F5F1F4F009769F77F
:102AA00000912E0610912F0618C0F80160817181E7
:102AB0008BA99CA90E942E2A009761F4D801129636
:102AC000ED91FC9113978D2D9C2DBE016D5C7F4F78
:102AD000099513C0F801048115810115110529F725
:102AE000CE01019660E873E00E940C2A8DEE93E01F
:102AF000BE016F5F7F4F0E94F30B0E943914B092AA
:102B0000C905A092C80527C08DEE93E068E00E9439
:102B1000CC0B8091C8059091C905F5E08A3C9F07D0
:102B2000D1F0C8F001979093C9058093C80513C0F0
:102B3000EA5CF540E336F10574F48DEE93E0602F26
:102B40000E94CC0BE091C805F091C9050193F09368
:102B5000C905E093C8058DEE93E00E943F090097F8
:102B600009F066CFC259DF4FEAE00C945626AB015C
:102B7000BC018AEC95E09093C9058093C80510923A
:102B80003106109230068DEE93E00E945E0A0895A1
:102B9000A0E0B0E0EEECF5E10C943C26EC016B011A
:102BA00086E090E00E946F268C0190932F06809320
:102BB0002E06DE010D900020E9F7CD018C1B9D0B48
:102BC0000E946F267C01BE010E94372AFE010190FF
:102BD0000020E9F73197EC1BFD0BEE0DFF1D108275
:102BE000F801F182E082D382C28280913006909116
:102BF0003106958384831093310600933006CDB758
:102C0000DEB7E8E00C9458261F920F920FB60F9291
:102C10001124CF92DF92EF92FF920F931F932F9385
:102C20003F934F935F936F937F938F939F93AF9354
:102C3000BF93EF93FF93CF93DF93CDB7DEB7E497C6
:102C4000DEBFCDBF8FB78A83F89483B186FFA7C05C
:102C500043988FE80E94731480E00E947314182F29
:102C6000439A01E060E8E62EF12C96C012FF02C004
:102C70001B7F92C013FF73C00E94A814863029F0F6
:102C8000863119F0813109F061C087E00E94921409
:102C90008093430586E00E949214881F8827881F2E
:102CA00080934405882309F453C08FB78983F8942F
:102CB000439880E20E94731480E00E947314D82E1F
:102CC00083508D37A0F54D2D50E08091460597013A
:102CD000281B3109421753076CF48D2D0E94601494
:102CE000CC2480E00E9473140E946014C394CD141D
:102CF000C1F71DC0CC2480E00E947314C394CD148E
:102D0000D1F780913D0590913E05019690933E0547
:102D100080933D05CE01039663ED73E00E940C2A7B
:102D20008DEE93E0BE016D5F7F4F0E94C90B439A09
:102D300089818FBF809135059091360501969093DA
:102D40003605809335050093330502C000933405A2
:102D5000177F86E10E94C5148034D9F71DC016FF85
:102D60000BC01F7B80913F05909140050196909389
:102D7000400580933F0510C011FF02C01D7F0CC0AD
:102D800010FF02C01E7F08C017FF06C01F7780918A
:102D900041058F5F80934105112309F067CF8A8138
:102DA0008FBFE496DEBFCDBFDF91CF91FF91EF9152
:102DB000BF91AF919F918F917F916F915F914F9153
:102DC0003F912F911F910F91FF90EF90DF90CF9047
:102DD0000F900FBE0F901F9018950E94B715089581
:102DE0000E940D1508950E94C815089590E0982F2F
:102DF0008827845F9B4F44E050E00E944D1908955E
:102E000090E00496982F8827860F971F0E947719C5
:102E1000089562E070E00E940017089590E0049623
:102E2000982F8827860F971F642F0E94EF18089508
:102E3000462F62E070E00E940E170895CF93DF9353
:102E4000C82FD62F472F60E170E00E940E178C2FFD
:102E500061E170E04D2F0E940E17DF91CF91089530
:102E6000CF93DF93C82FD62F472F64E070E00E94E6
:102E70000E178C2F65E070E04D2F0E940E17DF912A
:102E8000CF910895CF93C82F84E396E06C2F40E153
:102E90000E94091B8C2F6FEF0E941817CF91089585
:102EA000EF92FF921F93CF93DF9300D0CDB7DEB7A1
:102EB000182F7A01862F8150853048F5812F2A837B
:102EC00069830E9442172A816981422F462B812FF4
:102ED00060E070E00E940E17E114F10419F0812FF8
:102EE000B7010BC060913206709133066F5F7F4F60
:102EF0007093330660933206812F0E94301784E36B
:102F000096E0612F41E00E94091B81E001C080E052
:102F10000F900F90DF91CF911F91FF90EF90089548
:102F20001F93CF93DF93182FFB01EA0180818F3F1E
:102F300051F481818F3F91F482818F3F79F48381B5
:102F40008F3F61F41DC0882349F48181882331F4C7
:102F50008281882319F48381882391F0209781F05E
:102F6000812FBF010E94F616812FBE010E941E17FD
:102F700084E396E0612F44E00E94091B81E001C0D8
:102F800080E0DF91CF911F910895682F84E396E050
:102F900048E00E94091B0895CF92DF92EF92FF92C2
:102FA0001F93CF93DF93182F6B017A0188E0413094
:102FB000580718F0E12C68E0F62E84E396E0612FC4
:102FC0000E94541AEC01812F63E070E00E94001708
:102FD000873111F08C3121F4CE15DF0570F302C07A
:102FE000EE24FF2484E396E0612FA60197010E945E
:102FF000031A84E396E0612F40E20E94091B0DC092
:10300000812F63E070E00E940017882331F4812F44
:103010000E944217EE24FF2409C0812F0E94091745
:1030200084FFEECF812F60E10E941817C701DF9166
:10303000CF911F91FF90EF90DF90CF900895A0E087
:10304000B0E0E5E2F8E10C943C26182F6B01EA01B0
:1030500084E396E0612F0E94241A7C01009761F4BA
:10306000812F63E070E00E9400178431D1F0882343
:10307000C1F08C31B1F01BC0C817D9070CF47E0128
:103080001E141F0474F484E396E0612FA6019701D7
:1030900000E00E94D11A84E396E0612F40E40E9490
:1030A000091BC701CDB7DEB7E8E00C945826EE2423
:1030B000EA94FE2CF6CF0F93282FAB0184E396E021
:1030C000622F21E030E001E00E94D11A81E090E01F
:1030D0000F910895AF92BF92CF92DF92FF920F931C
:1030E0001F93CF93DF93F82E6B015A01890184E37C
:1030F00096E06F2D0E94541A8017910740F484E3E4
:1031000096E06F2D0E94541AD82FC92F02C0D02FDD
:10311000C12F84E396E06F2DA60195010D2F1C2F82
:103120000E9496198D2F9C2FDF91CF911F910F91A7
:10313000FF90DF90CF90BF90AF9008951F93CF93F3
:10314000DF93182FFB01EA018081882349F48181F4
:10315000882331F48281882319F48381882369F0DC
:10316000209759F0812FBF010E94F616812FBE01D2
:103170000E941E1781E090E002C080E090E0DF91A5
:10318000CF911F910895CF93C82F84E396E06C2FC1
:1031900040E20E94091B0CC08C2F0E94091783FF7C
:1031A00007C08C2F68E10E94181780E090E00BC0E8
:1031B0008C2F0E94091784FFEFCF8C2F60E10E94B3
:1031C000181781E090E0CF9108958EBD0DB407FEF1
:1031D000FDCF8EB508952A9808952A9A0895A2E001
:1031E000B0E0E5EFF8E10C944126182F6A8399834B
:1031F0000E94EB1880EF0E94E5189981892F0E94A8
:10320000E518812F0E94E5186A81862F0E94E51833
:103210000E94ED1881E02296E3E00C945D26CF93A6
:10322000DF93EC016CE271E080E090E00E943C08EA
:103230000E94191B229A80E090E060E80E94EF183B
:103240008BE190E065E50E94EF188AE190E065E58A
:103250000E94EF1880E090E49983888380E090E6F4
:103260009987888780E098E49B838A8380E098E64A
:103270009B878A8780E090E59D838C8380E090E740
:103280009D878C8780E098E59F838E8380E098E718
:103290009F878E87DF91CF910895A0E0B0E0E3E5AE
:1032A000F9E10C943C268C016A017B01C0E0D0E07E
:1032B00015C00E94EB1880EF0E94E518812F0E9434
:1032C000E518802F0E94E5180F5F1F4FF7018191CD
:1032D0007F010E94E5180E94ED182196CC15DD05AE
:1032E00041F7CE01CDB7DEB7E8E00C945826A1E057
:1032F000B0E0EDE7F9E10C944126182F99830E9484
:10330000EB188FE00E94E5189981892F0E94E5183B
:10331000812F0E94E51880E00E94E51889830E94B1
:10332000ED1889812196E3E00C945D266F927F92DF
:103330008F929F92AF92BF92CF92DF92FF920F93A4
:103340001F93CF93DF935C01F62E3A014901680188
:10335000862F64E270E00E940017C82F8F2D65E26F
:1033600070E00E9400173C2F20E0082F10E0022B95
:10337000132B060D171DA80157708F2D90E0880F95
:10338000991FA80EB91EF50120813181240F351F28
:10339000CA018C0D9D1DF8E081309F0798F0C0E0B8
:1033A000D8E0C41BD50BC901B401AE010E944D1970
:1033B000B4016C0F7D1FA6014C1B5D0BF5018081D4
:1033C000918103C0C901B401A6010E944D190C0DE1
:1033D0001D1D8F2D64E270E0412F0E940E178F2D6E
:1033E00065E270E0402F0E940E17DF91CF911F9190
:1033F0000F91FF90DF90CF90BF90AF909F908F90F4
:103400007F906F9008950F931F93FA01890140E018
:1034100050E09F010E9496191F910F910895CF933C
:10342000DF93C82F66E270E00E940017D82F8C2F20
:1034300067E270E00E9400173D2F20E090E0822BB1
:10344000932BDF91CF910895FF920F931F93CF930A
:10345000DF93F62EC0E0D0E08F2D0E940F1A8C0172
:10346000009721F08F2D0E940F1AEC01C017D10791
:1034700099F7CE01CDB7DEB7E5E00C945B26CF938C
:10348000DF93C82F60E270E00E940017D82F8C2FC6
:1034900061E270E00E9400173D2F20E090E0822B57
:1034A000932BDF91CF910895FF920F931F93CF93AA
:1034B000DF93F62EC0E0D0E08F2D0E943F1A8C01E2
:1034C000009721F08F2D0E943F1AEC01C017D10701
:1034D00099F7CE01CDB7DEB7E5E00C945B26A0E00E
:1034E000B0E0E5E7FAE10C943C268C016A017B012F
:1034F000C0E0D0E016C00E94EB188FE00E94E518F3
:10350000812F0E94E518802F0E94E5180F5F1F4F42
:1035100080E00E94E518F70181937F010E94ED1879
:103520002196CC15DD0539F7CE01CDB7DEB7E8E041
:103530000C945826A0E0B0E0E0EAFAE10C943C26B6
:10354000690178015770C62FD0E02496CC0FDD1F9B
:10355000C80FD91F28813981240F351FC801840F56
:10356000951F68E08130960790F000E018E0041B9A
:10357000150BC901B601A8010E946F1AB601600FB0
:10358000711FA701401B510B8881998103C0C9019C
:10359000B601A8010E946F1ACDB7DEB7E8E00C941F
:1035A0005826A0E0B0E0E7EDFAE10C9438265C0183
:1035B000F62E4A016901E02E862F68E270E00E9433
:1035C0000017C82F8F2D69E270E00E9400173C2F72
:1035D00020E0C82FD0E0C22BD32BC5016F2DAE0148
:1035E000940186010E949A1AEE2071F4CC0DDD1D23
:1035F0008F2D68E270E04D2F0E940E178F2D69E22B
:1036000070E04C2F0E940E17CDB7DEB7ECE00C94A3
:103610005426CF93C62F862F61E070E00E940E17CC
:103620008C2F61E070E00E9400178823C9F7CF91CA
:1036300008958AE061E00E940B098AE061E00E943F
:10364000D7088CB580618CBD8CB580648CBD8DE055
:1036500061E00E94D7088BE061E00E94D7080895DE
:103660000E96FC0184E1DF011D928A95E9F7089529
:10367000A2E3B0E0EEE3FBE10C9432264C012A0118
:103680003B0189010E9400086B017C01E7E4AE2E3A
:10369000B12CA80CB91C14C00E940008DC01CB019D
:1036A0008C199D09AE09BF09481659066A067B06A2
:1036B00008F410C262E370E080E090E00E943C08F1
:1036C000C5010E943B131816190634F7C501BE0147
:1036D000695F7F4F42E250E00E94D3128F818230B7
:1036E00009F0F3C1F501858996898334910509F0C4
:1036F000ECC14B855C856D857E85C72EDD24EE246F
:10370000FF24B42FAA2799278827C82AD92AEA2A6A
:10371000FB2AB62FA52F942F882780709070B07049
:10372000C82AD92AEA2AFB2A452F562F672F77273E
:10373000407060707070C42AD52AE62AF72AF80112
:10374000C082D182E282F382B401685F7F4FCE01F2
:10375000839646E050E00E94182A009799F4F401FD
:1037600080819181A281B381C816D906EA06FB0641
:1037700048F084819581A681B7818C159D05AE05A1
:10378000BF0528F4C5010E94A7124424A5C18F8952
:10379000988DA98DBA8DF40186879787A08BB18B00
:1037A0000EEC10E0C5010E94F21201501040D1F75A
:1037B000442482E2682E712C680C791C96E2292E32
:1037C000312C280C391CC4018A969AA789A72AE1B2
:1037D000E22EF12CE80CF91CF401E85AFF4FFCA78B
:1037E000EBA7C40142969EA78DA7F4017696F8AB8D
:1037F000EFA7C4014E969AAB89AB67015EC1C501C4
:103800000E94F2128333910509F410C184339105AB
:1038100094F48130910579F18230910524F4009778
:1038200009F44BC13CC18330910561F186309105AB
:1038300009F035C142C08A33910509F48CC08B333D
:10384000910544F48533910571F08633910509F0B3
:1038500026C14EC08B33910509F4B2C08F3F91054C
:1038600009F01DC12AC1C5010E94F212C5010E94C2
:10387000F212482E22C1C5010E94F212C5016DA5A7
:103880007EA55CC0C5010E94F212082FC5016FA57C
:1038900078A944E050E00E94D312EE24FF2410E007
:1038A0000450104006C0C5010E94F2120894E11CA9
:1038B000F11CE016F106BCF300C1C5010E94F21232
:1038C000082FC50169A97AA944E050E00E94D312EB
:1038D000EE24FF2410E00450104006C0C5010E94F1
:1038E000F2120894E11CF11CE016F106BCF3E5C0ED
:1038F000C5010E94F212E82EF401828D938DA48DF1
:10390000B58D0097A105B105B9F0CE010196B601BC
:103910000E94630B8B819C81AD81BE81EBA5FCA5D0
:10392000408151816281738184179507A607B7078B
:1039300019F000E010E00CC0C501B60144E050E011
:103940000E94D312BAC0C5010E94F2120F5F1F4F2E
:10395000E016C9F7B2C0C5010E94F212C501B1015B
:1039600044E050E00E94D312F40106A117A120A563
:1039700031A5432F552766277727B02FAA279927E8
:103980008827482B592B6A2B7B2BB22FA12F902FE6
:10399000882780709070B070482B592B6A2B7B2B36
:1039A000BB27A32F922F812F8070A070B070482B5F
:1039B000592B6A2B7B2B46A357A360A771A77DC009
:1039C000C5010E94F212C50169A57AA544E050E044
:1039D0000E94D312F40102A513A524A535A5432FF7
:1039E000552766277727B02FAA2799278827482B9E
:1039F000592B6A2B7B2BB22FA12F902F88278070F9
:103A00009070B070482B592B6A2B7B2BBB27A32FB0
:103A1000922F812F8070A070B070482B592B6A2B89
:103A20007B2B42A753A764A775A747C0C5010E9477
:103A3000F212C501B30144E050E00E94D312F40138
:103A400002A113A124A135A1432F5527662777276B
:103A5000B02FAA2799278827482B592B6A2B7B2B15
:103A6000B22FA12F902F882780709070B070482BB4
:103A7000592B6A2B7B2BBB27A32F922F812F807072
:103A8000A070B070482B592B6A2B7B2B42A353A3F9
:103A900064A375A346A757A760AB71AB0EC0C50161
:103AA0000E94F212E82E00E010E005C0C5010E945D
:103AB000F2120F5F1F4FE016C9F7C5010E948C126A
:103AC000181619060CF49BCE01C04424C5010E94AF
:103AD000A71202C044244A94842DE296E2E10C9499
:103AE0004E26CF93DF93EC01625F7F4F0E94630B02
:103AF000CE01DF91CF910895CF93DF93EC016E5EFD
:103B00007F4F0E94630BCE01DF91CF910895CF9339
:103B1000DF93EC016A5E7F4F0E94630BCE01DF9161
:103B2000CF910895CF93DF93EC01625E7F4F0E94A7
:103B3000630BCE01DF91CF91089580E3FB01808379
:103B4000329601C0482F842F82958F704F704A3073
:103B500010F4405D01C0495C4293882399F70895B1
:103B6000ACE2B0E0E6EBFDE10C9435267C01562E8C
:103B7000842E652E2DE0C22ED12CCC0EDD1E30E21F
:103B8000932EF601292D11922A95E9F7CE01079679
:103B90006FEF4FEF2FEF0FEF0E94570B47E4A42E6C
:103BA000B12CAE0CBF1C82EB92E09A83898389858D
:103BB0009A85AB85BC858B839C83AD83BE83C50111
:103BC000BE016F5F7F4F43E450E00E943213EFEF7E
:103BD0008F3F9E0709F4ECC081E08D878E8786E0D9
:103BE0008F87188AF7010481158126813781432F39
:103BF000552766277727B02FAA2799278827482B8C
:103C0000592B6A2B7B2BB22FA12F902F88278070E6
:103C10009070B070482B592B6A2B7B2BBB27A32F9E
:103C2000922F812F8070A070B070482B592B6A2B77
:103C30007B2B498B5A8B6B8B7C8B6D8A8E8A80E8B1
:103C400090E0988F8F8BC501B6014CE150E00E9447
:103C50001813F60111929A94E9F788E0682E712CF6
:103C60006E0C7F1CF601D30186E00D90019281500D
:103C7000E1F7FDE0CF2ED12CCC0EDD1EC501B60143
:103C800040E150E00E94181380E2F60111928A95FB
:103C9000E9F706E010E09C2CCD2CC501692D7C2DA8
:103CA00040E250E00E94181301501040B1F783E643
:103CB0008D8792E89E8793E59F87888B85E3898B24
:103CC00081E08A8B5B8A9DE39C8B97E09D8B8E8B3A
:103CD000DE015796F30186E001900D928150E1F7E5
:103CE0008CE08D8F8E8FCE014F966CE772E00E9434
:103CF000372AC701BE016B5D7F4FF70143850E94E4
:103D00009D1DC701BE01695D7F4FF70144850E947B
:103D10009D1DC701BE01675D7F4FF70145850E946C
:103D20009D1DC501BE01635F7F4F4EE150E00E94C3
:103D30001813F3E05F1601F582E38D8784E08E8728
:103D4000F70196859F879785988B9089998B9189A4
:103D50009A8B96E39B8B8C8B828D8D8B838D8E8B38
:103D6000848D8F8B858D888FC501BE01635F7F4FEA
:103D70004CE050E00E94181387E38D8786E08E8721
:103D800091E09F8793E0988B898B8FE08A8B8AE301
:103D90008B8B8BE38C8B8FEF8D8BC501BE01635FAB
:103DA0007F4F49E050E00E941813C5010E942D1377
:103DB000AC96EFE00C945126A8E0B0E0E2EEFEE114
:103DC0000C9432268C0161E070E080E090E020ED00
:103DD00037E040E050E00E943224D80114966C9302
:103DE000149715967C93159716968C93169717969D
:103DF0009C9317976C9311967C93119712968C93C2
:103E0000129713969C93F801E95BFF4FFE83ED83B5
:103E1000CF010E947B138D819E8164E470E00E943B
:103E20009013882309F42AC10E9400084B015C0109
:103E300022243324FF2456E4C52ED12CC00ED11EDB
:103E4000C801CE9698878F83E3E0EE2EF8EE4F2ED2
:103E5000F3E05F2E612C712CFBC08823F9F4F8018C
:103E600084819581A681B7810196A11DB11D8483AE
:103E70009583A683B7830E940008681979098A0987
:103E80009B09A30192010E94F525C80161E0A901E7
:103E90000E94B01D81E0D6018C93BEC08430F9F43D
:103EA000F80184819581A681B7810196A11DB11D7C
:103EB00084839583A683B7830E94000868197909D3
:103EC0008A099B09A30192010E94F525C80163E0BC
:103ED000A9010E94B01DE2E0D601EC939DC08130A3
:103EE00061F5AF81B8854D915D916D917C91C8016F
:103EF0009E012F5F3F4F0E94381BF82EB2E08B17B8
:103F000009F08AC089819A81AB81BC81F8018483E0
:103F10009583A683B7830E940008681979098A09E6
:103F20009B09A30192010E94F525C80163E0A90144
:103F30000E94B01DD601FC9275C0823009F06CC0A1
:103F4000EF81F8854081518162817381C8019E01B2
:103F50002F5F3F4F0E94381BF82EF5E08F1709F0B6
:103F600055C0D601EC92F80182A193A1A4A1B5A1FC
:103F70000097A105B10541F484E893E0A0E0B0E02A
:103F800082A393A3A4A3B5A3F80186A197A1A0A59A
:103F9000B1A50097A105B10561F482A193A1A4A1E7
:103FA000B5A1B695A7959795879586A397A3A0A742
:103FB000B1A7F80182A593A5A4A5B5A546A157A1CF
:103FC00060A571A50097A105B10551F4DB01CA01F7
:103FD000880F991FAA1FBB1F82A793A7A4A7B5A7E5
:103FE000D8019E964D935D936D937C93D1979A964D
:103FF0008D919D910D90BC91A02DF80182AB93AB5A
:10400000A4ABB5AB21E0222E312C0CC0F6E08F170B
:1040100019F4D6011C9206C0BFEFFB1619F4F60185
:104020001082FF24F1E02F16310491F00E94000865
:10403000DC01CB0188199909AA09BB09F80142AD35
:1040400053AD64AD75AD481759076A077B0728F073
:10405000D6018C91833009F000CF8D819E810E9422
:104060007B13F80184819581A681B7810196A11DFA
:10407000B11D84839583A683B78302C02224332491
:10408000C1012896E2E10C944E26A0E0B0E0EBE4FA
:10409000F0E20C943826EC010E9400084B015C0110
:1040A0008EA99FA9A8ADB9AD8E010E5B1F4F0097D9
:1040B000A105B10509F493C0F80180819181A28125
:1040C000B381A5019401281B390B4A0B5B0BCA0174
:1040D000B90157FD52C0A8EECA2EA3E0DA2EE12C9A
:1040E000F12CC80CD91CEA1CFB1C28EE33E040E084
:1040F00050E00E941726DC01CB01C81AD90AEA0A4F
:10410000FB0AF801C082D182E282F382DA01C9019E
:104110000196A11DB11D4EA55FA568A979A98C01C5
:104120009D01000F111F221F331F40175107620707
:1041300073072CF41EA61FA618AA19AA08C0481BAC
:10414000590B6A0B7B0B4EA75FA768AB79AB4AA9EB
:104150005BA96CA97DA940175107620773072CF46E
:104160001AAA1BAA1CAA1DAA08C0481B590B6A0B35
:104170007B0B4AAB5BAB6CAB7DABFE01EA5BFF4FED
:104180008081833081F48EA59FA5A8A9B9A91816AE
:1041900019061A061B063CF084E08083CE010E94BB
:1041A000DC1E019602C080E090E0FE01EA5BFF4F5A
:1041B0002081233011F02223F9F44AA95BA96CA9CC
:1041C0007DA91416150616061706B4F01082CE0146
:1041D0000E94301BCE010E94DC1E03960DC0D5014B
:1041E000C40188519C4FAF4FBF4FF801808391832A
:1041F000A283B38380E090E08EAA9FAAA8AEB9AE56
:10420000CDB7DEB7ECE00C945426A0E0B0E0EBE0D4
:10421000F1E20C943A266C015B01DA01C901F60166
:1042200012A213A214A215A216A217A210A611A6DA
:1042300012A613A614A615A616AA17AA10AE11AE9A
:1042400082AF93AFA4AFB5AFFE96E082F182028356
:104250001383E601289686E0FE0111928A95E9F71C
:10426000C6010E94301BF50186E001900992815041
:10427000E1F7F601EA5BFF4F1082C6010E94DC1EE7
:10428000CDB7DEB7EAE00C9456260F9384E496E0AF
:1042900060E040E020E000E00E94570B0F9108959D
:1042A000CF93DF93FC01EB018A819B81AC81BD81BF
:1042B00082839383A483B58317821682DF91CF9183
:1042C0000895CF93DF93EA01DB01FB0181918823FD
:1042D000E9F740E050E060E070E01BC04F3F51055F
:1042E00009F06CF5FE01E60FF71F42836F5F7F4F09
:1042F00040E050E00EC09A01220F331FE3E0440F6C
:10430000551FEA95E1F7420F531F90E0C097480F01
:10431000591F8D91882331F0643071051CF48E3261
:1043200051F7DCCF4F3F510509F04CF46430710573
:1043300034F4C60FD71F4A8381E090E002C080E0CA
:1043400090E0DF91CF910895A3E0B0E0EAEAF1E2D6
:104350000C9438268C01962E872E0E940008DC01D2
:10436000CB01F80197838683A8E0EA2EF12CE00EBA
:10437000F11EB8016A5F7F4FC70142E050E00E9422
:10438000181381E090E09B838A83C701BE016E5FB2
:104390007F4F42E050E00E94181380E091E09B8341
:1043A0008A83C701BE016E5F7F4F42E050E00E94EA
:1043B00018131B821A82C701BE016E5F7F4F42E055
:1043C00050E00E941813C701BE016E5F7F4F42E0AC
:1043D00050E00E941813C701BE016E5F7F4F42E09C
:1043E00050E00E941813C92CD82CA92CB82C1FC03F
:1043F000F5016F018191882311F08E32D1F786018A
:104400000A191B091016110674F40983C701BE01AD
:104410006F5F7F4F41E050E00E941813C701B50164
:10442000A8010E94181356010894A11CB11CF601A2
:1044300080818823E9F61982C701BE016F5F7F4F33
:1044400041E050E00E94181300E011E01B830A8352
:10445000C701BE016E5F7F4F42E050E00E9418131B
:104460001B830A83C701BE016E5F7F4F42E050E0AD
:104470000E94181381E090E02396ECE00C945426FF
:10448000A3E1B0E0E6E4F2E20C9434268C016B0187
:104490004A010E9400082B013C0128E0A22EB12C09
:1044A000A00EB11EEE24FF2414C00E940008DC01FF
:1044B000CB0184199509A609B709C816D906EA06D9
:1044C000FB0608F40FC162E370E080E090E00E9418
:1044D0003C08C5010E943B131816190634F7F80171
:1044E00082819381A481B581418D528D638D748DBC
:1044F00084179507A607B70709F0F7C0858D968D35
:104500008533910509F0F1C0F9C0B8E0EB2EF12C2C
:10451000EC0EFD1EC501B7014CE050E00E94D31225
:10452000F701428153815427452754275F834E83E7
:10453000F80186819781288539858217930711F4C0
:1045400057FD06C0C5010E94A7128CEF9FEFD2C095
:104550004F7052704115510531F0C5010E94A712EC
:104560008BEF9FEFC7C0F70186819781582E492EA8
:104570004114510451F5C5010E94A7128AEF9FEF23
:10458000B9C0C501BE016F5F7F4F41E050E00E949E
:10459000D3128981882321F409C0C5010E94F21237
:1045A0008981982F915099838823B9F7898188232D
:1045B00041F704E010E0C5010E94F21201501040E2
:1045C000D1F70894C11CD11C02C0CC24DD24F70112
:1045D00084819581982789279827C816D90688F25B
:1045E000EE24FF24C501BE016F5F7F4F41E050E024
:1045F0000E94D3128981982F907C69F4882321F43A
:104600000EC0C5010E94F2128981982F91509983A2
:104610008823B9F704C0C5010E94F212198289816A
:10462000882301F7C501BE016C5F7F4F42E050E077
:104630000E94D312C501BE016E5F7F4F42E050E081
:104640000E94D31204E010E0C5010E94F212015052
:104650001040D1F7C501BE016A5F7F4F42E050E0D4
:104660000E94D3128C819D81F1E080309F0719F563
:104670008A819B8121E080309207E9F48E819F81BD
:10468000E4E080309E0731F0C5010E94A71287EF59
:104690009FEF30C0B4016E5F7F4FC50144E050E032
:1046A0000E94D31281E090E025C0C5010E94F21261
:1046B0000F5F1F4F02C000E010E08E819F8198279E
:1046C000892798270817190780F30894E11CF11C23
:1046D000E414F50409F086CFC5010E94A71286EF05
:1046E0009FEF08C08FEF9FEF05C08EEF9FEF02C0D6
:1046F0008DEF9FEF6396E0E10C945026C5010E9478
:104700008C128C309105A4F300CFA6E0B0E0EBE86A
:10471000F3E20C9438266C017B014A010E9461216E
:10472000009709F065C0F60182819381A481B5816B
:1047300040914C0650914D0660914E0670914F0687
:1047400084179507A607B70709F455C048E0A42EBB
:10475000B12CAC0CBD1C0E9400086F7070706050D2
:104760007C4FC5010E949013813009F047C082EB55
:1047700092E09A838983F60182819381A481B58135
:104780008B839C83AD83BE83C501BE016F5F7F4F6A
:1047900045E350E00E9432138C01009729F1C601D5
:1047A000B7010E94A4210097E9F0C5010E942D13D2
:1047B0008C01009731F418C0FFEF0F3F1F07A1F4E1
:1047C00003C033E0E32EF12CC60168E873E1A401D5
:1047D0000E9440228C010894E108F108E114F104E0
:1047E00019F0EACF00E010E0C5010E947B1308C079
:1047F00001E010E005C00EEF1FEF02C000E010E086
:10480000C8012696ECE00C9454260F938AE496E0B7
:1048100060E040E020E000E00E94570B0F91089517
:10482000CF92DF92EF92FF920F931F936B017C0167
:10483000611571058105910549F00E94EC27A701DA
:1048400096010E9417268B019C0103C000E010E036
:104850009801B801C9011F910F91FF90EF90DF906F
:10486000CF900895CF92DF92EF92FF926B017C017F
:10487000DA01C901C216D306E406F50674F48C19F0
:104880009D09AE09BF09BC01CD010E941024DC01C5
:10489000CB01C80ED91EEA1EFB1EB601C701FF9050
:1048A000EF90DF90CF9008955058BB27AA270ED0E5
:1048B000E0C0D1D030F0D6D020F031F49F3F11F4D9
:1048C0001EF4C6C00EF4E095E7FBBCC0E92FE2D0B1
:1048D00080F3BA17620773078407950718F071F41D
:1048E0009EF5FAC00EF4E0950B2EBA2FA02D0B0109
:1048F000B90190010C01CA01A0011124FF27591B25
:1049000099F0593F50F4503E68F11A16F040A22F2A
:10491000232F342F4427585FF3CF4695379527959B
:10492000A795F0405395C9F77EF41F16BA0B620B9A
:10493000730B840BBAF09150A1F0FF0FBB1F661FE1
:10494000771F881FC2F70EC0BA0F621F731F841F24
:1049500048F4879577956795B795F7959E3F08F04A
:10496000B3CF9395880F08F09927EE0F9795879509
:10497000089598D088F09F5790F0B92F9927B75194
:10498000A0F0D1F0660F771F881F991F1AF0BA9513
:10499000C9F712C0B13081F09FD0B1E008959CC03A
:1049A000672F782F8827B85F39F0B93FCCF3869509
:1049B00077956795B395D9F73EF490958095709566
:1049C00061957F4F8F4F9F4F0895E89409C097FBE3
:1049D0003EF490958095709561957F4F8F4F9F4FD6
:1049E0009923A9F0F92F96E9BB279395F69587951A
:1049F00077956795B795F111F8CFFAF4BB0F11F4DD
:104A000060FF1BC06F5F7F4F8F4F9F4F16C0882383
:104A100011F096E911C0772321F09EE8872F762FB9
:104A200005C0662371F096E8862F70E060E02AF0FA
:104A30009A95660F771F881FDAF7880F96958795E6
:104A400097F9089597F99F6780E870E060E008950E
:104A50009FEF80EC089500240A9416161706180696
:104A60000906089500240A94121613061406050672
:104A70000895092E0394000C11F4882352F0BB0F03
:104A800040F4BF2B11F460FF04C06F5F7F4F8F4F66
:104A90009F4F089557FD9058440F551F59F05F3FA1
:104AA00071F04795880F97FB991F61F09F3F79F050
:104AB00087950895121613061406551FF2CF4695D2
:104AC000F1DF08C0161617061806991FF1CF869554
:104AD0007105610508940895E894BB276627772738
:104AE000CB0197F908950BD0C4CFB5DF28F0BADF1A
:104AF00018F0952309F0A6CFABCF1124EECFCADF73
:104B0000A0F3959FD1F3950F50E0551F629FF001E0
:104B1000729FBB27F00DB11D639FAA27F00DB11D39
:104B2000AA1F649F6627B00DA11D661F829F2227C2
:104B3000B00DA11D621F739FB00DA11D621F839F49
:104B4000A00D611D221F749F3327A00D611D231F1F
:104B5000849F600D211D822F762F6A2F11249F576D
:104B600050408AF0E1F088234AF0EE0FFF1FBB1F90
:104B7000661F771F881F91505040A9F79E3F51052F
:104B800070F060CFAACF5F3FECF3983EDCF38695E0
:104B900077956795B795F795E7959F5FC1F7FE2BDA
:104BA000880F911D9695879597F90895629FD0017A
:104BB000739FF001829FE00DF11D649FE00DF11DD8
:104BC000929FF00D839FF00D749FF00D659FF00D87
:104BD0009927729FB00DE11DF91F639FB00DE11D74
:104BE000F91FBD01CF0111240895A1E21A2EAA1BBD
:104BF000BB1BFD010DC0AA1FBB1FEE1FFF1FA2178D
:104C0000B307E407F50720F0A21BB30BE40BF50B89
:104C1000661F771F881F991F1A9469F76095709512
:104C2000809590959B01AC01BD01CF01089597FB44
:104C3000092E05260ED057FD04D0D7DF0AD0001C60
:104C400038F450954095309521953F4F4F4F5F4F29
:104C50000895F6F790958095709561957F4F8F4FE9
:104C60009F4F08952F923F924F925F926F927F9243
:104C70008F929F92AF92BF92CF92DF92EF92FF926C
:104C80000F931F93CF93DF93CDB7DEB7CA1BDB0B18
:104C90000FB6F894DEBF0FBECDBF09942A883988BD
:104CA00048885F846E847D848C849B84AA84B984C4
:104CB000C884DF80EE80FD800C811B81AA81B981D0
:104CC000CE0FD11D0FB6F894DEBF0FBECDBFED01E4
:104CD0000895EE0FFF1F0590F491E02D0994CF93F6
:104CE000DF93AC018230910510F442E050E0E09196
:104CF0005206F091530620E030E0A0E0B0E024C07E
:104D00008081918184179507D0F08417950771F4FD
:104D100082819381109729F013969C938E9312971A
:104D20002CC0909353068093520627C0211531055D
:104D300019F08217930718F49C01BD01EF019281CD
:104D40008381DF01E92FF82F3097D1F62115310546
:104D5000F9F0C901841B950B8430910580F48A8198
:104D60009B816115710521F0FB019383828304C04F
:104D70009093530680935206FE01329642C0FE0184
:104D8000E80FF91F4193519302979983888339C0A3
:104D90008091500690915106009741F480918502D0
:104DA0009091860290935106809350062091830241
:104DB000309184022115310541F42DB73EB7809121
:104DC000870290918802281B390BE0915006F091E0
:104DD0005106E217F30798F42E1B3F0B24173507F3
:104DE00070F0CA0102962817390748F08E0F9F1FEE
:104DF00090935106809350064193519302C0E0E096
:104E0000F0E0CF01DF91CF9108950F931F93CF93DF
:104E1000DF939C01009709F48CC0DC011297139674
:104E20001C921E9212976091520670915306611562
:104E3000710589F48D919C911197820F931F209198
:104E40005006309151062817390769F5B09351067D
:104E5000A09350066EC0FB0140E050E001C0FC0191
:104E6000EA17FB0730F482819381AF010097B9F70D
:104E70001FC0E9012297FB83EA8308811981C901D8
:104E8000800F911F8E179F0759F480819181800FA9
:104E9000911F029699838883828193819B838A8361
:104EA0004115510529F4B0935306A093520641C011
:104EB000FA01B383A283C191D191EC0FFD1FAE170C
:104EC000BF0781F4F901929182918C0F9D1F029688
:104ED000DA0111969C938E938281938113969C9311
:104EE0008E931297E0E0F0E002C0FB01BC01DB0111
:104EF00012968D919C9113970097B9F7CB0102966A
:104F00002D913C911197820F931F20915006309163
:104F100051062817390769F4309729F4109253067F
:104F20001092520602C0138212827093510660934F
:104F30005006DF91CF911F910F910895A0E0B0E04E
:104F4000E4EAF7E20C943826EC0188819981AA8181
:104F5000BB810097A105B10521F484E299EDABE591
:104F6000B7E0BC01CD012DE133EF41E050E00E94FC
:104F7000172649015A0127EA31E440E050E00E9437
:104F8000D6256B017C01C501B4012CEE34EF4FEF47
:104F90005FEF0E94D625DC01CB01C80ED91EEA1EA8
:104FA000FB1EF7FE08C08FEF9FEFAFEFBFE7C80E05
:104FB000D91EEA1EFB1EC882D982EA82FB829701B3
:104FC00086013F77B801C901CDB7DEB7ECE00C949C
:104FD00054260E949E27089589E892E00E949E2709
:104FE0000895DC01CB018093890290938A02A093FB
:104FF0008B02B0938C020895A2E0B0E0E2E0F8E208
:105000000C9438268C01009729F4CB010E946F265E
:105010008C01B8C0DC01A60FB71FFC013297AE1798
:10502000BF0708F4ADC02081318126173707B0F0E3
:105030002530310508F4A6C0C901049786179707E3
:1050400008F4A0C022503040261B370B2D933D930F
:10505000CD01718360830E94052794C06B01C21A41
:10506000D30A5C01A20EB31EE0915206F0915306E2
:1050700040E050E08824992449C0EA15FB05E1F599
:10508000E080F180C70102968C159D05A8F1A7016B
:105090004C195D09CA0102960F2EFEEFCF2EFFEFCD
:1050A000DF2EF02DC00ED11E8530910578F0828163
:1050B000938113969C938E93129711965C934E93C3
:1050C000F601718360839A2F8B2F0AC0C901029663
:1050D0008E0D9F1DD60111969C938E939281838194
:1050E0008114910421F0F401928383834BC0909347
:1050F00052068093530646C0808191814817590714
:1051000008F4AC01828193814F01FC01309709F0D2
:10511000B4CF80915006909151068A159B05E9F411
:1051200046175707D0F4809183029091840200972C
:1051300041F48DB79EB72091870230918802821B7F
:10514000930BA817B907E0F4B0935106A09350064B
:10515000F80132977183608315C0CB0129833A83AC
:105160000E946F267C0129813A81009749F0B8019D
:10517000A9010E94252AC8010E940527870102C0B3
:1051800000E010E0C8012296ECE00C9454262F9227
:105190003F924F925F926F927F928F929F92BF92B7
:1051A000CF92DF92EF92FF920F931F93CF93DF93F3
:1051B0003B018A016115710519F0FB018083918320
:1051C0000115110539F09801225030402332310584
:1051D00008F003C16C0176010894C11CD11CF701D1
:1051E000C08146018C2F90E00E94042A009799F715
:1051F000CD3249F4F701C181B2E08B2E912C8E0C97
:105200009F1CD1E00AC0CB3239F4F701C181A2E082
:105210008A2E912C8E0C9F1CD0E00115110519F0DF
:1052200000311105C1F4C03381F4F4018081883765
:1052300011F0883551F4F401C18182E090E0880ECC
:10524000991ED26000E110E006C00115110519F4A5
:10525000C033C1F422C008301105F9F0093011053E
:1052600024F40230110509F507C00A30110551F088
:1052700000311105D1F427C0C12CD12CE12C70E4F0
:10528000F72E26C00AE010E06CECC62E6CECD62E91
:105290006CECE62E6CE0F62E1BC008E010E0C12C92
:1052A000D12CE12C50E1F52E13C09801442737FD95
:1052B0004095542F60E070E080E090E80E94F52572
:1052C00069017A0105C0C12CD12CE12C48E0F42EF3
:1052D00020E040E050E0BA011801442437FC40943B
:1052E000542C30EDB32EBC0E99E09B1570F48C2F2E
:1052F00081548A3118F499ECB92E06C08C2F81564E
:105300008A3150F589EAB82EBC0E8B2D90E08017BB
:10531000910714F527FD1CC0C416D506E606F7064E
:10532000A0F0CB01BA01A20191010E94D625AB01E8
:10533000BC014B0D511D611D711D4130E0E05E0748
:10534000E0E06E07E0E87E0710F02FEF01C021E0FB
:10535000F401C1914F01C5CF6114710489F022237A
:1053600039F0089481089108F3019182808208C085
:10537000D1FF1AC0C4010297F3019183808314C046
:1053800027FF12C0D0FF05C040E050E060E070E8A9
:1053900004C04FEF5FEF6FEF7FE782E290E0909302
:1053A0005B0680935A0616C0D0FF08C070956095C2
:1053B000509541955F4F6F4F7F4F0CC077FF0AC0EC
:1053C00082E290E090935B0680935A064FEF5FEF86
:1053D0006FEF7FE78A019B0103C000E010E09801B6
:1053E000B801C901DF91CF911F910F91FF90EF900C
:1053F000DF90CF90BF909F908F907F906F905F9045
:105400004F903F902F9008959111E4C2803219F08F
:1054100089508550D0F70895FB01DC0105900D926D
:105420000020E1F7089544EF52E00E943E2A0895DB
:10543000FB01DC0104C08D910190801921F44150E1
:105440005040C8F7881B990B0895FB01DC0102C08E
:1054500001900D9241505040D8F70895FB01DC01B6
:105460008D91019080190110D9F3990B0895FB01DA
:10547000DC0101900D920020E1F70895FA01A1915D
:10548000B081009719F41097E1F0CD01DC01CD0156
:105490000D90002011F4C00113C0FB0121912223C3
:1054A00019F02015D9F7F3CFFB012191201519F43C
:1054B0001E92119606C02223C1F70D900020A1F77D
:1054C000D001FA01A193B0830895FA01CF93FF931D
:1054D000EF932230CCF02532BCF4C22F2C2F33278F
:1054E00044275527FF93EF930E94F525EF91FF91F5
:1054F000605D6A330CF0695D6193B901CA01605067
:1055000070408040904051F710828F919F91CF91D1
:105510000C94032DA0E0B0E0E0E9FAE20C944226FE
:10552000FE013596619171918091560690915706D2
:10553000AF010E94E42A2096E2E00C945E26A0E0EF
:10554000B0E0E5EAFAE20C944226FE01359661915C
:1055500071918091560690915706DC0113962C911B
:105560001397286013962C93AF010E94E42AE091D0
:105570005606F09157062381277F23832096E2E089
:105580000C945E26AEE0B0E0E8ECFAE20C94402623
:105590000D891E898EE08C831A8309838FEF9FE724
:1055A0009E838D83AE01475E5F4FCE0101966F896A
:1055B000788D0E94E42AEF81F885E00FF11F1082B8
:1055C0002E96E4E00C945C26ADE0B0E0EAEEFAE260
:1055D0000C9432263C017D876C875A01FC011782AE
:1055E0001682838181FFC8C12E010894411C511C81
:1055F000F3019381EC85FD8593FD859193FF819166
:10560000FD87EC87882309F4B3C1853241F493FD0B
:10561000859193FF8191FD87EC87853229F490E095
:10562000B3010E94132DE4CFFF24EE2410E01032CA
:10563000B0F48B3269F08C3228F4803251F083322E
:1056400071F40BC08D3239F0803349F411602CC0F5
:105650001260146029C0186027C0106125C017FDB2
:105660002EC0282F20532A3098F416FF08C08F2D03
:10567000880FF82EFF0CFF0CF80EF20E15C08E2DC1
:10568000880FE82EEE0CEE0CE80EE20E10620CC055
:105690008E3221F416FD6CC1106406C08C3611F4F4
:1056A000106802C0883659F4EC85FD8593FD85911C
:1056B00093FF8191FD87EC87882309F0B8CF982F5D
:1056C0009554933018F09052933038F424E030E041
:1056D000A20EB31E3FE339830FC0833631F0833708
:1056E00081F0833509F05AC022C0F5018081898399
:1056F00022E030E0A20EB31E21E0C22ED12C4201E6
:1057000014C092E0292E312C2A0C3B1CF50180801C
:10571000918016FF03C06F2D70E002C06FEF7FEF26
:10572000C4010E94F82C6C0151011F7715C082E062
:10573000282E312C2A0C3B1CF5018080918016FF0D
:1057400003C06F2D70E002C06FEF7FEFC4010E94B5
:10575000ED2C6C011068510113FD1CC006C080E2E5
:1057600090E0B3010E94132DEA948E2D90E0C816AC
:10577000D906A8F30FC0F40117FD859117FF819199
:105780004F0190E0B3010E94132DE110EA940894B8
:10579000C108D108C114D10471F7E7C0843611F0F3
:1057A000893651F5F50117FF07C080819181A281EB
:1057B000B38124E030E008C080819181AA2797FD61
:1057C000A095BA2F22E030E0A20EB31E012F0F7673
:1057D000B7FF08C0B095A095909581959F4FAF4FAA
:1057E000BF4F0068BC01CD01A2012AE030E00E9459
:1057F0003F2DD82ED4183FC0853721F41F7E2AE0D4
:1058000030E020C0197F8F36A9F0803720F488352A
:1058100009F0AEC00BC0803721F0883709F0A8C06E
:1058200001C0106114FF09C0146007C014FF08C054
:10583000166006C028E030E005C020E130E002C07C
:1058400020E132E0F50117FF07C06081718182819C
:10585000938144E050E006C06081718180E090E077
:1058600042E050E0A40EB51EA2010E943F2DD82EAA
:10587000D418012F0F7706FF09C00E7FDF1430F414
:1058800004FF06C002FD04C00F7E02C01D2D01C032
:105890001F2D802F90E004FF0CC0FE01ED0DF11DC7
:1058A0002081203311F4097E09C002FF06C01E5F6B
:1058B00005C086789070009709F01F5F802E9924AC
:1058C00003FD12C000FF0DC0FD2C1E1550F4FE0C90
:1058D000F11A1E2D06C080E290E0B3010E94132D44
:1058E0001F5F1E15C0F304C01E1510F4E11A01C09D
:1058F000EE2484FE0FC080E390E0B3010E94132DDC
:1059000082FE1FC081FE03C088E590E010C088E7DA
:1059100090E00DC0C40186789070009791F081FCF2
:1059200002C080E201C08BE207FD8DE290E0B3018E
:105930000E94132D06C080E390E0B3010E94132D56
:10594000FA94DF14C0F3DA94F201ED0DF11D8081B9
:1059500090E0B3010E94132DDD20A9F706C080E27C
:1059600090E0B3010E94132DEA94EE20C1F740CEDF
:10597000F3018681978102C08FEF9FEF2D96E2E1C0
:105980000C944E26DC01CB01FC01F999FECF06C038
:10599000F2BDE1BDF89A319600B40D9241505040ED
:1059A000B8F70895DC01CB0103C02D910E94DD2CD6
:1059B00041505040D0F70895262FF999FECF1FBAD5
:1059C00092BD81BD20BD0FB6F894FA9AF99A0FBE28
:1059D00001960895992788270895FC010590615044
:1059E00070400110D8F7809590958E0F9F1F0895F5
:1059F000FC016150704001900110D8F7809590959E
:105A00008E0F9F1F0895DC01FC01672F7191772392
:105A1000E1F7329704C07C916D9370836291AE1769
:105A2000BF07C8F308950F931F93CF93DF938C01A3
:105A3000EB018B8181FF1BC082FF0DC02E813F8156
:105A40008C819D812817390764F4E881F9810193DD
:105A5000F983E88306C0E885F985802F09950097CA
:105A600031F48E819F8101969F838E8302C00FEF58
:105A70001FEFC801DF91CF911F910F910895FA0197
:105A8000AA27283051F1203181F1E8946F936E7F7D
:105A90006E5F7F4F8F4F9F4FAF4FB1E03ED0B4E06E
:105AA0003CD0670F781F891F9A1FA11D680F791FAF
:105AB0008A1F911DA11D6A0F711D811D911DA11DC0
:105AC00020D009F468943F912AE0269F11243019D0
:105AD000305D3193DEF6CF010895462F4770405D6B
