:100000000C945E020C947F060C94AC060C94860251
:100010000C9486020C9486020C9486020C94860240
:100020000C9486020C9486020C9486020C94860230
:100030000C9486020C9486020C9486020C94860220
:100040000C94D9060C9486020C94F9080C943C0983
:100050000C9486020C9486020C9486020C94860200
:100060000C94CC260C9486024669726D7761726599
:100070005F7665723A0925730A007B226C6F6E67A2
:100080006974756465223A222573222C226C61748E
:100090006974756465223A222573222C2264657680
:1000A0006963655F6964223A222573222C22766196
:1000B0006C7565223A222573222C22756E69742292
:1000C0003A2263706D227D004669726D77617265B8
:1000D0005F7665723A0925730A0000000007000286
:1000E00001000003040600000000000000000102FF
:1000F00004081020408001020408102001020408B6
:100100001020040404040404040402020202020293
:10011000030303030303000000002300260029005B
:1001200000000000250028002B0000000000240033
:1001300027002A0000000000003E5B4F5B3E3E6B44
:100140004F6B3E1C3E7C3E1C183C7E3C181C577D71
:10015000571C1C5E7F5E1C00183C1800FFE7C3E7BD
:10016000FF0018241800FFE7DBE7FF30483A060ECF
:100170002629792926407F050507407F05253F5A16
:100180003CE73C5A7F3E1C1C08081C1C3E7F142286
:100190007F22145F5F005F5F06097F017F00668931
:1001A000956A606060606094A2FFA29408047E0477
:1001B0000810207E201008082A1C08081C2A08089D
:1001C0001E101010100C1E0C1E0C30383E3830065D
:1001D0000E3E0E06000000000000005F0000000759
:1001E000000700147F147F14242A7F2A1223130887
:1001F000646236495620500008070300001C224163
:10020000000041221C002A1C7F1C2A08083E080806
:1002100000807030000808080808000060600020B6
:10022000100804023E5149453E00427F4000724999
:100230004949462141494D331814127F102745453D
:1002400045393C4A49493141211109073649494953
:1002500036464949291E00001400000040340000C1
:10026000000814224114141414140041221408022A
:10027000015909063E415D594E7C1211127C7F499D
:100280004949363E414141227F4141413E7F4949F2
:1002900049417F090909013E414151737F0808081E
:1002A0007F00417F41002040413F017F08142241EF
:1002B0007F404040407F021C027F7F0408107F3E49
:1002C0004141413E7F090909063E4151215E7F09B6
:1002D000192946264949493203017F01033F40401D
:1002E000403F1F2040201F3F4038403F6314081408
:1002F0006303047804036159494D43007F41414140
:100300000204081020004141417F04020102044020
:1003100040404040000307080020545478407F28A4
:100320004444383844444428384444287F3854549A
:10033000541800087E090218A4A49C787F080404BD
:100340007800447D40002040403D007F102844005C
:1003500000417F40007C047804787C0804047838ED
:1003600044444438FC1824241818242418FC7C081D
:10037000040408485454542404043F44243C40409A
:10038000207C1C2040201C3C4030403C442810284D
:10039000444C9090907C4464544C44000836410096
:1003A000000077000000413608000201020402004C
:1003B000407A10F35A00A0724E18090010A5D4E834
:1003C0000000E87648170000E40B54020000CA9AC7
:1003D0003B000000E1F50500008096980000004019
:1003E000420F000000A0860100000010270000005E
:1003F00000E803000000006400000000000A0000A4
:100400000000000100000000002C76D888DC674F57
:100410000823DFC1DFAE59E1B1B796E5E3E453C687
:100420003AE651997696E8E6C28426EB898C9B627F
:10043000ED407C6FFCEFBC9C9F40F2BAA56FA5F429
:1004400090055A2AF75C936B6CF9676DC11BFCE051
:10045000E40D47FEF520E6B500D0ED902E030094A4
:100460003577050080841E080000204E0A00000039
:10047000C80C333333330F986E12831141EF8D2143
:1004800014893BE65516CFFEE6DB18D1844B381BAA
:10049000F77C1D901DA4BBE424203284725E22816F
:1004A00000C9F124ECA1E53D27003406F4099A0ABD
:1004B0003D0F2A11E81296225625152611241FBE3B
:1004C000CFEFD8E0DEBFCDBF15E0A0E0B1E0EAEDB0
:1004D000F1E602C005900D92A63AB107D9F718E0EF
:1004E000A6EAB5E001C01D92AC3AB107E1F714E00D
:1004F000CCEBD4E004C02297FE010E944B2BCA3AF9
:10050000D107C9F70E94260D0C94EB300C94000023
:100510008091B2059091B30501969093B3058093B5
:10052000B20581E08093B4050895A2E0B0E0EBE964
:10053000F2E00C940E2B2091A2083091A308211513
:10054000310511F42CEA38E0CE010196821B930BA1
:100550002296E2E00C942A2BA2E1B0E0E2EBF2E07A
:100560000C940E2B8091110361E00E94F0078091A2
:10057000E60561E00E94F00781E096E09093A9080B
:100580008093A80888E896E040E051EE60E070E0D3
:100590000E94770980910F0361E00E94F00780912B
:1005A0000F0361E00E94240864E170E080E090E0C5
:1005B0000E945F0780910F0360E00E94240864E1BD
:1005C00070E080E090E00E945F0780910F0361E09F
:1005D0000E9424081092100610920F0629E288E16A
:1005E00090E00FB6F894A895809360000FBE20931A
:1005F00060008DEB95E062E04CE30E9477168DEB96
:1006000095E00E94821760ED77E080E090E00E9424
:100610005F078DEB95E00E9400168DEB95E06AE098
:1006200070E04AE050E021E030E00E947A158DEB66
:1006300095E00E94821760ED77E080E090E00E94F4
:100640005F0788E896E00E94F80A88E896E060E094
:1006500071E00E940C0B88E896E067E171E00E946F
:100660000C0B8DEE9DE0AEE3BBE38093AA05909367
:10067000AB05A093AC05B093AD050E949502BC01FB
:1006800088E896E04AE050E00E94F20B88E896E0A5
:100690006DE371E00E940C0B8DEB95E061E00E9430
:1006A00061158DEB95E061E070E00E9467158DEBC0
:1006B00095E060E070E040E050E00E945B158DEB5B
:1006C00095E00E9400168DEB95E065E471E00E94D4
:1006D0000C0B8DEB95E00E94821700D000D088E6CD
:1006E00090E0EDB7FEB79283818381E293E094833B
:1006F00083830E94F82B0F900F900F900F9088E843
:1007000096E06BE571E00E940C0B88E397E063E1F3
:1007100073E00E94590D0097F9F488E896E064E7C9
:1007200071E00E940C0B8DE395E09E878D87809190
:10073000F0059091F105A091F205B091F3058F8736
:10074000988BA98BBA8B88E397E063E173E0AE01E5
:10075000435F5F4F0E949D0E88E896E06CE971E070
:100760000E94E20ACE01079668E377E00E941B0F21
:1007700088E896E0BE01695F7F4F0E941E0B81E012
:1007800068E872E043E050E00E945F0680E69AEE7F
:10079000A0E0B0E08093B9059093BA05A093BB05A3
:1007A000B093BC050E942307DC01CB014091B90541
:1007B0005091BA056091BB057091BC05840F951FDF
:1007C000A61FB71F8093B5059093B605A093B705F4
:1007D000B093B805A89588E896E067EA71E00E94B2
:1007E000E20A6091190370911A0388E896E00E946A
:1007F0000C0B88E896E062EB71E00E940C0B88E835
:1008000096E06EEB71E00E940C0B8DEB95E060E0E2
:1008100070E04AE050E00E945B158DEB95E063EDDF
:1008200071E00E940C0B8DEB95E060E070E044E11C
:1008300050E00E945B15CE01019668E377E00E94CC
:100840001B0F8DEB95E0BE016F5F7F4F0E941E0B6B
:100850008DEB95E00E94821760ED77E080E090E0FC
:100860000E945F076296E2E00C942A2BA6E2B0E0B9
:10087000ECE3F4E00C94042B4B015C012091AA05FD
:100880003091AB054091AC055091AD050E94282AEE
:10089000F62EE72ED82EC92EA7019601852F942F6C
:1008A000A32FB22FBC01CD0120E030E04AE754E491
:1008B0000E94282A20E030E040E05FE30E94712897
:1008C0000E944129DC01CB018093A6059093A705E6
:1008D000A093A805B093A905C501B40140E020E0AC
:1008E0008E01095E1F4F0E944F2BA7019601852F95
:1008F000942FA32FB22FBC01CD0140E020E08E0148
:10090000095E1F4F0E944F2B8DEB95E062E00E9425
:1009100061158DEB95E061E070E00E9467158DEB4D
:1009200095E060E070E040E050E00E945B158DEBE8
:1009300095E00E9400168DEB95E0F70196014F2F90
:100940005E2F632F722F22E030E00E94140D8DEB9A
:1009500095E064E170E042E150E00E945B158DEBB0
:1009600095E065EE71E00E940C0B8DEB95E00E9426
:10097000821784EF95E00E945710882351F088E891
:1009800096E06CEE71E00E940C0B84EF95E00E9403
:100990007B1088E896E06DEF71E00E940C0B8DE310
:1009A00095E09A8389838091EA059091EB05A09167
:1009B000EC05B091ED058B839C83AD83BE8384EF02
:1009C00095E0BE016F5F7F4F40E550E00E94C1108F
:1009D000009709F4B8C088E896E06CE172E00E94E4
:1009E0000C0B0E942307DC01CB018093AE05909392
:1009F000AF05A093B005B093B1051092100627E0A3
:100A0000E22EF12CEC0EFD1EC501B40140E020E009
:100A100087010E944F2B01E116E084E6D8011D9268
:100A20008A95E9F7EDB7FEB73C970FB6F894FEBF8D
:100A30000FBEEDBF3196ADB7BEB712961C930E93A5
:100A400011978AE790E09383828380911B039091B2
:100A50001C039583848380911D0390911E039783CB
:100A600086838091190390911A0391878087F3867A
:100A7000E2860E941B2CF80101900020E9F73197D3
:100A80001082EDB7FEB73C960FB6F894FEBF0FBECE
:100A9000EDBF88E896E0B8010E940C0B84EF95E06A
:100AA00066E272E00E94E20A60911F0370912003E7
:100AB00084EF95E00E94E20A84EF95E068E472E03A
:100AC0000E940C0B84EF95E062E572E00E940C0B33
:100AD00084EF95E066E672E00E940C0B84EF95E0EF
:100AE0006AE772E00E94E20AD8010D900020E9F75F
:100AF000BD0161507040601B710B84EF95E04AE0CE
:100B000050E00E94A10B84EF95E06BE872E00E9438
:100B10000C0B84EF95E00E94F80A84EF95E0B80191
:100B20000E940C0B88E896E06CEE71E00E940C0BC2
:100B300084EF95E00E947B1088E896E06EEB71E010
:100B40000E940C0B2AC0209110062F5F20931006E4
:100B5000233018F081E080930F0600D000D08AEA9D
:100B600092E0EDB7FEB79283818383E090E0821B31
:100B70009109948383830E94E32B0F900F900F9031
:100B80000F900E942307DC01CB018093AE05909368
:100B9000AF05A093B005B093B105A696ECE00C9418
:100BA000202BCF92DF92EF92FF920F931F936B0156
:100BB0007C010E942307DC01CB0197018601081B01
:100BC000190B2A0B3B0BC816D906EA06FB0620F4C4
:100BD0000095109520953095B801C9011F910F918E
:100BE000FF90EF90DF90CF90089580910F068130B5
:100BF00009F0A89588E397E00E94CC0E8091B40597
:100C0000882311F01092B4056091AE057091AF0584
:100C10008091B0059091B1050E94D105AB01BC0156
:100C20008091B9059091BA05A091BB05B091BC0522
:100C3000481759076A077B07B0F06091B2057091B9
:100C4000B305882777FD8095982F0E94742910920C
:100C5000B3051092B205462F572F682F792FCB017D
:100C6000BA010E9436040895EF920F9385E796E04B
:100C700060E040E020E000E00E94700A84EF95E030
:100C80000E9437108EEE95E060EC48EA24E608E218
:100C90000E94700A88EE95E060EB48E32CEE0BE4CE
:100CA0000E94700A8DEB95E065E046E028E007E0E1
:100CB00034E0E32E0E94EF150F91EF9008958230FB
:100CC000E8F4E82FF0E0EE0FFF1FE558F94F7183CD
:100CD0006083813041F0809169008C7F842B809308
:100CE0006900E89A089580916900440F551F440FE8
:100CF000551F837F842B80936900E99A08951F9282
:100D00000F920FB60F9211242F933F934F935F933F
:100D10006F937F938F939F93AF93BF93EF93FF93C3
:100D200080917B0690917C06009729F0E0917B06EC
:100D3000F0917C060995FF91EF91BF91AF919F9142
:100D40008F917F916F915F914F913F912F910F9074
:100D50000FBE0F901F9018951F920F920FB60F9213
:100D600011242F933F934F935F936F937F938F93B0
:100D70009F93AF93BF93EF93FF9380917D069091E4
:100D80007E06009729F0E0917D06F0917E06099598
:100D9000FF91EF91BF91AF919F918F917F916F9153
:100DA0005F914F913F912F910F900FBE0F901F9029
:100DB00018951F920F920FB60F9211242F933F9305
:100DC0008F939F93AF93BF9380917F0690918006FE
:100DD000A0918106B091820630918706232F2D5F66
:100DE0002D3720F40196A11DB11D05C0232F2A57D0
:100DF0000296A11DB11D2093870680937F069093D4
:100E00008006A0938106B09382068091830690911C
:100E10008406A0918506B09186060196A11DB11D9C
:100E20008093830690938406A0938506B0938606EC
:100E3000BF91AF919F918F913F912F910F900FBED6
:100E40000F901F9018950F931F938FB7F8940091F0
:100E50007F061091800620918106309182068FBF17
:100E6000B801C9011F910F9108950F931F939FB768
:100E7000F8940091830610918406209185063091A4
:100E8000860686B5A89B06C08F3F21F00F5F1F4FD7
:100E90002F4F3F4F9FBF322F212F102F0027080FBA
:100EA000111D211D311D42E0000F111F221F331F94
:100EB0004A95D1F7B801C9011F910F910895CF92BA
:100EC000DF92EF92FF92CF93DF936B017C010E9440
:100ED0003507DC01CB01EC010FC00E9435076C1B0C
:100EE0007D0B83E0683E780738F00894C108D1088C
:100EF000E108F108C851DC4FC114D104E104F10448
:100F000061F7DF91CF91FF90EF90DF90CF90089540
:100F1000789484B5826084BD84B5816084BD85B5D4
:100F2000826085BD85B5816085BDEEE6F0E080819B
:100F300081608083E1E8F0E01082808182608083BC
:100F4000808181608083E0E8F0E08081816080833F
:100F5000E1EBF0E0808184608083E0EBF0E0808171
:100F600081608083EAE7F0E0808184608083808113
:100F700082608083808181608083808180688083BB
:100F80001092C1000895833071F0843028F48130CC
:100F9000A1F0823021F514C08630B1F08730D1F055
:100FA0008430E9F404C0809180008F7703C0809181
:100FB00080008F7D80938000089584B58F7702C074
:100FC00084B58F7D84BD08958091B0008F77809324
:100FD000B00008958091B0008F7D8093B000089597
:100FE00090E0FC01E251FF4F24918E5F9E4FFC0187
:100FF0008491882341F190E0880F991FFC01E65D00
:10100000FE4F45915491DA01805E9E4FFC0185911F
:101010009491FC019FB7F8948C91662331F420954C
:1010200082238C938081822308C0623049F4322F5E
:10103000309583238C938081822B80839FBF08957A
:10104000822B8C939FBF0895A1E0B0E0EAE2F8E024
:101050000C940C2B282F30E0F901E652FF4F8491BD
:10106000F901E251FF4F1491F901EE5FFE4F049137
:101070000023D1F0882321F069830E94C30769818E
:10108000E02FF0E0EE0FFF1FE05EFE4F85919491A0
:10109000DC019FB7F8948C91662319F41095812395
:1010A00001C0812B8C939FBF2196E4E00C94282BE8
:1010B000FC0124853585F901E05CFF4F8081918139
:1010C0002E5B3F4FF90120813181821B930B8F737F
:1010D00090700895FC0144855585FA01E05CFF4F4E
:1010E00080819181FA01EE5BFF4F2081318182176F
:1010F000930741F00190F081E02DE40FF51F80810E
:1011000090E008958FEF9FEF0895FC014485558589
:10111000FA01E05CFF4F20813181FA01EE5BFF4F65
:10112000808191812817390779F0A081B181A40FBE
:10113000B51F8C91208131812F5F3F4F2F7330700D
:101140003183208390E008958FEF9FEF0895FC0195
:1011500081A1882329F0A489B5898C9186FFFBCFD2
:1011600011A20895CF93DF93DC011E964D915C91FF
:101170001F97EA01C05CDF4F288139812F5F3F4F05
:101180002F733070FA01EE5BFF4F80819181281739
:101190003907D9F3E881F981E40FF51F60831E96C2
:1011A000ED91FC911F97E05CFF4F318320835696B1
:1011B000ED91FC915797208181E090E05F960C9033
:1011C0005F9702C0880F991F0A94E2F7282B2083AB
:1011D00081E091968C9391975496ED91FC9155975F
:1011E00080818064808381E090E0DF91CF910895D9
:1011F00008951F920F920FB60F9211242F933F93D1
:101200004F938F939F93EF93FF938091C00082FD44
:101210001CC04091C60080912E0790912F07019627
:101220008F739070209130073091310782179307A8
:1012300071F0E0912E07F0912F07E251F94F4083B2
:1012400090932F0780932E0702C08091C600FF91D4
:10125000EF919F918F914F913F912F910F900FBEE2
:101260000F901F90189588E896E00E945808009704
:1012700011F00E94F80808951F920F920FB60F9276
:1012800011242F933F938F939F93EF93FF9320917C
:10129000EA063091EB068091EC069091ED06281756
:1012A000390731F48091C1008F7D8093C10014C053
:1012B000E091EC06F091ED06E655F94F2081809122
:1012C000EC069091ED0601968F7390709093ED0669
:1012D0008093EC062093C600FF91EF919F918F9130
:1012E0003F912F910F900FBE0F901F901895A0E087
:1012F000B0E0EDE7F9E00C94072BEC016A017B010B
:10130000BB24B394403081EE580780E0680780E04A
:10131000780749F4BB24EC89FD89108260E874E801
:101320008EE190E00FC0EC89FD8981E090E008A09B
:1013300002C0880F991F0A94E2F7808360E079E089
:101340008DE390E0A70196010E94C12A89019A01CC
:10135000015010402040304036952795179507954D
:1013600080E10030180710F0BB20A1F6E889F98968
:101370001083EA89FB89008319A2EE89FF894081E5
:1013800021E030E0C9010C8C02C0880F991F0A943B
:10139000E2F7482B4083EE89FF894081C9010D8C1B
:1013A00002C0880F991F0A94E2F7482B4083EE8908
:1013B000FF894081C9010E8C02C0880F991F0A94D1
:1013C000E2F7482B4083EE89FF8980810F8C02C0B1
:1013D000220F331F0A94E2F7209528232083CDB7EC
:1013E000DEB7E9E00C94232B10928B0610928A064C
:1013F00088EE93E0A0E0B0E080938C0690938D0699
:10140000A0938E06B0938F06EAE8F6E08DE295E0B1
:10141000929382938EEE96E0958784878AEA96E08F
:101420009787868785EC90E0918B808B84EC90E0A9
:10143000938B828B80EC90E0958B848B81EC90E099
:10144000978B868B82EC90E0918F808F86EC90E07A
:10145000938F828F84E0848F83E0858F87E0868FEF
:1014600085E0878F81E080A30895A0E0B0E0EBE302
:10147000FAE00C94062B5C017B0100E010E0CC2428
:10148000DD24F501E00FF11FC70162814AE050E061
:101490000E94B70BEC01C7016EE20E94E50AC80F7B
:1014A000D91FCC0EDD1E0F5F1F4F0330110549F70A
:1014B000C701F50165814AE050E00E94B70B8C0D31
:1014C0009D1DCDB7DEB7EAE00C94222BFC018DE325
:1014D00095E091838083128213821482158208958D
:1014E0000F93FC018DE395E09183808362834383B6
:1014F000248305830F910895CF93DF93FC018DE33F
:1015000095E091838083EB0188819981AA81BB81D9
:1015100082839383A483B583DF91CF910895FB01E8
:101520004081518162817381FC01428353836483D2
:10153000758308958DE395E0909333078093320788
:101540001092340710923507109236071092370721
:101550000895A0E0B0E0EFEAFAE00C94082B6C01EB
:101560007B01EA0100E010E00EC0D7016D917D0122
:10157000D601ED91FC910190F081E02DC601099515
:10158000080F191F2197209781F7C801CDB7DEB743
:10159000E8E00C94242B6115710589F0DB010D90B6
:1015A0000020E9F7AD0141505040461B570BDC01CC
:1015B000ED91FC910280F381E02D0995089580E082
:1015C00090E008950E94CB0A0895DC01ED91FC9112
:1015D0000190F081E02D099508959C01CB01DB017C
:1015E000ED91FC910190F081E02DB90109950895EC
:1015F0000F931F93CF93DF938C016DE00E94E50A58
:10160000EC01C8016AE00E94E50A8C0F9D1FDF9182
:10161000CF911F910F9108950F931F93CF93DF9355
:101620008C010E94CB0AEC01C8010E94F80A8C0FC1
:101630009D1FDF91CF911F910F9108950F931F93DD
:10164000CF93DF938C010E94ED0AEC01C8010E9448
:10165000F80A8C0F9D1FDF91CF911F910F91089574
:101660004F925F926F927F92AF92BF92CF92DF9232
:10167000EF92FF920F931F93CF93DF93CDB7DEB717
:10168000A1970FB6F894DEBF0FBECDBF5C01E42E6C
:10169000CB01F22E19A221E02F1510F03AE0F32E23
:1016A00021E2C22ED12CCC0EDD1E4F2C55246624F7
:1016B000772403C0E02E512FC9016E2D752FA30191
:1016C00092010E94C12A89019A01F09E802D112465
:1016D000E81A8E2D0894C108D1088A3010F4805D74
:1016E00001C0895CF60180830115110521053105D2
:1016F00009F7C501B6010E94CB0AA1960FB6F8946E
:10170000DEBF0FBECDBFDF91CF911F910F91FF9034
:10171000EF90DF90CF90BF90AF907F906F905F90F1
:101720004F9008952115310549F4DC01ED91FC91AC
:101730000190F081E02D642F099508950E94300BEF
:1017400008950F931F93CF93DF938C019A01AB0100
:1017500060E070E00E94920BEC01C8010E94F80A60
:101760008C0F9D1FDF91CF911F910F9108959A01CA
:10177000462F50E060E070E00E94920B0895A0E0D8
:10178000B0E0E5ECFBE00C94082BEC016A017B0176
:101790002115310541F4E881F9810190F081E02DB6
:1017A000642F09951AC02A303105A9F477FF12C0B9
:1017B0006DE20E94E50A8C0144275527BA014C19B5
:1017C0005D096E097F09CE012AE00E94300B800F6F
:1017D000911F03C02AE00E94300BCDB7DEB7E8E0CE
:1017E0000C94242B9A01FB01AF01662757FD6095ED
:1017F000762F0E94BF0B08952F923F924F925F92D7
:101800007F928F929F92AF92BF92CF92DF92EF9290
:10181000FF920F931F93CF93DF932C014A015B013B
:10182000722ECB01BA01A50194010E948B2A882354
:1018300021F0C2016FEE72E01BC075016401E894F3
:10184000F7F8C701B6012FEF3FEF4FE75FE70E94C0
:101850008B2A882389F4C701B6012FEF3FEF4FE7AA
:101860005FE70E94D52818163CF4C20163EF72E0CE
:101870000E94CB0A4C01C5C0C501B4012FEF3FEF58
:101880004FE75FE40E94242A181654F0C501B40102
:101890002FEF3FEF4FE75FEC0E94D52887FF04C092
:1018A000C20167EF72E0E4CFC501B40120E030E08F
:1018B000A9010E94D52887FF0AC0C2016DE20E94DB
:1018C000E50A1C01B7FAB094B7F8B09402C022241C
:1018D0003324C0E050E040E030E02FE313C0FA01D1
:1018E000B9018F2F942FA72FB22FBC01CD0120E07B
:1018F00030E040E251E40E94D928562F472F382F7C
:10190000292FCF5FC71559F7C501B401DA01F901D5
:101910000B2F142F2F2F3E2FA90198010E94712801
:101920007B01182FD92F862F9F2DA12FBD2FBC01F2
:10193000CD010E944629C62E072F882EC92F0E944E
:1019400072299B01AC018E2D9F2DA12FBD2FBC01B3
:10195000CD010E9470287B01182FD92FC2014C2D78
:10196000502F682D7C2F2AE030E00E94920B4C0112
:10197000820C931C772009F442C0C2016BEF72E025
:101980000E94CB0A880E991E3AC08E2D9F2DA12F42
:10199000BD2FBC01CD0120E030E040E251E40E94C7
:1019A000282AEB01182F092F9801862F9D2FA32F8E
:1019B000B22FBC01CD010E9441296B017C01EE24B4
:1019C000D7FCE094FE2CC201B701A6012AE030E06A
:1019D0000E94BF0B880E991EC701B6010E94742990
:1019E0009B01AC01B8018C2F9D2FA72FB62FBC01F6
:1019F000CD010E9470287B01182FD92F7A9477206F
:101A000021F6C401DF91CF911F910F91FF90EF90CC
:101A1000DF90CF90BF90AF909F908F907F905F901E
:101A20004F903F902F9008950F931F93CF93DF9384
:101A30008C010E94FC0BEC01C8010E94F80A8C0F7B
:101A40009D1FDF91CF911F910F9108950E948807EC
:101A50000E94AC02C3E3D9E00E94F5052097E1F3B0
:101A60000E943309F9CF21E030E0FC018081882316
:101A700011F020E030E0C901089521E0FC0120834D
:101A80000895BC0181E090E044E050E00E949E1A7D
:101A90000895BC0185E090E044E050E00E949E1A69
:101AA0000895BC018FE090E044E050E00E949E1A4F
:101AB0000895AEE1B0E0EFE5FDE00C94082B6C0179
:101AC0007B0180914807882371F488E497E00E94A5
:101AD000330D009741F087E997E00E94891288E46E
:101AE00097E00E943D0D80E597E0F601978386839D
:101AF00086EC97E00E94601A89E090E0B70146E02A
:101B000050E00E949E1ACE01499660E040E020E03D
:101B100000E00E94700ACE014B960E94510DF60122
:101B200086819781B70120E63AEE40E050E0A0EAD6
:101B3000EA2EAFE0FA2E012D112D0E9456227C01D3
:101B40008130910589F5F60166817781CE01439652
:101B50000E94C21ECE0145960E94510DF60166817B
:101B60007781CE010D960E94D81ECE010F960E945D
:101B7000410DF60166817781CE0107960E94CD1E48
:101B8000CE0109960E94490DF60166817781CE014A
:101B900001960E94E31E8B819C81AD81BE81F6017E
:101BA00082839383A483B583C7016E96E8E00C9487
:101BB000242BA0E0B0E0EFEDFDE00C94022B3C0103
:101BC0004B015A01690186EC97E00E94601A89E096
:101BD00090E0B40146E050E00E949E1AC5010296D2
:101BE0000E94510DC80102960E94410DC701029644
:101BF0000E94490DF60182819381A481B581F30190
:101C000082839383A483B583CDB7DEB7EEE00C94D3
:101C10001E2BAEE1B0E0EFE0FEE00C94022B3C01A5
:101C20004B017A0169015801CE0149966FEF4FEFE0
:101C30002FEF00E00E94700A2DE335E03C8B2B8BE8
:101C4000F70182819381A481B5818D8B9E8BAF8BAF
:101C5000B88F3E872D87F60182819381A481B5815B
:101C60008F87988BA98BBA8B38872F83F501828158
:101C70009381A481B58189879A87AB87BC873A8392
:101C800029838B8D9C8DAD8DBE8D8B839C83AD8385
:101C9000BE83C301B401AE014D5E5F4F9E01235F61
:101CA0003F4F8E01095F1F4F7E010894E11CF11C1C
:101CB0000E94D90D6E96EEE00C941E2BA8E1B0E0C8
:101CC000E4E6FEE00C940A2B7B01DA0112964D91BA
:101CD0005D916D917C9115974D8B5E8B6F8B788F9D
:101CE000EDE3F5E0FE87ED874F87588B698B7A8BA4
:101CF000F887EF83D90112960D911D912D913C919A
:101D0000159709871A872B873C87FA83E9834B83CA
:101D10005C836D837E8321E02E83B701AE01435F38
:101D20005F4F9E01295F3F4F8E010F5F1F4F0E9443
:101D3000090E6896E6E00C94262BA2E1B0E0E3EAF7
:101D4000FEE00C940E2BFB01DA0112964D915D9191
:101D50006D917C9115974F87588B698B7A8B2DE30A
:101D600035E038872F8349875A876B877C873A838A
:101D700029834B835C836D837E8321E02E83BF01A7
:101D8000AE01495F5F4F9E012F5F3F4F0E945E0E85
:101D90006296E2E00C942A2BA8E1B0E0E2EDFEE0CE
:101DA0000C940A2B8C01FC01868197810097E1F14C
:101DB0000E9496217C018230910521F084E0E81692
:101DC000F104A1F5F80166817781CE0143960E9466
:101DD000C21ECE0145960E94510DF80166817781A1
:101DE000CE010D960E94D81ECE010F960E94410D85
:101DF000F80166817781CE0107960E94CD1ECE0143
:101E000009960E94490DF80166817781CE010196FD
:101E10000E94E31E8B819C81AD81BE81F80182838B
:101E20009383A483B58302C0EE24FF24C701689680
:101E3000E6E00C94262BCF93DF93EC010E94660A18
:101E4000BE016E5F7F4F8FE090E044E050E00E9463
:101E5000C01BCE01DF91CF9108952DE335E0FC0149
:101E600031832083FB014281538164817581FC01B0
:101E7000428353836483758308950F9382EB97E0C5
:101E800060E040E020E000E00E94700A88E397E014
:101E90000E94660A0F910895A1E0B0E0E2E5FFE03C
:101EA0000C940E2B6983DC01ED91FC910280F3818F
:101EB000E02DBE016F5F7F4F41E050E00995219614
:101EC000E2E00C942A2BCF93DF93EC0107C0E8816A
:101ED000F9810680F781E02DCE010995E881F9812D
:101EE0000480F581E02DCE010995009781F7DF91FF
:101EF000CF91089521E0FC018485843009F420E02D
:101F0000822F0895A1E0B0E0E8E8FFE00C940C2BEC
:101F10008C01DC01ED91FC910480F581E02D0995A7
:101F2000009751F0F8018485BE016F5F7F4F0E94DA
:101F3000AC19898190E002C08FEF9FEF2196E4E019
:101F40000C94282BFC0184850E9470190895A1E04F
:101F5000B0E0EDEAFFE00C940E2BFC018485BE019D
:101F60006F5F7F4F41E050E00E947019181619060C
:101F70001CF4898190E002C08FEF9FEF2196E2E090
:101F80000C942A2BA5E3B0E0E8ECFFE00C94082BBE
:101F90007C018B016A01CE0143960E94660ACE0144
:101FA0004B960E948912CE010D960E94660ACE01C0
:101FB000079668E377E00E942D0FCE014396BE019D
:101FC000695F7F4F0E94A122CE014396B801AE0106
:101FD000435F5F4F0E94D62481309105C1F4D70141
:101FE000ED91FC910484F585E02D8DE395E09A83D5
:101FF00089838F859889A989BA898B839C83AD83CE
:10200000BE83C701BE016F5F7F4FA6010995E596AC
:10201000E8E00C94242BFC016485643031F086ECFC
:1020200097E00E94751B9C0102C020E030E0C901CE
:1020300008950F931F93CF93DF938C01EA01FC0166
:102040008485843019F481E090E007C00E941D1956
:10205000009739F481E090E0F80193838283C0E037
:10206000D0E0CE01DF91CF911F910F910895FC0137
:102070001382128248EE53E060E070E0448355839F
:102080006683778383E495E09183808384E084870B
:102090000895FC018485843041F0382F20E0C90187
:1020A0008D5F9B4F0E94C81A089580E00895CF93DA
:1020B000DF93EC018C858430D1F0CE010E94491071
:1020C000843181F0882371F0883161F08C3161F4C2
:1020D000E881F9810480F581E02DCE01099521E0A8
:1020E000009719F420E001C021E0822F01C080E0B8
:1020F000DF91CF910895CF92DF92EF92FF92CF932D
:10210000DF93EC018C858430A9F10E9416190E949E
:1021100023076B017C01CE010E944910882381F0C6
:102120000E942307DC01CB018C199D09AE09BF0970
:10213000883E23E0920720E0A20720E0B20798F053
:10214000CE010E944910882319F08C850E949318B3
:10215000EC85F0E0EE0FFF1FE05CF84F118210827B
:1021600084E08C8707C061E070E080E090E00E942E
:102170005F07D1CFDF91CF91FF90EF90DF90CF90AD
:102180000895A1E0B0E0E7ECF0E10C94062B5C01CF
:102190007B016A01FC018485843009F055C003E0AD
:1021A00014E020E0C80129830E94C81A29818823ED
:1021B00021F0883111F08C3119F4F501248705C024
:1021C0002F5F00501F4F243069F7F501848584305C
:1021D000D9F120912703309128032F5F3F4F30938F
:1021E0002803209327032115310531F420E034E042
:1021F000309328032093270340912703509128030D
:1022000061E020E00E94A118B7016E5F7F4FF501E9
:102210008485A6010E94E11809C061E070E080E0B9
:1022200090E00E945F07C5010E944910882321F4B5
:1022300084E0F501848708C0C5010E9449108731F8
:1022400061F781E090E002C080E090E02196EAE052
:102250000C94222B0F9388EB97E060E040E020E0A5
:1022600000E00E94700A0F910895DC01ED91FC914D
:10227000008CF18DE02D099508952DE335E0FC01EA
:1022800031832083FB014189528963897489FC0170
:1022900042835383648375830895FC0185899689FD
:1022A0000895FC01818D928D0895A1E0B0E0EBE5E9
:1022B000F1E10C940E2B6983DC01ED91FC9102801D
:1022C000F381E02DBE016F5F7F4F41E050E0099543
:1022D0002196E2E00C942A2BCF93DF93EC0107C008
:1022E000E881F9810680F781E02DCE010995898D7D
:1022F0009A8D0097A9F7DF91CF910895A1E0B0E002
:10230000E4E8F1E10C940E2BFC01818D928D009795
:1023100049F08485BE016F5F7F4F0E94AC198981AF
:1023200090E002C08FEF9FEF2196E2E00C942A2B01
:10233000CF93DF93EC019A01498D5A8D41155105D8
:1023400089F08C852417350708F4A9010E947019BB
:10235000181619063CF4298D3A8D281B390B3A8F33
:10236000298F02C08FEF9FEFDF91CF910895A1E0F9
:10237000B0E0EDEBF1E10C940C2B8C01FC01818DB4
:10238000928D0097A1F08485BE016F5F7F4F41E081
:1023900050E00E947019181619064CF4F801818D4E
:1023A000928D0197928F818F898190E002C08FEF8B
:1023B0009FEF2196E4E00C94282BCF93DF93EC0160
:1023C0009B01FA016F89788D8C85A9019F010E947C
:1023D000BB192F89388D280F391F388F2F8BDF912C
:1023E000CF910895FC0184850E94141A0895FC0180
:1023F000108E178A6E5F7F4F84850E94EF190895B3
:10240000A8E0B0E0E6E0F2E10C940C2B8C01DC01DA
:10241000ED91FC910284F385E02D099586EC97E01F
:10242000F80164850E94751B009721F1D8011C9664
:102430008C91BE016F5F7F4F48E050E00E947019A1
:1024400018161906CCF4C8010F96BE016F5F7F4FB6
:102450000E948F0A9D8180E02E81820F911DF801DC
:10246000968B858B9F8180E02885820F911D928FAE
:10247000818F02C080E090E02896E4E00C94282B45
:10248000CF93DF93EC018C85843061F00E94931828
:10249000EC85F0E0EE0FFF1FE05CF84F1182108238
:1024A00084E08C87DF91CF910895A1E0B0E0EBE567
:1024B000F2E10C94082B6C017B01FC0184858430D3
:1024C00019F503E014E020E0C80129830E94C81A2E
:1024D0002981882311F0883119F4F601248705C079
:1024E0002F5F00501F4F243079F7F6018485843028
:1024F00059F0F686E586128E118E62E0A70120E083
:102500000E94A11881E001C080E02196E8E00C94CF
:10251000242BFC011382128248EE53E060E070E04D
:1025200044835583668377838FE595E09183808329
:1025300084E08487CF010F960E94660A0895A5E380
:10254000B0E0E5EAF2E10C94082B7C018B016A0112
:10255000CE0143960E94660ACE014B960E948912D4
:10256000CE010D960E94660ACE01079668E377E0D9
:102570000E942D0FCE014396BE01695F7F4F0E94DE
:10258000A122CE014396B801AE01435F5F4F0E9486
:10259000D62481309105C1F4D701ED91FC910088DA
:1025A000F189E02D8DE395E09A8389838F85988961
:1025B000A989BA898B839C83AD83BE83C701BE0181
:1025C0006F5F7F4FA6010995E596E8E00C94242BF8
:1025D0000F938EEB97E060E040E020E000E00E9487
:1025E000700A0F910895FC01758364837187608779
:1025F0005783468353874287158A15861486178624
:10260000168621E0248B8FEF9FEF938B828B918B2B
:10261000808B268B0895A4E0B0E0E1E1F3E10C9417
:10262000FE2A2C017C836B836A0159011701C801C2
:10263000841B950B97FF03C0909581959F4F950143
:102640004B815C81241B350B37FF03C030952195EE
:102650003F4F41E0642E712C2817390714F066248F
:1026600077246114710459F09A2D8B2D5801092F8C
:10267000182F9B818C81DC82CB82C92ED82E8B8136
:102680009C81A816B9065CF49C2D8D2D6801092F3C
:10269000182F9B818C81BC82AB82A92EB82ED501CC
:1026A000EB81FC81AE1BBF0BBA83A98348018C1858
:1026B0009D0897FE04C09094819491089394898119
:1026C0009A8162E070E00E94AE2A7B01C016D106BA
:1026D0001CF401E010E027C00FEF1FEF24C0D2016F
:1026E000ED91FC9111970480F581E02DC2016114F8
:1026F000710421F0B6014B815C8103C06B817C8148
:10270000A60191010995E818F908F7FE06C0C00E68
:10271000D11EE981FA81EE0EFF1E2B813C812F5FD5
:102720003F4F3C832B834B815C81A416B506BCF6DE
:102730002496E2E10C941A2BA0E0B0E0E2EAF3E187
:102740000C94022BEC016B015A0139014801E8811C
:10275000F9810484F585E02D87010995E881F981E7
:10276000A501480D591D415050400484F585E02DC8
:10277000CE01B60193010995E881F9810284F385C0
:10278000E02DCE01B601A50194010995E881F981FA
:10279000B601660D771D615070400284F385E02D0F
:1027A000CE01A50194010995CDB7DEB7EEE00C94FA
:1027B0001E2BA0E0B0E0EFEDF3E10C94082BEB0151
:1027C000D9017801FC0120813181A40FB51F119737
:1027D000F901C084D1849E018D01F6010995CDB720
:1027E000DEB7E8E00C94242BEF92FF920F931F9337
:1027F000CF93DF93DA017801EC01E881F981260FAC
:10280000371F215030400084F185E02D8D0109955E
:10281000CDB7DEB7E6E00C94262BA0E0B0E0E3E114
:10282000F4E10C94022B5C013A0169014801EB01CF
:10283000C60ED71E0DC0D501ED91FC910284F38523
:10284000E02DC501BE01A3019401870109952196E0
:10285000CC15DD0584F3CDB7DEB7EEE00C941E2B6E
:10286000AFE0B0E0E6E3F4E10C94FE2A5C015E83A5
:102870004D83422F18870F83FA86E986DC0118966C
:102880008D919C911997681779070CF0B1C01A9631
:102890008D919C911B97ED81FE81E817F9070CF053
:1028A000A7C02C2D30E0C901880F991F880F991FF0
:1028B000820F931F860F971F181619060CF098C0E9
:1028C000C90153E0880F991F5A95E1F78E0F9F1F9A
:1028D000181619060CF08CC0842F90E04C01880C5F
:1028E000991C880C991C880E991EC9821A821B019A
:1028F0007C836B8330E02C2D353029F0F401EC5CC7
:10290000FE4FE49101C0E0E0C22C3D866D807E80E8
:102910002301DD243F872E872E2F30E03C872B8735
:10292000E0FF1EC0D501ED91FC91BE85B13051F4A0
:102930000480F581E02DC5016B817C81A2012F818E
:10294000388524C00088F189E02DC5016C2D7D8576
:10295000A3012E8530E0022F10E0EF80F88425C01F
:10296000E985FA852F813885E217F307F9F0D5015B
:10297000ED91FC91BE85B13059F40480F581E02DD4
:10298000C5016B817C81A20129853A8509950EC01C
:102990000088F189E02DC5016C2D7D85A3012E8570
:1029A00030E0022F10E0E984FA840995EB85FC857C
:1029B000F595E795D39429813A81620E731E0894A8
:1029C000411C511C38E0D31609F0A6CF3F852E8557
:1029D0003F5F89819A81280E391EAB81BC81119697
:1029E000BC83AB830894811C911C363009F084CFE2
:1029F0002F96E2E10C941A2BCF92EF92FF920F9355
:102A00001F93CF93DF93EC01262F6A3061F42C895A
:102A100030E013E0220F331F1A95E1F78E859F8572
:102A2000820F931F3AC06D30E1F14C855D85EE85D4
:102A3000FF8508891989EA88FB88BA01AF01CC882B
:102A40000E9430144C8950E09A01220F331F240F4A
:102A5000351F220F331F8C859D85280F391F3D8719
:102A60002C878E898823E9F08AEF9FEF489FB00179
:102A7000499F700D589F700D112488859985680FA6
:102A8000791F621773076CF4B3E0440F551FBA95B2
:102A9000E1F78E859F85840F951F9F878E871D8602
:102AA0001C8681E090E0DF91CF911F910F91FF9004
:102AB000EF90CF900895FC0175876487578746870C
:102AC0000895662309F461E0FC01648B0895FC011C
:102AD000718B608B738B628B0895FC018589837089
:102AE000858B0895FC01808591850895FC01828580
:102AF00093850895A0E0B0E0E0E8F5E10C94082BA0
:102B0000EC017B018A01690177FD64C00E947215A6
:102B1000E816F9060CF05EC017FD5CC0CE010E94FD
:102B20007615081719070CF055C049C08C819D8196
:102B3000801B910B87017C010894E108F10818C003
:102B40008C819D819C012E193F0979010894E1082F
:102B5000F1088E819F819C01201B310B890106C0E9
:102B60008E819F818E199F0978018C010150104040
:102B7000C80168E070E00E94AE2AFB01F695FE2FC6
:102B8000EE27F795E795EE0DFF1DE75DFC4F31E071
:102B9000C316D10441F402C0CC0CDD1C8A95E2F7C7
:102BA00080818C290AC021E030E002C0220F331F4F
:102BB0008A95E2F720958081822380830BC0CE0125
:102BC0000E946D15823009F4BBCF833049F2813009
:102BD00079F6ACCFCDB7DEB7E8E00C94242BEF92BA
:102BE0000F93FC011382128283E895E09183808326
:102BF000E48E038F228F418F608F0F91EF900895A5
:102C000080E092E0E9E2F3E0DF019C011D922150B7
:102C10003040E1F70895FC0188E090E030E8A78DAE
:102C2000B0A14C9126A1209524232C93432F462319
:102C3000A58DB68D25A1442321F04C91422B4C93B8
:102C400004C04C91209524232C93A78DB0A12C91E6
:102C500046A1242B2C933695019709F708951F93CD
:102C6000CF93DF93EC01162F888D8F3FF1F0E9A110
:102C7000FAA180819FA1892B8083EBA1FCA1908187
:102C800088A5809589238083E9A1FAA190818FA1ED
:102C9000809589238083CE010E940B16E9A1FAA1B9
:102CA00080819FA1892B808316C06F89772767FD5C
:102CB000709582EE97E00E94FB2582EE97E060E03F
:102CC0000E94B62582EE97E0612F0E94B62582EE23
:102CD00097E00E941126DF91CF911F9108956623FE
:102CE00011F067EA01C066EA0E942F1608950F935B
:102CF0001F93CF93DF93EC01162F042F60E870E051
:102D000040E250E00E94F3120F8B888D8F3F09F450
:102D100068C061E00E94F007898D61E00E94F007C1
:102D20008A8D61E00E94F0078C8D61E00E94F007BF
:102D3000298D332727FD3095F901EE5FFE4FE49191
:102D4000F0E0EE0FFF1FE05EFE4F859194918F8FB4
:102D500098A322513F4FF90124912EA3288D3327A8
:102D600027FD3095F901EE5FFE4FE491F0E0EE0FA4
:102D7000FF1FE05EFE4F859194918D8F9E8F2251B3
:102D80003F4FF90124912DA32C8D332727FD30953A
:102D9000F901EE5FFE4FE491F0E0EE0FFF1FE05E01
:102DA000FE4F8591949189A39AA322513F4FF90137
:102DB00024912FA32A8D332727FD3095F901EE5F4B
:102DC000FE4FE491F0E0EE0FFF1FE05EFE4F8591B5
:102DD00094918BA39CA322513F4FF901249128A7E2
:102DE00004C082EE97E00E94E6258B8D61E00E9490
:102DF000F0078B8D61E00E94240861E070E080E0C4
:102E000090E00E945F078B8D60E00E9424086AE0DA
:102E100070E080E090E00E945F078B8D61E00E948F
:102E20002408CE016EEA0E942F16CE0165ED0E94A5
:102E30002F16CE0160E80E942F16CE0168EA0E948C
:102E40002F16CE016FE10E942F16CE0163ED0E9476
:102E50002F16CE0160E00E942F16CE0160E40E9482
:102E60002F16CE016DE80E942F16CE01113011F4FD
:102E700060E101C064E10E942F16CE0160E20E9471
:102E80002F16CE0160E00E942F16CE0161EA0E944B
:102E90002F16CE0168EC0E942F16CE016AED0E941B
:102EA0002F16CE0162E00E942F16CE0161E80E942B
:102EB0002F16CE016FE80E942F16CE0169ED0E94F9
:102EC0002F16CE01113011F462E201C061EF0E94B1
:102ED0002F16CE016BED0E942F16CE0160E40E94EA
:102EE0002F16CE0164EA0E942F16CE0166EA0E94D8
:102EF0002F16CE016FEA0E942F16DF91CF911F91FE
:102F00000F910895A0E0B0E0E8E8F7E10C94072BFA
:102F10008C0160E00E942F16C80160E10E942F160C
:102F2000C80160E40E942F16D80158968C915897DA
:102F30008F3F09F443C09196ED91FC919297808167
:102F400097969C919797892B80839396ED91FC910E
:102F50009497808198969C919897892B80839196DD
:102F6000ED91FC919297908197968C918095892311
:102F7000808399E2E92E93E0F92EC0E0D0E0F701DA
:102F800061917F01C8010E940B162196F2E0C030CA
:102F9000DF07A9F7C0E0D2E0C80160E00E940B168D
:102FA0002197D1F7D8019196ED91FC91929780816C
:102FB00097969C919797892B808364C0B090B800B6
:102FC0008CE08093B800CC24DD24F8016789772752
:102FD00067FD709582EE97E00E94FB25E091E20785
:102FE000F091E3070190F081E02D82EE97E060E43C
:102FF0000995EE24FF24E601C75DDC4FFE01EE0DCE
:10300000FF1D82EE97E060810E94B6250894E11CC6
:10301000F11CF0E1EF16F10489F780E190E0C80EB1
:10302000D91E82EE97E00E94112690E0C91692E028
:10303000D90659F6C0E2D0E0D80157966C917727AF
:1030400067FD709582EE97E00E94FB25E091E20714
:10305000F091E3070190F081E02D82EE97E060E4CB
:10306000099580E1E82E82EE97E060E00E94B625A7
:10307000EA94C9F782EE97E00E9411262197E1F6C3
:10308000B092B800CDB7DEB7E9E00C94232B90E006
:10309000982F8827845F9B4F44E050E00E949E1A3F
:1030A000089590E00496982F8827860F971F0E9416
:1030B000C81A089562E070E00E945118089590E0E7
:1030C0000496982F8827860F971F642F0E94401A16
:1030D0000895462F62E070E00E945F180895CF9334
:1030E000DF93C82FD62F472F60E170E00E945F1852
:1030F0008C2F61E170E04D2F0E945F18DF91CF911E
:103100000895CF93DF93C82FD62F472F64E070E048
:103110000E945F188C2F65E070E04D2F0E945F18B1
:10312000DF91CF910895CF93C82F86EC97E06C2F55
:1031300040E10E945A1C8C2F6FEF0E946918CF91BA
:103140000895EF92FF921F93CF93DF9300D0CDB7F6
:10315000DEB7182F7A01862F8150853048F5812FF0
:103160002A8369830E9493182A816981422F462B02
:10317000812F60E070E00E945F18E114F10419F003
:10318000812FB7010BC06091C4077091C5076F5FB5
:103190007F4F7093C5076093C407812F0E948118E9
:1031A00086EC97E0612F41E00E945A1C81E001C04B
:1031B00080E00F900F90DF91CF911F91FF90EF90E3
:1031C00008951F93CF93DF93182FFB01EA018081AD
:1031D0008F3F51F481818F3F91F482818F3F79F449
:1031E00083818F3F61F41DC0882349F48181882346
:1031F00031F48281882319F48381882391F0209708
:1032000081F0812FBF010E944718812FBE010E94CB
:103210006F1886EC97E0612F44E00E945A1C81E011
:1032200001C080E0DF91CF911F910895682F86EC57
:1032300097E048E00E945A1C0895CF92DF92EF92E7
:10324000FF921F93CF93DF93182F6B017A0188E0D1
:103250004130580718F0E12C68E0F62E86EC97E034
:10326000612F0E94A51BEC01812F63E070E00E949A
:103270005118873111F08C3121F4CE15DF0570F330
:1032800002C0EE24FF2486EC97E0612FA60197018F
:103290000E94541B86EC97E0612F40E20E945A1C6A
:1032A0000DC0812F63E070E00E945118882331F433
:1032B000812F0E949318EE24FF2409C0812F0E94C1
:1032C0005A1884FFEECF812F60E10E946918C70170
:1032D000DF91CF911F91FF90EF90DF90CF900895F5
:1032E000A0E0B0E0E6E7F9E10C94082B182F6B01A1
:1032F000EA0186EC97E0612F0E94751B7C01009724
:1033000061F4812F63E070E00E9451188431D1F0A4
:103310008823C1F08C31B1F01BC0C817D9070CF459
:103320007E011E141F0474F486EC97E0612FA60141
:10333000970100E00E94221C86EC97E0612F40E498
:103340000E945A1CC701CDB7DEB7E8E00C94242BCD
:10335000EE24EA94FE2CF6CF0F93282FAB0186ECD7
:1033600097E0622F21E030E001E00E94221C81E022
:1033700090E00F910895AF92BF92CF92DF92FF92AB
:103380000F931F93CF93DF93F82E6B015A0189019E
:1033900086EC97E06F2D0E94A51B8017910740F4E3
:1033A00086EC97E06F2D0E94A51BD82FC92F02C075
:1033B000D02FC12F86EC97E06F2DA60195010D2F20
:1033C0001C2F0E94E71A8D2F9C2FDF91CF911F9108
:1033D0000F91FF90DF90CF90BF90AF9008951F9313
:1033E000CF93DF93182FFB01EA018081882349F4F2
:1033F0008181882331F48281882319F48381882391
:1034000069F0209759F0812FBF010E944718812F42
:10341000BE010E946F1881E090E002C080E090E061
:10342000DF91CF911F910895CF93C82F86EC97E03D
:103430006C2F40E20E945A1C0CC08C2F0E945A181C
:1034400083FF07C08C2F68E10E94691880E090E03C
:103450000BC08C2F0E945A1884FFEFCF8C2F60E195
:103460000E94691881E090E0CF9108958EBD0DB45F
:1034700007FEFDCF8EB508952A9808952A9A0895DB
:10348000A2E0B0E0E6E4FAE10C940D2B182F6A8379
:1034900099830E943C1A80EF0E94361A9981892FE5
:1034A0000E94361A812F0E94361A6A81862F0E9446
:1034B000361A0E943E1A81E02296E3E00C94292BF2
:1034C000CF93DF93EC016CE271E080E090E00E942A
:1034D0005F070E946A1C229A80E090E060E80E94E8
:1034E000401A8BE190E065E50E94401A8AE190E085
:1034F00065E50E94401A80E090E49983888380E02B
:1035000090E69987888780E098E49B838A8380E0AF
:1035100098E69B878A8780E090E59D838C8380E096
:1035200090E79D878C8780E098E59F838E8380E07D
:1035300098E79F878E87DF91CF910895A0E0B0E054
:10354000E4EAFAE10C94082B8C016A017B01C0E0EB
:10355000D0E015C00E943C1A80EF0E94361A812FDD
:103560000E94361A802F0E94361A0F5F1F4FF701F4
:1035700081917F010E94361A0E943E1A2196CC1535
:10358000DD0541F7CE01CDB7DEB7E8E00C94242B82
:10359000A1E0B0E0EEECFAE10C940D2B182F99832A
:1035A0000E943C1A8FE00E94361A9981892F0E944E
:1035B000361A812F0E94361A80E00E94361A8983BB
:1035C0000E943E1A89812196E3E00C94292B6F9288
:1035D0007F928F929F92AF92BF92CF92DF92FF9293
:1035E0000F931F93CF93DF935C01F62E3A014901AD
:1035F0006801862F64E270E00E945118C82F8F2D59
:1036000065E270E00E9451183C2F20E0082F10E086
:10361000022B132B060D171DA80157708F2D90E05C
:10362000880F991FA80EB91EF50120813181240F42
:10363000351FCA018C0D9D1DF8E081309F0798F061
:10364000C0E0D8E0C41BD50BC901B401AE010E9493
:103650009E1AB4016C0F7D1FA6014C1B5D0BF5017A
:103660008081918103C0C901B401A6010E949E1A04
:103670000C0D1D1D8F2D64E270E0412F0E945F181C
:103680008F2D65E270E0402F0E945F18DF91CF918F
:103690001F910F91FF90DF90CF90BF90AF909F90C0
:1036A0008F907F906F9008950F931F93FA01890177
:1036B00040E050E09F010E94E71A1F910F9108958A
:1036C000CF93DF93C82F66E270E00E945118D82F85
:1036D0008C2F67E270E00E9451183D2F20E090E0AF
:1036E000822B932BDF91CF910895FF920F931F931D
:1036F000CF93DF93F62EC0E0D0E08F2D0E94601BA9
:103700008C01009721F08F2D0E94601BEC01C017E7
:10371000D10799F7CE01CDB7DEB7E5E00C94272BA2
:10372000CF93DF93C82F60E270E00E945118D82F2A
:103730008C2F61E270E00E9451183D2F20E090E054
:10374000822B932BDF91CF910895FF920F931F93BC
:10375000CF93DF93F62EC0E0D0E08F2D0E94901B18
:103760008C01009721F08F2D0E94901BEC01C01757
:10377000D10799F7CE01CDB7DEB7E5E00C94272B42
:10378000A0E0B0E0E6ECFBE10C94082B8C016A01B0
:103790007B01C0E0D0E016C00E943C1A8FE00E947E
:1037A000361A812F0E94361A802F0E94361A0F5F18
:1037B0001F4F80E00E94361AF70181937F010E941B
:1037C0003E1A2196CC15DD0539F7CE01CDB7DEB70F
:1037D000E8E00C94242BA0E0B0E0E1EFFBE10C94D6
:1037E000082B690178015770C62FD0E02496CC0FC2
:1037F000DD1FC80FD91F28813981240F351FC8014B
:10380000840F951F68E08130960790F000E018E083
:10381000041B150BC901B601A8010E94C01BB6010B
:10382000600F711FA701401B510B8881998103C054
:10383000C901B601A8010E94C01BCDB7DEB7E8E000
:103840000C94242BA0E0B0E0E8E2FCE10C94042B03
:103850005C01F62E4A016901E02E862F68E270E0D5
:103860000E945118C82F8F2D69E270E00E945118F4
:103870003C2F20E0C82FD0E0C22BD32BC5016F2DE9
:10388000AE01940186010E94EB1BEE2071F4CC0D79
:10389000DD1D8F2D68E270E04D2F0E945F188F2D87
:1038A00069E270E04C2F0E945F18CDB7DEB7ECE004
:1038B0000C94202BCF93C62F862F61E070E00E94DE
:1038C0005F188C2F61E070E00E9451188823C9F7BF
:1038D000CF9108958AE061E00E9424088AE061E0C7
:1038E0000E94F0078CB580618CBD8CB580648CBD66
:1038F0008DE061E00E94F0078BE061E00E94F0073C
:1039000008950E96FC0184E1DF011D928A95E9F786
:103910000895A2E3B0E0EFE8FCE10C94FE2A4C012C
:103920002A013B0189010E9423076B017C01E7E426
:10393000AE2EB12CA80CB91C14C00E942307DC01C8
:10394000CB018C199D09AE09BF09481659066A06B4
:103950007B0608F410C262E370E080E090E00E9411
:103960005F07C5010E9400121816190634F7C50139
:10397000BE01695F7F4F42E250E00E9498118F8143
:10398000823009F0F3C1F501858996898334910568
:1039900009F0ECC14B855C856D857E85C72EDD24E5
:1039A000EE24FF24B42FAA2799278827C82AD92ACA
:1039B000EA2AFB2AB62FA52F942F882780709070B3
:1039C000B070C82AD92AEA2AFB2A452F562F672F1A
:1039D0007727407060707070C42AD52AE62AF72ACB
:1039E000F801C082D182E282F382B401685F7F4F26
:1039F000CE01839646E050E00E94CF2B009799F4C9
:103A0000F40180819181A281B381C816D906EA06AA
:103A1000FB0648F084819581A681B7818C159D05B0
:103A2000AE05BF0528F4C5010E946C114424A5C150
:103A30008F89988DA98DBA8DF40186879787A08B81
:103A4000B18B0EEC10E0C5010E94B711015010407F
:103A5000D1F7442482E2682E712C680C791C96E21E
:103A6000292E312C280C391CC4018A969AA789A7C3
:103A70002AE1E22EF12CE80CF91CF401E85AFF4F80
:103A8000FCA7EBA7C40142969EA78DA7F4017696EA
:103A9000F8ABEFA7C4014E969AAB89AB67015EC144
:103AA000C5010E94B7118333910509F410C1843315
:103AB000910594F48130910579F18230910524F4D7
:103AC000009709F44BC13CC18330910561F1863008
:103AD000910509F035C142C08A33910509F48CC0C3
:103AE0008B33910544F48533910571F0863391054C
:103AF00009F026C14EC08B33910509F4B2C08F3F47
:103B0000910509F01DC12AC1C5010E94B711C50167
:103B10000E94B711482E22C1C5010E94B711C501EC
:103B20006DA57EA55CC0C5010E94B711082FC50117
:103B30006FA578A944E050E00E949811EE24FF247C
:103B400010E00450104006C0C5010E94B71108944F
:103B5000E11CF11CE016F106BCF300C1C5010E9496
:103B6000B711082FC50169A97AA944E050E00E9465
:103B70009811EE24FF2410E00450104006C0C50147
:103B80000E94B7110894E11CF11CE016F106BCF389
:103B9000E5C0C5010E94B711E82EF401828D938D16
:103BA000A48DB58D0097A105B105B9F0CE010196A0
:103BB000B6010E947C0A8B819C81AD81BE81EBA500
:103BC000FCA5408151816281738184179507A60706
:103BD000B70719F000E010E00CC0C501B60144E0E1
:103BE00050E00E949811BAC0C5010E94B7110F5F42
:103BF0001F4FE016C9F7B2C0C5010E94B711C50139
:103C0000B10144E050E00E949811F40106A117A10F
:103C100020A531A5432F552766277727B02FAA2740
:103C200099278827482B592B6A2B7B2BB22FA12F42
:103C3000902F882780709070B070482B592B6A2B7A
:103C40007B2BBB27A32F922F812F8070A070B07089
:103C5000482B592B6A2B7B2B46A357A360A771A730
:103C60007DC0C5010E94B711C50169A57AA544E0D0
:103C700050E00E949811F40102A513A524A535A5D2
:103C8000432F552766277727B02FAA2799278827FC
:103C9000482B592B6A2B7B2BB22FA12F902F8827D3
:103CA00080709070B070482B592B6A2B7B2BBB27F0
:103CB000A32F922F812F8070A070B070482B592BAA
:103CC0006A2B7B2B42A753A764A775A747C0C501E2
:103CD0000E94B711C501B30144E050E00E94981161
:103CE000F40102A113A124A135A1432F5527662772
:103CF0007727B02FAA2799278827482B592B6A2B7B
:103D00007B2BB22FA12F902F882780709070B070DE
:103D1000482B592B6A2B7B2BBB27A32F922F812F4C
:103D20008070A070B070482B592B6A2B7B2B42A35C
:103D300053A364A375A346A757A760AB71AB0EC08E
:103D4000C5010E94B711E82E00E010E005C0C501D2
:103D50000E94B7110F5F1F4FE016C9F7C5010E94FF
:103D60005111181619060CF49BCE01C04424C5014C
:103D70000E946C1102C044244A94842DE296E2E130
:103D80000C941A2BCF93DF93EC01625F7F4F0E945C
:103D90007C0ACE01DF91CF910895CF93DF93EC01A0
:103DA0006E5E7F4F0E947C0ACE01DF91CF91089515
:103DB000CF93DF93EC016A5E7F4F0E947C0ACE01B5
:103DC000DF91CF910895CF93DF93EC01625E7F4F37
:103DD0000E947C0ACE01DF91CF91089580E3FB0120
:103DE0008083329601C0482F842F82958F704F7048
:103DF0004A3010F4405D01C0495C4293882399F732
:103E00000895ACE2B0E0E7E0FFE10C94012B7C0107
:103E1000562E842E652E2DE0C22ED12CCC0EDD1E0A
:103E200030E2932EF601292D11922A95E9F7CE0161
:103E300007966FEF4FEF2FEF0FEF0E94700A47E4E6
:103E4000A42EB12CAE0CBF1C8DE395E09A83898320
:103E500089859A85AB85BC858B839C83AD83BE8326
:103E6000C501BE016F5F7F4F43E450E00E94F71130
:103E7000EFEF8F3F9E0709F4ECC081E08D878E87BE
:103E800086E08F87188AF7010481158126813781A2
:103E9000432F552766277727B02FAA2799278827EA
:103EA000482B592B6A2B7B2BB22FA12F902F8827C1
:103EB00080709070B070482B592B6A2B7B2BBB27DE
:103EC000A32F922F812F8070A070B070482B592B98
:103ED0006A2B7B2B498B5A8B6B8B7C8B6D8A8E8AE2
:103EE00080E890E0988F8F8BC501B6014CE150E0DF
:103EF0000E94DD11F60111929A94E9F788E0682E8C
:103F0000712C6E0C7F1CF601D30186E00D9001929E
:103F10008150E1F7FDE0CF2ED12CCC0EDD1EC50186
:103F2000B60140E150E00E94DD1180E2F6011192FD
:103F30008A95E9F706E010E09C2CCD2CC501692D8F
:103F40007C2D40E250E00E94DD1101501040B1F79D
:103F500083E68D8792E89E8793E59F87888B85E32C
:103F6000898B81E08A8B5B8A9DE39C8B97E09D8B9C
:103F70008E8BDE015796F30186E001900D92815001
:103F8000E1F78CE08D8F8E8FCE014F966EEF72E051
:103F90000E94DC2BC701BE016B5D7F4FF70143859B
:103FA0000E94EE1EC701BE01695D7F4FF701448587
:103FB0000E94EE1EC701BE01675D7F4FF701458578
:103FC0000E94EE1EC501BE01635F7F4F4EE150E0CF
:103FD0000E94DD11F3E05F1601F582E38D8784E036
:103FE0008E87F70196859F879785988B9089998B07
:103FF00091899A8B96E39B8B8C8B828D8D8B838D95
:104000008E8B848D8F8B858D888FC501BE01635FFC
:104010007F4F4CE050E00E94DD1187E38D8786E002
:104020008E8791E09F8793E0988B898B8FE08A8BB6
:104030008AE38B8B8BE38C8B8FEF8D8BC501BE015D
:10404000635F7F4F49E050E00E94DD11C5010E948F
:10405000F211AC96EFE00C941D2BA8E0B0E0E3E386
:10406000F0E20C94FE2A8C0161E070E080E090E0C8
:1040700020ED37E040E050E00E944E28D801149631
:104080006C93149715967C93159716968C931697A8
:1040900017969C9317976C9311967C931197129691
:1040A0008C93129713969C93F801E95BFF4FFE8364
:1040B000ED83CF010E9440128D819E8164E470E007
:1040C0000E945512882309F42AC10E9423074B013C
:1040D0005C0122243324FF2456E4C52ED12CC00ECB
:1040E000D11EC801CE9698878F83E3E0EE2EF8EEBE
:1040F0004F2EF3E05F2E612C712CFBC08823F9F466
:10410000F80184819581A681B7810196A11DB11D19
:1041100084839583A683B7830E942307681979094E
:104120008A099B09A30192010E94C12AC80161E08A
:10413000A9010E94011F81E0D6018C93BEC084308A
:10414000F9F4F80184819581A681B7810196A11DBA
:10415000B11D84839583A683B7830E9423076819C2
:1041600079098A099B09A30192010E94C12AC80109
:1041700063E0A9010E94011FE2E0D601EC939DC01B
:10418000813061F5AF81B8854D915D916D917C91E4
:10419000C8019E012F5F3F4F0E94891CF82EB2E09C
:1041A0008B1709F08AC089819A81AB81BC81F801A3
:1041B00084839583A683B7830E94230768197909AE
:1041C0008A099B09A30192010E94C12AC80163E0E8
:1041D000A9010E94011FD601FC9275C0823009F02E
:1041E0006CC0EF81F8854081518162817381C80183
:1041F0009E012F5F3F4F0E94891CF82EF5E08F171C
:1042000009F055C0D601EC92F80182A193A1A4A1B6
:10421000B5A10097A105B10541F484E893E0A0E0C1
:10422000B0E082A393A3A4A3B5A3F80186A197A1AC
:10423000A0A5B1A50097A105B10561F482A193A144
:10424000A4A1B5A1B695A7959795879586A397A3A1
:10425000A0A7B1A7F80182A593A5A4A5B5A546A1DD
:1042600057A160A571A50097A105B10551F4DB0127
:10427000CA01880F991FAA1FBB1F82A793A7A4A7D3
:10428000B5A7D8019E964D935D936D937C93D1977E
:104290009A968D919D910D90BC91A02DF80182ABC5
:1042A00093ABA4ABB5AB21E0222E312C0CC0F6E0D1
:1042B0008F1719F4D6011C9206C0BFEFFB1619F434
:1042C000F6011082FF24F1E02F16310491F00E94D4
:1042D0002307DC01CB0188199909AA09BB09F80158
:1042E00042AD53AD64AD75AD481759076A077B07FA
:1042F00028F0D6018C91833009F000CF8D819E810A
:104300000E944012F80184819581A681B7810196AF
:10431000A11DB11D84839583A683B78302C0222487
:104320003324C1012896E2E10C941A2BA0E0B0E0FE
:10433000ECE9F1E20C94042BEC010E9423074B0101
:104340005C018EA99FA9A8ADB9AD8E010E5B1F4F70
:104350000097A105B10509F493C0F801808191810E
:10436000A281B381A5019401281B390B4A0B5B0B79
:10437000CA01B90157FD52C0A8EECA2EA3E0DA2E39
:10438000E12CF12CC80CD91CEA1CFB1C28EE33E0F4
:1043900040E050E00E94E32ADC01CB01C81AD90AB0
:1043A000EA0AFB0AF801C082D182E282F382DA01D2
:1043B000C9010196A11DB11D4EA55FA568A979A9E6
:1043C0008C019D01000F111F221F331F4017510741
:1043D000620773072CF41EA61FA618AA19AA08C004
:1043E000481B590B6A0B7B0B4EA75FA768AB79ABD9
:1043F0004AA95BA96CA97DA94017510762077307F9
:104400002CF41AAA1BAA1CAA1DAA08C0481B590BE7
:104410006A0B7B0B4AAB5BAB6CAB7DABFE01EA5B23
:10442000FF4F8081833081F48EA59FA5A8A9B9A9EB
:10443000181619061A061B063CF084E08083CE018C
:104440000E942D20019602C080E090E0FE01EA5B10
:10445000FF4F2081233011F02223F9F44AA95BA9F0
:104460006CA97DA91416150616061706B4F010825D
:10447000CE010E94811CCE010E942D2003960DC00A
:10448000D501C40188519C4FAF4FBF4FF8018083C5
:104490009183A283B38380E090E08EAA9FAAA8AE06
:1044A000B9AECDB7DEB7ECE00C94202BA0E0B0E0C5
:1044B000ECE5F2E20C94062B6C015B01DA01C90118
:1044C000F60112A213A214A215A216A217A210A6F8
:1044D00011A612A613A614A615A616AA17AA10AE00
:1044E00011AE82AF93AFA4AFB5AFFE96E082F1827A
:1044F00002831383E601289686E0FE0111928A95D5
:10450000E9F7C6010E94811CF50186E0019009923D
:104510008150E1F7F601EA5BFF4F1082C6010E946D
:104520002D20CDB7DEB7EAE00C94222B0F9386ED59
:1045300097E060E040E020E000E00E94700A0F9108
:104540000895CF93DF93FC01EB018A819B81AC81BD
:10455000BD8182839383A483B58317821682DF9102
:10456000CF910895CF93DF93EA01DB01FB018191A5
:104570008823E9F740E050E060E070E01BC04F3F67
:10458000510509F06CF5FE01E60FF71F42836F5FDE
:104590007F4F40E050E00EC09A01220F331FE3E04E
:1045A000440F551FEA95E1F7420F531F90E0C09763
:1045B000480F591F8D91882331F0643071051CF428
:1045C0008E3251F7DCCF4F3F510509F04CF4643087
:1045D000710534F4C60FD71F4A8381E090E002C012
:1045E00080E090E0DF91CF910895A3E0B0E0EBEFA1
:1045F000F2E20C94042B8C01962E872E0E94230746
:10460000DC01CB01F80197838683A8E0EA2EF12C28
:10461000E00EF11EB8016A5F7F4FC70142E050E033
:104620000E94DD1181E090E09B838A83C701BE0177
:104630006E5F7F4F42E050E00E94DD1180E091E02C
:104640009B838A83C701BE016E5F7F4F42E050E0CB
:104650000E94DD111B821A82C701BE016E5F7F4F6F
:1046600042E050E00E94DD11C701BE016E5F7F4F46
:1046700042E050E00E94DD11C701BE016E5F7F4F36
:1046800042E050E00E94DD11C92CD82CA92CB82C96
:104690001FC0F5016F018191882311F08E32D1F78F
:1046A00086010A191B091016110674F40983C70143
:1046B000BE016F5F7F4F41E050E00E94DD11C701F6
:1046C000B501A8010E94DD1156010894A11CB11C7E
:1046D000F60180818823E9F61982C701BE016F5F68
:1046E0007F4F41E050E00E94DD1100E011E01B83AC
:1046F0000A83C701BE016E5F7F4F42E050E00E9417
:10470000DD111B830A83C701BE016E5F7F4F42E04C
:1047100050E00E94DD1181E090E02396ECE00C94E3
:10472000202BA3E1B0E0E7E9F3E20C94002B8C012D
:104730006B014A010E9423072B013C0128E0A22EB5
:10474000B12CA00EB11EEE24FF2414C00E9423073A
:10475000DC01CB0184199509A609B709C816D90649
:10476000EA06FB0608F40FC162E370E080E090E027
:104770000E945F07C5010E9400121816190634F73F
:10478000F80182819381A481B581418D528D638D21
:10479000748D84179507A607B70709F0F7C0858DB4
:1047A000968D8533910509F0F1C0F9C0B8E0EB2E84
:1047B000F12CEC0EFD1EC501B7014CE050E00E944B
:1047C0009811F701428153815427452754275F836D
:1047D0004E83F80186819781288539858217930752
:1047E00011F457FD06C0C5010E946C118CEF9FEFBC
:1047F000D2C04F7052704115510531F0C5010E9471
:104800006C118BEF9FEFC7C0F70186819781582EFF
:10481000492E4114510451F5C5010E946C118AEFD3
:104820009FEFB9C0C501BE016F5F7F4F41E050E00F
:104830000E9498118981882321F409C0C5010E9432
:10484000B7118981982F915099838823B9F789816D
:10485000882341F704E010E0C5010E94B711015020
:104860001040D1F70894C11CD11C02C0CC24DD2417
:10487000F70184819581982789279827C816D9063A
:1048800088F2EE24FF24C501BE016F5F7F4F41E037
:1048900050E00E9498118981982F907C69F48823B8
:1048A00021F40EC0C5010E94B7118981982F915043
:1048B00099838823B9F704C0C5010E94B7111982F2
:1048C0008981882301F7C501BE016C5F7F4F42E0FB
:1048D00050E00E949811C501BE016E5F7F4F42E01B
:1048E00050E00E94981104E010E0C5010E94B71149
:1048F00001501040D1F7C501BE016A5F7F4F42E011
:1049000050E00E9498118C819D81F1E080309F07DA
:1049100019F58A819B8121E080309207E9F48E812C
:104920009F81E4E080309E0731F0C5010E946C1148
:1049300087EF9FEF30C0B4016E5F7F4FC50144E049
:1049400050E00E94981181E090E025C0C5010E94CE
:10495000B7110F5F1F4F02C000E010E08E819F81F2
:104960009827892798270817190780F30894E11CCE
:10497000F11CE414F50409F086CFC5010E946C1106
:1049800086EF9FEF08C08FEF9FEF05C08EEF9FEF80
:1049900002C08DEF9FEF6396E0E10C941C2BC501E4
:1049A0000E9451118C309105A4F300CFA6E0B0E035
:1049B000ECEDF4E20C94042B6C017B014A010E94A3
:1049C000B222009709F065C0F60182819381A4812B
:1049D000B5814091DE075091DF076091E00770914B
:1049E000E10784179507A607B70709F455C048E003
:1049F000A42EB12CAC0CBD1C0E9423076F707070EC
:104A000060507C4FC5010E945512813009F047C0AB
:104A10008DE395E09A838983F60182819381A48155
:104A2000B5818B839C83AD83BE83C501BE016F5F5F
:104A30007F4F45E350E00E94F7118C01009729F168
:104A4000C601B7010E94F5220097E9F0C5010E9456
:104A5000F2118C01009731F418C0FFEF0F3F1F07D0
:104A6000A1F403C033E0E32EF12CC60168E873E142
:104A7000A4010E9491238C010894E108F108E1143B
:104A8000F10419F0EACF00E010E0C5010E944012E5
:104A900008C001E010E005C00EEF1FEF02C000E00B
:104AA00010E0C8012696ECE00C94202B0F938CEDBF
:104AB00097E060E040E020E000E00E94700A0F9183
:104AC00008958091120890E020911308821B9109AB
:104AD00008952091130880911208281750F4E22FAE
:104AE000F0E0EC5EF74F808190E02F5F2093130899
:104AF00008958FEF9FEF0895E091130880911208B9
:104B0000E81730F4F0E0EC5EF74F808190E0089514
:104B10008FEF9FEF08950895A0E0B0E0E2E9F5E29D
:104B20000C94082B6C01CB018A012091EE07222303
:104B3000A1F07B01C0E0D0E00CC0D7016D917D01F8
:104B4000D601ED91FC910190F081E02DC60109950F
:104B50002196C017D10789F703C0642F0E949C26B5
:104B6000C801CDB7DEB7E8E00C94242BA1E0B0E09B
:104B7000ECEBF5E20C940E2B69832091EE072223D7
:104B8000D1F02091EF07203240F021E030E0FC012D
:104B90003383228380E090E015C08091F007E82FF6
:104BA000F0E0EF50F84F998190838F5F8093F0078A
:104BB0008093EF0705C0CE01019661E00E949C261C
:104BC00081E090E02196E2E00C942A2B10921308E9
:104BD000109212081092F0071092EF070E942C26F4
:104BE000089581E08093EE07609311081092F0071A
:104BF0001092EF0708950E94F12508950F93062F54
:104C00008091110861EF77E04091EF0721E00E9469
:104C10004A261092F0071092EF071092EE070F91BC
:104C2000089561E00E94FE2508951092E507109214
:104C3000E40788EE93E0A0E0B0E08093E60790936D
:104C4000E707A093E807B093E90789E995E0909317
:104C5000E3078093E207089510923D0881E0809376
:104C60003B0810923A0882E161E00E94240883E147
:104C700061E00E942408E9EBF0E080818E7F808370
:104C800080818D7F808388E48093B80085E4809361
:104C9000BC0008950F93413208F045C090913D0843
:104CA0009923E1F792E090933D0800933B089FEF32
:104CB000909334081092390840933808AEE3B8E076
:104CC000FB0102C091919D939E2F961B9417D0F3E8
:104CD00010923C0890913C08880F892B80933C08E7
:104CE00080913A08813041F410923A0880913C0852
:104CF0008093BB0085EC01C085EE8093BC0022232D
:104D000021F080913D088230E1F3809134088F3F9B
:104D100061F080913408803251F080913408803302
:104D200041F483E007C081E005C080E003C082E079
:104D300001C084E00F910895613290F420913D0804
:104D4000243081F460933608AEE5B8E0FC0102C07F
:104D500091919D939E2F981B9617D0F380E0089514
:104D600081E0089582E00895882311F085EC01C068
:104D700085E88093BC00089585ED8093BC00809108
:104D8000BC0084FDFCCF10923D08089585EC809313
:104D9000BC0010923D0808951F920F920FB60F921B
:104DA00011242F933F934F935F936F937F938F9330
:104DB0009F93AF93BF93EF93FF938091B90090E0DF
:104DC000887F90708036910509F4CCC081369105BA
:104DD000E4F58832910509F47EC089329105C4F466
:104DE0008031910509F472C08131910544F4009736
:104DF00009F41DC18830910509F01DC167C08831D3
:104E0000910509F468C08032910509F014C177C09A
:104E10008034910509F489C0813491054CF48033C4
:104E2000910509F46EC08833910509F004C16DC085
:104E30008035910509F46DC08835910509F47AC073
:104E40008834910509F0F7C0F4C08839910509F458
:104E5000E4C089399105ECF48837910509F482C0E2
:104E6000893791054CF48836910509F47BC0803769
:104E7000910509F0E0C076C08838910509F4CDC0ED
:104E80008039910509F474C08038910509F0D3C0C8
:104E90006FC0803B910509F498C0813B91054CF4AB
:104EA000803A910509F476C0883A910509F0C3C0AB
:104EB0008CC0803C910509F4B4C0883C910509F48C
:104EC000B0C0883B910509F0B6C094C080913C0801
:104ED0008093BB0012C090913908809138089817D0
:104EE000A8F580913908E82FF0E0E25CF74F908157
:104EF0009093BB008F5F8093390881E08FC080E280
:104F000001C080E38093340894C088E38093340820
:104F100059C0809139089091BB00E82FF0E0E25C25
:104F2000F74F90838F5F8093390890913908809173
:104F3000380870C0809139089091BB00E82FF0E0EC
:104F4000E25CF74F90838F5F8093390880913B0834
:104F5000882309F06EC081E080933A0884EA809348
:104F6000BC0062C083E080933D0810923508C5CF35
:104F700080913508803208F050C0809135089091BA
:104F8000BB00E82FF0E0EE57F74F90838F5F8093E0
:104F90003508B3CF80913508803230F4E091350880
:104FA000F0E0EE57F74F10820E94BC266091350862
:104FB000E0917E08F0917F0882E898E070E0099522
:104FC000109235080E94C62636C084E080933D08C2
:104FD0001092370810923608E0918008F09181080D
:104FE000099580913608882329F481E0809336085A
:104FF00010925E0880913708E82FF0E0E25AF74FF0
:1050000090819093BB008F5F809337089091370811
:1050100080913608981708F470CF80E00E94B4267B
:105020000AC081E00E94B42610923D0804C010928C
:1050300034080E94BC26FF91EF91BF91AF919F91E0
:105040008F917F916F915F914F913F912F910F9031
:105050000FBE0F901F901895CF92DF92EF92FF92A4
:105060000F931F936B017C016115710581059105FB
:1050700049F00E94BF2BA70196010E94E32A8B01F1
:105080009C0103C000E010E09801B801C9011F9124
:105090000F91FF90EF90DF90CF900895CF92DF9225
:1050A000EF92FF926B017C01DA01C901C216D306AF
:1050B000E406F50674F48C199D09AE09BF09BC011C
:1050C000CD010E942C28DC01CB01C80ED91EEA1E9E
:1050D000FB1EB601C701FF90EF90DF90CF900895BF
:1050E0005058BB27AA270ED075C166D130F06BD1BE
:1050F00020F031F49F3F11F41EF45BC10EF4E095F3
:10510000E7FB51C1E92F77D180F3BA176207730724
:105110008407950718F071F49EF58FC10EF4E095A1
:105120000B2EBA2FA02D0B01B90190010C01CA0161
:10513000A0011124FF27591B99F0593F50F4503E0C
:1051400068F11A16F040A22F232F342F4427585FFE
:10515000F3CF469537952795A795F0405395C9F716
:105160007EF41F16BA0B620B730B840BBAF09150CE
:10517000A1F0FF0FBB1F661F771F881FC2F70EC06D
:10518000BA0F621F731F841F48F487957795679540
:10519000B795F7959E3F08F0B3CF9395880F08F029
:1051A0009927EE0F979587950895D9D008F481E057
:1051B00008950CD00FC107D140F0FED030F021F49B
:1051C0005F3F19F0F0C0511139C1F3C014D198F309
:1051D0009923C9F35523B1F3951B550BBB27AA2778
:1051E00062177307840738F09F5F5F4F220F331FEA
:1051F000441FAA1FA9F333D00E2E3AF0E0E830D0B6
:1052000091505040E695001CCAF729D0FE2F27D0B8
:10521000660F771F881FBB1F261737074807AB0786
:10522000B0E809F0BB0B802DBF01FF2793585F4FFB
:105230002AF09E3F510568F0B6C000C15F3FECF315
:10524000983EDCF3869577956795B795F7959F5FC0
:10525000C9F7880F911D9695879597F90895E1E014
:10526000660F771F881FBB1F621773078407BA0773
:1052700020F0621B730B840BBA0BEE1F88F7E095CE
:10528000089504D06894B111D9C00895BCD088F0B5
:105290009F5790F0B92F9927B751A0F0D1F0660F22
:1052A000771F881F991F1AF0BA95C9F712C0B1303D
:1052B00081F0C3D0B1E00895C0C0672F782F882750
:1052C000B85F39F0B93FCCF3869577956795B3957C
:1052D000D9F73EF490958095709561957F4F8F4FEB
:1052E0009F4F0895E89409C097FB3EF490958095F0
:1052F000709561957F4F8F4F9F4F9923A9F0F92F9C
:1053000096E9BB279395F695879577956795B79519
:10531000F111F8CFFAF4BB0F11F460FF1BC06F5FFF
:105320007F4F8F4F9F4F16C0882311F096E911C011
:10533000772321F09EE8872F762F05C0662371F032
:1053400096E8862F70E060E02AF09A95660F771F46
:10535000881FDAF7880F9695879597F90895990F22
:105360000008550FAA0BE0E8FEEF16161706E8072F
:10537000F907C0F012161306E407F50798F0621B50
:10538000730B840B950B39F40A2661F0232B242B25
:10539000252B21F408950A2609F4A140A6958FEF44
:1053A000811D811D089597F99F6780E870E060E096
:1053B00008959FEF80EC089500240A9416161706AE
:1053C00018060906089500240A94121613061406F6
:1053D00005060895092E0394000C11F4882352F059
:1053E000BB0F40F4BF2B11F460FF04C06F5F7F4F11
:1053F0008F4F9F4F089557FD9058440F551F59F0F8
:105400005F3F71F04795880F97FB991F61F09F3FB1
:1054100079F087950895121613061406551FF2CFDA
:105420004695F1DF08C0161617061806991FF1CF2A
:1054300086957105610508940895E894BB27662751
:105440007727CB0197F908958ADF08F48FEF089545
:105450000BD0C0CFB1DF28F0B6DF18F0952309F0EC
:10546000A2CFA7CF1124EACFC6DFA0F3959FD1F337
:10547000950F50E0551F629FF001729FBB27F00D02
:10548000B11D639FAA27F00DB11DAA1F649F662757
:10549000B00DA11D661F829F2227B00DA11D621FA6
:1054A000739FB00DA11D621F839FA00D611D221F60
:1054B000749F3327A00D611D231F849F600D211D44
:1054C000822F762F6A2F11249F5750408AF0E1F0E7
:1054D00088234AF0EE0FFF1FBB1F661F771F881F30
:1054E00091505040A9F79E3F510570F05CCFA6CF78
:1054F0005F3FECF3983EDCF3869577956795B7951B
:10550000F795E7959F5FC1F7FE2B880F911D969544
:10551000879597F9089523DF880B990B0895629F6B
:10552000D001739FF001829FE00DF11D649FE00D9B
:10553000F11D929FF00D839FF00D749FF00D659FFC
:10554000F00D9927729FB00DE11DF91F639FB00DFB
:10555000E11DF91FBD01CF011124089597FB092E0C
:1055600007260AD077FD04D080D006D000201AF498
:10557000709561957F4F0895F6F7909581959F4FAF
:105580000895A1E21A2EAA1BBB1BFD010DC0AA1F84
:10559000BB1FEE1FFF1FA217B307E407F50720F09C
:1055A000A21BB30BE40BF50B661F771F881F991F17
:1055B0001A9469F760957095809590959B01AC0160
:1055C000BD01CF01089597FB092E05260ED057FD8A
:1055D00004D0D7DF0AD0001C38F4509540953095A0
:1055E00021953F4F4F4F5F4F0895F6F79095809567
:1055F000709561957F4F8F4F9F4F08952F923F92E7
:105600004F925F926F927F928F929F92AF92BF92D2
:10561000CF92DF92EF92FF920F931F93CF93DF937E
:10562000CDB7DEB7CA1BDB0B0FB6F894DEBF0FBEDB
:10563000CDBF09942A88398848885F846E847D8428
:105640008C849B84AA84B984C884DF80EE80FD802A
:105650000C811B81AA81B981CE0FD11D0FB6F894A0
:10566000DEBF0FBECDBFED010895AA1BBB1B51E1EC
:1056700007C0AA1FBB1FA617B70710F0A61BB70BC2
:10568000881F991F5A95A9F780959095BC01CD0167
:105690000895EE0FFF1F0590F491E02D0994EF920D
:1056A0000F931F93CF93322FC02F47FF02C0A4E167
:1056B00001C0A4E0E42FFF27E7FDF095F7FF03C04A
:1056C000F095E195FF4F4C2F512F2E2F032FEA2EEF
:1056D0000E941B2E8C2F912FCF911F910F91EF9035
:1056E0000895A0E0B0E0E7E7FBE20C94042BEC01A6
:1056F00088819981AA81BB810097A105B10521F418
:1057000084E299EDABE5B7E0BC01CD012DE133EFCB
:1057100041E050E00E94E32A49015A0127EA31E4BE
:1057200040E050E00E948F2A6B017C01C501B4016A
:105730002CEE34EF4FEF5FEF0E948F2ADC01CB019C
:10574000C80ED91EEA1EFB1EF7FE08C08FEF9FEFA2
:10575000AFEFBFE7C80ED91EEA1EFB1EC882D98272
:10576000EA82FB82970186013F77B801C901CDB774
:10577000DEB7ECE00C94202B0E94712B08958BE097
:1057800093E00E94712B0895DC01CB0180930B0301
:1057900090930C03A0930D03B0930E030895FB01A7
:1057A000DC0104C08D910190801921F441505040DA
:1057B000C8F7881B990B0895FB01DC0101900D923D
:1057C0000020E1F70895A0E0B0E0E9EEFBE20C94E0
:1057D0000E2BFE013596619171918091A8089091F0
:1057E000A908AF010E943D2C2096E2E00C942A2BE0
:1057F000A0E0B0E0EEEFFBE20C940E2BFE0135963C
:10580000619171918091A8089091A908DC0113968B
:105810002C911397286013962C93AF010E943D2C76
:10582000E091A808F091A9082381277F238320967F
:10583000E2E00C942A2BAEE0B0E0E1E2FCE20C9452
:105840000C2B0D891E898EE08C831A8309838FEFC0
:105850009FE79E838D83AE01475E5F4FCE01019629
:105860006F89788D0E943D2CEF81F885E00FF11F44
:1058700010822E96E4E00C94282BADE0B0E0E3E437
:10588000FCE20C94FE2A3C017D876C875A01FC01E6
:1058900017821682838181FFC8C12E010894411CA2
:1058A000511CF3019381EC85FD8593FD859193FF58
:1058B0008191FD87EC87882309F4B3C1853241F4D7
:1058C00093FD859193FF8191FD87EC87853229F4C3
:1058D00090E0B3010E946130E4CFFF24EE2410E099
:1058E0001032B0F48B3269F08C3228F4803251F0EF
:1058F000833271F40BC08D3239F0803349F411607A
:105900002CC01260146029C0186027C0106125C027
:1059100017FD2EC0282F20532A3098F416FF08C0F8
:105920008F2D880FF82EFF0CFF0CF80EF20E15C00D
:105930008E2D880FE82EEE0CEE0CE80EE20E1062B3
:105940000CC08E3221F416FD6CC1106406C08C367A
:1059500011F4106802C0883659F4EC85FD8593FD7A
:10596000859193FF8191FD87EC87882309F0B8CF5B
:10597000982F9554933018F09052933038F424E0D7
:1059800030E0A20EB31E3FE339830FC0833631F0FF
:10599000833781F0833509F05AC022C0F501808138
:1059A000898322E030E0A20EB31E21E0C22ED12C6A
:1059B000420114C092E0292E312C2A0C3B1CF50127
:1059C0008080918016FF03C06F2D70E002C06FEFE2
:1059D0007FEFC4010E9456306C0151011F7715C042
:1059E00082E0282E312C2A0C3B1CF501808091800E
:1059F00016FF03C06F2D70E002C06FEF7FEFC40190
:105A00000E944B306C011068510113FD1CC006C090
:105A100080E290E0B3010E946130EA948E2D90E024
:105A2000C816D906A8F30FC0F40117FD859117FF1A
:105A300081914F0190E0B3010E946130E110EA943E
:105A40000894C108D108C114D10471F7E7C08436A5
:105A500011F0893651F5F50117FF07C0808191815A
:105A6000A281B38124E030E008C080819181AA271F
:105A700097FDA095BA2F22E030E0A20EB31E012FB1
:105A80000F76B7FF08C0B095A095909581959F4F70
:105A9000AF4FBF4F0068BC01CD01A2012AE030E04A
:105AA0000E948D30D82ED4183FC0853721F41F7E38
:105AB0002AE030E020C0197F8F36A9F0803720F42B
:105AC000883509F0AEC00BC0803721F0883709F067
:105AD000A8C001C0106114FF09C0146007C014FF02
