:100000000C945E020C946F060C949C060C94860271
:100010000C9486020C9486020C9486020C94860240
:100020000C9486020C9486020C9486020C94860230
:100030000C9486020C9486020C9486020C94860220
:100040000C94C9060C9486020C94E9080C942C09B3
:100050000C9486020C9486020C9486020C94860200
:100060000C94B2260C9486024669726D77617265B3
:100070005F7665723A0925730A007B226C6F6E67A2
:100080006974756465223A222573222C226C61748E
:100090006974756465223A222573222C2264657680
:1000A0006963655F6964223A222573222C22766196
:1000B0006C7565223A222573222C22756E69742292
:1000C0003A2263706D227D004669726D77617265B8
:1000D0005F7665723A0925730A0000000007000286
:1000E00001000003040600000000000000000102FF
:1000F00004081020408001020408102001020408B6
:100100001020040404040404040402020202020293
:10011000030303030303000000002300260029005B
:1001200000000000250028002B0000000000240033
:1001300027002A0000000000003E5B4F5B3E3E6B44
:100140004F6B3E1C3E7C3E1C183C7E3C181C577D71
:10015000571C1C5E7F5E1C00183C1800FFE7C3E7BD
:10016000FF0018241800FFE7DBE7FF30483A060ECF
:100170002629792926407F050507407F05253F5A16
:100180003CE73C5A7F3E1C1C08081C1C3E7F142286
:100190007F22145F5F005F5F06097F017F00668931
:1001A000956A606060606094A2FFA29408047E0477
:1001B0000810207E201008082A1C08081C2A08089D
:1001C0001E101010100C1E0C1E0C30383E3830065D
:1001D0000E3E0E06000000000000005F0000000759
:1001E000000700147F147F14242A7F2A1223130887
:1001F000646236495620500008070300001C224163
:10020000000041221C002A1C7F1C2A08083E080806
:1002100000807030000808080808000060600020B6
:10022000100804023E5149453E00427F4000724999
:100230004949462141494D331814127F102745453D
:1002400045393C4A49493141211109073649494953
:1002500036464949291E00001400000040340000C1
:10026000000814224114141414140041221408022A
:10027000015909063E415D594E7C1211127C7F499D
:100280004949363E414141227F4141413E7F4949F2
:1002900049417F090909013E414151737F0808081E
:1002A0007F00417F41002040413F017F08142241EF
:1002B0007F404040407F021C027F7F0408107F3E49
:1002C0004141413E7F090909063E4151215E7F09B6
:1002D000192946264949493203017F01033F40401D
:1002E000403F1F2040201F3F4038403F6314081408
:1002F0006303047804036159494D43007F41414140
:100300000204081020004141417F04020102044020
:1003100040404040000307080020545478407F28A4
:100320004444383844444428384444287F3854549A
:10033000541800087E090218A4A49C787F080404BD
:100340007800447D40002040403D007F102844005C
:1003500000417F40007C047804787C0804047838ED
:1003600044444438FC1824241818242418FC7C081D
:10037000040408485454542404043F44243C40409A
:10038000207C1C2040201C3C4030403C442810284D
:10039000444C9090907C4464544C44000836410096
:1003A000000077000000413608000201020402004C
:1003B000407A10F35A00A0724E18090010A5D4E834
:1003C0000000E87648170000E40B54020000CA9AC7
:1003D0003B000000E1F50500008096980000004019
:1003E000420F000000A0860100000010270000005E
:1003F00000E803000000006400000000000A0000A4
:100400000000000100000000002C76D888DC674F57
:100410000823DFC1DFAE59E1B1B796E5E3E453C687
:100420003AE651997696E8E6C28426EB898C9B627F
:10043000ED407C6FFCEFBC9C9F40F2BAA56FA5F429
:1004400090055A2AF75C936B6CF9676DC11BFCE051
:10045000E40D47FEF520E6B500D0ED902E030094A4
:100460003577050080841E080000204E0A00000039
:10047000C80C333333330F986E12831141EF8D2143
:1004800014893BE65516CFFEE6DB18D1844B381BAA
:10049000F77C1D901DA4BBE424203284725E22816F
:1004A00000C9F124ECA1E53D27002406E4098A0AED
:1004B000230F1011CE127C223C25FB2511241FBED8
:1004C000CFEFD8E0DEBFCDBF15E0A0E0B1E0E6EAB7
:1004D000F1E602C005900D92AE39B107D9F718E0E8
:1004E000AEE9B5E001C01D92A03AB107E1F714E012
:1004F000CCEBD4E004C02297FE010E94312BCA3A13
:10050000D107C9F70E940C0D0C94D1300C94000057
:100510008091AA059091AB0501969093AB058093CD
:10052000AA0581E08093AC050895A2E1B0E0EBE973
:10053000F2E00C94F42A8091090361E00E94E00744
:100540008091DE0561E00E94E00789EF95E09093DD
:100550009D0880939C0880E896E040E051EE60E0C2
:1005600070E00E9467098091070361E00E94E00744
:100570008091070361E00E94140864E170E080E06C
:1005800090E00E944F078091070360E00E941408EA
:1005900064E170E080E090E00E944F0780910703E3
:1005A00061E00E941408109208061092070629E2E2
:1005B00088E190E00FB6F894A895809360000FBE94
:1005C0002093600085EB95E062E04CE30E945D16AD
:1005D00085EB95E00E94681760ED77E080E090E0A1
:1005E0000E944F0785EB95E00E94E61585EB95E0AC
:1005F0006AE070E04AE050E021E030E00E946015DF
:1006000085EB95E00E94681760ED77E080E090E070
:100610000E944F0780E896E00E94E80A80E896E092
:1006200060E071E00E94FC0A80E896E067E171E01A
:100630000E94FC0A8DEE9DE0AEE3BBE38093A20531
:100640009093A305A093A405B093A50585EB95E031
:1006500061E00E94471585EB95E061E070E00E9443
:100660004D1585EB95E060E070E040E050E00E94C1
:10067000411585EB95E00E94E61585EB95E06DE36D
:1006800071E00E94FC0A85EB95E00E94681700D09B
:1006900000D088E690E0EDB7FEB79283818389E1D0
:1006A00093E0948383830E94DE2B0F900F900F9032
:1006B0000F9080E896E063E571E00E94FC0A80E319
:1006C00097E06BE073E00E943F0D0097F9F480E83B
:1006D00096E06CE671E00E94FC0A85E395E09E8757
:1006E0008D878091E8059091E905A091EA05B09188
:1006F000EB058F87988BA98BBA8B80E397E06BE033
:1007000073E0AE01435F5F4F0E94830E80E896E086
:1007100064E971E00E94D20ACE01079660E377E0B7
:100720000E94010F80E896E0BE01695F7F4F0E9442
:100730000E0B80E068E872E043E050E00E944F0654
:1007400080EE93E9A4E0B0E08093B1059093B20508
:10075000A093B305B093B4050E941307DC01CB014D
:100760004091B1055091B2056091B3057091B40507
:10077000840F951FA61FB71F8093AD059093AE05FC
:10078000A093AF05B093B005A89580E896E06FE917
:1007900071E00E94D20A609111037091120380E807
:1007A00096E00E94FC0A80E896E06AEA71E00E9406
:1007B000FC0A80E896E066EB71E00E94FC0A85EB9B
:1007C00095E060E070E04AE050E00E94411585EB62
:1007D00095E06BEC71E00E94FC0A85EB95E060E02F
:1007E00070E044E150E00E944115CE01019660E3C3
:1007F00077E00E94010F85EB95E0BE016F5F7F4FB0
:100800000E940E0B85EB95E00E94681760ED77E083
:1008100080E090E00E944F076296E2E00C94102B7B
:10082000A6E2B0E0E6E1F4E00C94EA2A4B015C01B8
:100830002091A2053091A3054091A4055091A505F2
:100840000E940E2AF62EE72ED82EC92EA701960159
:10085000852F942FA32FB22FBC01CD0120E030E0D3
:100860004AE754E40E940E2A20E030E040E05FE3D3
:100870000E9457280E942729DC01CB0180939E0506
:1008800090939F05A093A005B093A105C501B40165
:1008900040E020E08E01095E1F4F0E94352BA7012A
:1008A0009601852F942FA32FB22FBC01CD0140E0DC
:1008B00020E08E01095E1F4F0E94352B85EB95E0ED
:1008C00062E00E94471585EB95E061E070E00E94D0
:1008D0004D1585EB95E060E070E040E050E00E944F
:1008E000411585EB95E00E94E61585EB95E0F70153
:1008F00096014F2F5E2F632F722F22E030E00E946F
:10090000FA0C85EB95E064E170E042E150E00E9472
:10091000411585EB95E06DED71E00E94FC0A85EBD9
:1009200095E00E9468178CEE95E00E943D108823A8
:1009300051F080E896E064EE71E00E94FC0A8CEED3
:1009400095E00E94611080E896E065EF71E00E94FA
:10095000FC0A85E395E09A8389838091E205909172
:10096000E305A091E405B091E5058B839C83AD83FD
:10097000BE838CEE95E0BE016F5F7F4F40E550E097
:100980000E94A710009709F4B8C080E896E064E1DF
:1009900072E00E94FC0A0E941307DC01CB018093E5
:1009A000A6059093A705A093A805B093A90510925A
:1009B000080627E0E22EF12CEC0EFD1EC501B40165
:1009C00040E020E087010E94352B09E016E084E634
:1009D000D8011D928A95E9F7EDB7FEB73C970FB69F
:1009E000F894FEBF0FBEEDBF3196ADB7BEB71296FD
:1009F0001C930E9311978AE790E0938382838091F2
:100A0000130390911403958384838091150390912F
:100A10001603978386838091110390911203918727
:100A20008087F386E2860E94012CF8010190002065
:100A3000E9F731971082EDB7FEB73C960FB6F89400
:100A4000FEBF0FBEEDBF80E896E0B8010E94FC0A31
:100A50008CEE95E06EE172E00E94D20A609117037D
:100A6000709118038CEE95E00E94D20A8CEE95E00E
:100A700060E472E00E94FC0A8CEE95E06AE472E0A9
:100A80000E94FC0A8CEE95E06EE572E00E94FC0A82
:100A90008CEE95E062E772E00E94D20AD8010D90D8
:100AA0000020E9F7BD0161507040601B710B8CEEB6
:100AB00095E04AE050E00E94910B8CEE95E063E8EF
:100AC00072E00E94FC0A8CEE95E00E94E80A8CEE2F
:100AD00095E0B8010E94FC0A80E896E064EE71E0BF
:100AE0000E94FC0A8CEE95E00E94611080E896E07E
:100AF00066EB71E00E94FC0A2AC0209108062F5F75
:100B000020930806233018F081E08093070600D078
:100B100000D082EA92E0EDB7FEB79283818383E052
:100B200090E0821B9109948383830E94C92B0F90CC
:100B30000F900F900F900E941307DC01CB01809360
:100B4000A6059093A705A093A805B093A905A6961E
:100B5000ECE00C94062BCF92DF92EF92FF920F9372
:100B60001F936B017C010E941307DC01CB019701ED
:100B70008601081B190B2A0B3B0BC816D906EA067F
:100B8000FB0620F40095109520953095B801C90119
:100B90001F910F91FF90EF90DF90CF90089580917B
:100BA0000706813009F0A89580E397E00E94B20E15
:100BB0008091AC05882391F01092AC058091DE0500
:100BC00061E00E94140867E070E080E090E00E941D
:100BD0004F078091DE0560E00E9414086091A60531
:100BE0007091A7058091A8059091A9050E94AB0579
:100BF000AB01BC018091B1059091B205A091B30504
:100C0000B091B405481759076A077B07E0F0609177
:100C1000AA057091AB05882777FD8095982F0E94D3
:100C20005A2920E030E040EA50E40E94BF281092A8
:100C3000AB051092AA05462F572F682F792FCB01AD
:100C4000BA010E9410040895EF920F938DE696E08A
:100C500060E040E020E000E00E94600A8CEE95E059
:100C60000E941D1086EE95E060EC48EA24E608E25A
:100C70000E94600A80EE95E060EB48E32CEE0BE406
:100C80000E94600A85EB95E065E046E028E007E019
:100C900034E0E32E0E94D5150F91EF900895823035
:100CA000E8F4E82FF0E0EE0FFF1FED58F94F7183E5
:100CB0006083813041F0809169008C7F842B809328
:100CC0006900E89A089580916900440F551F440F08
:100CD000551F837F842B80936900E99A08951F92A2
:100CE0000F920FB60F9211242F933F934F935F9360
:100CF0006F937F938F939F93AF93BF93EF93FF93E4
:100D00008091730690917406009729F0E091730624
:100D1000F09174060995FF91EF91BF91AF919F916A
:100D20008F917F916F915F914F913F912F910F9094
:100D30000FBE0F901F9018951F920F920FB60F9233
:100D400011242F933F934F935F936F937F938F93D0
:100D50009F93AF93BF93EF93FF938091750690910C
:100D60007606009729F0E0917506F09176060995D0
:100D7000FF91EF91BF91AF919F918F917F916F9173
:100D80005F914F913F912F910F900FBE0F901F9049
:100D900018951F920F920FB60F9211242F933F9325
:100DA0008F939F93AF93BF9380917706909178062E
:100DB000A0917906B0917A0630917F06232F2D5F9E
:100DC0002D3720F40196A11DB11D05C0232F2A57F0
:100DD0000296A11DB11D20937F0680937706909304
:100DE0007806A0937906B0937A0680917B0690915D
:100DF0007C06A0917D06B0917E060196A11DB11DD5
:100E000080937B0690937C06A0937D06B0937E062C
:100E1000BF91AF919F918F913F912F910F900FBEF6
:100E20000F901F9018950F931F938FB7F894009110
:100E30007706109178062091790630917A068FBF57
:100E4000B801C9011F910F9108950F931F939FB788
:100E5000F89400917B0610917C0620917D063091DC
:100E60007E0686B5A89B06C08F3F21F00F5F1F4FFF
:100E70002F4F3F4F9FBF322F212F102F0027080FDA
:100E8000111D211D311D42E0000F111F221F331FB4
:100E90004A95D1F7B801C9011F910F910895CF92DA
:100EA000DF92EF92FF92CF93DF936B017C010E9460
:100EB0002507DC01CB01EC010FC00E9425076C1B4C
:100EC0007D0B83E0683E780738F00894C108D108AC
:100ED000E108F108C851DC4FC114D104E104F10468
:100EE00061F7DF91CF91FF90EF90DF90CF90089561
:100EF000789484B5826084BD84B5816084BD85B5F5
:100F0000826085BD85B5816085BDEEE6F0E08081BB
:100F100081608083E1E8F0E01082808182608083DC
:100F2000808181608083E0E8F0E08081816080835F
:100F3000E1EBF0E0808184608083E0EBF0E0808191
:100F400081608083EAE7F0E0808184608083808133
:100F500082608083808181608083808180688083DB
:100F60001092C1000895833071F0843028F48130EC
:100F7000A1F0823021F514C08630B1F08730D1F075
:100F80008430E9F404C0809180008F7703C08091A1
:100F900080008F7D80938000089584B58F7702C094
:100FA00084B58F7D84BD08958091B0008F77809344
:100FB000B00008958091B0008F7D8093B0000895B7
:100FC00090E0FC01E251FF4F24918E5F9E4FFC01A7
:100FD0008491882341F190E0880F991FFC01E65D20
:100FE000FE4F45915491DA01805E9E4FFC01859140
:100FF0009491FC019FB7F8948C91662331F420956D
:1010000082238C938081822308C0623049F4322F7E
:10101000309583238C938081822B80839FBF08959A
:10102000822B8C939FBF0895A1E0B0E0EAE1F8E045
:101030000C94F22A282F30E0F901E652FF4F8491F8
:10104000F901E251FF4F1491F901EE5FFE4F049157
:101050000023D1F0882321F069830E94B3076981BE
:10106000E02FF0E0EE0FFF1FE05EFE4F85919491C0
:10107000DC019FB7F8948C91662319F410958123B5
:1010800001C0812B8C939FBF2196E4E00C940E2B22
:10109000FC0124853585F901E05CFF4F8081918159
:1010A0002E5B3F4FF90120813181821B930B8F739F
:1010B00090700895FC0144855585FA01E05CFF4F6E
:1010C00080819181FA01EE5BFF4F2081318182178F
:1010D000930741F00190F081E02DE40FF51F80812E
:1010E00090E008958FEF9FEF0895FC0144855585AA
:1010F000FA01E05CFF4F20813181FA01EE5BFF4F86
:10110000808191812817390779F0A081B181A40FDE
:10111000B51F8C91208131812F5F3F4F2F7330702D
:101120003183208390E008958FEF9FEF0895FC01B5
:1011300081A1882329F0A489B5898C9186FFFBCFF2
:1011400011A20895CF93DF93DC011E964D915C911F
:101150001F97EA01C05CDF4F288139812F5F3F4F25
:101160002F733070FA01EE5BFF4F80819181281759
:101170003907D9F3E881F981E40FF51F60831E96E2
:10118000ED91FC911F97E05CFF4F318320835696D1
:10119000ED91FC915797208181E090E05F960C9053
:1011A0005F9702C0880F991F0A94E2F7282B2083CB
:1011B00081E091968C9391975496ED91FC9155977F
:1011C00080818064808381E090E0DF91CF910895F9
:1011D00008951F920F920FB60F9211242F933F93F1
:1011E0004F938F939F93EF93FF938091C00082FD65
:1011F0001CC04091C6008091260790912707019658
:101200008F739070209128073091290782179307D8
:1012100071F0E0912607F0912707EA51F94F4083DA
:10122000909327078093260702C08091C600FF9104
:10123000EF919F918F914F913F912F910F900FBE02
:101240000F901F90189580E896E00E94480800973C
:1012500011F00E94E80808951F920F920FB60F92A6
:1012600011242F933F938F939F93EF93FF9320919C
:10127000E2063091E3068091E4069091E506281796
:10128000390731F48091C1008F7D8093C10014C073
:10129000E091E406F091E506EE55F94F208180914A
:1012A000E4069091E50601968F7390709093E506A1
:1012B0008093E4062093C600FF91EF919F918F9158
:1012C0003F912F910F900FBE0F901F901895A0E0A7
:1012D000B0E0EDE6F9E00C94ED2AEC016A017B0147
:1012E000BB24B394403081EE580780E0680780E06B
:1012F000780749F4BB24EC89FD89108260E874E822
:101300008EE190E00FC0EC89FD8981E090E008A0BB
:1013100002C0880F991F0A94E2F7808360E079E0A9
:101320008DE390E0A70196010E94A72A89019A0106
:10133000015010402040304036952795179507956D
:1013400080E10030180710F0BB20A1F6E889F98988
:101350001083EA89FB89008319A2EE89FF89408105
:1013600021E030E0C9010C8C02C0880F991F0A945B
:10137000E2F7482B4083EE89FF894081C9010D8C3B
:1013800002C0880F991F0A94E2F7482B4083EE8928
:10139000FF894081C9010E8C02C0880F991F0A94F1
:1013A000E2F7482B4083EE89FF8980810F8C02C0D1
:1013B000220F331F0A94E2F7209528232083CDB70C
:1013C000DEB7E9E00C94092B109283061092820696
:1013D00088EE93E0A0E0B0E08093840690938506C9
:1013E000A0938606B0938706E2E8F6E085E295E0F2
:1013F0009293829386EE96E09587848782EA96E0C0
:101400009787868785EC90E0918B808B84EC90E0C9
:10141000938B828B80EC90E0958B848B81EC90E0B9
:10142000978B868B82EC90E0918F808F86EC90E09A
:10143000938F828F84E0848F83E0858F87E0868F0F
:1014400085E0878F81E080A30895A0E0B0E0EBE223
:10145000FAE00C94EC2A5C017B0100E010E0CC2463
:10146000DD24F501E00FF11FC70162814AE050E081
:101470000E94A70BEC01C7016EE20E94D50AC80FBB
:10148000D91FCC0EDD1E0F5F1F4F0330110549F72A
:10149000C701F50165814AE050E00E94A70B8C0D61
:1014A0009D1DCDB7DEB7EAE00C94082BFC0185E367
:1014B00095E09183808312821382148215820895AD
:1014C0000F93FC0185E395E09183808362834383DE
:1014D000248305830F910895CF93DF93FC0185E367
:1014E00095E091838083EB0188819981AA81BB81FA
:1014F00082839383A483B583DF91CF910895FB0109
:101500004081518162817381FC01428353836483F2
:101510007583089585E395E090932B0780932A07C0
:1015200010922C0710922D0710922E0710922F0761
:101530000895A0E0B0E0EFE9FAE00C94EE2A6C0127
:101540007B01EA0100E010E00EC0D7016D917D0142
:10155000D601ED91FC910190F081E02DC601099535
:10156000080F191F2197209781F7C801CDB7DEB763
:10157000E8E00C940A2B6115710589F0DB010D90F0
:101580000020E9F7AD0141505040461B570BDC01EC
:10159000ED91FC910280F381E02D0995089580E0A2
:1015A00090E008950E94BB0A0895DC01ED91FC9142
:1015B0000190F081E02D099508959C01CB01DB019C
:1015C000ED91FC910190F081E02DB901099508950C
:1015D0000F931F93CF93DF938C016DE00E94D50A88
:1015E000EC01C8016AE00E94D50A8C0F9D1FDF91B3
:1015F000CF911F910F9108950F931F93CF93DF9376
:101600008C010E94BB0AEC01C8010E94E80A8C0F01
:101610009D1FDF91CF911F910F9108950F931F93FD
:10162000CF93DF938C010E94DD0AEC01C8010E9478
:10163000E80A8C0F9D1FDF91CF911F910F910895A4
:101640004F925F926F927F92AF92BF92CF92DF9252
:10165000EF92FF920F931F93CF93DF93CDB7DEB737
:10166000A1970FB6F894DEBF0FBECDBF5C01E42E8C
:10167000CB01F22E19A221E02F1510F03AE0F32E43
:1016800021E2C22ED12CCC0EDD1E4F2C5524662417
:10169000772403C0E02E512FC9016E2D752FA301B1
:1016A00092010E94A72A89019A01F09E802D11249F
:1016B000E81A8E2D0894C108D1088A3010F4805D94
:1016C00001C0895CF60180830115110521053105F2
:1016D00009F7C501B6010E94BB0AA1960FB6F8949E
:1016E000DEBF0FBECDBFDF91CF911F910F91FF9055
:1016F000EF90DF90CF90BF90AF907F906F905F9012
:101700004F9008952115310549F4DC01ED91FC91CC
:101710000190F081E02D642F099508950E94200B1F
:1017200008950F931F93CF93DF938C019A01AB0120
:1017300060E070E00E94820BEC01C8010E94E80AA0
:101740008C0F9D1FDF91CF911F910F9108959A01EA
:10175000462F50E060E070E00E94820B0895A0E008
:10176000B0E0E5EBFBE00C94EE2AEC016A017B01B2
:101770002115310541F4E881F9810190F081E02DD6
:10178000642F09951AC02A303105A9F477FF12C0D9
:101790006DE20E94D50A8C0144275527BA014C19E5
:1017A0005D096E097F09CE012AE00E94200B800F9F
:1017B000911F03C02AE00E94200BCDB7DEB7E8E0FE
:1017C0000C940A2B2F923F924F925F927F928F92AE
:1017D0009F92AF92BF92CF92DF92EF92FF920F93C0
:1017E0001F93CF93DF932C014A015B01722ECB0133
:1017F000BA01A50194010E94712A882321F0C20137
:1018000067EE72E01BC075016401E894F7F8C70148
:10181000B6012FEF3FEF4FE75FE70E94712A882361
:1018200089F4C701B6012FEF3FEF4FE75FE70E9452
:10183000BB2818163CF4C2016BEE72E00E94BB0A92
:101840004C01C5C0C501B4012FEF3FEF4FE75FE486
:101850000E940A2A181654F0C501B4012FEF3FEF79
:101860004FE75FEC0E94BB2887FF04C0C2016FEE08
:1018700072E0E4CFC501B40120E030E0A9010E948C
:10188000BB2887FF0AC0C2016DE20E94D50A1C0175
:10189000B7FAB094B7F8B09402C022243324C0E061
:1018A00050E040E030E02FE313C0FA01B9018F2F80
:1018B000942FA72FB22FBC01CD0120E030E040E2F1
:1018C00051E40E94BF28562F472F382F292FCF5F72
:1018D000C71559F7C501B401DA01F9010B2F142F0F
:1018E0002F2F3E2FA90198010E9457287B01182F06
:1018F000D92F862F9F2DA12FBD2FBC01CD010E9476
:101900002C29C62E072F882EC92F0E9458299B01EB
:10191000AC018E2D9F2DA12FBD2FBC01CD010E94AA
:1019200056287B01182FD92FC2014C2D502F682D1E
:101930007C2F2AE030E00E94820B4C01820C931C29
:10194000772009F442C0C20163EF72E00E94BB0A33
:10195000880E991E3AC08E2D9F2DA12FBD2FBC0140
:10196000CD0120E030E040E251E40E940E2AEB017C
:10197000182F092F9801862F9D2FA32FB22FBC015E
:10198000CD010E9427296B017C01EE24D7FCE09455
:10199000FE2CC201B701A6012AE030E00E94AF0B85
:1019A000880E991EC701B6010E945A299B01AC01FD
:1019B000B8018C2F9D2FA72FB62FBC01CD010E94FF
:1019C00056287B01182FD92F7A94772021F6C4014D
:1019D000DF91CF911F910F91FF90EF90DF90CF900B
:1019E000BF90AF909F908F907F905F904F903F906F
:1019F0002F9008950F931F93CF93DF938C010E9434
:101A0000E20BEC01C8010E94E80A8C0F9D1FDF91D8
:101A1000CF911F910F9108950E9478070E9495021F
:101A2000C3E2D9E00E94CF052097E1F30E94230989
:101A3000F9CF21E030E0FC018081882311F020E023
:101A400030E0C901089521E0FC0120830895BC0124
:101A500081E090E044E050E00E94841A0895BC01C7
:101A600085E090E044E050E00E94841A0895BC01B3
:101A70008FE090E044E050E00E94841A0895AEE1C7
:101A8000B0E0E5E4FDE00C94EE2A6C017B0180916E
:101A90004007882371F480E497E00E94190D0097B5
:101AA00041F08FE897E00E946F1280E497E00E9477
:101AB000230D88E497E0F601978386838EEB97E009
:101AC0000E94461A89E090E0B70146E050E00E948B
:101AD000841ACE01499660E040E020E000E00E94D8
:101AE000600ACE014B960E94370DF60186819781E0
:101AF000B70120E63AEE40E050E0A0EAEA2EAFE07F
:101B0000FA2E012D112D0E943C227C01813091057D
:101B100089F5F60166817781CE0143960E94A81E61
:101B2000CE0145960E94370DF60166817781CE0180
:101B30000D960E94BE1ECE010F960E94270DF60143
:101B400066817781CE0107960E94B31ECE01099669
:101B50000E942F0DF60166817781CE0101960E94C9
:101B6000C91E8B819C81AD81BE81F60182839383E6
:101B7000A483B583C7016E96E8E00C940A2BA0E01D
:101B8000B0E0E5ECFDE00C94E82A3C014B015A0181
:101B900069018EEB97E00E94461A89E090E0B4015B
:101BA00046E050E00E94841AC50102960E94370D5B
:101BB000C80102960E94270DC70102960E942F0DB0
:101BC000F60182819381A481B581F301828393839D
:101BD000A483B583CDB7DEB7EEE00C94042BAEE161
:101BE000B0E0E5EFFDE00C94E82A3C014B017A01FE
:101BF00069015801CE0149966FEF4FEF2FEF00E0DA
:101C00000E94600A25E335E03C8B2B8BF701828133
:101C10009381A481B5818D8B9E8BAF8BB88F3E87CE
:101C20002D87F60182819381A481B5818F87988B5E
:101C3000A98BBA8B38872F83F50182819381A48188
:101C4000B58189879A87AB87BC873A8329838B8D37
:101C50009C8DAD8DBE8D8B839C83AD83BE83C30174
:101C6000B401AE014D5E5F4F9E01235F3F4F8E0179
:101C7000095F1F4F7E010894E11CF11C0E94BF0DFB
:101C80006E96EEE00C94042BA8E1B0E0EAE4FEE0EE
:101C90000C94F02A7B01DA0112964D915D916D91C1
:101CA0007C9115974D8B5E8B6F8B788FE5E3F5E01C
:101CB000FE87ED874F87588B698B7A8BF887EF8388
:101CC000D90112960D911D912D913C91159709877F
:101CD0001A872B873C87FA83E9834B835C836D8368
:101CE0007E8321E02E83B701AE01435F5F4F9E01EB
:101CF000295F3F4F8E010F5F1F4F0E94EF0D6896C7
:101D0000E6E00C940C2BA2E1B0E0E9E8FEE00C94D4
:101D1000F42AFB01DA0112964D915D916D917C914F
:101D200015974F87588B698B7A8B25E335E0388779
:101D30002F8349875A876B877C873A8329834B8314
:101D40005C836D837E8321E02E83BF01AE01495FFA
:101D50005F4F9E012F5F3F4F0E94440E6296E2E06C
:101D60000C94102BA8E1B0E0E8EBFEE00C94F02A14
:101D70008C01FC01868197810097E1F10E947C2112
:101D80007C018230910521F084E0E816F104A1F590
:101D9000F80166817781CE0143960E94A81ECE018C
:101DA00045960E94370DF80166817781CE010D9628
:101DB0000E94BE1ECE010F960E94270DF80166817B
:101DC0007781CE0107960E94B31ECE0109960E942C
:101DD0002F0DF80166817781CE0101960E94C91E00
:101DE0008B819C81AD81BE81F80182839383A48322
:101DF000B58302C0EE24FF24C7016896E6E00C9488
:101E00000C2BCF93DF93EC010E94560ABE016E5F4C
:101E10007F4F8FE090E044E050E00E94A61BCE018F
:101E2000DF91CF91089525E335E0FC0131832083D4
:101E3000FB014281538164817581FC01428353839C
:101E40006483758308950F938AEA97E060E040E029
:101E500020E000E00E94600A80E397E00E94560ABA
:101E60000F910895A1E0B0E0E8E3FFE00C94F42ABC
:101E70006983DC01ED91FC910280F381E02DBE01CC
:101E80006F5F7F4F41E050E009952196E2E00C94AE
:101E9000102BCF93DF93EC0107C0E881F981068016
:101EA000F781E02DCE010995E881F9810480F58163
:101EB000E02DCE010995009781F7DF91CF9108952C
:101EC00021E0FC018485843009F420E0822F08950C
:101ED000A1E0B0E0EEE6FFE00C94F22A8C01DC0118
:101EE000ED91FC910480F581E02D0995009751F06A
:101EF000F8018485BE016F5F7F4F0E94921989812E
:101F000090E002C08FEF9FEF2196E4E00C940E2B3F
:101F1000FC0184850E9456190895A1E0B0E0E3E930
:101F2000FFE00C94F42AFC018485BE016F5F7F4FB3
:101F300041E050E00E945619181619061CF48981D8
:101F400090E002C08FEF9FEF2196E2E00C94102BFF
:101F5000A5E3B0E0EEEAFFE00C94EE2A7C018B01F1
:101F60006A01CE0143960E94560ACE014B960E940A
:101F70006F12CE010D960E94560ACE01079660E3BD
:101F800077E00E94130FCE014396BE01695F7F4F39
:101F90000E948722CE014396B801AE01435F5F4F96
:101FA0000E94BC2481309105C1F4D701ED91FC91D0
:101FB0000484F585E02D85E395E09A8389838F85F8
:101FC0009889A989BA898B839C83AD83BE83C70115
:101FD000BE016F5F7F4FA6010995E596E8E00C947E
:101FE0000A2BFC016485643031F08EEB97E00E948F
:101FF0005B1B9C0102C020E030E0C90108950F93F3
:102000001F93CF93DF938C01EA01FC018485843018
:1020100019F481E090E007C00E940319009739F499
:1020200081E090E0F80193838283C0E0D0E0CE01AC
:10203000DF91CF911F910F910895FC0113821282BD
:1020400048EE53E060E070E0448355836683778315
:102050008BE395E09183808384E084870895FC017D
:102060008485843041F0382F20E0C9018D5F9B4F7B
:102070000E94AE1A089580E00895CF93DF93EC019B
:102080008C858430D1F0CE010E942F10843181F0F4
:10209000882371F0883161F08C3161F4E881F98135
:1020A0000480F581E02DCE01099521E0009719F417
:1020B00020E001C021E0822F01C080E0DF91CF91BC
:1020C0000895CF92DF92EF92FF92CF93DF93EC01CE
:1020D0008C858430A9F10E94FC180E9413076B01C3
:1020E0007C01CE010E942F10882381F00E941307EB
:1020F000DC01CB018C199D09AE09BF09883E23E0A4
:10210000920720E0A20720E0B20798F0CE010E94DB
:102110002F10882319F08C850E947918EC85F0E047
:10212000EE0FFF1FE85CF84F1182108284E08C876D
:1021300007C061E070E080E090E00E944F07D1CFDF
:10214000DF91CF91FF90EF90DF90CF900895A1E0C5
:10215000B0E0EDEAF0E10C94EC2A5C017B016A014D
:10216000FC018485843009F055C003E014E020E0D0
:10217000C80129830E94AE1A2981882321F0883161
:1021800011F08C3119F4F501248705C02F5F005040
:102190001F4F243069F7F50184858430D9F12091EF
:1021A0001F03309120032F5F3F4F30932003209374
:1021B0001F032115310531F420E034E03093200372
:1021C00020931F0340911F035091200361E020E002
:1021D0000E948718B7016E5F7F4FF5018485A601C5
:1021E0000E94C71809C061E070E080E090E00E94A2
:1021F0004F07C5010E942F10882321F484E0F501C8
:10220000848708C0C5010E942F10873161F781E0E3
:1022100090E002C080E090E02196EAE00C94082B68
:102220000F9380EB97E060E040E020E000E00E9448
:10223000600A0F910895DC01ED91FC91008CF18D05
:10224000E02D0995089525E335E0FC0131832083D5
:10225000FB014189528963897489FC01428353835C
:10226000648375830895FC01858996890895FC012E
:10227000818D928D0895A1E0B0E0E1E4F1E10C944C
:10228000F42A6983DC01ED91FC910280F381E02D59
:10229000BE016F5F7F4F41E050E009952196E2E07B
:1022A0000C94102BCF93DF93EC0107C0E881F981E8
:1022B0000680F781E02DCE010995898D9A8D0097D2
:1022C000A9F7DF91CF910895A1E0B0E0EAE6F1E14E
:1022D0000C94F42AFC01818D928D009749F084853D
:1022E000BE016F5F7F4F0E949219898190E002C00A
:1022F0008FEF9FEF2196E2E00C94102BCF93DF93AA
:10230000EC019A01498D5A8D4115510589F08C8552
:102310002417350708F4A9010E9456191816190642
:102320003CF4298D3A8D281B390B3A8F298F02C036
:102330008FEF9FEFDF91CF910895A1E0B0E0E3EA46
:10234000F1E10C94F22A8C01FC01818D928D0097B1
:10235000A1F08485BE016F5F7F4F41E050E00E9495
:102360005619181619064CF4F801818D928D0197B3
:10237000928F818F898190E002C08FEF9FEF21962D
:10238000E4E00C940E2BCF93DF93EC019B01FA0158
:102390006F89788D8C85A9019F010E94A1192F89D1
:1023A000388D280F391F388F2F8BDF91CF910895EB
:1023B000FC0184850E94FA190895FC01108E178A89
:1023C0006E5F7F4F84850E94D5190895A8E0B0E024
:1023D000ECEEF1E10C94F22A8C01DC01ED91FC9120
:1023E0000284F385E02D09958EEB97E0F801648572
:1023F0000E945B1B009721F1D8011C968C91BE01B5
:102400006F5F7F4F48E050E00E945619181619067A
:10241000CCF4C8010F96BE016F5F7F4F0E947F0A08
:102420009D8180E02E81820F911DF801968B858B16
:102430009F8180E02885820F911D928F818F02C03D
:1024400080E090E02896E4E00C940E2BCF93DF938D
:10245000EC018C85843061F00E947918EC85F0E005
:10246000EE0FFF1FE85CF84F1182108284E08C872A
:10247000DF91CF910895A1E0B0E0E1E4F2E10C94A6
:10248000EE2A6C017B01FC018485843019F503E0A0
:1024900014E020E0C80129830E94AE1A2981882314
:1024A00011F0883119F4F601248705C02F5F005020
:1024B0001F4F243079F7F6018485843059F0F68671
:1024C000E586128E118E62E0A70120E00E94871837
:1024D00081E001C080E02196E8E00C940A2BFC0129
:1024E0001382128248EE53E060E070E0448355832B
:1024F0006683778387E595E09183808384E0848792
:10250000CF010F960E94560A0895A5E3B0E0EBE8CC
:10251000F2E10C94EE2A7C018B016A01CE01439614
:102520000E94560ACE014B960E946F12CE010D9664
:102530000E94560ACE01079660E377E00E94130FCF
:10254000CE014396BE01695F7F4F0E948722CE0174
:102550004396B801AE01435F5F4F0E94BC248130B7
:102560009105C1F4D701ED91FC910088F189E02D2E
:1025700085E395E09A8389838F859889A989BA89AB
:102580008B839C83AD83BE83C701BE016F5F7F4F8A
:10259000A6010995E596E8E00C940A2B0F9386EBCB
:1025A00097E060E040E020E000E00E94600A0F91C8
:1025B0000895FC0175836483718760875783468320
:1025C00053874287158A158614861786168621E05A
:1025D000248B8FEF9FEF938B828B918B808B268B3D
:1025E0000895A4E0B0E0E7EFF2E10C94E42A2C01B6
:1025F0007C836B836A0159011701C801841B950B09
:1026000097FF03C0909581959F4F95014B815C8109
:10261000241B350B37FF03C0309521953F4F41E018
:10262000642E712C2817390714F06624772461145E
:10263000710459F09A2D8B2D5801092F182F9B8169
:102640008C81DC82CB82C92ED82E8B819C81A816EE
:10265000B9065CF49C2D8D2D6801092F182F9B81E4
:102660008C81BC82AB82A92EB82ED501EB81FC8176
:10267000AE1BBF0BBA83A98348018C189D0897FE37
:1026800004C0909481949108939489819A8162E026
:1026900070E00E94942A7B01C016D1061CF401E070
:1026A00010E027C00FEF1FEF24C0D201ED91FC9185
:1026B00011970480F581E02DC2016114710421F0AD
:1026C000B6014B815C8103C06B817C81A6019101C5
:1026D0000995E818F908F7FE06C0C00ED11EE98179
:1026E000FA81EE0EFF1E2B813C812F5F3F4F3C8312
:1026F0002B834B815C81A416B506BCF62496E2E1DF
:102700000C94002BA0E0B0E0E8E8F3E10C94E82A98
:10271000EC016B015A0139014801E881F981048417
:10272000F585E02D87010995E881F981A501480D1E
:10273000591D415050400484F585E02DCE01B6016D
:1027400093010995E881F9810284F385E02DCE019A
:10275000B601A50194010995E881F981B601660DDC
:10276000771D615070400284F385E02DCE01A501F4
:1027700094010995CDB7DEB7EEE00C94042BA0E0F0
:10278000B0E0E5ECF3E10C94EE2AEB01D90178011D
:10279000FC0120813181A40FB51F1197F901C0847C
:1027A000D1849E018D01F6010995CDB7DEB7E8E031
:1027B0000C940A2BEF92FF920F931F93CF93DF930A
:1027C000DA017801EC01E881F981260F371F2150E9
:1027D00030400084F185E02D8D010995CDB7DEB73D
:1027E000E6E00C940C2BA0E0B0E0E9EFF3E10C94F0
:1027F000E82A5C013A0169014801EB01C60ED71EC7
:102800000DC0D501ED91FC910284F385E02DC50149
:10281000BE01A3019401870109952196CC15DD0520
:1028200084F3CDB7DEB7EEE00C94042BAFE0B0E05C
:10283000ECE1F4E10C94E42A5C015E834D83422FC9
:1028400018870F83FA86E986DC0118968D919C9192
:102850001997681779070CF0B1C01A968D919C9161
:102860001B97ED81FE81E817F9070CF0A7C02C2D0E
:1028700030E0C901880F991F880F991F820F931F9D
:10288000860F971F181619060CF098C0C90153E05F
:10289000880F991F5A95E1F78E0F9F1F181619067A
:1028A0000CF08CC0842F90E04C01880C991C880C93
:1028B000991C880E991EC9821A821B017C836B8326
:1028C00030E02C2D353029F0F401EC5CFE4FE49122
:1028D00001C0E0E0C22C3D866D807E802301DD24B6
:1028E0003F872E872E2F30E03C872B87E0FF1EC0CE
:1028F000D501ED91FC91BE85B13051F40480F58194
:10290000E02DC5016B817C81A2012F81388524C017
:102910000088F189E02DC5016C2D7D85A3012E85F0
:1029200030E0022F10E0EF80F88425C0E985FA85B9
:102930002F813885E217F307F9F0D501ED91FC916D
:10294000BE85B13059F40480F581E02DC5016B815D
:102950007C81A20129853A8509950EC00088F189FC
:10296000E02DC5016C2D7D85A3012E8530E0022F61
:1029700010E0E984FA840995EB85FC85F595E795E7
:10298000D39429813A81620E731E0894411C511C14
:1029900038E0D31609F0A6CF3F852E853F5F8981A9
:1029A0009A81280E391EAB81BC811196BC83AB8302
:1029B0000894811C911C363009F084CF2F96E2E1F7
:1029C0000C94002BCF92EF92FF920F931F93CF9313
:1029D000DF93EC01262F6A3061F42C8930E013E09C
:1029E000220F331F1A95E1F78E859F85820F931F63
:1029F0003AC06D30E1F14C855D85EE85FF85088933
:102A00001989EA88FB88BA01AF01CC880E941614A4
:102A10004C8950E09A01220F331F240F351F220FDB
:102A2000331F8C859D85280F391F3D872C878E8904
:102A30008823E9F08AEF9FEF489FB001499F700D0E
:102A4000589F700D112488859985680F791F62172A
:102A500073076CF4B3E0440F551FBA95E1F78E8508
:102A60009F85840F951F9F878E871D861C8681E01A
:102A700090E0DF91CF911F910F91FF90EF90CF9059
:102A80000895FC01758764875787468708956623F4
:102A900009F461E0FC01648B0895FC01718B608B8B
:102AA000738B628B0895FC0185898370858B0895F3
:102AB000FC01808591850895FC01828593850895A8
:102AC000A0E0B0E0E6E6F5E10C94EE2AEC017B0133
:102AD0008A01690177FD64C00E945815E816F9065D
:102AE0000CF05EC017FD5CC0CE010E945C1508179B
:102AF00019070CF055C049C08C819D81801B910B3A
:102B000087017C010894E108F10818C08C819D813F
:102B10009C012E193F0979010894E108F1088E8182
:102B20009F819C01201B310B890106C08E819F81F2
:102B30008E199F0978018C0101501040C80168E08E
:102B400070E00E94942AFB01F695FE2FEE27F79580
:102B5000E795EE0DFF1DEF5DFC4F31E0C316D1048C
:102B600041F402C0CC0CDD1C8A95E2F780818C29EF
:102B70000AC021E030E002C0220F331F8A95E2F73D
:102B800020958081822380830BC0CE010E94531543
:102B9000823009F4BBCF833049F2813079F6ACCF73
:102BA000CDB7DEB7E8E00C940A2BEF920F93FC014F
:102BB000138212828BE795E091838083E48E038FEA
:102BC000228F418F608F0F91EF90089580E092E007
:102BD000E1E2F3E0DF019C011D9221503040E1F77A
:102BE0000895FC0188E090E030E8A78DB0A14C91F9
:102BF00026A1209524232C93432F4623A58DB68D03
:102C000025A1442321F04C91422B4C9304C04C91BC
:102C1000209524232C93A78DB0A12C9146A1242B81
:102C20002C933695019709F708951F93CF93DF935F
:102C3000EC01162F888D8F3FF1F0E9A1FAA1808178
:102C40009FA1892B8083EBA1FCA1908188A5809511
:102C500089238083E9A1FAA190818FA1809589239E
:102C60008083CE010E94F115E9A1FAA180819FA184
:102C7000892B808316C06F89772767FD70958AED51
:102C800097E00E94E1258AED97E060E00E949C2594
:102C90008AED97E0612F0E949C258AED97E00E94C3
:102CA000F725DF91CF911F910895662311F067EA10
:102CB00001C066EA0E94151608950F931F93CF93E3
:102CC000DF93EC01162F042F60E870E040E250E043
:102CD0000E94D9120F8B888D8F3F09F468C061E084
:102CE0000E94E007898D61E00E94E0078A8D61E023
:102CF0000E94E0078C8D61E00E94E007298D332758
:102D000027FD3095F901EE5FFE4FE491F0E0EE0F04
:102D1000FF1FE05EFE4F859194918F8F98A3225103
:102D20003F4FF90124912EA3288D332727FD30959D
:102D3000F901EE5FFE4FE491F0E0EE0FFF1FE05E61
:102D4000FE4F859194918D8F9E8F22513F4FF901B7
:102D500024912DA32C8D332727FD3095F901EE5FAB
:102D6000FE4FE491F0E0EE0FFF1FE05EFE4F859115
:102D7000949189A39AA322513F4FF90124912FA343
:102D80002A8D332727FD3095F901EE5FFE4FE49140
:102D9000F0E0EE0FFF1FE05EFE4F859194918BA354
:102DA0009CA322513F4FF901249128A704C08AED2A
:102DB00097E00E94CC258B8D61E00E94E0078B8D0F
:102DC00061E00E94140861E070E080E090E00E9401
:102DD0004F078B8D60E00E9414086AE070E080E08D
:102DE00090E00E944F078B8D61E00E941408CE0195
:102DF0006EEA0E941516CE0165ED0E941516CE01F1
:102E000060E80E941516CE0168EA0E941516CE01F0
:102E10006FE10E941516CE0163ED0E941516CE01DA
:102E200060E00E941516CE0160E40E941516CE01E6
:102E30006DE80E941516CE01113011F460E101C059
:102E400064E10E941516CE0160E20E941516CE01C3
:102E500060E00E941516CE0161EA0E941516CE01AF
:102E600068EC0E941516CE016AED0E941516CE017F
:102E700062E00E941516CE0161E80E941516CE018F
:102E80006FE80E941516CE0169ED0E941516CE015D
:102E9000113011F462E201C061EF0E941516CE01FB
:102EA0006BED0E941516CE0160E40E941516CE014E
:102EB00064EA0E941516CE0166EA0E941516CE013C
:102EC0006FEA0E941516DF91CF911F910F9108951F
:102ED000A0E0B0E0EEE6F7E10C94ED2A8C0160E0B2
:102EE0000E941516C80160E10E941516C80160E431
:102EF0000E941516D80158968C9158978F3F09F467
:102F000043C09196ED91FC919297808197969C9108
:102F10009797892B80839396ED91FC91949780816C
:102F200098969C919897892B80839196ED91FC912E
:102F30009297908197968C9180958923808391E2D6
:102F4000E92E93E0F92EC0E0D0E0F70161917F0116
:102F5000C8010E94F1152196F2E0C030DF07A9F701
:102F6000C0E0D2E0C80160E00E94F1152197D1F7DE
:102F7000D8019196ED91FC919297808197969C91C2
:102F80009797892B808364C0B090B8008CE08093C1
:102F9000B800CC24DD24F8016789772767FD709598
:102FA0008AED97E00E94E125E091DA07F091DB07D6
:102FB0000190F081E02D8AED97E060E40995EE2420
:102FC000FF24E601CF5DDC4FFE01EE0DFF1D8AED13
:102FD00097E060810E949C250894E11CF11CF0E1BF
:102FE000EF16F10489F780E190E0C80ED91E8AED52
:102FF00097E00E94F72590E0C91692E0D90659F6AD
:10300000C0E2D0E0D80157966C91772767FD7095A4
:103010008AED97E00E94E125E091DA07F091DB0765
:103020000190F081E02D8AED97E060E4099580E160
:10303000E82E8AED97E060E00E949C25EA94C9F7AB
:103040008AED97E00E94F7252197E1F6B092B8004B
:10305000CDB7DEB7E9E00C94092B90E0982F8827D4
:10306000845F9B4F44E050E00E94841A089590E0F2
:103070000496982F8827860F971F0E94AE1A0895EE
:1030800062E070E00E943718089590E00496982F4F
:103090008827860F971F642F0E94261A0895462FAF
:1030A00062E070E00E9445180895CF93DF93C82F27
:1030B000D62F472F60E170E00E9445188C2F61E108
:1030C00070E04D2F0E944518DF91CF910895CF9366
:1030D000DF93C82FD62F472F64E070E00E94451879
:1030E0008C2F65E070E04D2F0E944518DF91CF9145
:1030F0000895CF93C82F8EEB97E06C2F40E10E948C
:10310000401C8C2F6FEF0E944F18CF910895EF92C3
:10311000FF921F93CF93DF9300D0CDB7DEB7182F68
:103120007A01862F8150853048F5812F2A83698363
:103130000E9479182A816981422F462B812F60E0F5
:1031400070E00E944518E114F10419F0812FB701D5
:103150000BC06091BC077091BD076F5F7F4F70938C
:10316000BD076093BC07812F0E9467188EEB97E024
:10317000612F41E00E94401C81E001C080E00F907F
:103180000F90DF91CF911F91FF90EF9008951F93C3
:10319000CF93DF93182FFB01EA0180818F3F51F419
:1031A00081818F3F91F482818F3F79F483818F3FBA
:1031B00061F41DC0882349F48181882331F4828120
:1031C000882319F48381882391F0209781F0812F3F
:1031D000BF010E942D18812FBE010E9455188EEB51
:1031E00097E0612F44E00E94401C81E001C080E034
:1031F000DF91CF911F910895682F8EEB97E048E003
:103200000E94401C0895CF92DF92EF92FF921F938D
:10321000CF93DF93182F6B017A0188E04130580774
:1032200018F0E12C68E0F62E8EEB97E0612F0E94FB
:103230008B1BEC01812F63E070E00E94371887310F
:1032400011F08C3121F4CE15DF0570F302C0EE24AD
:10325000FF248EEB97E0612FA60197010E943A1B95
:103260008EEB97E0612F40E20E94401C0DC0812F41
:1032700063E070E00E943718882331F4812F0E94A8
:103280007918EE24FF2409C0812F0E94401884FF82
:10329000EECF812F60E10E944F18C701DF91CF91DF
:1032A0001F91FF90EF90DF90CF900895A0E0B0E0E5
:1032B000ECE5F9E10C94EE2A182F6B01EA018EEB94
:1032C00097E0612F0E945B1B7C01009761F4812FC6
:1032D00063E070E00E9437188431D1F08823C1F098
:1032E0008C31B1F01BC0C817D9070CF47E011E1435
:1032F0001F0474F48EEB97E0612FA601970100E0A4
:103300000E94081C8EEB97E0612F40E40E94401C55
:10331000C701CDB7DEB7E8E00C940A2BEE24EA949F
:10332000FE2CF6CF0F93282FAB018EEB97E0622F88
:1033300021E030E001E00E94081C81E090E00F9164
:103340000895AF92BF92CF92DF92FF920F931F9397
:10335000CF93DF93F82E6B015A0189018EEB97E032
:103360006F2D0E948B1B8017910740F48EEB97E026
:103370006F2D0E948B1BD82FC92F02C0D02FC12FB9
:103380008EEB97E06F2DA60195010D2F1C2F0E944B
:10339000CD1A8D2F9C2FDF91CF911F910F91FF9010
:1033A000DF90CF90BF90AF9008951F93CF93DF939E
:1033B000182FFB01EA018081882349F48181882349
:1033C00031F48281882319F48381882369F020975E
:1033D00059F0812FBF010E942D18812FBE010E943C
:1033E000551881E090E002C080E090E0DF91CF913D
:1033F0001F910895CF93C82F8EEB97E06C2F40E27A
:103400000E94401C0CC08C2F0E94401883FF07C0F4
:103410008C2F68E10E944F1880E090E00BC08C2F49
:103420000E94401884FFEFCF8C2F60E10E944F185C
:1034300081E090E0CF9108958EBD0DB407FEFDCFE1
:103440008EB508952A9808952A9A0895A2E0B0E0CA
:10345000ECE2FAE10C94F32A182F6A8399830E9414
:10346000221A80EF0E941C1A9981892F0E941C1A2F
:10347000812F0E941C1A6A81862F0E941C1A0E94AA
:10348000241A81E02296E3E00C940F2BCF93DF9374
:10349000EC016CE271E080E090E00E944F070E9436
:1034A000501C229A80E090E060E80E94261A8BE18E
:1034B00090E065E50E94261A8AE190E065E50E94A9
:1034C000261A80E090E49983888380E090E69987CB
:1034D000888780E098E49B838A8380E098E69B87D6
:1034E0008A8780E090E59D838C8380E090E79D87CC
:1034F0008C8780E098E59F838E8380E098E79F87A4
:103500008E87DF91CF910895A0E0B0E0EAE8FAE17C
:103510000C94EE2A8C016A017B01C0E0D0E015C05A
:103520000E94221A80EF0E941C1A812F0E941C1AEE
:10353000802F0E941C1A0F5F1F4FF70181917F019E
:103540000E941C1A0E94241A2196CC15DD0541F711
:10355000CE01CDB7DEB7E8E00C940A2BA1E0B0E0D5
:10356000E4EBFAE10C94F32A182F99830E94221AB3
:103570008FE00E941C1A9981892F0E941C1A812FAA
:103580000E941C1A80E00E941C1A89830E94241A3F
:1035900089812196E3E00C940F2B6F927F928F929A
:1035A0009F92AF92BF92CF92DF92FF920F931F93A1
:1035B000CF93DF935C01F62E3A0149016801862F13
:1035C00064E270E00E943718C82F8F2D65E270E02A
:1035D0000E9437183C2F20E0082F10E0022B132BFD
:1035E000060D171DA80157708F2D90E0880F991FA9
:1035F000A80EB91EF50120813181240F351FCA01A3
:103600008C0D9D1DF8E081309F0798F0C0E0D8E058
:10361000C41BD50BC901B401AE010E94841AB401C8
:103620006C0F7D1FA6014C1B5D0BF5018081918104
:1036300003C0C901B401A6010E94841A0C0D1D1D0E
:103640008F2D64E270E0412F0E9445188F2D65E2B6
:1036500070E0402F0E944518DF91CF911F910F918C
:10366000FF90DF90CF90BF90AF909F908F907F9012
:103670006F9008950F931F93FA01890140E050E085
:103680009F010E94CD1A1F910F910895CF93DF9350
:10369000C82F66E270E00E943718D82F8C2F67E29F
:1036A00070E00E9437183D2F20E090E0822B932B92
:1036B000DF91CF910895FF920F931F93CF93DF93E4
:1036C000F62EC0E0D0E08F2D0E94461B8C010097A3
:1036D00021F08F2D0E94461BEC01C017D10799F7EE
:1036E000CE01CDB7DEB7E5E00C940D2BCF93DF9381
:1036F000C82F60E270E00E943718D82F8C2F61E24B
:1037000070E00E9437183D2F20E090E0822B932B31
:10371000DF91CF910895FF920F931F93CF93DF9383
:10372000F62EC0E0D0E08F2D0E94761B8C01009712
:1037300021F08F2D0E94761BEC01C017D10799F75D
:10374000CE01CDB7DEB7E5E00C940D2BA0E0B0E0E4
:10375000ECEAFBE10C94EE2A8C016A017B01C0E0EB
:10376000D0E016C00E94221A8FE00E941C1A812FFE
:103770000E941C1A802F0E941C1A0F5F1F4F80E0AE
:103780000E941C1AF70181937F010E94241A21963E
:10379000CC15DD0539F7CE01CDB7DEB7E8E00C94E6
:1037A0000A2BA0E0B0E0E7EDFBE10C94EE2A690102
:1037B00078015770C62FD0E02496CC0FDD1FC80FBC
:1037C000D91F28813981240F351FC801840F951F07
:1037D00068E08130960790F000E018E0041B150BBC
:1037E000C901B601A8010E94A61BB601600F711F96
:1037F000A701401B510B8881998103C0C901B60103
:10380000A8010E94A61BCDB7DEB7E8E00C940A2BF6
:10381000A0E0B0E0EEE0FCE10C94EA2A5C01F62EB8
:103820004A016901E02E862F68E270E00E94371895
:10383000C82F8F2D69E270E00E9437183C2F20E0DE
:10384000C82FD0E0C22BD32BC5016F2DAE01940140
:1038500086010E94D11BEE2071F4CC0DDD1D8F2D51
:1038600068E270E04D2F0E9445188F2D69E270E0EC
:103870004C2F0E944518CDB7DEB7ECE00C94062B18
:10388000CF93C62F862F61E070E00E9445188C2FE1
:1038900061E070E00E9437188823C9F7CF9108953E
:1038A0008AE061E00E9414088AE061E00E94E0077B
:1038B0008CB580618CBD8CB580648CBD8DE061E081
:1038C0000E94E0078BE061E00E94E00708950E96F9
:1038D000FC0184E1DF011D928A95E9F70895A2E3D6
:1038E000B0E0E5E7FCE10C94E42A4C012A013B013D
:1038F00089010E9413076B017C01E7E4AE2EB12C15
:10390000A80CB91C14C00E941307DC01CB018C1950
:103910009D09AE09BF09481659066A067B0608F4D8
:1039200010C262E370E080E090E00E944F07C501A2
:103930000E94E6111816190634F7C501BE01695F29
:103940007F4F42E250E00E947E118F81823009F069
:10395000F3C1F501858996898334910509F0ECC19D
:103960004B855C856D857E85C72EDD24EE24FF2486
:10397000B42FAA2799278827C82AD92AEA2AFB2AF6
:10398000B62FA52F942F882780709070B070C82A0A
:10399000D92AEA2AFB2A452F562F672F772740700E
:1039A00060707070C42AD52AE62AF72AF801C0820E
:1039B000D182E282F382B401685F7F4FCE018396A9
:1039C00046E050E00E94B52B009799F4F401808105
:1039D0009181A281B381C816D906EA06FB0648F098
:1039E00084819581A681B7818C159D05AE05BF05A3
:1039F00028F4C5010E9452114424A5C18F89988DD5
:103A0000A98DBA8DF40186879787A08BB18B0EECB8
:103A100010E0C5010E949D1101501040D1F74424CF
:103A200082E2682E712C680C791C96E2292E312CCA
:103A3000280C391CC4018A969AA789A72AE1E22E8C
:103A4000F12CE80CF91CF401E85AFF4FFCA7EBA796
:103A5000C40142969EA78DA7F4017696F8ABEFA716
:103A6000C4014E969AAB89AB67015EC1C5010E9445
:103A70009D118333910509F410C18433910594F4A9
:103A80008130910579F18230910524F4009709F491
:103A90004BC13CC18330910561F18630910509F03D
:103AA00035C142C08A33910509F48CC08B3391052E
:103AB00044F48533910571F08633910509F026C1F0
:103AC0004EC08B33910509F4B2C08F3F910509F0C8
:103AD0001DC12AC1C5010E949D11C5010E949D11F1
:103AE000482E22C1C5010E949D11C5016DA57EA56C
:103AF0005CC0C5010E949D11082FC5016FA578A962
:103B000044E050E00E947E11EE24FF2410E00450B7
:103B1000104006C0C5010E949D110894E11CF11CD3
:103B2000E016F106BCF300C1C5010E949D11082FEB
:103B3000C50169A97AA944E050E00E947E11EE24F3
:103B4000FF2410E00450104006C0C5010E949D11E2
:103B50000894E11CF11CE016F106BCF3E5C0C501B8
:103B60000E949D11E82EF401828D938DA48DB58D58
:103B70000097A105B105B9F0CE010196B6010E94EA
:103B80006C0A8B819C81AD81BE81EBA5FCA5408137
:103B900051816281738184179507A607B70719F0D1
:103BA00000E010E00CC0C501B60144E050E00E9406
:103BB0007E11BAC0C5010E949D110F5F1F4FE01614
:103BC000C9F7B2C0C5010E949D11C501B10144E011
:103BD00050E00E947E11F40106A117A120A531A595
:103BE000432F552766277727B02FAA27992788279D
:103BF000482B592B6A2B7B2BB22FA12F902F882774
:103C000080709070B070482B592B6A2B7B2BBB2790
:103C1000A32F922F812F8070A070B070482B592B4A
:103C20006A2B7B2B46A357A360A771A77DC0C50154
:103C30000E949D11C50169A57AA544E050E00E944B
:103C40007E11F40102A513A524A535A5432F552700
:103C500066277727B02FAA2799278827482B592B23
:103C60006A2B7B2BB22FA12F902F8827807090700A
:103C7000B070482B592B6A2B7B2BBB27A32F922F7D
:103C8000812F8070A070B070482B592B6A2B7B2B32
:103C900042A753A764A775A747C0C5010E949D11FD
:103CA000C501B30144E050E00E947E11F40102A17D
:103CB00013A124A135A1432F552766277727B02FBD
:103CC000AA2799278827482B592B6A2B7B2BB22FA1
:103CD000A12F902F882780709070B070482B592B9F
:103CE0006A2B7B2BBB27A32F922F812F8070A07074
:103CF000B070482B592B6A2B7B2B42A353A364A390
:103D000075A346A757A760AB71AB0EC0C5010E9453
:103D10009D11E82E00E010E005C0C5010E949D1134
:103D20000F5F1F4FE016C9F7C5010E943711181623
:103D300019060CF49BCE01C04424C5010E94521107
:103D400002C044244A94842DE296E2E10C94002BB4
:103D5000CF93DF93EC01625F7F4F0E946C0ACE012C
:103D6000DF91CF910895CF93DF93EC016E5E7F4F8B
:103D70000E946C0ACE01DF91CF910895CF93DF931B
:103D8000EC016A5E7F4F0E946C0ACE01DF91CF91F9
:103D90000895CF93DF93EC01625E7F4F0E946C0A1F
:103DA000CE01DF91CF91089580E3FB0180833296AD
:103DB00001C0482F842F82958F704F704A3010F4C5
:103DC000405D01C0495C4293882399F70895ACE2B5
:103DD000B0E0EDEEFEE10C94E72A7C01562E842E35
:103DE000652E2DE0C22ED12CCC0EDD1E30E2932E9E
:103DF000F601292D11922A95E9F7CE0107966FEF6A
:103E00004FEF2FEF0FEF0E94600A47E4A42EB12C72
:103E1000AE0CBF1C85E395E09A83898389859A85DA
:103E2000AB85BC858B839C83AD83BE83C501BE01FE
:103E30006F5F7F4F43E450E00E94DD11EFEF8F3F53
:103E40009E0709F4ECC081E08D878E8786E08F871E
:103E5000188AF7010481158126813781432F552760
:103E600066277727B02FAA2799278827482B592B11
:103E70006A2B7B2BB22FA12F902F882780709070F8
:103E8000B070482B592B6A2B7B2BBB27A32F922F6B
:103E9000812F8070A070B070482B592B6A2B7B2B20
:103EA000498B5A8B6B8B7C8B6D8A8E8A80E890E075
:103EB000988F8F8BC501B6014CE150E00E94C31171
:103EC000F60111929A94E9F788E0682E712C6E0C35
:103ED0007F1CF601D30186E00D9001928150E1F73D
:103EE000FDE0CF2ED12CCC0EDD1EC501B60140E188
:103EF00050E00E94C31180E2F60111928A95E9F721
:103F000006E010E09C2CCD2CC501692D7C2D40E2F3
:103F100050E00E94C31101501040B1F783E68D8735
:103F200092E89E8793E59F87888B85E3898B81E064
:103F30008A8B5B8A9DE39C8B97E09D8B8E8BDE0149
:103F40005796F30186E001900D928150E1F78CE0E5
:103F50008D8F8E8FCE014F9666EF72E00E94C22B3E
:103F6000C701BE016B5D7F4FF70143850E94D41EE0
:103F7000C701BE01695D7F4FF70144850E94D41ED1
:103F8000C701BE01675D7F4FF70145850E94D41EC2
:103F9000C501BE01635F7F4F4EE150E00E94C31137
:103FA000F3E05F1601F582E38D8784E08E87F701E9
:103FB00096859F879785988B9089998B91899A8B05
:103FC00096E39B8B8C8B828D8D8B838D8E8B848DDA
:103FD0008F8B858D888FC501BE01635F7F4F4CE05D
:103FE00050E00E94C31187E38D8786E08E8791E0C1
:103FF0009F8793E0988B898B8FE08A8B8AE38B8BEA
:104000008BE38C8B8FEF8D8BC501BE01635F7F4F80
:1040100049E050E00E94C311C5010E94D811AC963E
:10402000EFE00C94032BA8E0B0E0E9E1F0E20C949F
:10403000E42A8C0161E070E080E090E020ED37E060
:1040400040E050E00E943428D80114966C931497F5
:1040500015967C93159716968C93169717969C93A6
:1040600017976C9311967C93119712968C931297D5
:1040700013969C93F801E95BFF4FFE83ED83CF011C
:104080000E9426128D819E8164E470E00E943B12A2
:10409000882309F42AC10E9413074B015C012224E2
:1040A0003324FF2456E4C52ED12CC00ED11EC801E6
:1040B000CE9698878F83E3E0EE2EF8EE4F2EF3E056
:1040C0005F2E612C712CFBC08823F9F4F8018481E8
:1040D0009581A681B7810196A11DB11D8483958329
:1040E000A683B7830E941307681979098A099B0977
:1040F000A30192010E94A72AC80161E0A9010E94C0
:10410000E71E81E0D6018C93BEC08430F9F4F8013B
:1041100084819581A681B7810196A11DB11D8483FB
:104120009583A683B7830E941307681979098A09C2
:104130009B09A30192010E94A72AC80163E0A9017B
:104140000E94E71EE2E0D601EC939DC0813061F54C
:10415000AF81B8854D915D916D917C91C8019E01B3
:104160002F5F3F4F0E946F1CF82EB2E08B1709F0B3
:104170008AC089819A81AB81BC81F801848395834F
:10418000A683B7830E941307681979098A099B09D6
:10419000A30192010E94A72AC80163E0A9010E941D
:1041A000E71ED601FC9275C0823009F06CC0EF8129
:1041B000F8854081518162817381C8019E012F5F22
:1041C0003F4F0E946F1CF82EF5E08F1709F055C085
:1041D000D601EC92F80182A193A1A4A1B5A1009708
:1041E000A105B10541F484E893E0A0E0B0E082A32A
:1041F00093A3A4A3B5A3F80186A197A1A0A5B1A5F7
:104200000097A105B10561F482A193A1A4A1B5A174
:10421000B695A7959795879586A397A3A0A7B1A7CD
:10422000F80182A593A5A4A5B5A546A157A160A5AF
:1042300071A50097A105B10551F4DB01CA01880FF2
:10424000991FAA1FBB1F82A793A7A4A7B5A7D80130
:104250009E964D935D936D937C93D1979A968D9195
:104260009D910D90BC91A02DF80182AB93ABA4ABB6
:10427000B5AB21E0222E312C0CC0F6E08F1719F4DB
:10428000D6011C9206C0BFEFFB1619F4F60110828E
:10429000FF24F1E02F16310491F00E941307DC0196
:1042A000CB0188199909AA09BB09F80142AD53ADA0
:1042B00064AD75AD481759076A077B0728F0D6012A
:1042C0008C91833009F000CF8D819E810E9426124F
:1042D000F80184819581A681B7810196A11DB11D48
:1042E00084839583A683B78302C022243324C1012B
:1042F0002896E2E10C94002BA0E0B0E0E2E8F1E2C5
:104300000C94EA2AEC010E9413074B015C018EA970
:104310009FA9A8ADB9AD8E010E5B1F4F0097A105F7
:10432000B10509F493C0F80180819181A281B38124
:10433000A5019401281B390B4A0B5B0BCA01B9017B
:1043400057FD52C0A8EECA2EA3E0DA2EE12CF12CC4
:10435000C80CD91CEA1CFB1C28EE33E040E050E0FE
:104360000E94C92ADC01CB01C81AD90AEA0AFB0A51
:10437000F801C082D182E282F382DA01C90101969A
:10438000A11DB11D4EA55FA568A979A98C019D014C
:10439000000F111F221F331F4017510762077307B9
:1043A0002CF41EA61FA618AA19AA08C0481B590B50
:1043B0006A0B7B0B4EA75FA768AB79AB4AA95BA9D9
:1043C0006CA97DA940175107620773072CF41AAA3C
:1043D0001BAA1CAA1DAA08C0481B590B6A0B7B0B01
:1043E0004AAB5BAB6CAB7DABFE01EA5BFF4F808100
:1043F000833081F48EA59FA5A8A9B9A9181619061E
:104400001A061B063CF084E08083CE010E94132034
:10441000019602C080E090E0FE01EA5BFF4F208140
:10442000233011F02223F9F44AA95BA96CA97DA9D4
:104430001416150616061706B4F01082CE010E9457
:10444000671CCE010E94132003960DC0D501C40144
:1044500088519C4FAF4FBF4FF80180839183A28357
:10446000B38380E090E08EAA9FAAA8AEB9AECDB784
:10447000DEB7ECE00C94062BA0E0B0E0E2E4F2E260
:104480000C94EC2A6C015B01DA01C901F60112A25D
:1044900013A214A215A216A217A210A611A612A664
:1044A00013A614A615A616AA17AA10AE11AE82AFAF
:1044B00093AFA4AFB5AFFE96E082F182028313837F
:1044C000E601289686E0FE0111928A95E9F7C60179
:1044D0000E94671CF50186E0019009928150E1F786
:1044E000F601EA5BFF4F1082C6010E941320CDB790
:1044F000DEB7EAE00C94082B0F938EEC97E060E0B7
:1045000040E020E000E00E94600A0F910895CF9300
:10451000DF93FC01EB018A819B81AC81BD818283A9
:104520009383A483B58317821682DF91CF91089578
:10453000CF93DF93EA01DB01FB0181918823E9F747
:1045400040E050E060E070E01BC04F3F510509F0D3
:104550006CF5FE01E60FF71F42836F5F7F4F40E06F
:1045600050E00EC09A01220F331FE3E0440F551FA5
:10457000EA95E1F7420F531F90E0C097480F591F8B
:104580008D91882331F0643071051CF48E3251F71F
:10459000DCCF4F3F510509F04CF46430710534F421
:1045A000C60FD71F4A8381E090E002C080E090E010
:1045B000DF91CF910895A3E0B0E0E1EEF2E20C9438
:1045C000EA2A8C01962E872E0E941307DC01CB016C
:1045D000F80197838683A8E0EA2EF12CE00EF11E05
:1045E000B8016A5F7F4FC70142E050E00E94C311EB
:1045F00081E090E09B838A83C701BE016E5F7F4F9D
:1046000042E050E00E94C31180E091E09B838A83E6
:10461000C701BE016E5F7F4F42E050E00E94C311B0
:104620001B821A82C701BE016E5F7F4F42E050E0DD
:104630000E94C311C701BE016E5F7F4F42E050E090
:104640000E94C311C701BE016E5F7F4F42E050E080
:104650000E94C311C92CD82CA92CB82C1FC0F5015D
:104660006F018191882311F08E32D1F786010A19EA
:104670001B091016110674F40983C701BE016F5F90
:104680007F4F41E050E00E94C311C701B501A8016E
:104690000E94C31156010894A11CB11CF60180812F
:1046A0008823E9F61982C701BE016F5F7F4F41E0A1
:1046B00050E00E94C31100E011E01B830A83C70190
:1046C000BE016E5F7F4F42E050E00E94C3111B832A
:1046D0000A83C701BE016E5F7F4F42E050E00E9437
:1046E000C31181E090E02396ECE00C94062BA3E14B
:1046F000B0E0EDE7F3E20C94E62A8C016B014A018D
:104700000E9413072B013C0128E0A22EB12CA00E21
:10471000B11EEE24FF2414C00E941307DC01CB015C
:1047200084199509A609B709C816D906EA06FB0631
:1047300008F40FC162E370E080E090E00E944F0750
:10474000C5010E94E6111816190634F7F801828196
:104750009381A481B581418D528D638D748D8417B1
:104760009507A607B70709F0F7C0858D968D8533A5
:10477000910509F0F1C0F9C0B8E0EB2EF12CEC0E78
:10478000FD1EC501B7014CE050E00E947E11F7010B
:10479000428153815427452754275F834E83F80174
:1047A00086819781288539858217930711F457FDF3
:1047B00006C0C5010E9452118CEF9FEFD2C04F700E
:1047C00052704115510531F0C5010E9452118BEF15
:1047D0009FEFC7C0F70186819781582E492E41145B
:1047E000510451F5C5010E9452118AEF9FEFB9C0E3
:1047F000C501BE016F5F7F4F41E050E00E947E1116
:104800008981882321F409C0C5010E949D118981F5
:10481000982F915099838823B9F78981882341F78C
:1048200004E010E0C5010E949D1101501040D1F735
:104830000894C11CD11C02C0CC24DD24F701848162
:104840009581982789279827C816D90688F2EE24DB
:10485000FF24C501BE016F5F7F4F41E050E00E9421
:104860007E118981982F907C69F4882321F40EC0F1
:10487000C5010E949D118981982F915099838823A9
:10488000B9F704C0C5010E949D111982898188234E
:1048900001F7C501BE016C5F7F4F42E050E00E940E
:1048A0007E11C501BE016E5F7F4F42E050E00E9465
:1048B0007E1104E010E0C5010E949D1101501040DE
:1048C000D1F7C501BE016A5F7F4F42E050E00E9410
:1048D0007E118C819D81F1E080309F0719F58A81DE
:1048E0009B8121E080309207E9F48E819F81E4E092
:1048F00080309E0731F0C5010E94521187EF9FEF73
:1049000030C0B4016E5F7F4FC50144E050E00E94AB
:104910007E1181E090E025C0C5010E949D110F5FCE
:104920001F4F02C000E010E08E819F8198278927E9
:1049300098270817190780F30894E11CF11CE41468
:10494000F50409F086CFC5010E94521186EF9FEF52
:1049500008C08FEF9FEF05C08EEF9FEF02C08DEF75
:104960009FEF6396E0E10C94022BC5010E94371182
:104970008C309105A4F300CFA6E0B0E0E2ECF4E2C5
:104980000C94EA2A6C017B014A010E94982200974C
:1049900009F065C0F60182819381A481B5814091BF
:1049A000D6075091D7076091D8077091D90784171F
:1049B0009507A607B70709F455C048E0A42EB12C07
:1049C000AC0CBD1C0E9413076F70707060507C4F60
:1049D000C5010E943B12813009F047C085E395E094
:1049E0009A838983F60182819381A481B5818B8327
:1049F0009C83AD83BE83C501BE016F5F7F4F45E3DE
:104A000050E00E94DD118C01009729F1C601B70129
:104A10000E94DB220097E9F0C5010E94D8118C01A9
:104A2000009731F418C0FFEF0F3F1F07A1F403C038
:104A300033E0E32EF12CC60168E873E1A4010E9483
:104A400077238C010894E108F108E114F10419F0CE
:104A5000EACF00E010E0C5010E94261208C001E084
:104A600010E005C00EEF1FEF02C000E010E0C8012B
:104A70002696ECE00C94062B0F9384ED97E060E013
:104A800040E020E000E00E94600A0F9108958091CC
:104A90000A0890E020910B08821B9109089520914B
:104AA0000B0880910A08281750F4E22FF0E0E45F29
:104AB000F74F808190E02F5F20930B0808958FEFD0
:104AC0009FEF0895E0910B0880910A08E81730F4F1
:104AD000F0E0E45FF74F808190E008958FEF9FEF63
:104AE00008950895A0E0B0E0E8E7F5E20C94EE2A1E
:104AF0006C01CB018A012091E6072223A1F07B0102
:104B0000C0E0D0E00CC0D7016D917D01D601ED91E0
:104B1000FC910190F081E02DC60109952196C01706
:104B2000D10789F703C0642F0E948226C801CDB740
:104B3000DEB7E8E00C940A2BA1E0B0E0E2EAF5E28F
:104B40000C94F42A69832091E6072223D1F0209166
:104B5000E707203240F021E030E0FC01338322837C
:104B600080E090E015C08091E807E82FF0E0E75181
:104B7000F84F998190838F5F8093E8078093E707D0
:104B800005C0CE01019661E00E94822681E090E09E
:104B90002196E2E00C94102B10920B0810920A0858
:104BA0001092E8071092E7070E941226089581E00C
:104BB0008093E607609309081092E8071092E707D0
:104BC00008950E94D72508950F93062F8091090814
:104BD00069EE77E04091E70721E00E9430261092CD
:104BE000E8071092E7071092E6070F91089561E039
:104BF0000E94E42508951092DD071092DC0788EEEC
:104C000093E0A0E0B0E08093DE079093DF07A093ED
:104C1000E007B093E10781E995E09093DB0780938B
:104C2000DA0708951092350881E0809333081092D6
:104C3000320882E161E00E94140883E161E00E9491
:104C40001408E9EBF0E080818E7F808380818D7F86
:104C5000808388E48093B80085E48093BC00089545
:104C60000F93413208F045C0909135089923E1F740
:104C700092E090933508009333089FEF90932C08AF
:104C80001092310840933008A6E3B8E0FB0102C05F
:104C900091919D939E2F961B9417D0F310923408F8
:104CA00090913408880F892B8093340880913208C2
:104CB000813041F410923208809134088093BB0017
:104CC00085EC01C085EE8093BC00222321F0809109
:104CD00035088230E1F380912C088F3F61F080919C
:104CE0002C08803251F080912C08803341F483E00D
:104CF00007C081E005C080E003C082E001C084E01D
:104D00000F910895613290F420913508243081F498
:104D100060932E08A6E5B8E0FC0102C091919D9336
:104D20009E2F981B9617D0F380E0089581E0089598
:104D300082E00895882311F085EC01C085E8809316
:104D4000BC00089585ED8093BC008091BC0084FD7B
:104D5000FCCF10923508089585EC8093BC0010922A
:104D6000350808951F920F920FB60F9211242F93BA
:104D70003F934F935F936F937F938F939F93AF93E3
:104D8000BF93EF93FF938091B90090E0887F90707C
:104D90008036910509F4CCC081369105E4F588325E
:104DA000910509F47EC089329105C4F480319105E2
:104DB00009F472C08131910544F4009709F41DC1D2
:104DC0008830910509F01DC167C08831910509F44B
:104DD00068C08032910509F014C177C08034910514
:104DE00009F489C0813491054CF48033910509F4AC
:104DF0006EC08833910509F004C16DC080359105FE
:104E000009F46DC08835910509F47AC0883491059C
:104E100009F0F7C0F4C08839910509F4E4C0893974
:104E20009105ECF48837910509F482C08937910522
:104E30004CF48836910509F47BC08037910509F060
:104E4000E0C076C08838910509F4CDC0803991055D
:104E500009F474C08038910509F0D3C06FC0803B5D
:104E6000910509F498C0813B91054CF4803A910575
:104E700009F476C0883A910509F0C3C08CC0803C23
:104E8000910509F4B4C0883C910509F4B0C0883B91
:104E9000910509F0B6C094C0809134088093BB009E
:104EA00012C090913108809130089817A8F5809130
:104EB0003108E82FF0E0EA5CF74F90819093BB0057
:104EC0008F5F8093310881E08FC080E201C080E372
:104ED00080932C0894C088E380932C0859C080915B
:104EE00031089091BB00E82FF0E0EA5CF74F908327
:104EF0008F5F80933108909131088091300870C0A5
:104F0000809131089091BB00E82FF0E0EA5CF74F08
:104F100090838F5F8093310880913308882309F054
:104F20006EC081E08093320884EA8093BC0062C046
:104F300083E08093350810922D08C5CF80912D080D
:104F4000803208F050C080912D089091BB00E82F6E
:104F5000F0E0E658F74F90838F5F80932D08B3CF32
:104F600080912D08803230F4E0912D08F0E0E65871
:104F7000F74F10820E94A22660912D08E0917608DA
:104F8000F09177088AE798E070E0099510922D0873
:104F90000E94AC2636C084E08093350810922F081A
:104FA00010922E08E0917808F09179080995809187
:104FB0002E08882329F481E080932E081092560849
:104FC00080912F08E82FF0E0EA5AF74F90819093F4
:104FD000BB008F5F80932F0890912F0880912E083F
:104FE000981708F470CF80E00E949A260AC081E0EA
:104FF0000E949A261092350804C010922C080E9434
:10500000A226FF91EF91BF91AF919F918F917F91D8
:105010006F915F914F913F912F910F900FBE0F9025
:105020001F901895CF92DF92EF92FF920F931F93EC
:105030006B017C01611571058105910549F00E94A4
:10504000A52BA70196010E94C92A8B019C0103C0D0
:1050500000E010E09801B801C9011F910F91FF9085
:10506000EF90DF90CF900895CF92DF92EF92FF9272
:105070006B017C01DA01C901C216D306E406F5060C
:1050800074F48C199D09AE09BF09BC01CD010E94C1
:105090001228DC01CB01C80ED91EEA1EFB1EB60188
:1050A000C701FF90EF90DF90CF9008955058BB2735
:1050B000AA270ED075C166D130F06BD120F031F443
:1050C0009F3F11F41EF45BC10EF4E095E7FB51C164
:1050D000E92F77D180F3BA17620773078407950722
:1050E00018F071F49EF58FC10EF4E0950B2EBA2FD7
:1050F000A02D0B01B90190010C01CA01A0011124DE
:10510000FF27591B99F0593F50F4503E68F11A1689
:10511000F040A22F232F342F4427585FF3CF46951A
:1051200037952795A795F0405395C9F77EF41F163C
:10513000BA0B620B730B840BBAF09150A1F0FF0F06
:10514000BB1F661F771F881FC2F70EC0BA0F621FF2
:10515000731F841F48F4879577956795B795F795E2
:105160009E3F08F0B3CF9395880F08F09927EE0F74
:10517000979587950895D9D008F481E008950CD0CB
:105180000FC107D140F0FED030F021F45F3F19F09D
:10519000F0C0511139C1F3C014D198F39923C9F368
:1051A0005523B1F3951B550BBB27AA27621773072D
:1051B000840738F09F5F5F4F220F331F441FAA1FE1
:1051C000A9F333D00E2E3AF0E0E830D091505040A1
:1051D000E695001CCAF729D0FE2F27D0660F771F4F
:1051E000881FBB1F261737074807AB07B0E809F031
:1051F000BB0B802DBF01FF2793585F4F2AF09E3FC6
:10520000510568F0B6C000C15F3FECF3983EDCF397
:10521000869577956795B795F7959F5FC9F7880F3E
:10522000911D9695879597F90895E1E0660F771F90
:10523000881FBB1F621773078407BA0720F0621B21
:10524000730B840BBA0BEE1F88F7E095089504D01A
:105250006894B111D9C00895BCD088F09F5790F0E0
:10526000B92F9927B751A0F0D1F0660F771F881F8B
:10527000991F1AF0BA95C9F712C0B13081F0C3D0A6
:10528000B1E00895C0C0672F782F8827B85F39F044
:10529000B93FCCF3869577956795B395D9F73EF4EA
:1052A00090958095709561957F4F8F4F9F4F089592
:1052B000E89409C097FB3EF49095809570956195B0
:1052C0007F4F8F4F9F4F9923A9F0F92F96E9BB2766
:1052D0009395F695879577956795B795F111F8CFE2
:1052E000FAF4BB0F11F460FF1BC06F5F7F4F8F4F4D
:1052F0009F4F16C0882311F096E911C0772321F043
:105300009EE8872F762F05C0662371F096E8862FDA
:1053100070E060E02AF09A95660F771F881FDAF731
:10532000880F9695879597F90895990F0008550F5E
:10533000AA0BE0E8FEEF16161706E807F907C0F01B
:1053400012161306E407F50798F0621B730B840B23
:10535000950B39F40A2661F0232B242B252B21F4FD
:1053600008950A2609F4A140A6958FEF811D811D9D
:10537000089597F99F6780E870E060E008959FEFD7
:1053800080EC089500240A941616170618060906DC
:10539000089500240A9412161306140605060895AB
:1053A000092E0394000C11F4882352F0BB0F40F433
:1053B000BF2B11F460FF04C06F5F7F4F8F4F9F4F73
:1053C000089557FD9058440F551F59F05F3F71F0F5
:1053D0004795880F97FB991F61F09F3F79F087955C
:1053E0000895121613061406551FF2CF4695F1DFE5
:1053F00008C0161617061806991FF1CF8695710575
:10540000610508940895E894BB2766277727CB01A8
:1054100097F908958ADF08F48FEF08950BD0C0CF75
:10542000B1DF28F0B6DF18F0952309F0A2CFA7CF9F
:105430001124EACFC6DFA0F3959FD1F3950F50E07A
:10544000551F629FF001729FBB27F00DB11D639F36
:10545000AA27F00DB11DAA1F649F6627B00DA11DDC
:10546000661F829F2227B00DA11D621F739FB00D82
:10547000A11D621F839FA00D611D221F749F3327F2
:10548000A00D611D231F849F600D211D822F762F8B
:105490006A2F11249F5750408AF0E1F088234AF088
:1054A000EE0FFF1FBB1F661F771F881F91505040D4
:1054B000A9F79E3F510570F05CCFA6CF5F3FECF39C
:1054C000983EDCF3869577956795B795F795E795C0
:1054D0009F5FC1F7FE2B880F911D9695879597F9D1
:1054E000089523DF880B990B0895629FD001739F65
:1054F000F001829FE00DF11D649FE00DF11D929F70
:10550000F00D839FF00D749FF00D659FF00D9927AE
:10551000729FB00DE11DF91F639FB00DE11DF91FD2
:10552000BD01CF011124089597FB092E07260AD04B
:1055300077FD04D080D006D000201AF470956195D4
:105540007F4F0895F6F7909581959F4F0895A1E2BA
:105550001A2EAA1BBB1BFD010DC0AA1FBB1FEE1FED
:10556000FF1FA217B307E407F50720F0A21BB30B38
:10557000E40BF50B661F771F881F991F1A9469F7B4
:1055800060957095809590959B01AC01BD01CF0110
:10559000089597FB092E05260ED057FD04D0D7DFBE
:1055A0000AD0001C38F450954095309521953F4F16
:1055B0004F4F5F4F0895F6F79095809570956195E0
:1055C0007F4F8F4F9F4F08952F923F924F925F9240
:1055D0006F927F928F929F92AF92BF92CF92DF9203
:1055E000EF92FF920F931F93CF93DF93CDB7DEB768
:1055F000CA1BDB0B0FB6F894DEBF0FBECDBF0994FC
:105600002A88398848885F846E847D848C849B8452
:10561000AA84B984C884DF80EE80FD800C811B8160
:10562000AA81B981CE0FD11D0FB6F894DEBF0FBE8F
:10563000CDBFED010895AA1BBB1B51E107C0AA1FF6
:10564000BB1FA617B70710F0A61BB70B881F991F23
:105650005A95A9F780959095BC01CD010895EE0F5C
:10566000FF1F0590F491E02D0994EF920F931F9383
:10567000CF93322FC02F47FF02C0A4E101C0A4E0A6
:10568000E42FFF27E7FDF095F7FF03C0F095E195C4
:10569000FF4F4C2F512F2E2F032FEA2E0E94012E49
:1056A0008C2F912FCF911F910F91EF900895A0E033
:1056B000B0E0EDE5FBE20C94EA2AEC0188819981E7
:1056C000AA81BB810097A105B10521F484E299ED7F
:1056D000ABE5B7E0BC01CD012DE133EF41E050E097
:1056E0000E94C92A49015A0127EA31E440E050E00A
:1056F0000E94752A6B017C01C501B4012CEE34EFC8
:105700004FEF5FEF0E94752ADC01CB01C80ED91E56
:10571000EA1EFB1EF7FE08C08FEF9FEFAFEFBFE75B
:10572000C80ED91EEA1EFB1EC882D982EA82FB82FD
:10573000970186013F77B801C901CDB7DEB7ECE02C
:105740000C94062B0E94572B089583E093E00E944F
:10575000572B0895DC01CB0180930303909304033E
:10576000A0930503B09306030895FB01DC0104C078
:105770008D910190801921F441505040C8F7881B49
:10578000990B0895FB01DC0101900D920020E1F7D7
:105790000895A0E0B0E0EFECFBE20C94F42AFE01E7
:1057A00035966191719180919C0890919D08AF010F
:1057B0000E94232C2096E2E00C94102BA0E0B0E095
:1057C000E4EEFBE20C94F42AFE01359661917191AE
:1057D00080919C0890919D08DC0113962C91139761
:1057E000286013962C93AF010E94232CE0919C0813
:1057F000F0919D082381277F23832096E2E00C947B
:10580000102BAEE0B0E0E7E0FCE20C94F22A0D8948
:105810001E898EE08C831A8309838FEF9FE79E8316
:105820008D83AE01475E5F4FCE0101966F89788D03
:105830000E94232CEF81F885E00FF11F10822E9635
:10584000E4E00C940E2BADE0B0E0E9E2FCE20C9455
:10585000E42A3C017D876C875A01FC01178216827D
:10586000838181FFC8C12E010894411C511CF301A2
:105870009381EC85FD8593FD859193FF8191FD8753
:10588000EC87882309F4B3C1853241F493FD8591F7
:1058900093FF8191FD87EC87853229F490E0B30175
:1058A0000E944730E4CFFF24EE2410E01032B0F421
:1058B0008B3269F08C3228F4803251F0833271F4EB
:1058C0000BC08D3239F0803349F411602CC0126066
:1058D000146029C0186027C0106125C017FD2EC0B4
:1058E000282F20532A3098F416FF08C08F2D880FD8
:1058F000F82EFF0CFF0CF80EF20E15C08E2D880F3F
:10590000E82EEE0CEE0CE80EE20E10620CC08E32A9
:1059100021F416FD6CC1106406C08C3611F41068B9
:1059200002C0883659F4EC85FD8593FD859193FF7F
:105930008191FD87EC87882309F0B8CF982F955483
:10594000933018F09052933038F424E030E0A20EF7
:10595000B31E3FE339830FC0833631F0833781F0C4
:10596000833509F05AC022C0F5018081898322E085
:1059700030E0A20EB31E21E0C22ED12C420114C091
:1059800092E0292E312C2A0C3B1CF501808091805D
:1059900016FF03C06F2D70E002C06FEF7FEFC401F0
:1059A0000E943C306C0151011F7715C082E0282E07
:1059B000312C2A0C3B1CF5018080918016FF03C01E
:1059C0006F2D70E002C06FEF7FEFC4010E94313095
:1059D0006C011068510113FD1CC006C080E290E00C
:1059E000B3010E944730EA948E2D90E0C816D90684
:1059F000A8F30FC0F40117FD859117FF81914F01A6
:105A000090E0B3010E944730E110EA940894C10885
:105A1000D108C114D10471F7E7C0843611F089367A
:105A200051F5F50117FF07C080819181A281B381F3
:105A300024E030E008C080819181AA2797FDA095DD
:105A4000BA2F22E030E0A20EB31E012F0F76B7FF6F
:105A500008C0B095A095909581959F4FAF4FBF4FCF
:105A60000068BC01CD01A2012AE030E00E94733041
:105A7000D82ED4183FC0853721F41F7E2AE030E0AD
:105A800020C0197F8F36A9F0803720F4883509F0BF
:105A9000AEC00BC0803721F0883709F0A8C001C024
:105AA000106114FF09C0146007C014FF08C016601D
:105AB00006C028E030E005C020E130E002C020E16F
:105AC00032E0F50117FF07C0608171818281938107
:105AD00044E050E006C06081718180E090E042E0E7
