:100000000C943D020C9467070C9494070C946502C1
:100010000C9465020C9465020C9465020C946502C4
:100020000C9465020C9465020C9465020C946502B4
:100030000C9465020C9465020C9465020C946502A4
:100040000C94C1070C9465020C94EB090C942E0AD5
:100050000C9465020C9465020C9465020C94650284
:100060000C9465020C9465027364746573740025C6
:10007000732E6C6F67004C6F6766696C65206E61EC
:100080006D653A090053656E736F72204D6F64653C
:100090006C3A204C4E44203733313700436F6E7634
:1000A000657273696F6E20666163746F723A203394
:1000B00034342063706D203D2031207553762F48F5
:1000C00072006E4765696769650046726565205212
:1000D000414D3A09004661696C65642044484350CB
:1000E000006C6F63616C5F49503A090049443A09FA
:1000F00009007365747570204F4B2E00736574751D
:1001000070204F4B0075532F4800446973636F6E26
:100110006E656374696E6700436F6E6E65637469C4
:100120006E6700436F6E6E6563746564007B226C5E
:100130006F6E676974756465223A222573222C22DA
:100140006C61746974756465223A222573222C22CD
:100150006465766963655F6964223A222573222C9F
:100160002276616C7565223A222573222C22756EE7
:100170006974223A2263706D227D002048545450E5
:100180002F312E3100557365722D4167656E743ABB
:100190002041726475696E6F00486F73743A203144
:1001A00037362E35362E3233362E373500436F6EC6
:1001B00074656E742D4C656E6774683A2000436FE9
:1001C0006E74656E742D547970653A206170706C30
:1001D00069636174696F6E2F6A736F6E004469732F
:1001E000636F6E6E656374696E670024424E52449D
:1001F000442C25732C2C2C2C25732C2C2C2C257367
:100200002C2C25732C2C2C2C2C2C002A302558001F
:100210002A2558005344636172642064617461202C
:100220007772697474656E0053656E64204F4B007D
:100230004669726D776172655F7665723A092573FA
:100240000A0000000007000201000003040600008D
:10025000000000000000010204081020408001029C
:1002600004081020010204081020040404040404FB
:100270000404020202020202030303030303000058
:1002800000002300260029000000000025002800AF
:100290002B0000000000240027002A007C3C3E5E6A
:1002A0002B3D3F2F5B5D3B2C2A225C005344206595
:1002B00072726F72436F64653A203058002C305868
:1002C000006572726F723A20006572726F723A2026
:1002D00000496E76616C696420666F726D61742C82
:1002E000207265666F726D61742053442E00436105
:1002F0006E2774206F70656E20726F6F7420646952
:10030000726563746F72792E004E6F206572726F22
:100310007220666F756E642E0043616E27742061D3
:10032000636365737320534420636172642E2044B9
:100330006F206E6F74207265666F726D61742E002F
:100340004E6F20636172642C2077726F6E6720633A
:100350006869702073656C6563742070696E2C2009
:100360006F72205350492070726F626C656D3F0050
:1003700000407A10F35A00A0724E18090010A5D45C
:10038000E80000E87648170000E40B54020000CAB9
:100390009A3B000000E1F5050000809698000000FF
:1003A00040420F000000A08601000000102700005E
:1003B0000000E803000000006400000000000A00E4
:1003C000000000000100000000002C76D888DC67E7
:1003D0004F0823DFC1DFAE59E1B1B796E5E3E4533F
:1003E000C63AE651997696E8E6C28426EB898C9B5C
:1003F00062ED407C6FFCEFBC9C9F40F2BAA56FA5FC
:10040000F490055A2AF75C936B6CF9676DC11BFC7D
:10041000E0E40D47FEF520E6B500D0ED902E030098
:10042000943577050080841E080000204E0A0000E5
:1004300000C80C333333330F986E12831141EF8DA4
:100440002114893BE65516CFFEE6DB18D1844B38E4
:100450001BF77C1D901DA4BBE424203284725E2215
:100460008100C9F124ECA1E53D27F106E60A8C0BD9
:100470005B10FF117413882CA02C11241FBECFEF2A
:10048000D8E0DEBFCDBF12E0A0E0B1E0E4E7F1E7E5
:1004900002C005900D92AE33B107D9F717E0AEE375
:1004A000B2E001C01D92A530B107E1F714E0CAE740
:1004B000D4E004C02297FE010E94EF31CA36D10772
:1004C000C9F70E94540E0C94B8380C9400000F9396
:1004D0001F93CF938C01C62F6A3069F4DC0112960A
:1004E0008D919C911397DC01ED91FC910190F0812D
:1004F000E02D6DE00995F80182819381DC01ED9199
:10050000FC910190F081E02D6C2F0995CF911F9106
:100510000F91089580E0089580E0089581E00895A6
:1005200060E070E0CB010895809194029091950273
:100530000196909395028093940281E080939602B5
:100540000895DC0112968D919C91139761157105A8
:1005500081F0DB010D900020E9F7AD0141505040E2
:10056000461B570BDC01ED91FC910280F381E02DDD
:1005700009950895A2E0B0E0E0ECF2E00C94C631F9
:100580002091FB063091FC062115310511F425E080
:1005900037E0CE010196821B930B2296E2E00C9489
:1005A000E231A4E3B0E0E7EDF2E00C94C231CE0119
:1005B000479660E071E041E00E94781C8D8D8823B1
:1005C00031F480E592E068E670E00E942F1C0FE3B2
:1005D00012E0EE24FF241DC0FC01319781E090E081
:1005E0008C0F9D1FE80FF91F80818A3009F410825B
:1005F00094E0E916F10444F4CE0101960E94A2337E
:10060000D8018C9311969C930894E11CF11C0E5F09
:100610001F4FCE014B96BE016F5F7F4F46E150E00A
:1006200020E030E00E949E1518161906ACF2809169
:100630003F02909140029093B5018093B401809164
:100640004102909142029093AF018093AE012091BC
:100650004302309144023093B3012093B2012091C0
:100660004502309146023093B1012093B00100D091
:1006700000D000D0EDB7FEB731962091A6013091A1
:10068000A701ADB7BEB712963C932E9311972FE6F4
:1006900030E033832283958384830E94E833EDB76F
:1006A000FEB736960FB6F894FEBF0FBEEDBF82E9D7
:1006B00093E066E770E00E94D40B6091A601709110
:1006C000A70182E993E00E942F0CE496E6E00C94E7
:1006D000DE31ACE0B0E0EFE6F3E00C94C6318FEC35
:1006E00092E0909302078093010782E993E040E84B
:1006F00055E260E070E00E94690A1092DE021092FA
:10070000DD0229E288E190E00FB6F894A895809385
:1007100060000FBE2093600082E993E00E94090C04
:1007200082E993E065E870E00E941D0C82E993E0A5
:100730006CE970E00E941D0C8DEE9DE0AEE3BBE322
:1007400080938C0290938D02A0938E02B0938F02BF
:100750001092A00210929F0281EA92E068E042E0CB
:1007600020E00E9450218AE061E00E94E2088AE0D5
:1007700061E00E94160980E592E064E044E00E9496
:10078000951B882321F480E592E00E945A1C0E9468
:10079000D10284E061E00E94E20884E061E00E940E
:1007A000160981EA92E00E94482181EA92E062EC17
:1007B00070E00E94D40B68EE73E080E090E00E944D
:1007C000470881EA92E060E041E00E94232181EA4B
:1007D00092E066EB71E00E94F30B82E993E06AEC31
:1007E00070E00E94D40B0E94BA02BC0182E993E03F
:1007F0004AE050E00E941F0D82E494E068EA71E054
:100800000E94870E0097F9F482E993E065ED70E0AD
:100810000E941D0C87EE91E098878F838091BE0225
:100820009091BF02A091C002B091C10289879A87BE
:10083000AB87BC8782E494E068EA71E0AE01495F6F
:100840005F4F0E94CB0F82E993E061EE70E00E945F
:10085000D40BCE01019662E474E00E94491082E953
:1008600093E0BE016F5F7F4F0E94410C80E064E91E
:1008700072E043E050E00E94470780EE93E9A4E075
:10088000B0E080939B0290939C02A0939D02B09352
:100890009E020E940B08DC01CB0140919B0250910B
:1008A0009C0260919D0270919E02840F951FA61F6D
:1008B000B71F8093970290939802A0939902B093E8
:1008C0009A02A89582E993E06CEE70E00E94D40B46
:1008D0006091AE017091AF0182E993E00E942F0C0C
:1008E00082E993E062EF70E00E941D0C81EA92E0E1
:1008F00060E041E00E94232181EA92E06CEF70E029
:100900000E94D40B2C96E2E00C94E231A4E3B0E018
:10091000ECE8F4E00C94BC314B015C0120918C02BA
:1009200030918D0240918E0250918F020E94F330DF
:100930007B01182F092F9801862F9F2DA32FB22FEF
:10094000BC01CD0120E030E04AE754E40E94F330DE
:1009500020E030E040E05FE30E943C2F0E940C303A
:10096000DC01CB018093880290938902A0938A02D4
:10097000B0938B0281EA92E00E94482181EA92E0E2
:1009800060E040E00E94232181EA92E098014E2D30
:100990005F2D632F722F22E030E00E94510E81EA1A
:1009A00092E065E071E00E94D40B82EC92E00E943C
:1009B0002C11882351F082E993E06AE071E00E94F3
:1009C0001D0C82EC92E00E94501182E993E068E1F4
:1009D00071E00E941D0C87EE91E09A8389838091DB
:1009E000B8029091B902A091BA02B091BB028B8378
:1009F0009C83AD83BE8382EC92E0BE016F5F7F4F2C
:100A000040E550E00E949611009709F408C182E980
:100A100093E063E271E00E941D0C0E940B08DC0170
:100A2000CB018093900290939102A0939202B09395
:100A300093021092DE0227E0C22ED12CCC0EDD1ED6
:100A4000C501B40140E020E086010E94F3310FEDC2
:100A500012E030E5F32ED801EF2D1D92EA95E9F76B
:100A60008DB79EB70C970FB6F8949EBF0FBE8DBF83
:100A7000EDB7FEB73196ADB7BEB712961C930E9385
:100A800011978DE291E0938382838091B0019091E0
:100A9000B101958384838091B2019091B3019783D2
:100AA00086838091AE019091AF0191878087D38634
:100AB000C2860E94E833F80101900020E9F73197DF
:100AC0001082EDB7FEB73C960FB6F894FEBF0FBE8E
:100AD000EDBF82E993E0B8010E942F0C82EC92E016
:100AE0006CE071E00E94F30B6091B4017091B5016C
:100AF00082EC92E00E94F30B82EC92E06BE771E0F3
:100B00000E941D0C82EC92E065E871E00E941D0CD1
:100B100082EC92E069E971E00E941D0C82EC92E0A7
:100B20006DEA71E00E94D40BD8010D900020E9F726
:100B3000BD0161507040601B710B82EC92E04AE095
:100B400050E00E94C40C82EC92E06EEB71E00E94D7
:100B50001D0C82EC92E00E94090C82EC92E0B8013C
:100B60000E942F0C82E993E06DED71E00E941D0C54
:100B70000FE213E0F8011192FA94E9F78DB79EB7EE
:100B80000C970FB6F8949EBF0FBE8DBFEDB7FEB7A2
:100B90003196ADB7BEB712961C930E9311978BEE9C
:100BA00091E0938382838091AE019091AF01958310
:100BB0008483D782C6828091B2019091B3019187DC
:100BC00080878091B0019091B101938782870E94C4
:100BD000E833F80101900020E9F73197E01BF10BB1
:100BE0009F01200F311FD9011C9240913003D80181
:100BF00012968DB79EB70C960FB6F8949EBF0FBE97
:100C00008DBF81E090E003C05D91452701968E176E
:100C10009F07D4F340933E024031C0F026C080913C
:100C2000DE028F5F8093DE02882319F081E08093DB
:100C3000DD020E940B08DC01CB01809390029093AF
:100C40009102A0939202B093930264C000D000D0AE
:100C500000D0EDB7FEB73196ADB7BEB712963C9354
:100C60002E9311978BE092E00EC000D000D000D000
:100C7000EDB7FEB73196ADB7BEB712963C932E9343
:100C8000119780E192E093838283448315820E94CE
:100C9000E833EDB7FEB736960FB6F894FEBF0FBE39
:100CA000EDBF1B8E1D8E1A8E198E89E292E0988FF1
:100CB0008F8B6091A6017091A701CE014B9643E600
:100CC0000E94FD19882331F480E592E06EE271E024
:100CD0000E94171CCE0147966FE273E00E942F0C12
:100CE00082E993E064E172E00E941D0CCE014B9614
:100CF0000E94641781EA92E060E041E00E942321B3
:100D000081EA92E068E272E00E94D40B82EC92E009
:100D10000E945011E496ECE00C94D831CF92DF920F
:100D2000EF92FF920F931F936B017C010E940B08BF
:100D3000DC01CB0197018601081B190B2A0B3B0B29
:100D4000C816D906EA06FB0620F4009510952095F2
:100D50003095B801C9011F910F91FF90EF90DF907E
:100D6000CF9008958091DD02813009F0A89582E44A
:100D700094E00E94FA0F609190027091910280912C
:100D80009202909193020E948E06AB01BC01809169
:100D90009B0290919C02A0919D02B0919E024817E7
:100DA00059076A077B07E0F0609194027091950201
:100DB000882777FD8095982F0E943F3020E030E013
:100DC00040EA50E40E94A42F1092950210929402DF
:100DD000462F572F682F792FCB01BA010E94860426
:100DE0000895CF92EF920F938FE793E060E040E099
:100DF00020E000E00E94620B82EC92E00E940C1165
:100E00008CEB92E060EC48EA24E608E20E94620B78
:100E100086EB92E060EB48E32CEE0BE40E94620B61
:100E200081EA92E06EE04FE028E005E056E0E52E32
:100E300077E0C72E0E94062289E18093510210922A
:100E400054021092670210926E021092700280E2B9
:100E5000809349028AE090E190934B0280934A028A
:100E600082E080934C0210924E0210924D0210923A
:100E70004F02E5E4F2E087EC91E09183808382E920
:100E800093E0938382830F91EF90CF900895823007
:100E9000E8F4E82FF0E0EE0FFF1FEB57FC4F7183F3
:100EA0006083813041F0809169008C7F842B809336
:100EB0006900E89A089580916900440F551F440F16
:100EC000551F837F842B80936900E99A08951F92B0
:100ED0000F920FB60F9211242F933F934F935F936E
:100EE0006F937F938F939F93AF93BF93EF93FF93F2
:100EF0008091850390918603009729F0E091850306
:100F0000F09186030995FF91EF91BF91AF919F9169
:100F10008F917F916F915F914F913F912F910F90A2
:100F20000FBE0F901F9018951F920F920FB60F9241
:100F300011242F933F934F935F936F937F938F93DE
:100F40009F93AF93BF93EF93FF938091870390910B
:100F50008803009729F0E0918703F09188030995B1
:100F6000FF91EF91BF91AF919F918F917F916F9181
:100F70005F914F913F912F910F900FBE0F901F9057
:100F800018951F920F920FB60F9211242F933F9333
:100F90008F939F93AF93BF938091890390918A031E
:100FA000A0918B03B0918C0330919103232F2D5F7F
:100FB0002D3720F40196A11DB11D05C0232F2A57FE
:100FC0000296A11DB11D20939103809389039093F4
:100FD0008A03A0938B03B0938C0380918D0390912F
:100FE0008E03A0918F03B09190030196A11DB11DB6
:100FF00080938D0390938E03A0938F03B0939003FF
:10100000BF91AF919F918F913F912F910F900FBE04
:101010000F901F9018950F931F938FB7F89400911E
:10102000890310918A0320918B0330918C038FBF29
:10103000B801C9011F910F9108950F931F939FB796
:10104000F89400918D0310918E0320918F033091BD
:10105000900386B5A89B06C08F3F21F00F5F1F4FFE
:101060002F4F3F4F9FBF322F212F102F0027080FE8
:10107000111D211D311D42E0000F111F221F331FC2
:101080004A95D1F7B801C9011F910F910895CF92E8
:10109000DF92EF92FF92CF93DF936B017C010E946E
:1010A0001D08DC01CB01EC010FC00E941D086C1B68
:1010B0007D0B83E0683E780738F00894C108D108BA
:1010C000E108F108C851DC4FC114D104E104F10476
:1010D00061F7DF91CF91FF90EF90DF90CF9008956F
:1010E000019739F0880F991F880F991F0297019770
:1010F000F1F70895789484B5826084BD84B58160E9
:1011000084BD85B5826085BD85B5816085BDEEE60F
:10111000F0E0808181608083E1E8F0E010828081EE
:1011200082608083808181608083E0E8F0E080815C
:1011300081608083E1EBF0E0808184608083E0EB7C
:10114000F0E0808181608083EAE7F0E08081846064
:1011500080838081826080838081816080838081C0
:10116000806880831092C1000895833071F08430CC
:1011700028F48130A1F0823021F514C08630B1F01E
:101180008730D1F08430E9F404C0809180008F77FB
:1011900003C0809180008F7D80938000089584B586
:1011A0008F7702C084B58F7D84BD08958091B00093
:1011B0008F778093B00008958091B0008F7D8093E9
:1011C000B000089590E0FC01EA5AFD4F2491865941
:1011D0009D4FFC018491882341F190E0880F991F75
:1011E000FC01EE56FD4F45915491DA0188579D4F11
:1011F000FC0185919491FC019FB7F8948C91662332
:1012000031F4209582238C938081822308C0623040
:1012100049F4322F309583238C938081822B8083F5
:101220009FBF0895822B8C939FBF0895A1E0B0E0EB
:10123000ECE1F9E00C94C431282F30E0F901EE5BC9
:10124000FD4F8491F901EA5AFD4F1491F901E659D5
:10125000FD4F04910023D1F0882321F069830E947F
:10126000B5086981E02FF0E0EE0FFF1FE857FD4F52
:1012700085919491DC019FB7F8948C91662319F4C1
:101280001095812301C0812B8C939FBF2196E4E0B0
:101290000C94E031FC0124853585F901E05CFF4FB9
:1012A000808191812E5B3F4FF90120813181821B2A
:1012B000930B8F7390700895FC0144855585FA0156
:1012C000E05CFF4F80819181FA01EE5BFF4F20814E
:1012D00031818217930741F00190F081E02DE40FF6
:1012E000F51F808190E008958FEF9FEF0895FC0136
:1012F00044855585FA01E05CFF4F20813181FA0178
:10130000EE5BFF4F808191812817390779F0A0812A
:10131000B181A40FB51F8C91208131812F5F3F4F88
:101320002F7330703183208390E008958FEF9FEF0B
:101330000895FC0181A1882329F0A489B5898C91A5
:1013400086FFFBCF11A20895CF93DF93DC011E9699
:101350004D915C911F97EA01C05CDF4F2881398174
:101360002F5F3F4F2F733070FA01EE5BFF4F80818C
:10137000918128173907D9F3E881F981E40FF51F26
:1013800060831E96ED91FC911F97E05CFF4F3183C7
:1013900020835696ED91FC915797208181E090E053
:1013A0005F960C905F9702C0880F991F0A94E2F72E
:1013B000282B208381E091968C9391975496ED9100
:1013C000FC91559780818064808381E090E0DF917B
:1013D000CF91089508951F920F920FB60F92112486
:1013E0002F933F934F938F939F93EF93FF9380910E
:1013F000C00082FD1CC04091C600809138049091CD
:10140000390401968F73907020913A0430913B0417
:101410008217930771F0E0913804F0913904E85095
:10142000FC4F4083909339048093380402C080912C
:10143000C600FF91EF919F918F914F913F912F9116
:101440000F900FBE0F901F90189582E993E00E94B5
:101450004A09009711F00E94EA0908951F920F921D
:101460000FB60F9211242F933F938F939F93EF9377
:10147000FF932091F4033091F5038091F60390914E
:10148000F7032817390731F48091C1008F7D8093CD
:10149000C10014C0E091F603F091F703EC54FC4F47
:1014A00020818091F6039091F70301968F739070DD
:1014B0009093F7038093F6032093C600FF91EF917A
:1014C0009F918F913F912F910F900FBE0F901F9082
:1014D0001895A0E0B0E0EFE6FAE00C94BF31EC0123
:1014E0006A017B01BB24B394403081EE580780E051
:1014F000680780E0780749F4BB24EC89FD891082F5
:1015000060E874E88EE190E00FC0EC89FD8981E02D
:1015100090E008A002C0880F991F0A94E2F7808328
:1015200060E079E08DE390E0A70196010E947931B7
:1015300089019A010150104020403040369527958E
:101540001795079580E10030180710F0BB20A1F631
:10155000E889F9891083EA89FB89008319A2EE8959
:10156000FF89408121E030E0C9010C8C02C0880F66
:10157000991F0A94E2F7482B4083EE89FF89408146
:10158000C9010D8C02C0880F991F0A94E2F7482BFD
:101590004083EE89FF894081C9010E8C02C0880F0B
:1015A000991F0A94E2F7482B4083EE89FF898081D6
:1015B0000F8C02C0220F331F0A94E2F720952823D4
:1015C0002083CDB7DEB7E9E00C94DB3110929503B0
:1015D0001092940388EE93E0A0E0B0E0809396032D
:1015E00090939703A0939803B0939903E4E9F3E0F1
:1015F00087ED91E09293829388EF93E095878487BB
:1016000084EB93E09787868785EC90E0918B808BC5
:1016100084EC90E0938B828B80EC90E0958B848BB4
:1016200081EC90E0978B868B82EC90E0918F808F9D
:1016300086EC90E0938F828F84E0848F83E0858FA7
:1016400087E0868F85E0878F81E080A30895A0E002
:10165000B0E0EDE2FBE00C94BE315C017B0100E008
:1016600010E0CC24DD24F501E00FF11FC7016281F9
:101670004AE050E00E94DA0CEC01C7016EE20E94E1
:10168000F60BC80FD91FCC0EDD1E0F5F1F4F0330A6
:10169000110549F7C701F50165814AE050E00E9454
:1016A000DA0C8C0D9D1DCDB7DEB7EAE00C94DA3173
:1016B000FC0187EE91E09183808312821382148271
:1016C000158208950F93FC0187EE91E0918380834A
:1016D00062834383248305830F910895CF93DF931F
:1016E000FC0187EE91E091838083EB0188819981F1
:1016F000AA81BB8182839383A483B583DF91CF9139
:101700000895FB014081518162817381FC01428314
:10171000538364837583089587EE91E090933D042D
:1017200080933C0410923E0410923F0410924004B7
:10173000109241040895A0E0B0E0E1EAFBE00C94CF
:10174000C0316C017B01EA0100E010E00EC0D7015E
:101750006D917D01D601ED91FC910190F081E02D1C
:10176000C6010995080F191F2197209781F7C80115
:10177000CDB7DEB7E8E00C94DC316115710589F076
:10178000DB010D900020E9F7AD0141505040461BB0
:10179000570BDC01ED91FC910280F381E02D09955E
:1017A000089580E090E00895EF92FF920F931F93C9
:1017B000CF93DF937C01EB0100E010E0FE01219666
:1017C0006491662351F0F701A081B181ED91FC9104
:1017D000C7010995080F191FF1CFC801CDB7DEB7B2
:1017E000E6E00C94DE310E94BD0B0895DC01ED9122
:1017F000FC910190F081E02D099508959C01CB01A9
:10180000DB01ED91FC910190F081E02DB90109958A
:1018100008950F931F93CF93DF938C016DE00E9487
:10182000F60BEC01C8016AE00E94F60B8C0F9D1FBD
:10183000DF91CF911F910F9108950F931F93CF9335
:10184000DF938C010E94D40BEC01C8010E94090CAB
:101850008C0F9D1FDF91CF911F910F9108950F93D2
:101860001F93CF93DF938C010E94BD0BEC01C80145
:101870000E94090C8C0F9D1FDF91CF911F910F913A
:1018800008950F931F93CF93DF938C010E94FE0B5B
:10189000EC01C8010E94090C8C0F9D1FDF91CF91B4
:1018A0001F910F9108954F925F926F927F92AF9226
:1018B000BF92CF92DF92EF92FF920F931F93CF933D
:1018C000DF93CDB7DEB7A1970FB6F894DEBF0FBE9A
:1018D000CDBF5C01E42ECB01F22E19A221E02F1521
:1018E00010F03AE0F32E21E2C22ED12CCC0EDD1EF8
:1018F0004F2C55246624772403C0E02E512FC901B4
:101900006E2D752FA30192010E94793189019A01F0
:10191000F09E802D1124E81A8E2D0894C108D1085C
:101920008A3010F4805D01C0895CF6018083011566
:1019300011052105310509F7C501B6010E94BD0B4E
:10194000A1960FB6F894DEBF0FBECDBFDF91CF9149
:101950001F910F91FF90EF90DF90CF90BF90AF90CD
:101960007F906F905F904F9008952115310549F455
:10197000DC01ED91FC910190F081E02D642F09953F
:1019800008950E94530C08950F931F93CF93DF93F4
:101990008C019A01AB0160E070E00E94B50CEC0193
:1019A000C8010E94090C8C0F9D1FDF91CF911F91E0
:1019B0000F9108959A01462F50E060E070E00E9478
:1019C000B50C0895A0E0B0E0E8EEFCE00C94C03166
:1019D000EC016A017B012115310541F4E881F981AF
:1019E0000190F081E02D642F09951AC02A3031054D
:1019F000A9F477FF12C06DE20E94F60B8C01442718
:101A00005527BA014C195D096E097F09CE012AE0FC
:101A10000E94530C800F911F03C02AE00E94530CB8
:101A2000CDB7DEB7E8E00C94DC319A01FB01AF01E1
:101A3000662757FD6095762F0E94E20C08950F935C
:101A40001F93CF93DF938C019A01CB01AC016627E2
:101A500057FD6095762FC8010E94E20CEC01C80189
:101A60000E94090C8C0F9D1FDF91CF911F910F9148
:101A700008952F923F924F925F927F928F929F9202
:101A8000AF92BF92CF92DF92EF92FF920F931F938C
:101A9000CF93DF932C014A015B01722ECB01BA0177
:101AA000A50194010E945631882321F0C2016EE7FE
:101AB00071E01BC075016401E894F7F8C701B60135
:101AC0002FEF3FEF4FE75FE70E945631882389F4FD
:101AD000C701B6012FEF3FEF4FE75FE70E94A02F4E
:101AE00018163CF4C20162E871E00E94BD0B4C0183
:101AF000C5C0C501B4012FEF3FEF4FE75FE40E947F
:101B0000EF30181654F0C501B4012FEF3FEF4FE747
:101B10005FEC0E94A02F87FF04C0C20166E871E05D
:101B2000E4CFC501B40120E030E0A9010E94A02F5C
:101B300087FF0AC0C2016DE20E94F60B1C01B7FAD2
:101B4000B094B7F8B09402C022243324C0E050E02F
:101B500040E030E02FE313C0FA01B9018F2F942F3A
:101B6000A72FB22FBC01CD0120E030E040E251E4CC
:101B70000E94A42F562F472F382F292FCF5FC7152C
:101B800059F7C501B401DA01F9010B2F142F2F2FDA
:101B90003E2FA90198010E943C2F7B01182FD92FBD
:101BA000862F9F2DA12FBD2FBC01CD010E9411308A
:101BB000C62E072F882EC92F0E943D309B01AC01F5
:101BC0008E2D9F2DA12FBD2FBC01CD010E943B2F3B
:101BD0007B01182FD92FC2014C2D502F682D7C2F3F
:101BE0002AE030E00E94B50C4C01820C931C772057
:101BF00009F442C0C2016AE871E00E94BD0B880E80
:101C0000991E3AC08E2D9F2DA12FBD2FBC01CD0155
:101C100020E030E040E251E40E94F330EB01182F65
:101C2000092F9801862F9D2FA32FB22FBC01CD0124
:101C30000E940C306B017C01EE24D7FCE094FE2C5A
:101C4000C201B701A6012AE030E00E94E20C880E32
:101C5000991EC701B6010E943F309B01AC01B8013B
:101C60008C2F9D2FA72FB62FBC01CD010E943B2F9B
:101C70007B01182FD92F7A94772021F6C401DF91A8
:101C8000CF911F910F91FF90EF90DF90CF90BF9079
:101C9000AF909F908F907F905F904F903F902F904C
:101CA00008950E94390D08950E947A080E946903E0
:101CB000C5E2DAE00E94B2062097E1F30E94250A0D
:101CC000F9CF21E030E0FC018081882311F020E091
:101CD00030E0C901089521E0FC0120830895BC0192
:101CE00081E090E044E050E00E9490240895BC011F
:101CF00085E090E044E050E00E9490240895BC010B
:101D00008FE090E044E050E00E9490240895AEE11E
:101D1000B0E0EDE8FEE00C94C0316C017B018091F5
:101D20005204882371F482E594E00E94610E0097CA
:101D300041F081EA94E00E945E1382E594E00E9403
:101D40006B0E8AE594E0F6019783868380EE96E039
:101D50000E94522489E090E0B70146E050E00E94E2
:101D60009024CE01499660E040E020E000E00E942F
:101D7000620BCE014B960E947F0EF6018681978101
:101D8000B70120E63AEE40E050E0A0EAEA2EAFE0EC
:101D9000FA2E012D112D0E94482C7C0181309105D5
:101DA00089F5F60166817781CE0143960E94B428B9
:101DB000CE0145960E947F0EF60166817781CE01A5
:101DC0000D960E94CA28CE010F960E946F0EF60152
:101DD00066817781CE0107960E94BF28CE010996C1
:101DE0000E94770EF60166817781CE0101960E94EE
:101DF000D5288B819C81AD81BE81F601828393833E
:101E0000A483B583C7016E96E8E00C94DC31A0E0B2
:101E1000B0E0EDE0FFE00C94BA313C014B015A0117
:101E2000690180EE96E00E94522489E090E0B401BE
:101E300046E050E00E949024C50102960E947F0E69
:101E4000C80102960E946F0EC70102960E94770E8B
:101E5000F60182819381A481B581F301828393830A
:101E6000A483B583CDB7DEB7EEE00C94D631AEE1F6
:101E7000B0E0EDE3FFE00C94BA313C014B017A0194
:101E800069015801CE0149966FEF4FEF2FEF00E047
:101E90000E94620B27EE31E03C8B2B8BF701828195
:101EA0009381A481B5818D8B9E8BAF8BB88F3E873C
:101EB0002D87F60182819381A481B5818F87988BCC
:101EC000A98BBA8B38872F83F50182819381A481F6
:101ED000B58189879A87AB87BC873A8329838B8DA5
:101EE0009C8DAD8DBE8D8B839C83AD83BE83C301E2
:101EF000B401AE014D5E5F4F9E01235F3F4F8E01E7
:101F0000095F1F4F7E010894E11CF11C0E94070F1E
:101F10006E96EEE00C94D631A8E1B0E0E2E9FFE085
:101F20000C94C2317B01DA0112964D915D916D9155
:101F30007C9115974D8B5E8B6F8B788FE7EEF1E080
:101F4000FE87ED874F87588B698B7A8BF887EF83F5
:101F5000D90112960D911D912D913C9115970987EC
:101F60001A872B873C87FA83E9834B835C836D83D5
:101F70007E8321E02E83B701AE01435F5F4F9E0158
:101F8000295F3F4F8E010F5F1F4F0E94370F6896EA
:101F9000E6E00C94DE31A2E1B0E0E1EDFFE00C946C
:101FA000C631FB01DA0112964D915D916D917C91E4
:101FB00015974F87588B698B7A8B27EE31E03887DE
:101FC0002F8349875A876B877C873A8329834B8382
:101FD0005C836D837E8321E02E83BF01AE01495F68
:101FE0005F4F9E012F5F3F4F0E948C0F6296E2E091
:101FF0000C94E231A8E1B0E0E0E0F0E10C94C231F1
:102000008C01FC01868197810097E1F10E94882B69
:102010007C018230910521F084E0E816F104A1F5FD
:10202000F80166817781CE0143960E94B428CE01E3
:1020300045960E947F0EF80166817781CE010D964C
:102040000E94CA28CE010F960E946F0EF801668189
:102050007781CE0107960E94BF28CE0109960E9483
:10206000770EF80166817781CE0101960E94D5280E
:102070008B819C81AD81BE81F80182839383A4838F
:10208000B58302C0EE24FF24C7016896E6E00C94F5
:10209000DE31CF93DF93EC010E94580BBE016E5FDF
:1020A0007F4F8FE090E044E050E00E94B225CE01E7
:1020B000DF91CF9108950F938CEB94E060E040E0C6
:1020C00020E000E00E94620B82E494E00E94580B42
:1020D0000F910895A1E0B0E0E0E7F0E10C94C63183
:1020E0006983DC01ED91FC910280F381E02DBE015A
:1020F0006F5F7F4F41E050E009952196E2E00C943C
:10210000E231CF93DF93EC0107C0E881F9810680CB
:10211000F781E02DCE010995E881F9810480F581F0
:10212000E02DCE010995009781F7DF91CF910895B9
:1021300021E0FC018485843009F420E0822F089599
:10214000A1E0B0E0E6EAF0E10C94C4318C01DC01DE
:10215000ED91FC910480F581E02D0995009751F0F7
:10216000F8018485BE016F5F7F4F0E949E238981A5
:1021700090E002C08FEF9FEF2196E4E00C94E031F5
:10218000FC0184850E9462230895A1E0B0E0EBEC9D
:10219000F0E10C94C631FC018485BE016F5F7F4F76
:1021A00041E050E00E946223181619061CF4898150
:1021B00090E002C08FEF9FEF2196E2E00C94E231B5
:1021C000FC016485643031F080EE96E00E94672562
:1021D0009C0102C020E030E0C90108950F931F93D5
:1021E000CF93DF938C01EA01FC018485843019F4DC
:1021F00081E090E007C00E940F23009739F481E04E
:1022000090E0F80193838283C0E0D0E0CE01DF91BB
:10221000CF911F910F910895FC011382128248EE15
:1022200053E060E070E044835583668377838DEEEE
:1022300091E09183808384E084870895FC01848504
:10224000843041F0382F20E0C9018D5F9B4F0E9400
:10225000BA24089580E00895CF93DF93EC018C8534
:102260008430D1F0CE010E941E11843181F0882388
:1022700071F0883161F08C3161F4E881F98104807A
:10228000F581E02DCE01099521E0009719F420E0B9
:1022900001C021E0822F01C080E0DF91CF9108953D
:1022A000CF92DF92EF92FF92CF93DF93EC018C8578
:1022B0008430A9F10E9408230E940B086B017C0165
:1022C000CE010E941E11882381F00E940B08DC01C0
:1022D000CB018C199D09AE09BF09883E23E0920706
:1022E00020E0A20720E0B20798F0CE010E941E1164
:1022F000882319F08C850E948522EC85F0E0EE0F92
:10230000FF1FE65BFB4F1182108284E08C8707C0C1
:1023100061E070E080E090E00E944708D1CFDF915B
:10232000CF91FF90EF90DF90CF900895A1E0B0E0C3
:10233000ECE9F1E10C94BE315C017B016A01FC0126
:102340008485843009F055C003E014E020E0C80122
:1023500029830E94BA242981882321F0883111F031
:102360008C3119F4F501248705C02F5F00501F4FF1
:10237000243069F7F50184858430D9F12091BD01BD
:102380003091BE012F5F3F4F3093BE012093BD01BE
:102390002115310531F420E034E03093BE01209363
:1023A000BD014091BD015091BE0161E020E00E945D
:1023B0009322B7016E5F7F4FF5018485A6010E94CD
:1023C000D32209C061E070E080E090E00E944708FD
:1023D000C5010E941E11882321F484E0F501848741
:1023E00008C0C5010E941E11873161F781E090E0AD
:1023F00002C080E090E02196EAE00C94DA310F937D
:1024000082EC94E060E040E020E000E00E94620B9B
:102410000F910895DC01ED91FC910688F789E02D7C
:102420000995089527EE31E0FC0131832083FB01FB
:102430004189528963897489FC014283538364838F
:1024400075830895FC01858996890895FC01818D25
:10245000928D0895A1E0B0E0E0E3F2E10C94C63182
:102460006983DC01ED91FC910280F381E02DBE01D6
:102470006F5F7F4F41E050E009952196E2E00C94B8
:10248000E231CF93DF93EC0107C0E881F981068048
:10249000F781E02DCE010995898D9A8D0097A9F7D6
:1024A000DF91CF910895A1E0B0E0E9E5F2E10C946D
:1024B000C631FC01818D928D009749F08485BE0163
:1024C0006F5F7F4F0E949E23898190E002C08FEF53
:1024D0009FEF2196E2E00C94E231CF93DF93EC0181
:1024E0009A01498D5A8D4115510589F08C85241723
:1024F000350708F4A9010E946223181619063CF456
:10250000298D3A8D281B390B3A8F298F02C08FEF06
:102510009FEFDF91CF910895A1E0B0E0E2E9F2E111
:102520000C94C4318C01FC01818D928D0097A1F037
:102530008485BE016F5F7F4F41E050E00E946223BF
:10254000181619064CF4F801818D928D0197928F1F
:10255000818F898190E002C08FEF9FEF2196E4E0A8
:102560000C94E031CF93DF93EC019B01FA016F896A
:10257000788D8C85A9019F010E94AD232F89388D0C
:10258000280F391F388F2F8BDF91CF910895FC01D1
:1025900084850E9406240895FC01108E178A6E5FC0
:1025A0007F4F84850E94E1230895A8E0B0E0EBED21
:1025B000F2E10C94C4318C01DC01ED91FC910284B8
:1025C000F385E02D099580EE96E0F80164850E9480
:1025D0006725009721F1D8011C968C91BE016F5F91
:1025E0007F4F48E050E00E94622318161906CCF491
:1025F000C8010F96BE016F5F7F4F0E94810B9D81C6
:1026000080E02E81820F911DF801968B858B9F8132
:1026100080E02885820F911D928F818F02C080E01B
:1026200090E02896E4E00C94E031CF93DF93EC0146
:102630008C85843061F00E948522EC85F0E0EE0FFD
:10264000FF1FE65BFB4F1182108284E08C87DF91D5
:10265000CF910895A1E0B0E0E0E3F3E10C94C03144
:102660006C017B01FC018485843019F503E014E0E2
:1026700020E0C80129830E94BA242981882311F00F
:10268000883119F4F601248705C02F5F00501F4FD1
:10269000243079F7F6018485843059F0F686E58692
:1026A000128E118E62E0A70120E00E94932281E049
:1026B00001C080E02196E8E00C94DC31FC0113823B
:1026C000128248EE53E060E070E0448355836683F5
:1026D000778387E092E09183808384E08487CF01D1
:1026E0000F960E94580B08950F9388EC94E060E0D9
:1026F00040E020E000E00E94620B0F910895CF932C
:10270000DF93EC019C012A5F3F4F8C819D8141E06A
:1027100050E060E070E00E942D1E8823A1F08E89B9
:102720009F89A88DB98D0097A105B10571F48E819F
:102730009F81A885B9858E8B9F8BA88FB98F898142
:102740008068898302C080E001C081E0DF91CF9181
:1027500008958F929F92AF92BF92EF92FF920F9344
:102760001F93CF938C01FC0182899389A489B58939
:10277000803EFFEF9F07FFE1AF07F0E0BF0708F0E3
:1027800057C0C8010E947F13882309F451C0D801A3
:1027900016964D915D916D917C91199714968D913E
:1027A0009C9115970E94251D4B015C0145E00E94FC
:1027B000CE1C7C010097F1F180E092E0F7019C01D2
:1027C000119221503040E1F7C1E010C0B501A401E1
:1027D0004C0F511D611D711D8091D2049091D30445
:1027E00097010E94962E882319F1CF5FD801149685
:1027F000ED91FC9115974481C41740F350E060E0DF
:1028000070E089E0440F551F661F771F8A95D1F746
:1028100052968D919D910D90BC91A02D840F951F86
:10282000A61FB71FF801828B938BA48BB58B02C0B8
:10283000EE24FF24C701CF911F910F91FF90EF90DD
:10284000BF90AF909F908F900895CF93DF93EC014E
:10285000462F8E859F85A889B989BC01CD010E942C
:10286000CE1C009751F02B8130E045E0220F331F42
:102870004A95E1F7280F391F02C020E030E0C90176
:10288000DF91CF910895CF93DF93EA01FB012BE015
:1028900030E231932150E9F7DC0130E047E01CC021
:1028A0004A3069F138E04AE017C0E21741F1FC0113
:1028B0000196E491EE23C9F7431708F12132F8F0AD
:1028C0002F37E8F4FB01E30FF11D822F81568A3187
:1028D00008F4205220833F5F9A2F8B2F2D912223C3
:1028E00039F02F3229F02E32D9F28CE992E0DFCF85
:1028F0009883898381E0FB019081903209F480E024
:10290000DF91CF910895A6E0B0E0E9E8F4E10C94FE
:10291000B6319C838B83862E272E2A01DC011296EA
:102920008C911297882309F4C0C011968C9111974D
:1029300080FFBBC0C0C02A01481A590A5201682C46
:10294000722CEB81FC813696FA83E983212C72E0AC
:10295000372EA5C0EB81FC8182859385A485B58542
:102960005FEF852E51E0952E8822992224813581B2
:102970003E832D83F90104816C017D0169E0F694A9
:10298000E794D794C7946A95D1F7EB81FC812281B3
:10299000223069F4AD81BE8155964D915D916D9166
:1029A0007C9158974C0D5D1D6E1D7F1D37C00150E9
:1029B0000C218114910411F5002301F50097A10564
:1029C000B10559F4EB81FC8186899789A08DB18D81
:1029D00086839783A087B18711C0AB81BC8116968F
:1029E0004D915D916D917C9119978D819E81298189
:1029F0003A810E94481D882309F457C0EB81FC816D
:102A00004681578160857185848195810E94251D4D
:102A1000AB01BC01400F511D611D711D811491045A
:102A200099F4F0E0AF16F2E0BF0670F08091D504A3
:102A30009091D604A091D704B091D80448175907B3
:102A40006A077B0709F055C0CB01BA0140E00E943C
:102A5000CE1CBC01009749F1C10188199909850173
:102A60008A159B0508F48C01680D791DC301A80126
:102A70000E94CD33600E711EA80160E070E0EB8112
:102A8000FC8182859385A485B585840F951FA61F3B
:102A9000B71F82879387A487B587A01AB10AA114AC
:102AA000B10409F057CFC20102C08FEF9FEF269605
:102AB000E2E10C94D231AB81BC8152964D915D9193
:102AC0006D917C9155971A968D919D910D90BC9129
:102AD000A02D820120E030E06A017B01C81AD90AEA
:102AE000EA0AFB0A0C151D052E053F0508F023CF49
:102AF00025CF8091D2049091D30493010E94802D20
:102B0000882399F200E012E0B5CFA1E0B0E0EBE855
:102B1000F5E10C94C631BE016F5F7F4F41E050E09C
:102B20000E9483148130910519F4898190E002C0DC
:102B30008FEF9FEF2196E2E00C94E231A1E0B0E04C
:102B4000E4EAF5E10C94B8313C014B012A0159014A
:102B5000CC24CA94DC2CEE24FF2413C0F401EE0D27
:102B6000FF1D6083A114B10419F46A3049F420C038
:102B7000C50170E00E94D633009711F019C087019B
:102B8000780187010F5F1F4F04151505ECF4C30191
:102B9000BE016F5F7F4F41E050E00E9483146C01E3
:102BA00081E0C816D10481F469816D30B9F6E7CFB0
:102BB000F401E00FF11F108202C00FEF1FEFC801F8
:102BC0002196E0E10C94D431D7FCF7CF8701F0CF08
:102BD000A0E0B0E0EEEEF5E10C94BC31EC014A016E
:102BE0005B012A81222309F475C08A899B89AC89FB
:102BF000BD8984179507A607B70708F46BC070C096
:102C000081149104A104B10449F41E821F82188624
:102C100019861A861B861C861D865AC04A855B85C6
:102C20006C857D85EC81FD81218530E0275F3F4FFC
:102C3000DB01CA010197A109B109022E04C0B695B2
:102C4000A795979587950A94D2F775016401089422
:102C5000C108D108E108F10804C0F694E794D794BC
:102C6000C7942A95D2F7C816D906EA06FB0628F0BB
:102C7000411551056105710549F48E899F89A88D1B
:102C8000B98D8E839F83A887B98716C0C81AD90AC1
:102C9000EA0AFB0A11C04E815F81688579858C81C3
:102CA0009D8198010E94481D0894C108D108E1083F
:102CB000F108882321F40EC08E010A5F1F4FC11452
:102CC000D104E104F10439F78A869B86AC86BD867F
:102CD00081E001C080E0CDB7DEB7ECE00C94D831E4
:102CE000223009F08DCFF0CFA4E0B0E0EAE7F6E1C2
:102CF0000C94C2317C01FC0186899789A08DB18D2D
:102D000089839A83AB83BC8300E010E049815A81B8
:102D10006B817C81D70114968D919C9115979E01B2
:102D20002F5F3F4F0E94481D8823B1F1D7011496B1
:102D3000ED91FC9115978481080F111DB0E10030D1
:102D40001B0750F589819A81AB81BC812289203192
:102D500049F4883FEFEF9E07E0E0AE07E0E0BE07F2
:102D600048F4D4CF883FFFEF9F07FFEFAF07FFE0A6
:102D7000BF0760F220E030E0A9E0000F111F221F22
:102D8000331FAA95D1F7D70152960D931D932D931A
:102D90003C93559781E001C080E02496E6E00C94D6
:102DA000DE31CF93DF93EC01FB018A818823D1F5DB
:102DB0007D836C8382898031C9F582E08A831E8A93
:102DC0001F8A188E198E83899489A0E0B0E025E0CF
:102DD000880F991FAA1FBB1F2A95D1F78A8B9B8B3F
:102DE000AC8BBD8B0FC083E08A8385899689A789C8
:102DF000B08D8E8B9F8BA88FB98FCE010E947416D9
:102E0000882381F081E089831E821F8218861986BB
:102E10001A861B861C861D861E861F86188A198A9E
:102E20001B8201C080E0DF91CF9108958032D1F7FD
:102E3000DACF0F931F93CF93DF938C01FC01828134
:102E40008823C9F1818187FF33C0C80161E00E94F6
:102E50002514EC01009779F18881853E61F1F80134
:102E60008281823040F482899389A489B5898C8FCC
:102E70009D8FAE8FBF8FF80186899789A08DB18D08
:102E80009B8F8A8FBD8BAC8BE091CE04F091CF04E9
:102E9000309751F0BE016A5E7F4FCE01489609958A
:102EA000888D998D9B8B8A8BF80181818F778183A7
:102EB0000E94871C04C081E0F801808380E0DF91DC
:102EC000CF911F910F910895CF93DF93EC010E9452
:102ED00019171A82DF91CF9108954F925F926F92E6
:102EE0007F928F929F92AF92BF92EF92FF920F9339
:102EF0001F93CF93DF9300D000D0CDB7DEB77C0116
:102F00004A015B01FC018281813009F085C0818129
:102F100081FF82C095C00097A105B10509F47AC070
:102F2000F7014284538464847584C701B501A40108
:102F30000E94E815882309F46FC0F7018481958108
:102F400081149104A104B10479F446895789608DF4
:102F5000718D0E940D1F882309F45EC0F701168A47
:102F6000178A108E118E3CC0F7014681578160850B
:102F700071859E012F5F3F4F0E94481D882309F4F1
:102F80004BC0F7018481958149815A816B817C8195
:102F9000FC012289203149F4483FFFEF5F07F0E050
:102FA0006F07F0E07F07E0F408C0483F2FEF5207BB
:102FB0002FEF62072FE0720798F40E940D1F8823FD
:102FC00059F1F7014681578160857185848195812A
:102FD0000FEF1FEF2FEF3FE00E94BE1D8823E1F0AF
:102FE000F701828A938AA48AB58A81818068818365
:102FF000C7010E941917882379F0B501A40148146C
:1030000059046A047B0410F4B301A201C7010E94B1
:10301000E81503C081E001C080E00F900F900F9091
:103020000F90DF91CF911F910F91FF90EF90BF9084
:10303000AF909F908F907F906F905F904F9008958A
:10304000F70182899389A489B58984179507A60712
:10305000B70708F060CFE0CF1F93CF93DF93EC0169
:10306000142FE62FF0E035E0EE0FFF1F3A95E1F761
:10307000E752FB4F8385817121F0842F827109F023
:1030800058C08091D5049091D604A091D704B091F6
:10309000D8048E879F87A88BB98B6B834489558909
:1030A00060E070E0BA0155274427828D938DA0E03F
:1030B000B0E0482B592B6A2B7B2B4E8B5F8B688F94
:1030C000798F838590E088719070009751F4848D9A
:1030D000958DA68DB78D8A8B9B8BAC8BBD8B81E03C
:1030E00009C08031910529F5CE010E94741688230C
:1030F00001F184E08A83812F8F7089831E821F8271
:10310000188619861A861B861C861D8614FF17C012
:10311000CE0140E050E0BA010E946D17882349F0CB
:103120000EC04A895B896C897D89CE010E94E815B1
:1031300002C01A8280E0DF91CF911F91089515FDA2
:10314000F0CF81E0F8CFA0E0B0E0E9EAF8E10C943C
:10315000BD316C01EB01A42E952EB22E8C819D8188
:10316000F60195838483CB0140E050E0BA010E94D0
:10317000E815FF2447C0CE010E94851597FDA0C029
:103180008A859B85AC85BD8581509E4FAF4FBF4FD3
:103190008A879B87AC87BD8700E010E0E02EB801EE
:1031A00045E0660F771F4A95E1F767527B4FFB01B9
:1031B0008081882311F0853EB9F4FF2081F480914D
:1031C000D5049091D604A091D704B091D804F6010B
:1031D00086879787A08BB18BE382FF24F394FB0152
:1031E0008081882351F41CC08A2D992D4BE050E03A
:1031F0000E94C033009709F469C00F5F1F4F003170
:10320000110561F64A855B856C857D858A899B8978
:10321000AC89BD89481759076A077B0708F4ABCF0B
:10322000B6FE4EC0B1FE4CC0FF2051F0F601E38067
:10323000C60161E00E942514EC01009759F440C0DA
:103240008A818230E9F1CE010E94A9130097C1F171
:10325000EC01EE2480E2FE0111928A95E9F7FE016D
:10326000AA2DB92D8BE00D9001928150E1F7E091EC
:10327000CE04F091CF04309739F0BE01625F7F4FEA
:10328000CE014096099508C081E298E2998B888B1F
:1032900080E098E09F878E87888999899B8B8A8BAD
:1032A000998F888F8E859F859F8B8E8B0E94871C20
:1032B000882331F0C6016E2D4B2D0E942C1801C0C1
:1032C00080E0CDB7DEB7EBE00C94D931B7FEF2CF9A
:1032D000F7CFA1E4B0E0EFE6F9E10C94B9314C018D
:1032E0006B0122965FAF4EAF2297522E1EA218A6F8
:1032F0001C861E866115710509F479C0FC01828166
:10330000882309F074C0FA0180818F3291F405C0DE
:1033100031962296FFAFEEAF22972296EEADFFAD2B
:10332000229780818F32A1F3F60182818250823010
:1033300050F4860166E2E62EF12CEC0EFD1E3701FC
:10334000BE2CAF2C11C0F60164817581CE010C96A4
:103350000E94D116882309F44AC08E01045F1F4FD2
:10336000E9CF8701EB2CFA2C22968EAD9FAD2297E8
:10337000BE016F5F7F4FAE01405C5F4F0E94431400
:10338000882331F434C031962296FFAFEEAF2297F6
:103390002296EEADFFAD229780818F32A1F3882374
:1033A000E9F0C701B801AE014F5F5F4F21E00E9415
:1033B000A3188823E1F00C151D0529F0C8010E940F
:1033C0001917F8011282E614F70459F65CE0E52EAD
:1033D000F12CEC0EFD1E0B2D1A2DC6CFC401B80129
:1033E000AE014F5F5F4F252D0E94A31801C080E002
:1033F000CF5BDF4FEFE00C94D531FB01242F6091C0
:10340000D0047091D104AF010E9469190895FC01A4
:10341000128210820E94FD1908952F923F924F92BE
:103420005F926F927F928F929F92BF92CF92DF9224
:10343000EF92FF920F931F93CF93DF9300D000D0B2
:10344000CDB7DEB78C01B62EC72E1A01FC018281E2
:10345000813009F02CC1818181FF29C143C1F8016C
:10346000428953896489758982859385A485B58548
:1034700084179507A607B70731F0C8010E94E81521
:10348000882309F414C131014B2C5C2CE1C0F801F4
:1034900024813581F901B480BA94AC01BD01032EB9
:1034A00039E076956795579547953A95D1F7302D40
:1034B000B4224FEF842E41E0942E88229922BB2023
:1034C00009F048C08114910409F044C0F801468114
:1034D000578160857185411551056105710531F18F
:1034E000C9019E012F5F3F4F0E94481D882309F4A8
:1034F000DEC089819A81AB81BC81F801248135814C
:10350000F9012289203149F4883FFFEF9F07F0E05D
:10351000AF07F0E0BF0798F418C0883F2FEF92077D
:103520002FEFA2072FE0B20780F009C0F8018689CB
:103530009789A08DB18D0097A105B10531F4C8011F
:103540000E947F13882331F4B2C0F80186839783E9
:10355000A087B187F8014681578160857185848194
:1035600095810E94251D6B017C01CB0CD11CE11CB7
:10357000F11C8114910499F4F0E06F16F2E07F06DB
:10358000A8F5F80182859385A485B585428953897C
:103590006489758984179507A607B70710F441E079
:1035A00001C045E0C701B6010E94CE1C9C010097F6
:1035B00009F47DC080E092E08819990963018615BD
:1035C000970508F46C01C901880D991DB201A60187
:1035D0000E94CD33C601880D991DF2E080309F070F
:1035E00019F50E94141D8823F9F461C08091D50457
:1035F0009091D604A091D704B091D8048C159D0564
:10360000AE05BF0511F40E94171D8091D204909160
:10361000D304B701A60192010E94962E882309F4D3
:1036200046C0C12CF2E0DF2EA60160E070E0F80198
:1036300082859385A485B585840F951FA61FB71F26
:1036400082879387A487B5874C0C5D1C6C187D0816
:10365000F80182859385A485B5856114710409F00C
:1036600016CF4289538964897589481759076A07B3
:103670007B0728F4828B938BA48BB58B0AC0809137
:10368000CE049091CF04009739F02114310421F039
:10369000F801818180688183F801818183FF05C001
:1036A000C8010E941917882311F0C10105C081E0EB
:1036B000F80180838FEF9FEF0F900F900F900F9086
:1036C000DF91CF911F910F91FF90EF90DF90CF90FE
:1036D000BF909F908F907F906F905F904F903F90A2
:1036E0002F90089582FDBBCECECE0F931F93CF9324
:1036F000DF93EC01662329F04E969093D1048093DA
:10370000D00488A18E01025E1F4F882319F0C801E2
:103710000E946417BE016B5F7F4FC8010E94D116E3
:10372000DF91CF911F910F9108950F931F93CF9326
:10373000DF938C010E94AE2D8823A9F0E801259625
:10374000CE01B80141E00E945A1F882339F4CE010E
:10375000B80140E00E945A1F882329F0C80161E0A7
:103760000E94751B01C080E0DF91CF911F910F91E6
:103770000895CF93DF93EC010CC08091BF0190912D
:10378000C001DC01ED91FC910190F081E02D0995E3
:103790002196FE016491662381F7DF91CF91089510
:1037A0000E94B91B8091BF019091C0010E94090C39
:1037B0000895CF93DF93EC0189818823E1F08CEAAF
:1037C00092E00E94B91B69818091BF019091C00174
:1037D00070E040E150E00E94150D8DEB92E00E94F8
:1037E000B91B6B818091BF019091C00170E040E1F5
:1037F00050E00E941F0DDF91CF9108950F931F930A
:10380000CF93DF938C01EB0181EC92E00E94B91B16
:103810008091BF019091C001BE010E942F0CC80190
:103820000E94D91BDF91CF911F910F9108950E94A3
:10383000FE1BFFCF0F931F93CF93DF938C01EB0100
:1038400089EC92E00E94B91BCE010E94D01BC801F6
:103850000E94D91BDF91CF911F910F9108950E9473
:103860001A1CFFCFCF93DF93EC018981882379F075
:1038700089E193E00E94D01B8981813021F480E4AA
:1038800093E00E94D01BCE010E94D91B10C08F89EB
:10389000882319F481ED92E008C088A1882319F4E7
:1038A0008EEE92E002C089E093E00E94D01BDF918F
:1038B000CF9108950E94321CFFCFA1E0B0E0E3E673
:1038C000FCE10C94C63169830496BE016F5F7F4FA3
:1038D00041E050E00E940D1A21E030E08130910576
:1038E00011F020E030E0C9012196E2E00C94E231D1
:1038F000CF93DF93EC0104960E94071A1B821A8271
:1039000089E292E099838883DF91CF910895809135
:10391000D40480FF3DC04091D5045091D6046091FD
:10392000D7047091D8048091D2049091D30429EDEA
:1039300034E00E94962E882369F18091D40481FF9F
:1039400022C08091DD068230F0F04091D90650917E
:10395000DA066091DB067091DC068091D5049091C7
:10396000D604A091D704B091D804480F591F6A1FFC
:103970007B1F8091D2049091D30429ED34E00E9402
:10398000962E882349F08091D4048E7F8093D404AE
:1039900081E0089580E0089580E00895CF92DF925D
:1039A000EF92FF92CF936B017C01C42F8091D504DD
:1039B0009091D604A091D704B091D8048C159D05A0
:1039C000AE05BF05E1F00E94871C882309F1C2FD06
:1039D0000CC08091D2049091D304B701A60129EDC7
:1039E00034E00E94802D882399F01092D404C09274
:1039F000D504D092D604E092D704F092D804C370D4
:103A00008091D4048C2B8093D40489ED94E002C07F
:103A100080E090E0CF91FF90EF90DF90CF900895FD
:103A200042600E94CE1C08950E94871C08958FEF6B
:103A30009FEFDC018093D5049093D604A093D70424
:103A4000B093D8041092D40408950F931F93CF938A
:103A5000DF93EC01DB01CA010297A109B1092C81B6
:103A600030E040E050E0BC01CD010E945A318B01B2
:103A70009C018A859B85AC85BD85080F191F2A1F6F
:103A80003B1FB801C901DF91CF911F910F9108959C
:103A9000A0E0B0E0EEE4FDE10C94C031EC016A017D
:103AA0007B018901423051056105710508F460C050
:103AB0008D819E81AF81B8850196A11DB11D8417AE
:103AC0009507A607B70708F453C08A89803129F4FF
:103AD000BB27A72F962F852F0CC0803209F048C036
:103AE000DB01CA01E7E0B695A79597958795EA951A
:103AF000D1F74E855F8568897989840F951FA61F48
:103B0000B71FBC01CD0140E00E94101D009781F15C
:103B10002A89203191F42FEF30E040E050E0C222BA
:103B2000D322E422F522CC0CDD1CC80ED91EF601EE
:103B300080819181A0E0B0E014C02FE730E040E048
:103B400050E0C222D322E422F522CC0CDD1CCC0CA6
:103B5000DD1CC80ED91EF60180819181A281B3813E
:103B6000BF70F80180839183A283B38381E001C099
:103B700080E0CDB7DEB7E8E00C94DC31A0E0B0E047
:103B8000E4ECFDE10C94BC31EC016A017B014801DD
:103B90005901423051056105710508F458C08D8105
:103BA0009E81AF81B8850196A11DB11D841795072F
:103BB000A607B70708F44BC08A89803129F4BB27D0
:103BC000A72F962F852F0CC0803209F040C0DB0153
:103BD000CA0127E0B695A795979587952A95D1F7BD
:103BE0004E855F8568897989840F951FA61FB71F49
:103BF000BC01CD0141E00E94101D009741F12A89CE
:103C0000203181F42FEF30E040E050E0C222D32297
:103C1000E422F522F601EE0FFF1FE80FF91F918253
:103C2000808213C02FE730E040E050E0C222D32270
:103C3000E422F522F601EE0FFF1FEE0FFF1FE80F43
:103C4000F91F80829182A282B38281E001C080E06C
:103C5000CDB7DEB7ECE00C94D831AFE0B0E0E3E3F1
:103C6000FEE10C94B6311C014C875D876E877F871F
:103C70003B872A87DC0115964D915D916D917C9172
:103C800018974F5F5F4F6F4F7F4F4E835F836887FB
:103C90007987F9014080518062807380411451041A
:103CA0006104710439F00894411C511C611C711CA1
:103CB0001D8207C0DC014D905D906D907C90B1E05D
:103CC000BD8353014201CC24DD247601F1018581BD
:103CD0009681A781B085C816D906EA06FB0608F0CA
:103CE00097C04E815F8168857985481559056A05B9
:103CF0007B0550F442E0842E912CA12CB12C52E093
:103D0000452E512C612C712CC101B501A4019E01DD
:103D10002F5F3F4F0E94481D882309F479C0898195
:103D20009A81AB81BC81950184010F5F1F4F2F4F9A
:103D30003F4F0097A105B10549F0481459046A04A2
:103D40007B0409F01D82280139010FC0D901C80187
:103D500084199509A609B7094C855D856E857F850F
:103D600084179507A607B70759F00894C11CD11C02
:103D7000E11CF11C0894811C911CA11CB11CA6CF54
:103D8000A401B5018D81882331F0D1010D931D93DC
:103D90002D933C931397C1010FEF1FEF2FEF3FE0DF
:103DA0000E94BE1D882391F433C0680179010894F4
:103DB000C108D108E108F108C101B701A6010E94BC
:103DC000BE1D882329F19701860102C09501840157
:103DD000401651066206730640F3EA85FB85408172
:103DE000518162817381411551056105710539F079
:103DF000C101930182010E94BE1D882349F0AA855A
:103E0000BB854D925D926D927C92139781E001C0CB
:103E100080E02F96E2E10C94D231A4E0B0E0E3E13F
:103E2000FFE10C94BE315C016A017B01C501B70161
:103E3000A6019E012F5F3F4F0E94481D8823A9F1D4
:103E4000C501B701A60100E010E098010E94BE1D67
:103E5000882359F1F50180819181A281B381C8162F
:103E6000D906EA06FB0620F4C082D182E282F38200
:103E7000C980DA80EB80FC80F5018289803151F4C1
:103E8000F8EFCF16FFEFDF06F0E0EF06F0E0FF06F9
:103E900050F4CCCF88EFC8168FEFD8068FEFE80626
:103EA0008FE0F80618F281E001C080E02496EAE095
:103EB0000C94DA31A0E0B0E0E0E6FFE10C94B6311A
:103EC000EC01042F7093D3046093D2041A8A82E029
:103ED00090E0A0E0B0E088839983AA83BB8310922E
:103EE000D4048FEF9FEFDC018093D5049093D60428
:103EF000A093D704B093D804442341F1453008F08F
:103F0000EBC060E070E0CB0140E00E94CE1C009767
:103F100009F4E2C0E02FF0E0A4E0EE0FFF1FAA9545
:103F2000E1F7E255FE4FE80FF91F808190E08F77AF
:103F30009070009709F0D0C04084518462847384EB
:103F4000411451046104710421F4C6C04424552471
:103F50003201C301B20140E00E94CE1C8C010097E7
:103F600009F4BAC0FC0183859485F2E080309F0794
:103F700009F0B2C0F8012089222309F4ADC086857A
:103F80009785009709F4A8C02093DD0645854C83EA
:103F9000198688E090E021E007C0220F019709F41C
:103FA0009BC039853F5F39874217B9F7F801C6884A
:103FB000D788C114D10419F0EE24FF2405C0F801FC
:103FC000C4A0D5A0E6A0F7A0C092D906D092DA0688
:103FD000E092DB06F092DC06F801868597854C01BD
:103FE000AA24BB24840C951CA61CB71C8E869F8615
:103FF000A88AB98A218832883C8A2B8A208930E0B5
:1040000040E050E0C701B6010E945A31DC01CB010B
:10401000880D991DAA1DBB1D8D8B9E8BAF8BB88FF4
:10402000A101E5E0440F551FEA95E1F741505E4FCD
:10403000452F5527469560E070E0480F591F6A1FCD
:104040007B1F4A875B876C877D87F801838994890A
:10405000009719F0A0E0B0E005C0F80180A191A19F
:10406000A2A1B3A173016201C41AD50AE60AF70A34
:10407000B701A601480F591F6A1F7B1F098404C09E
:1040800076956795579547950A94D2F74D835E8349
:104090006F837887453F2FE0520720E0620720E0DA
:1040A000720718F48CE08A8B17C0453F8FEF5807D2
:1040B00080E0680780E0780710F480E10AC0F8012A
:1040C00084A595A5A6A5B7A58D8B9E8BAF8BB88F24
:1040D00080E28A8B81E001C080E0CDB7DEB7E2E10B
:1040E0000C94D231CF93DF93EC018E8160E00E947B
:1040F000160981E090E00E9470088E8161E00E94C4
:10410000160981E090E00E9470088E8160E00E94B4
:10411000160984E690E00E947008DF91CF9108951F
:10412000A0E0B0E0E6E9F0E20C94C0318C01C0E020
:10413000D0E0C62EDD247801EC0EFD1EF70187814C
:1041400061E00E94E208B6010C2E02C075956795E9
:104150000A94E2F76170F70187810E94160921969F
:10416000C430D10541F7C8010E947220CDB7DEB737
:10417000E8E00C94DC31A0E0B0E0E1ECF0E20C947B
:10418000C0318C01C0E0D0E0C62EDD247801EC0EF9
:10419000FD1EF701878161E00E94E208B6010C2E46
:1041A00002C0759567950A94E2F76170F7018781FF
:1041B0000E9416092196C830D10541F7C8010E9416
:1041C0007220CDB7DEB7E8E00C94DC311F93CF93BB
:1041D000DF93EC01162F8C81642F0E9416098D81CC
:1041E0008F3F19F060E00E9416098F8584FF05C09B
:1041F000CE01612F0E94BB200FC0212F30E084E050
:10420000359527958A95E1F7CE01622F0E9490207F
:10421000CE01612F0E949020DF91CF911F910895D0
:1042200041E00E94E62081E090E0089540E00E9495
:10423000E6200895FC016089262F2460208B6C60A5
:104240000E9416210895A8E0B0E0E9E2F1E20C94A2
:10425000C631FE013196ADE8B1E028E00D90019243
:104260002150E1F7FC012389421710F0422F415001
:10427000E42FF0E0EE0FFF1FEC0FFD1F2181260F52
:104280002068622F0E9416212896E2E00C94E23109
:1042900061E00E94162180ED97E00E947008089569
:1042A000CF93DF93EC01423018F08F8588608F87C1
:1042B0004B8B1C8A222329F0413019F48F858460AE
:1042C0008F8780E593EC0E9470088C8160E00E94EB
:1042D00016098E8160E00E9416098D818F3F19F0CA
:1042E00060E00E9416096F8564FD1DC0CE0163E089
:1042F0000E94902084E991E10E947008CE0163E061
:104300000E94902084E991E10E947008CE0163E050
:104310000E94902086E990E00E947008CE0162E041
:104320000E94902016C06062CE010E94162184E98E
:1043300091E10E9470086F856062CE010E94162193
:1043400086E990E00E9470086F856062CE010E944D
:1043500016216F856062CE010E94162184E0888B51
:10436000CE010E941A21CE010E94482182E0898B51
:10437000CE0166E00E941621DF91CF9108956F92E1
:104380007F928F92AF92CF92EF920F931F93CF9322
:10439000DF93CDB7DEB73C01162F842FF3014483A2
:1043A00025830683E782C086A18682869D859387C2
:1043B0009E8594879F8595879889968761E00E945E
:1043C000E208F30185818F3F19F061E00E94E20865
:1043D000F301868161E00E94E208112319F0F301E4
:1043E000178603C080E1F3018787C30160E141E0E4
:1043F00020E00E945021DF91CF911F910F91EF900B
:10440000CF90AF908F907F906F9008958F92AF92E2
:10441000CF92EF920F93CF93DF93A62F742F522F4B
:10442000302FAE2C8C2CEC011B821A82E1E3F2E0DF
:10443000F983E88300D000D0EDB7FEB73196CDB751
:10444000DEB7198211821282138261E04A2F2FEFA8
:10445000072FE52EC32E0E94BF210F900F900F90C3
:104460000F90DF91CF910F91EF90CF90AF908F9001
:10447000089590E0982F8827845F9B4F44E050E098
:104480000E949024089590E00496982F8827860F24
:10449000971F0E94BA24089562E070E00E944322B0
:1044A000089590E00496982F8827860F971F642F11
:1044B0000E9432240895462F62E070E00E9451224B
:1044C0000895CF93DF93C82FD62F472F60E170E078
:1044D0000E9451228C2F61E170E04D2F0E945122E9
:1044E000DF91CF910895CF93DF93C82FD62F472F19
:1044F00064E070E00E9451228C2F65E070E04D2F47
:104500000E945122DF91CF910895CF93C82F80EE62
:1045100096E06C2F40E10E944C268C2F6FEF0E949A
:104520005B22CF910895EF92FF921F93CF93DF9379
:1045300000D0CDB7DEB7182F7A01862F8150853095
:1045400048F5812F2A8369830E9485222A81698107
:10455000422F462B812F60E070E00E945122E1142F
:10456000F10419F0812FB7010BC06091DE06709144
:10457000DF066F5F7F4F7093DF066093DE06812F4B
:104580000E94732280EE96E0612F41E00E944C264B
:1045900081E001C080E00F900F90DF91CF911F91DB
:1045A000FF90EF9008951F93CF93DF93182FFB0197
:1045B000EA0180818F3F51F481818F3F91F48281A4
:1045C0008F3F79F483818F3F61F41DC0882349F4C4
:1045D0008181882331F48281882319F4838188239F
:1045E00091F0209781F0812FBF010E943922812F05
:1045F000BE010E94612280EE96E0612F44E00E949D
:104600004C2681E001C080E0DF91CF911F91089599
:10461000682F80EE96E048E00E944C260895CF92E5
:10462000DF92EF92FF921F93CF93DF93182F6B01CE
:104630007A0188E04130580718F0E12C68E0F62E46
:1046400080EE96E0612F0E949725EC01812F63E0B8
:1046500070E00E944322873111F08C3121F4CE1595
:10466000DF0570F302C0EE24FF2480EE96E0612F98
:10467000A60197010E94462580EE96E0612F40E258
:104680000E944C260DC0812F63E070E00E944322FF
:10469000882331F4812F0E948522EE24FF2409C053
:1046A000812F0E944C2284FFEECF812F60E10E9477
:1046B0005B22C701DF91CF911F91FF90EF90DF90B8
:1046C000CF900895A0E0B0E0E8E6F3E20C94C031AA
:1046D000182F6B01EA0180EE96E0612F0E9467259A
:1046E0007C01009761F4812F63E070E00E94432217
:1046F0008431D1F08823C1F08C31B1F01BC0C817D0
:10470000D9070CF47E011E141F0474F480EE96E0A9
:10471000612FA601970100E00E94142680EE96E02A
:10472000612F40E40E944C26C701CDB7DEB7E8E018
:104730000C94DC31EE24EA94FE2CF6CF0F93282F54
:10474000AB0180EE96E0622F21E030E001E00E94B4
:10475000142681E090E00F910895AF92BF92CF921E
:10476000DF92FF920F931F93CF93DF93F82E6B018D
:104770005A01890180EE96E06F2D0E9497258017DF
:10478000910740F480EE96E06F2D0E949725D82F78
:10479000C92F02C0D02FC12F80EE96E06F2DA60149
:1047A00095010D2F1C2F0E94D9248D2F9C2FDF9156
:1047B000CF911F910F91FF90DF90CF90BF90AF905E
:1047C00008951F93CF93DF93182FFB01EA01808197
:1047D000882349F48181882331F48281882319F464
:1047E0008381882369F0209759F0812FBF010E94AF
:1047F0003922812FBE010E94612281E090E002C037
:1048000080E090E0DF91CF911F910895CF93C82F62
:1048100080EE96E06C2F40E20E944C260CC08C2F5C
:104820000E944C2283FF07C08C2F68E10E945B220C
:1048300080E090E00BC08C2F0E944C2284FFEFCFD1
:104840008C2F60E10E945B2281E090E0CF9108957F
:104850008EBD0DB407FEFDCF8EB508952A9808953C
:104860002A9A0895A2E0B0E0E8E3F4E20C94C5319E
:10487000182F6A8399830E942E2480EF0E94282497
:104880009981892F0E942824812F0E9428246A81DF
:10489000862F0E9428240E94302481E02296E3E0A3
:1048A0000C94E131CF93DF93EC016CE271E080E096
:1048B00090E00E9447080E945C26229A80E090E0E7
:1048C00060E80E9432248BE190E065E50E9432248A
:1048D0008AE190E065E50E94322480E090E49983CB
:1048E000888380E090E69987888780E098E49B83BE
:1048F0008A8380E098E69B878A8780E090E59D83A5
:104900008C8380E090E79D878C8780E098E59F838B
:104910008E8380E098E79F878E87DF91CF910895FF
:10492000A0E0B0E0E6E9F4E20C94C0318C016A0149
:104930007B01C0E0D0E015C00E942E2480EF0E94D1
:104940002824812F0E942824802F0E9428240F5F72
:104950001F4FF70181917F010E9428240E9430247B
:104960002196CC15DD0541F7CE01CDB7DEB7E8E0E5
:104970000C94DC31A1E0B0E0E0ECF4E20C94C53141
:10498000182F99830E942E248FE00E942824998159
:10499000892F0E942824812F0E94282480E00E94D1
:1049A000282489830E94302489812196E3E00C9495
:1049B000E1316F927F928F929F92AF92BF92CF928E
:1049C000DF92FF920F931F93CF93DF935C01F62E3C
:1049D0003A0149016801862F64E270E00E94432297
:1049E000C82F8F2D65E270E00E9443223C2F20E00B
:1049F000082F10E0022B132B060D171DA80157706E
:104A00008F2D90E0880F991FA80EB91EF501208107
:104A10003181240F351FCA018C0D9D1DF8E08130B6
:104A20009F0798F0C0E0D8E0C41BD50BC901B401C2
:104A3000AE010E949024B4016C0F7D1FA6014C1B97
:104A40005D0BF5018081918103C0C901B401A6010C
:104A50000E9490240C0D1D1D8F2D64E270E0412FEB
:104A60000E9451228F2D65E270E0402F0E9451225A
:104A7000DF91CF911F910F91FF90DF90CF90BF906A
:104A8000AF909F908F907F906F9008950F931F939A
:104A9000FA01890140E050E09F010E94D9241F9152
:104AA0000F910895CF93DF93C82F66E270E00E94C4
:104AB0004322D82F8C2F67E270E00E9443223D2FC3
:104AC00020E090E0822B932BDF91CF910895FF920D
:104AD0000F931F93CF93DF93F62EC0E0D0E08F2D7E
:104AE0000E9452258C01009721F08F2D0E945225A3
:104AF000EC01C017D10799F7CE01CDB7DEB7E5E0DD
:104B00000C94DF31CF93DF93C82F60E270E00E94F6
:104B10004322D82F8C2F61E270E00E9443223D2F68
:104B200020E090E0822B932BDF91CF910895FF92AC
:104B30000F931F93CF93DF93F62EC0E0D0E08F2D1D
:104B40000E9482258C01009721F08F2D0E948225E2
:104B5000EC01C017D10799F7CE01CDB7DEB7E5E07C
:104B60000C94DF31A0E0B0E0E8EBF5E20C94C0314A
:104B70008C016A017B01C0E0D0E016C00E942E24A7
:104B80008FE00E942824812F0E942824802F0E94D9
:104B900028240F5F1F4F80E00E942824F701819393
:104BA0007F010E9430242196CC15DD0539F7CE0116
:104BB000CDB7DEB7E8E00C94DC31A0E0B0E0E3EE86
:104BC000F5E20C94C031690178015770C62FD0E02E
:104BD0002496CC0FDD1FC80FD91F28813981240FDF
:104BE000351FC801840F951F68E08130960790F04B
:104BF00000E018E0041B150BC901B601A8010E94D2
:104C0000B225B601600F711FA701401B510B8881AF
:104C1000998103C0C901B601A8010E94B225CDB790
:104C2000DEB7E8E00C94DC31A0E0B0E0EAE1F6E2C7
:104C30000C94BC315C01F62E4A016901E02E862FEE
:104C400068E270E00E944322C82F8F2D69E270E075
:104C50000E9443223C2F20E0C82FD0E0C22BD32B50
:104C6000C5016F2DAE01940186010E94DD25EE2065
:104C700071F4CC0DDD1D8F2D68E270E04D2F0E9488
:104C800051228F2D69E270E04C2F0E945122CDB746
:104C9000DEB7ECE00C94D831CF93C62F862F61E0BD
:104CA00070E00E9451228C2F61E070E00E9443224C
:104CB0008823C9F7CF9108958AE061E00E94160920
:104CC0008AE061E00E94E2088CB580618CBD8CB501
:104CD00080648CBD8DE061E00E94E2088BE061E0C1
:104CE0000E94E20808950E96FC0184E1DF011D9206
:104CF0008A95E9F70895A2E3B0E0E1E8F6E20C94C2
:104D0000B6314C012A013B0189010E940B086B015D
:104D10007C01E7E4AE2EB12CA80CB91C14C00E9493
:104D20000B08DC01CB018C199D09AE09BF0948169F
:104D300059066A067B0608F410C262E370E080E060
:104D400090E00E944708C5010E94D5121816190666
:104D500034F7C501BE01695F7F4F42E250E00E9417
:104D60006D128F81823009F0F3C1F5018589968932
:104D70008334910509F0ECC14B855C856D857E859A
:104D8000C72EDD24EE24FF24B42FAA2799278827D5
:104D9000C82AD92AEA2AFB2AB62FA52F942F8827BA
:104DA00080709070B070C82AD92AEA2AFB2A452F51
:104DB000562F672F7727407060707070C42AD52AED
:104DC000E62AF72AF801C082D182E282F382B40196
:104DD000685F7F4FCE01839646E050E00E94C0336B
:104DE000009799F4F40180819181A281B381C81662
:104DF000D906EA06FB0648F084819581A681B78131
:104E00008C159D05AE05BF0528F4C5010E94411211
:104E10004424A5C18F89988DA98DBA8DF401868708
:104E20009787A08BB18B0EEC10E0C5010E948C120D
:104E300001501040D1F7442482E2682E712C680C96
:104E4000791C96E2292E312C280C391CC4018A9633
:104E50009AA789A72AE1E22EF12CE80CF91CF401AB
:104E6000E85AFF4FFCA7EBA7C40142969EA78DA767
:104E7000F4017696F8ABEFA7C4014E969AAB89ABD6
:104E800067015EC1C5010E948C128333910509F44C
:104E900010C18433910594F48130910579F1823009
:104EA000910524F4009709F44BC13CC1833091056E
:104EB00061F18630910509F035C142C08A33910510
:104EC00009F48CC08B33910544F48533910571F05E
:104ED0008633910509F026C14EC08B33910509F444
:104EE000B2C08F3F910509F01DC12AC1C5010E94C2
:104EF0008C12C5010E948C12482E22C1C5010E944D
:104F00008C12C5016DA57EA55CC0C5010E948C12E6
:104F1000082FC5016FA578A944E050E00E946D12EA
:104F2000EE24FF2410E00450104006C0C5010E948A
:104F30008C120894E11CF11CE016F106BCF300C1D0
:104F4000C5010E948C12082FC50169A97AA944E005
:104F500050E00E946D12EE24FF2410E00450104037
:104F600006C0C5010E948C120894E11CF11CE016D9
:104F7000F106BCF3E5C0C5010E948C12E82EF401D5
:104F8000828D938DA48DB58D0097A105B105B9F0E3
:104F9000CE010196B6010E946E0B8B819C81AD8182
:104FA000BE81EBA5FCA5408151816281738184178C
:104FB0009507A607B70719F000E010E00CC0C5017F
:104FC000B60144E050E00E946D12BAC0C5010E94D3
:104FD0008C120F5F1F4FE016C9F7B2C0C5010E94C7
:104FE0008C12C501B10144E050E00E946D12F40141
:104FF00006A117A120A531A5432F5527662777279E
:10500000B02FAA2799278827482B592B6A2B7B2B4F
:10501000B22FA12F902F882780709070B070482BEE
:10502000592B6A2B7B2BBB27A32F922F812F8070AC
:10503000A070B070482B592B6A2B7B2B46A357A32B
:1050400060A771A77DC0C5010E948C12C50169A52A
:105050007AA544E050E00E946D12F40102A513A568
:1050600024A535A5432F552766277727B02FAA27D4
:1050700099278827482B592B6A2B7B2BB22FA12FDE
:10508000902F882780709070B070482B592B6A2B16
:105090007B2BBB27A32F922F812F8070A070B07025
:1050A000482B592B6A2B7B2B42A753A764A775A7C4
:1050B00047C0C5010E948C12C501B30144E050E015
:1050C0000E946D12F40102A113A124A135A1432F66
:1050D000552766277727B02FAA2799278827482B97
:1050E000592B6A2B7B2BB22FA12F902F88278070F2
:1050F0009070B070482B592B6A2B7B2BBB27A32FAA
:10510000922F812F8070A070B070482B592B6A2B82
:105110007B2B42A353A364A375A346A757A760ABF9
:1051200071AB0EC0C5010E948C12E82E00E010E0A9
:1051300005C0C5010E948C120F5F1F4FE016C9F712
:10514000C5010E942612181619060CF49BCE01C048
:105150004424C5010E94411202C044244A94842D73
:10516000E296E2E10C94D231CF93DF93EC01625FDF
:105170007F4F0E946E0BCE01DF91CF910895CF93A8
:10518000DF93EC016E5E7F4F0E946E0BCE01DF91CC
:10519000CF910895CF93DF93EC016A5E7F4F0E9419
:1051A0006E0BCE01DF91CF910895CF93DF93EC0189
:1051B000625E7F4F0E946E0BCE01DF91CF9108950A
:1051C00080E3FB018083329601C0482F842F8295B3
:1051D0008F704F704A3010F4405D01C0495C4293BB
:1051E000882399F70895ACE2B0E0E9EFF8E20C9477
:1051F000B9317C01562E842E652E2DE0C22ED12C85
:10520000CC0EDD1E30E2932EF601292D11922A9547
:10521000E9F7CE0107966FEF4FEF2FEF0FEF0E94E8
:10522000620B47E4A42EB12CAE0CBF1C87EE91E0BC
:105230009A83898389859A85AB85BC858B839C837A
:10524000AD83BE83C501BE016F5F7F4F43E450E075
:105250000E94CC12EFEF8F3F9E0709F4ECC081E073
:105260008D878E8786E08F87188AF70104811581E4
:1052700026813781432F552766277727B02FAA2706
:1052800099278827482B592B6A2B7B2BB22FA12FCC
:10529000902F882780709070B070482B592B6A2B04
:1052A0007B2BBB27A32F922F812F8070A070B07013
:1052B000482B592B6A2B7B2B498B5A8B6B8B7C8B06
:1052C0006D8A8E8A80E890E0988F8F8BC501B60139
:1052D0004CE150E00E94B212F60111929A94E9F763
:1052E00088E0682E712C6E0C7F1CF601D30186E0DD
:1052F0000D9001928150E1F7FDE0CF2ED12CCC0E24
:10530000DD1EC501B60140E150E00E94B21280E20C
:10531000F60111928A95E9F706E010E09C2CCD2C5D
:10532000C501692D7C2D40E250E00E94B21201506F
:105330001040B1F783E68D8792E89E8793E59F87BB
:10534000888B85E3898B81E08A8B5B8A9DE39C8BCC
:1053500097E09D8B8E8BDE015796F30186E00190DE
:105360000D928150E1F78CE08D8F8E8FCE014F969C
:1053700065E971E00E94E133C701BE016B5D7F4FBB
:10538000F70143850E94E028C701BE01695D7F4F98
:10539000F70144850E94E028C701BE01675D7F4F89
:1053A000F70145850E94E028C501BE01635F7F4F7C
:1053B0004EE150E00E94B212F3E05F1601F582E385
:1053C0008D8784E08E87F70196859F879785988BD8
:1053D0009089998B91899A8B96E39B8B8C8B828D8C
:1053E0008D8B838D8E8B848D8F8B858D888FC50162
:1053F000BE01635F7F4F4CE050E00E94B21287E332
:105400008D8786E08E8791E09F8793E0988B898BCC
:105410008FE08A8B8AE38B8B8BE38C8B8FEF8D8B6A
:10542000C501BE01635F7F4F49E050E00E94B212A8
:10543000C5010E94C712AC96EFE00C94D531A8E0EC
:10544000B0E0E5E2FAE20C94B6318C0161E070E084
:1054500080E090E020ED37E040E050E00E94192F1E
:10546000D80114966C93149715967C9315971696FD
:105470008C93169717969C9317976C9311967C9321
:10548000119712968C93129713969C93F801E95BEF
:10549000FF4FFE83ED83CF010E9415138D819E8106
:1054A00064E470E00E942A13882309F42AC10E9450
:1054B0000B084B015C0122243324FF2456E4C52E43
:1054C000D12CC00ED11EC801CE9698878F83E3E001
:1054D000EE2EF8EE4F2EF3E05F2E612C712CFBC008
:1054E0008823F9F4F80184819581A681B78101961A
:1054F000A11DB11D84839583A683B7830E940B08E9
:10550000681979098A099B09A30192010E947931DE
:10551000C80161E0A9010E94F32881E0D6018C93C3
:10552000BEC08430F9F4F80184819581A681B781E9
:105530000196A11DB11D84839583A683B7830E9424
:105540000B08681979098A099B09A30192010E9435
:105550007931C80163E0A9010E94F328E2E0D60195
:10556000EC939DC0813061F5AF81B8854D915D911F
:105570006D917C91C8019E012F5F3F4F0E947B2659
:10558000F82EB2E08B1709F08AC089819A81AB812D
:10559000BC81F80184839583A683B7830E940B089E
:1055A000681979098A099B09A30192010E9479313E
:1055B000C80163E0A9010E94F328D601FC9275C0DE
:1055C000823009F06CC0EF81F885408151816281A1
:1055D0007381C8019E012F5F3F4F0E947B26F82EEA
:1055E000F5E08F1709F055C0D601EC92F80182A1C1
:1055F00093A1A4A1B5A10097A105B10541F484E848
:1056000093E0A0E0B0E082A393A3A4A3B5A3F80124
:1056100086A197A1A0A5B1A50097A105B10561F448
:1056200082A193A1A4A1B5A1B695A79597958795B9
:1056300086A397A3A0A7B1A7F80182A593A5A4A5C7
:10564000B5A546A157A160A571A50097A105B10513
:1056500051F4DB01CA01880F991FAA1FBB1F82A743
:1056600093A7A4A7B5A7D8019E964D935D936D937C
:105670007C93D1979A968D919D910D90BC91A02D80
:10568000F80182AB93ABA4ABB5AB21E0222E312C59
:105690000CC0F6E08F1719F4D6011C9206C0BFEFBC
:1056A000FB1619F4F6011082FF24F1E02F163104E5
:1056B00091F00E940B08DC01CB0188199909AA0915
:1056C000BB09F80142AD53AD64AD75AD481759073C
:1056D0006A077B0728F0D6018C91833009F000CF50
:1056E0008D819E810E941513F80184819581A68188
:1056F000B7810196A11DB11D84839583A683B783CD
:1057000002C022243324C1012896E2E10C94D23154
:10571000A0E0B0E0EEE8FBE20C94BC31EC010E94AA
:105720000B084B015C018EA99FA9A8ADB9AD8E01F4
:105730000E5B1F4F0097A105B10509F493C0F80156
:1057400080819181A281B381A5019401281B390B2D
:105750004A0B5B0BCA01B90157FD52C0A8EECA2E15
:10576000A3E0DA2EE12CF12CC80CD91CEA1CFB1C9E
:1057700028EE33E040E050E00E949B31DC01CB0199
:10578000C81AD90AEA0AFB0AF801C082D182E28269
:10579000F382DA01C9010196A11DB11D4EA55FA5D5
:1057A00068A979A98C019D01000F111F221F331FC9
:1057B00040175107620773072CF41EA61FA618AAEC
:1057C00019AA08C0481B590B6A0B7B0B4EA75FA791
:1057D00068AB79AB4AA95BA96CA97DA940175107B1
:1057E000620773072CF41AAA1BAA1CAA1DAA08C0D8
:1057F000481B590B6A0B7B0B4AAB5BAB6CAB7DABAD
:10580000FE01EA5BFF4F8081833081F48EA59FA566
:10581000A8A9B9A9181619061A061B063CF084E0B7
:105820008083CE010E941F2A019602C080E090E092
:10583000FE01EA5BFF4F2081233011F02223F9F4AF
:105840004AA95BA96CA97DA91416150616061706A8
:10585000B4F01082CE010E947326CE010E941F2A4E
:1058600003960DC0D501C40188519C4FAF4FBF4F67
:10587000F80180839183A283B38380E090E08EAAB5
:105880009FAAA8AEB9AECDB7DEB7ECE00C94D83184
:10589000A0E0B0E0EEE4FCE20C94BE316C015B01F0
:1058A000DA01C901F60112A213A214A215A216A2CE
:1058B00017A210A611A612A613A614A615A616AA1C
:1058C00017AA10AE11AE82AF93AFA4AFB5AFFE96DC
:1058D000E082F18202831383E601289686E0FE01CE
:1058E00011928A95E9F7C6010E947326F50186E0B8
:1058F000019009928150E1F7F601EA5BFF4F1082B7
:10590000C6010E941F2ACDB7DEB7EAE00C94DA3157
:105910000F9380EF96E060E040E020E000E00E941E
:10592000620B0F9108958091C10085FDFCCF80919D
:10593000C00085FFF8CF6093C60081E090E0089535
:105940001092F9061092F80689E392E09093F70618
:105950008093F60608958FEF8EBD0DB407FEFDCF40
:105960008EB508958EBD0DB407FEFDCF0895FC01E0
:10597000808161E00E9416098FEF0E94B22C089589
:10598000CF93DF93EC018AEF96E06A810E94DF2ECD
:10599000888160E00E941609DF91CF910895A0E010
:1059A000B0E0E5EDFCE20C94C031EC016B018A0142
:1059B0000E940B08DC01CB017C010AC00E940B088D
:1059C0006E197F0981E06D32780710F081E108C01F
:1059D0000E94AB2C8B838F3F89F38E3F39F08FE091
:1059E0008983CE010E94B72C80E028C09801215005
:1059F000304001151105C9F08FEF8EBDF60180E032
:105A000090E04FEF07C00DB407FEFDCF5EB54EBD71
:105A10005193019682179307B0F30DB407FEFDCFA3
:105A20008EB52C0D3D1DF90180831B820E94AB2C8D
:105A30000E94AB2CCE010E94B72C81E0CDB7DEB71F
:105A4000E8E00C94DC310F931F93CF93DF93EB01CD
:105A50000E940B088B019C0107C00E940B08601B71
:105A6000710B6C177D0730F40E94AB2C8F3FA9F7A8
:105A700081E001C080E0DF91CF911F910F910895E7
:105A8000A5E0B0E0E6E4FDE20C94C3318C01F62E13
:105A900029833A834B835C830E94C02CC80168E54C
:105AA00072E00E94232D8F2D80640E94B22C8C8185
:105AB0000E94B22C8B810E94B22C8A810E94B22C4F
:105AC00089810E94B22CFF2011F485E901C087E88A
:105AD0000E94B22C8CE0F81611F40E94AB2C90E0DE
