:100000000C942B020C9466070C9493070C945302E7
:100010000C9453020C9453020C9453020C9453020C
:100020000C9453020C9453020C9453020C945302FC
:100030000C9453020C9453020C9453020C945302EC
:100040000C94C0070C9453020C944B0A0C948E0A27
:100050000C9453020C9453020C9453020C945302CC
:100060000C9453020C9453027364746573740025EA
:10007000732E6C6F67004C6F6766696C65206E61EC
:100080006D653A090053656E736F72206D6F64651C
:100090006C3A2020204C4E4420373132006E4765A8
:1000A0006967696500467265652052414D3A0900ED
:1000B0004661696C65642044484350006C6F63611D
:1000C0006C5F49503A090049443A09090073657464
:1000D0007570204F4B2E007365747570204F4B0068
:1000E00075532F4800446973636F6E6E656374695E
:1000F0006E6700436F6E6E656374696E6700436F71
:100100006E6E6563746564007B226C6F6E676974E4
:10011000756465223A222573222C226C61746974FD
:10012000756465223A222573222C22646576696300
:10013000655F6964223A222573222C2276616C75F0
:1001400065223A222573222C22756E6974223A2286
:1001500063706D227D0020485454502F312E3100A1
:10016000557365722D4167656E743A2041726475EE
:10017000696E6F00486F73743A203137362E35360A
:100180002E3233362E373500436F6E74656E742D04
:100190004C656E6774683A2000436F6E74656E74C8
:1001A0002D547970653A206170706C69636174696F
:1001B0006F6E2F6A736F6E00446973636F6E6E6546
:1001C0006374696E670024424E5244442C25732C9C
:1001D0002C2C2C25732C2C2C2C25732C2C25732C9F
:1001E0002C2C2C2C2C002A302558002A2558005362
:1001F000446361726420646174612077726974740D
:10020000656E0053656E64204F4B004669726D77D2
:100210006172655F7665723A0925730A0000000015
:1002200007000201000003040600000000000000B7
:10023000000102040810204080010204081020017F
:10024000020408102004040404040404040202024A
:10025000020202030303030303000000002300263D
:1002600000290000000000250028002B00000000ED
:1002700000240027002A007C3C3E5E2B3D3F2F5B84
:100280005D3B2C2A225C005344206572726F7243DE
:100290006F64653A203058002C3058006572726FD8
:1002A000723A20006572726F723A2000496E766170
:1002B0006C696420666F726D61742C207265666F64
:1002C000726D61742053442E0043616E2774206F59
:1002D00070656E20726F6F74206469726563746FED
:1002E00072792E004E6F206572726F7220666F7584
:1002F0006E642E0043616E277420616363657373BF
:1003000020534420636172642E20446F206E6F740A
:10031000207265666F726D61742E004E6F2063618E
:1003200072642C2077726F6E672063686970207327
:10033000656C6563742070696E2C206F7220535059
:10034000492070726F626C656D3F0000407A10F357
:100350005A00A0724E18090010A5D4E80000E876F3
:1003600048170000E40B54020000CA9A3B0000004A
:10037000E1F505000080969800000040420F000063
:1003800000A08601000000102700000000E8030024
:100390000000006400000000000A000000000001EE
:1003A00000000000002C76D888DC674F0823DFC1EE
:1003B000DFAE59E1B1B796E5E3E453C63AE65199A9
:1003C0007696E8E6C28426EB898C9B62ED407C6FD2
:1003D000FCEFBC9C9F40F2BAA56FA5F490055A2A89
:1003E000F75C936B6CF9676DC11BFCE0E40D47FE95
:1003F000F520E6B500D0ED902E030094357705008A
:1004000080841E080000204E0A000000C80C333310
:1004100033330F986E12831141EF8D2114893BE61F
:100420005516CFFEE6DB18D1844B381BF77C1D90A8
:100430001DA4BBE424203284725E228100C9F12411
:10044000ECA1E53D2700F006460BEC0BBB105F125C
:10045000D413E82C002D11241FBECFEFD8E0DEBF4F
:10046000CDBF12E0A0E0B1E0E4E3F2E702C0059006
:100470000D92A034B107D9F717E0A0E4B2E001C0B3
:100480001D92A730B107E1F714E0C6E5D4E004C03F
:100490002297FE010E944F32C634D107C9F70E944D
:1004A000B40E0C9418390C9400000F931F93CF9343
:1004B0008C01C62F6A3069F4DC0112968D919C91F3
:1004C0001397DC01ED91FC910190F081E02D6DE03E
:1004D0000995F80182819381DC01ED91FC910190F5
:1004E000F081E02D6C2F0995CF911F910F91089508
:1004F00080E0089580E0089581E0089560E070E074
:10050000CB01089580919602909197020196909365
:1005100097028093960281E0809398020895DC010F
:1005200012968D919C9113976115710581F0DB01F5
:100530000D900020E9F7AD0141505040461B570B8C
:10054000DC01ED91FC910280F381E02D0995089585
:100550002FEF30E0829FB001839F700D929F700D4E
:1005600011248091A8010E94B4080895A2E0B0E08F
:10057000ECEBF2E00C9426322091FD063091FE0661
:100580002115310511F427E037E0CE010196821BD9
:10059000930B2296E2E00C944232A4E3B0E0E3ED48
:1005A000F2E00C942232CE01479660E071E041E027
:1005B0000E94D81C8D8D882331F482E592E068E694
:1005C00070E00E948F1C01E412E0EE24FF241DC0A5
:1005D000FC01319781E090E08C0F9D1FE80FF91F1F
:1005E00080818A3009F4108294E0E916F10444F421
:1005F000CE0101960E940234D8018C9311969C93EF
:100600000894E11CF11C0E5F1F4FCE014B96BE01FA
:100610006F5F7F4F46E150E020E030E00E94FE1522
:1006200018161906ACF28091410290914202909303
:10063000B7018093B6018091430290914402909358
:10064000B1018093B0012091450230914602309370
:10065000B5012093B40120914702309148023093B4
:10066000B3012093B20100D000D000D0EDB7FEB7A7
:1006700031962091A6013091A701ADB7BEB7129671
:100680003C932E9311972FE630E03383228395839A
:1006900084830E944834EDB7FEB736960FB6F894BF
:1006A000FEBF0FBEEDBF84E993E066E770E00E94F5
:1006B000340C6091A6017091A70184E993E00E9437
:1006C0008F0CE496E6E00C943E32ACE0B0E0EBE652
:1006D000F3E00C94263281ED92E09093040780932E
:1006E000030784E993E040E855E260E070E00E948F
:1006F000C90A1092E0021092DF0229E288E190E03C
:100700000FB6F894A895809360000FBE2093600008
:1007100084E993E00E94690C89EB9CEFA7E0BCE3BD
:1007200080938E0290938F02A0939002B0939102D7
:1007300084E993E065E870E00E947D0C8091A80157
:1007400061E00E94420981E090E00E94A8021092BC
:10075000A2021092A10283EA92E068E042E020E067
:100760000E94B0218AE061E00E9442098AE061E0D3
:100770000E94760982E592E064E044E00E94F51B65
:10078000882321F482E592E00E94BA1C0E94CD02E7
:1007900084E061E00E94420984E061E00E94760901
:1007A00083EA92E00E94A82183EA92E06DE970E07A
:1007B0000E94340C68EE73E080E090E00E944608EE
:1007C00083EA92E060E041E00E94832183EA92E0C4
:1007D00068EB71E00E94530C84E993E065EA70E0F5
:1007E0000E94340C0E94B602BC0184E993E04AE006
:1007F00050E00E947F0D84E494E06AEA71E00E9478
:10080000E70E0097F9F484E993E060EB70E00E9452
:100810007D0C89EE91E098878F838091C002909142
:10082000C102A091C202B091C30289879A87AB87A7
:10083000BC8784E494E06AEA71E0AE01495F5F4FEF
:100840000E942B1084E993E06CEB70E00E94340C62
:10085000CE01019664E474E00E94A91084E993E05B
:10086000BE016F5F7F4F0E94A10C80E062E872E0E2
:1008700043E050E00E94460780EE93E9A4E0B0E038
:1008800080939D0290939E02A0939F02B093A0023A
:100890000E940A08DC01CB0140919D0250919E020A
:1008A00060919F027091A002840F951FA61FB71F31
:1008B0008093990290939A02A0939B02B0939C021A
:1008C000A89584E993E067EC70E00E94340C609195
:1008D000B0017091B10184E993E00E948F0C84E92A
:1008E00093E06DEC70E00E947D0C83EA92E060E0A2
:1008F00041E00E94832183EA92E067ED70E00E946C
:10090000340C2C96E2E00C944232A4E3B0E0EBE825
:10091000F4E00C941C324B015C0120918E0230916A
:100920008F0240919002509191020E9453317B01BD
:10093000182F092F9801862F9F2DA32FB22FBC01AE
:10094000CD0120E030E04AE754E40E94533120E03A
:1009500030E040E05FE30E949C2F0E946C30DC019D
:10096000CB0180938A0290938B02A0938C02B09368
:100970008D0283EA92E00E94A82183EA92E060E07F
:1009800040E00E94832183EA92E098014E2D5F2D82
:10099000632F722F22E030E00E94B10E83EA92E0D2
:1009A00060EE70E00E94340C84EC92E00E948C11A6
:1009B000882351F084E993E065EE70E00E947D0C9D
:1009C00084EC92E00E94B01184E993E063EF70E060
:1009D0000E947D0C89EE91E09A8389838091BA020E
:1009E0009091BB02A091BC02B091BD028B839C830D
:1009F000AD83BE8384EC92E0BE016F5F7F4F40E524
:100A000050E00E94F611009709F408C184E993E0D0
:100A10006EEF70E00E947D0C0E940A08DC01CB01A1
:100A20008093920290939302A0939402B0939502C4
:100A30001092E00227E0C22ED12CCC0EDD1EC501A3
:100A4000B40140E020E086010E94533201EE12E042
:100A500030E5F32ED801EF2D1D92EA95E9F78DB719
:100A60009EB70C970FB6F8949EBF0FBE8DBFEDB723
:100A7000FEB73196ADB7BEB712961C930E93119781
:100A800088E091E0938382838091B2019091B301D9
:100A9000958384838091B4019091B5019783868377
:100AA0008091B0019091B10191878087D386C286F1
:100AB0000E944834F80101900020E9F73197108234
:100AC000EDB7FEB73C960FB6F894FEBF0FBEEDBF74
:100AD00084E993E0B8010E948F0C84EC92E06CE012
:100AE00071E00E94530C6091B6017091B70184ECE3
:100AF00092E00E94530C84EC92E066E571E00E9463
:100B00007D0C84EC92E060E671E00E947D0C84EC48
:100B100092E064E771E00E947D0C84EC92E068E86A
:100B200071E00E94340CD8010D900020E9F7BD015E
:100B300061507040601B710B84EC92E04AE050E021
:100B40000E94240D84EC92E069E971E00E947D0C22
:100B500084EC92E00E94690C84EC92E0B8010E945F
:100B60008F0C84E993E068EB71E00E947D0C01E357
:100B700013E0F8011192FA94E9F78DB79EB70C973C
:100B80000FB6F8949EBF0FBE8DBFEDB7FEB731967E
:100B9000ADB7BEB712961C930E93119786EC91E0F9
:100BA000938382838091B0019091B1019583848376
:100BB000D782C6828091B4019091B50191878087D8
:100BC0008091B2019091B301938782870E9448344B
:100BD000F80101900020E9F73197E01BF10B9F012C
:100BE000200F311FD9011C9240913203D801129677
:100BF0008DB79EB70C960FB6F8949EBF0FBE8DBFF3
:100C000081E090E003C05D91452701968E179F0714
:100C1000D4F3409340024031C0F026C08091E002FE
:100C20008F5F8093E002882319F081E08093DF02D8
:100C30000E940A08DC01CB018093920290939302F8
:100C4000A0939402B093950264C000D000D000D06D
:100C5000EDB7FEB73196ADB7BEB712963C932E9363
:100C6000119786EE91E00EC000D000D000D0EDB715
:100C7000FEB73196ADB7BEB712963C932E9311973F
:100C80008BEE91E093838283448315820E944834E3
:100C9000EDB7FEB736960FB6F894FEBF0FBEEDBFA8
:100CA0001B8E1D8E1A8E198E8BE292E0988F8F8B81
:100CB0006091A6017091A701CE014B9643E60E9478
:100CC0005D1A882331F482E592E06EE271E00E94C1
:100CD000771CCE01479661E373E00E948F0C84E994
:100CE00093E06FEE71E00E947D0CCE014B960E9466
:100CF000C41783EA92E060E041E00E94832183EA26
:100D000092E063E072E00E94340C84EC92E00E9476
:100D1000B011E496ECE00C943832CF92DF92EF926F
:100D2000FF920F931F936B017C010E940A08DC0164
:100D3000CB0197018601081B190B2A0B3B0BC81628
:100D4000D906EA06FB0620F400951095209530950B
:100D5000B801C9011F910F91FF90EF90DF90CF90E4
:100D600008958091DF02813009F0A89584E494E031
:100D70000E945A10609192027091930280919402A5
:100D8000909195020E948D06AB01BC0180919D025D
:100D900090919E02A0919F02B091A002481759071E
:100DA0006A077B07E0F060919602709197028827AE
:100DB00077FD8095982F0E949F3020E030E040EA38
:100DC00050E40E9404301092970210929602462F2F
:100DD000572F682F792FCB01BA010E9485040895FF
:100DE000CF92EF920F9381E893E060E040E020E043
:100DF00000E00E94C20B84EC92E00E946C118EEB2A
:100E000092E060EC48EA24E608E20E94C20B88EB1C
:100E100092E060EB48E32CEE0BE40E94C20B83EA05
:100E200092E06EE04FE028E005E056E0E52E77E046
:100E3000C72E0E94662289E18093530210925602C7
:100E400010926902109270021092720280E28093F6
:100E50004B028AE090E190934D0280934C0282E035
:100E600080934E021092500210924F021092510243
:100E7000E7E4F2E089EC91E09183808384E993E0F8
:100E8000938382830F91EF90CF9008958230E8F49E
:100E9000E82FF0E0EE0FFF1FE957FC4F71836083EE
:100EA000813041F0809169008C7F842B80936900B0
:100EB000E89A089580916900440F551F440F551F0B
:100EC000837F842B80936900E99A08951F920F9283
:100ED0000FB60F9211242F933F934F935F936F930D
:100EE0007F938F939F93AF93BF93EF93FF938091E3
:100EF000870390918803009729F0E0918703F09190
:100F000088030995FF91EF91BF91AF919F918F91C8
:100F10007F916F915F914F913F912F910F900FBEF5
:100F20000F901F9018951F920F920FB60F921124D9
:100F30002F933F934F935F936F937F938F939F93E1
:100F4000AF93BF93EF93FF938091890390918A03AE
:100F5000009729F0E0918903F0918A030995FF91A8
:100F6000EF91BF91AF919F918F917F916F915F9121
:100F70004F913F912F910F900FBE0F901F9018959A
:100F80001F920F920FB60F9211242F933F938F93BE
:100F90009F93AF93BF9380918B0390918C03A0910B
:100FA0008D03B0918E0330919303232F2D5F2D3746
:100FB00020F40196A11DB11D05C0232F2A570296CA
:100FC000A11DB11D2093930380938B0390938C03F9
:100FD000A0938D03B0938E0380918F039091900323
:100FE000A0919103B09192030196A11DB11D809330
:100FF0008F0390939003A0939103B0939203BF91BA
:10100000AF919F918F913F912F910F900FBE0F90B5
:101010001F9018950F931F938FB7F89400918B032F
:1010200010918C0320918D0330918E038FBFB801F6
:10103000C9011F910F9108950F931F939FB7F894C3
:1010400000918F03109190032091910330919203AE
:1010500086B5A89B06C08F3F21F00F5F1F4F2F4F13
:101060003F4F9FBF322F212F102F0027080F111D38
:10107000211D311D42E0000F111F221F331F4A9511
:10108000D1F7B801C9011F910F910895CF92DF9256
:10109000EF92FF92CF93DF936B017C010E941C08BB
:1010A000DC01CB01EC010FC00E941C086C1B7D0B06
:1010B00083E0683E780738F00894C108D108E10859
:1010C000F108C851DC4FC114D104E104F10461F707
:1010D000DF91CF91FF90EF90DF90CF90089501972F
:1010E00039F0880F991F880F991F02970197F1F720
:1010F0000895789484B5826084BD84B5816084BD90
:1011000085B5826085BD85B5816085BDEEE6F0E080
:10111000808181608083E1E8F0E0108280818260DC
:101120008083808181608083E0E8F0E0808181605D
:101130008083E1EBF0E0808184608083E0EBF0E08D
:10114000808181608083EAE7F0E080818460808331
:1011500080818260808380818160808380818068DB
:1011600080831092C10008951F93CF93DF93182FAF
:10117000EB0161E00E944209209711F4812F4CC0DD
:10118000CF3FD10511F4812F49C0E12FF0E0E35E9C
:10119000FD4FE491E330C1F0E43028F4E13051F048
:1011A000E230B1F50CC0E63019F1E73049F1E43036
:1011B00079F514C084B5806884BDC7BD32C084B5DC
:1011C000806284BDC8BD2DC08091800080688093FE
:1011D0008000D0938900C093880023C08091800054
:1011E000806280938000D0938B00C0938A0019C0E6
:1011F0008091B00080688093B000C093B30011C0AC
:101200008091B00080628093B000C093B40009C0A8
:10121000812FC038D10514F460E001C061E00E9464
:101220007609DF91CF911F910895833071F084305A
:1012300028F48130A1F0823021F514C08630B1F05D
:101240008730D1F08430E9F404C0809180008F773A
:1012500003C0809180008F7D80938000089584B5C5
:101260008F7702C084B58F7D84BD08958091B000D2
:101270008F778093B00008958091B0008F7D809328
:10128000B000089590E0FC01EF5CFD4F24918B5B72
:101290009D4FFC018491882341F190E0880F991FB4
:1012A000FC01E359FD4F45915491DA018D599D4F51
:1012B000FC0185919491FC019FB7F8948C91662371
:1012C00031F4209582238C938081822308C0623080
:1012D00049F4322F309583238C938081822B808335
:1012E0009FBF0895822B8C939FBF0895A1E0B0E02B
:1012F000ECE7F9E00C942432282F30E0F901E35EAA
:10130000FD4F8491F901EF5CFD4F1491F901EB5B06
:10131000FD4F04910023D1F0882321F069830E94BE
:1013200015096981E02FF0E0EE0FFF1FED59FD4F29
:1013300085919491DC019FB7F8948C91662319F400
:101340001095812301C0812B8C939FBF2196E4E0EF
:101350000C944032FC0124853585F901E05CFF4F97
:10136000808191812E5B3F4FF90120813181821B69
:10137000930B8F7390700895FC0144855585FA0195
:10138000E05CFF4F80819181FA01EE5BFF4F20818D
:1013900031818217930741F00190F081E02DE40F35
:1013A000F51F808190E008958FEF9FEF0895FC0175
:1013B00044855585FA01E05CFF4F20813181FA01B7
:1013C000EE5BFF4F808191812817390779F0A0816A
:1013D000B181A40FB51F8C91208131812F5F3F4FC8
:1013E0002F7330703183208390E008958FEF9FEF4B
:1013F0000895FC0181A1882329F0A489B5898C91E5
:1014000086FFFBCF11A20895CF93DF93DC011E96D8
:101410004D915C911F97EA01C05CDF4F28813981B3
:101420002F5F3F4F2F733070FA01EE5BFF4F8081CB
:10143000918128173907D9F3E881F981E40FF51F65
:1014400060831E96ED91FC911F97E05CFF4F318306
:1014500020835696ED91FC915797208181E090E092
:101460005F960C905F9702C0880F991F0A94E2F76D
:10147000282B208381E091968C9391975496ED913F
:10148000FC91559780818064808381E090E0DF91BA
:10149000CF91089508951F920F920FB60F921124C5
:1014A0002F933F934F938F939F93EF93FF9380914D
:1014B000C00082FD1CC04091C60080913A0490910A
:1014C0003B0401968F73907020913C0430913D0451
:1014D0008217930771F0E0913A04F0913B04E650D3
:1014E000FC4F408390933B0480933A0402C0809168
:1014F000C600FF91EF919F918F914F913F912F9156
:101500000F900FBE0F901F90189584E993E00E94F2
:10151000AA09009711F00E944A0A08951F920F929B
:101520000FB60F9211242F933F938F939F93EF93B6
:10153000FF932091F6033091F7038091F803909187
:10154000F9032817390731F48091C1008F7D80930A
:10155000C10014C0E091F803F091F903EA54FC4F84
:1015600020818091F8039091F90301968F73907018
:101570009093F9038093F8032093C600FF91EF91B5
:101580009F918F913F912F910F900FBE0F901F90C1
:101590001895A0E0B0E0EFECFAE00C941F32EC01FB
:1015A0006A017B01BB24B394403081EE580780E090
:1015B000680780E0780749F4BB24EC89FD89108234
:1015C00060E874E88EE190E00FC0EC89FD8981E06D
:1015D00090E008A002C0880F991F0A94E2F7808368
:1015E00060E079E08DE390E0A70196010E94D93197
:1015F00089019A01015010402040304036952795CE
:101600001795079580E10030180710F0BB20A1F670
:10161000E889F9891083EA89FB89008319A2EE8998
:10162000FF89408121E030E0C9010C8C02C0880FA5
:10163000991F0A94E2F7482B4083EE89FF89408185
:10164000C9010D8C02C0880F991F0A94E2F7482B3C
:101650004083EE89FF894081C9010E8C02C0880F4A
:10166000991F0A94E2F7482B4083EE89FF89808115
:101670000F8C02C0220F331F0A94E2F72095282313
:101680002083CDB7DEB7E9E00C943B32109297038C
:101690001092960388EE93E0A0E0B0E08093980368
:1016A00090939903A0939A03B0939B03E6E9F3E028
:1016B00089ED91E0929382938AEF93E095878487F6
:1016C00086EB93E09787868785EC90E0918B808B03
:1016D00084EC90E0938B828B80EC90E0958B848BF4
:1016E00081EC90E0978B868B82EC90E0918F808FDD
:1016F00086EC90E0938F828F84E0848F83E0858FE7
:1017000087E0868F85E0878F81E080A30895A0E041
:10171000B0E0EDE8FBE00C941E325C017B0100E0E0
:1017200010E0CC24DD24F501E00FF11FC701628138
:101730004AE050E00E943A0DEC01C7016EE20E94BF
:10174000560CC80FD91FCC0EDD1E0F5F1F4F033084
:10175000110549F7C701F50165814AE050E00E9493
:101760003A0D8C0D9D1DCDB7DEB7EAE00C943A32F0
:10177000FC0189EE91E091838083128213821482AE
:10178000158208950F93FC0189EE91E09183808387
:1017900062834383248305830F910895CF93DF935E
:1017A000FC0189EE91E091838083EB01888199812E
:1017B000AA81BB8182839383A483B583DF91CF9178
:1017C0000895FB014081518162817381FC01428354
:1017D000538364837583089589EE91E090933F0469
:1017E00080933E04109240041092410410924204EF
:1017F000109243040895A0E0B0E0E1E0FCE00C9416
:1018000020326C017B01EA0100E010E00EC0D7013C
:101810006D917D01D601ED91FC910190F081E02D5B
:10182000C6010995080F191F2197209781F7C80154
:10183000CDB7DEB7E8E00C943C326115710589F054
:10184000DB010D900020E9F7AD0141505040461BEF
:10185000570BDC01ED91FC910280F381E02D09959D
:10186000089580E090E00895EF92FF920F931F9308
:10187000CF93DF937C01EB0100E010E0FE012196A5
:101880006491662351F0F701A081B181ED91FC9143
:10189000C7010995080F191FF1CFC801CDB7DEB7F1
:1018A000E6E00C943E320E941D0C0895DC01ED919F
:1018B000FC910190F081E02D099508959C01CB01E8
:1018C000DB01ED91FC910190F081E02DB9010995CA
:1018D00008950F931F93CF93DF938C016DE00E94C7
:1018E000560CEC01C8016AE00E94560C8C0F9D1F3B
:1018F000DF91CF911F910F9108950F931F93CF9375
:10190000DF938C010E94340CEC01C8010E94690C29
:101910008C0F9D1FDF91CF911F910F9108950F9311
:101920001F93CF93DF938C010E941D0CEC01C80123
:101930000E94690C8C0F9D1FDF91CF911F910F9119
:1019400008950F931F93CF93DF938C010E945E0C39
:10195000EC01C8010E94690C8C0F9D1FDF91CF9193
:101960001F910F9108954F925F926F927F92AF9265
:10197000BF92CF92DF92EF92FF920F931F93CF937C
:10198000DF93CDB7DEB7A1970FB6F894DEBF0FBED9
:10199000CDBF5C01E42ECB01F22E19A221E02F1560
:1019A00010F03AE0F32E21E2C22ED12CCC0EDD1E37
:1019B0004F2C55246624772403C0E02E512FC901F3
:1019C0006E2D752FA30192010E94D93189019A01D0
:1019D000F09E802D1124E81A8E2D0894C108D1089C
:1019E0008A3010F4805D01C0895CF60180830115A6
:1019F00011052105310509F7C501B6010E941D0C2D
:101A0000A1960FB6F894DEBF0FBECDBFDF91CF9188
:101A10001F910F91FF90EF90DF90CF90BF90AF900C
:101A20007F906F905F904F9008952115310549F494
:101A3000DC01ED91FC910190F081E02D642F09957E
:101A400008950E94B30C08950F931F93CF93DF93D3
:101A50008C019A01AB0160E070E00E94150DEC0171
:101A6000C8010E94690C8C0F9D1FDF91CF911F91BF
:101A70000F9108959A01462F50E060E070E00E94B7
:101A8000150D0895A0E0B0E0E8E4FDE00C942032EC
:101A9000EC016A017B012115310541F4E881F981EE
:101AA0000190F081E02D642F09951AC02A3031058C
:101AB000A9F477FF12C06DE20E94560C8C014427F6
:101AC0005527BA014C195D096E097F09CE012AE03C
:101AD0000E94B30C800F911F03C02AE00E94B30C38
:101AE000CDB7DEB7E8E00C943C329A01FB01AF01C0
:101AF000662757FD6095762F0E94420D08950F933B
:101B00001F93CF93DF938C019A01CB01AC01662721
:101B100057FD6095762FC8010E94420DEC01C80167
:101B20000E94690C8C0F9D1FDF91CF911F910F9127
:101B300008952F923F924F925F927F928F929F9241
:101B4000AF92BF92CF92DF92EF92FF920F931F93CB
:101B5000CF93DF932C014A015B01722ECB01BA01B6
:101B6000A50194010E94B631882321F0C2016EE7DD
:101B700071E01BC075016401E894F7F8C701B60174
:101B80002FEF3FEF4FE75FE70E94B631882389F4DC
:101B9000C701B6012FEF3FEF4FE75FE70E9400302C
:101BA00018163CF4C20162E871E00E941D0C4C0161
:101BB000C5C0C501B4012FEF3FEF4FE75FE40E94BE
:101BC0004F31181654F0C501B4012FEF3FEF4FE726
:101BD0005FEC0E94003087FF04C0C20166E871E03C
:101BE000E4CFC501B40120E030E0A9010E9400303B
:101BF00087FF0AC0C2016DE20E94560C1C01B7FAB1
:101C0000B094B7F8B09402C022243324C0E050E06E
:101C100040E030E02FE313C0FA01B9018F2F942F79
:101C2000A72FB22FBC01CD0120E030E040E251E40B
:101C30000E940430562F472F382F292FCF5FC7150A
:101C400059F7C501B401DA01F9010B2F142F2F2F19
:101C50003E2FA90198010E949C2F7B01182FD92F9C
:101C6000862F9F2DA12FBD2FBC01CD010E94713069
:101C7000C62E072F882EC92F0E949D309B01AC01D4
:101C80008E2D9F2DA12FBD2FBC01CD010E949B2F1A
:101C90007B01182FD92FC2014C2D502F682D7C2F7E
:101CA0002AE030E00E94150D4C01820C931C772035
:101CB00009F442C0C2016AE871E00E941D0C880E5E
:101CC000991E3AC08E2D9F2DA12FBD2FBC01CD0195
:101CD00020E030E040E251E40E945331EB01182F44
:101CE000092F9801862F9D2FA32FB22FBC01CD0164
:101CF0000E946C306B017C01EE24D7FCE094FE2C3A
:101D0000C201B701A6012AE030E00E94420D880E10
:101D1000991EC701B6010E949F309B01AC01B8011A
:101D20008C2F9D2FA72FB62FBC01CD010E949B2F7A
:101D30007B01182FD92F7A94772021F6C401DF91E7
:101D4000CF911F910F91FF90EF90DF90CF90BF90B8
:101D5000AF909F908F907F905F904F903F902F908B
:101D600008950E94990D08950E9479080E946503C4
:101D7000C5E8DAE00E94B1062097E1F30E94850AE7
:101D8000F9CF21E030E0FC018081882311F020E0D0
:101D900030E0C901089521E0FC0120830895BC01D1
:101DA00081E090E044E050E00E94F0240895BC01FE
:101DB00085E090E044E050E00E94F0240895BC01EA
:101DC0008FE090E044E050E00E94F0240895AEE1FE
:101DD000B0E0EDEEFEE00C9420326C017B018091CE
:101DE0005404882371F484E594E00E94C10E0097A6
:101DF00041F083EA94E00E94BE1384E594E00E94DF
:101E0000CB0E8CE594E0F6019783868382EE96E014
:101E10000E94B22489E090E0B70146E050E00E94C1
:101E2000F024CE01499660E040E020E000E00E940E
:101E3000C20BCE014B960E94DF0EF6018681978180
:101E4000B70120E63AEE40E050E0A0EAEA2EAFE02B
:101E5000FA2E012D112D0E94A82C7C0181309105B4
:101E600089F5F60166817781CE0143960E94142997
:101E7000CE0145960E94DF0EF60166817781CE0184
:101E80000D960E942A29CE010F960E94CF0EF601D0
:101E900066817781CE0107960E941F29CE0109969F
:101EA0000E94D70EF60166817781CE0101960E94CD
:101EB00035298B819C81AD81BE81F601828393831C
:101EC000A483B583C7016E96E8E00C943C32A0E091
:101ED000B0E0EDE6FFE00C941A323C014B015A01F0
:101EE000690182EE96E00E94B22489E090E0B4019C
:101EF00046E050E00E94F024C50102960E94DF0EE9
:101F0000C80102960E94CF0EC70102960E94D70E0A
:101F1000F60182819381A481B581F3018283938349
:101F2000A483B583CDB7DEB7EEE00C943632AEE1D4
:101F3000B0E0EDE9FFE00C941A323C014B017A016C
:101F400069015801CE0149966FEF4FEF2FEF00E086
:101F50000E94C20B29EE31E03C8B2B8BF701828172
:101F60009381A481B5818D8B9E8BAF8BB88F3E877B
:101F70002D87F60182819381A481B5818F87988B0B
:101F8000A98BBA8B38872F83F50182819381A48135
:101F9000B58189879A87AB87BC873A8329838B8DE4
:101FA0009C8DAD8DBE8D8B839C83AD83BE83C30121
:101FB000B401AE014D5E5F4F9E01235F3F4F8E0126
:101FC000095F1F4F7E010894E11CF11C0E94670FFE
:101FD0006E96EEE00C943632A8E1B0E0E2EFFFE05E
:101FE0000C9422327B01DA0112964D915D916D9134
:101FF0007C9115974D8B5E8B6F8B788FE9EEF1E0BE
:10200000FE87ED874F87588B698B7A8BF887EF8334
:10201000D90112960D911D912D913C91159709872B
:102020001A872B873C87FA83E9834B835C836D8314
:102030007E8321E02E83B701AE01435F5F4F9E0197
:10204000295F3F4F8E010F5F1F4F0E94970F6896C9
:10205000E6E00C943E32A2E1B0E0E1E3F0E10C9462
:102060002632FB01DA0112964D915D916D917C91C2
:1020700015974F87588B698B7A8B29EE31E038871B
:102080002F8349875A876B877C873A8329834B83C1
:102090005C836D837E8321E02E83BF01AE01495FA7
:1020A0005F4F9E012F5F3F4F0E94EC0F6296E2E070
:1020B0000C944232A8E1B0E0E0E6F0E10C94223268
:1020C0008C01FC01868197810097E1F10E94E82B49
:1020D0007C018230910521F084E0E816F104A1F53D
:1020E000F80166817781CE0143960E941429CE01C2
:1020F00045960E94DF0EF80166817781CE010D962C
:102100000E942A29CE010F960E94CF0EF801668107
:102110007781CE0107960E941F29CE0109960E9461
:10212000D70EF80166817781CE0101960E9435298C
:102130008B819C81AD81BE81F80182839383A483CE
:10214000B58302C0EE24FF24C7016896E6E00C9434
:102150003E32CF93DF93EC010E94B80BBE016E5F5D
:102160007F4F8FE090E044E050E00E941226CE01C5
:10217000DF91CF9108950F938EEB94E060E040E003
:1021800020E000E00E94C20B84E494E00E94B80BBF
:102190000F910895A1E0B0E0E0EDF0E10C9426325B
:1021A0006983DC01ED91FC910280F381E02DBE0199
:1021B0006F5F7F4F41E050E009952196E2E00C947B
:1021C0004232CF93DF93EC0107C0E881F9810680AA
:1021D000F781E02DCE010995E881F9810480F58130
:1021E000E02DCE010995009781F7DF91CF910895F9
:1021F00021E0FC018485843009F420E0822F0895D9
:10220000A1E0B0E0E6E0F1E10C9424328C01DC01C5
:10221000ED91FC910480F581E02D0995009751F036
:10222000F8018485BE016F5F7F4F0E94FE23898184
:1022300090E002C08FEF9FEF2196E4E00C944032D3
:10224000FC0184850E94C2230895A1E0B0E0EBE286
:10225000F1E10C942632FC018485BE016F5F7F4F53
:1022600041E050E00E94C223181619061CF489812F
:1022700090E002C08FEF9FEF2196E2E00C94423293
:10228000FC016485643031F082EE96E00E94C7253F
:102290009C0102C020E030E0C90108950F931F9314
:1022A000CF93DF938C01EA01FC018485843019F41B
:1022B00081E090E007C00E946F23009739F481E02D
:1022C00090E0F80193838283C0E0D0E0CE01DF91FB
:1022D000CF911F910F910895FC011382128248EE55
:1022E00053E060E070E044835583668377838FEE2C
:1022F00091E09183808384E084870895FC01848544
:10230000843041F0382F20E0C9018D5F9B4F0E943F
:102310001A25089580E00895CF93DF93EC018C8512
:102320008430D1F0CE010E947E11843181F0882367
:1023300071F0883161F08C3161F4E881F9810480B9
:10234000F581E02DCE01099521E0009719F420E0F8
:1023500001C021E0822F01C080E0DF91CF9108957C
:10236000CF92DF92EF92FF92CF93DF93EC018C85B7
:102370008430A9F10E9468230E940A086B017C0145
:10238000CE010E947E11882381F00E940A08DC01A0
:10239000CB018C199D09AE09BF09883E23E0920745
:1023A00020E0A20720E0B20798F0CE010E947E1143
:1023B000882319F08C850E94E522EC85F0E0EE0F71
:1023C000FF1FE45BFB4F1182108284E08C8707C003
:1023D00061E070E080E090E00E944608D1CFDF919C
:1023E000CF91FF90EF90DF90CF900895A1E0B0E003
:1023F000ECEFF1E10C941E325C017B016A01FC01FF
:102400008485843009F055C003E014E020E0C80161
:1024100029830E941A252981882321F0883111F00F
:102420008C3119F4F501248705C02F5F00501F4F30
:10243000243069F7F50184858430D9F12091BF01FA
:102440003091C0012F5F3F4F3093C0012093BF01F7
:102450002115310531F420E034E03093C0012093A0
:10246000BF014091BF015091C00161E020E00E9496
:10247000F322B7016E5F7F4FF5018485A6010E94AC
:10248000332309C061E070E080E090E00E944608DC
:10249000C5010E947E11882321F484E0F501848720
:1024A00008C0C5010E947E11873161F781E090E08C
:1024B00002C080E090E02196EAE00C943A320F935B
:1024C00084EC94E060E040E020E000E00E94C20B79
:1024D0000F910895DC01ED91FC910688F789E02DBC
:1024E0000995089529EE31E0FC0131832083FB0139
:1024F0004189528963897489FC01428353836483CF
:1025000075830895FC01858996890895FC01818D64
:10251000928D0895A1E0B0E0E0E9F2E10C9426325A
:102520006983DC01ED91FC910280F381E02DBE0115
:102530006F5F7F4F41E050E009952196E2E00C94F7
:102540004232CF93DF93EC0107C0E881F981068026
:10255000F781E02DCE010995898D9A8D0097A9F715
:10256000DF91CF910895A1E0B0E0E9EBF2E10C94A6
:102570002632FC01818D928D009749F08485BE0141
:102580006F5F7F4F0E94FE23898190E002C08FEF32
:102590009FEF2196E2E00C944232CF93DF93EC015F
:1025A0009A01498D5A8D4115510589F08C85241762
:1025B000350708F4A9010E94C223181619063CF435
:1025C000298D3A8D281B390B3A8F298F02C08FEF46
:1025D0009FEFDF91CF910895A1E0B0E0E2EFF2E14B
:1025E0000C9424328C01FC01818D928D0097A1F016
:1025F0008485BE016F5F7F4F41E050E00E94C2239F
:10260000181619064CF4F801818D928D0197928F5E
:10261000818F898190E002C08FEF9FEF2196E4E0E7
:102620000C944032CF93DF93EC019B01FA016F8948
:10263000788D8C85A9019F010E940D242F89388DEA
:10264000280F391F388F2F8BDF91CF910895FC0110
:1026500084850E9466240895FC01108E178A6E5F9F
:102660007F4F84850E9441240895A8E0B0E0EBE309
:10267000F3E10C9424328C01DC01ED91FC91028495
:10268000F385E02D099582EE96E0F80164850E94BD
:10269000C725009721F1D8011C968C91BE016F5F70
:1026A0007F4F48E050E00E94C22318161906CCF470
:1026B000C8010F96BE016F5F7F4F0E94E10B9D81A5
:1026C00080E02E81820F911DF801968B858B9F8172
:1026D00080E02885820F911D928F818F02C080E05B
:1026E00090E02896E4E00C944032CF93DF93EC0125
:1026F0008C85843061F00E94E522EC85F0E0EE0FDD
:10270000FF1FE45BFB4F1182108284E08C87DF9116
:10271000CF910895A1E0B0E0E0E9F3E10C9420321C
:102720006C017B01FC018485843019F503E014E021
:1027300020E0C80129830E941A252981882311F0ED
:10274000883119F4F601248705C02F5F00501F4F10
:10275000243079F7F6018485843059F0F686E586D1
:10276000128E118E62E0A70120E00E94F32281E028
:1027700001C080E02196E8E00C943C32FC01138219
:10278000128248EE53E060E070E044835583668334
:10279000778389E092E09183808384E08487CF010E
:1027A0000F960E94B80B08950F938AEC94E060E0B6
:1027B00040E020E000E00E94C20B0F910895CF930B
:1027C000DF93EC019C012A5F3F4F8C819D8141E0AA
:1027D00050E060E070E00E948D1E8823A1F08E8999
:1027E0009F89A88DB98D0097A105B10571F48E81DF
:1027F0009F81A885B9858E8B9F8BA88FB98F898182
:102800008068898302C080E001C081E0DF91CF91C0
:1028100008958F929F92AF92BF92EF92FF920F9383
:102820001F93CF938C01FC0182899389A489B58978
:10283000803EFFEF9F07FFE1AF07F0E0BF0708F022
:1028400057C0C8010E94DF13882309F451C0D80182
:1028500016964D915D916D917C91199714968D917D
:102860009C9115970E94851D4B015C0145E00E94DB
:102870002E1D7C010097F1F180E092E0F7019C01B0
:10288000119221503040E1F7C1E010C0B501A40120
:102890004C0F511D611D711D8091D4049091D50480
:1028A00097010E94F62E882319F1CF5FD801149664
:1028B000ED91FC9115974481C41740F350E060E01E
:1028C00070E089E0440F551F661F771F8A95D1F786
:1028D00052968D919D910D90BC91A02D840F951FC6
:1028E000A61FB71FF801828B938BA48BB58B02C0F8
:1028F000EE24FF24C701CF911F910F91FF90EF901D
:10290000BF90AF909F908F900895CF93DF93EC018D
:10291000462F8E859F85A889B989BC01CD010E946B
:102920002E1D009751F02B8130E045E0220F331F20
:102930004A95E1F7280F391F02C020E030E0C901B5
:10294000DF91CF910895CF93DF93EA01FB012BE054
:1029500030E231932150E9F7DC0130E047E01CC060
:102960004A3069F138E04AE017C0E21741F1FC0152
:102970000196E491EE23C9F7431708F12132F8F0EC
:102980002F37E8F4FB01E30FF11D822F81568A31C6
:1029900008F4205220833F5F9A2F8B2F2D91222302
:1029A00039F02F3229F02E32D9F287E792E0DFCFCB
:1029B0009883898381E0FB019081903209F480E063
:1029C000DF91CF910895A6E0B0E0E9EEF4E10C9438
:1029D00016329C838B83862E272E2A01DC011296C9
:1029E0008C911297882309F4C0C011968C9111978D
:1029F00080FFBBC0C0C02A01481A590A5201682C86
:102A0000722CEB81FC813696FA83E983212C72E0EB
:102A1000372EA5C0EB81FC8182859385A485B58581
:102A20005FEF852E51E0952E8822992224813581F1
:102A30003E832D83F90104816C017D0169E0F694E8
:102A4000E794D794C7946A95D1F7EB81FC812281F2
:102A5000223069F4AD81BE8155964D915D916D91A5
:102A60007C9158974C0D5D1D6E1D7F1D37C0015028
:102A70000C218114910411F5002301F50097A105A3
:102A8000B10559F4EB81FC8186899789A08DB18DC0
:102A900086839783A087B18711C0AB81BC811696CE
:102AA0004D915D916D917C9119978D819E812981C8
:102AB0003A810E94A81D882309F457C0EB81FC814C
:102AC0004681578160857185848195810E94851D2D
:102AD000AB01BC01400F511D611D711D811491049A
:102AE00099F4F0E0AF16F2E0BF0670F08091D704E1
:102AF0009091D804A091D904B091DA0448175907ED
:102B00006A077B0709F055C0CB01BA0140E00E947B
:102B10002E1DBC01009749F1C10188199909850151
:102B20008A159B0508F48C01680D791DC301A80165
:102B30000E942D34600E711EA80160E070E0EB81F0
:102B4000FC8182859385A485B585840F951FA61F7A
:102B5000B71F82879387A487B587A01AB10AA114EB
:102B6000B10409F057CFC20102C08FEF9FEF269644
:102B7000E2E10C943232AB81BC8152964D915D9171
:102B80006D917C9155971A968D919D910D90BC9168
:102B9000A02D820120E030E06A017B01C81AD90A29
:102BA000EA0AFB0A0C151D052E053F0508F023CF88
:102BB00025CF8091D4049091D50493010E94E02DFB
:102BC000882399F200E012E0B5CFA1E0B0E0EBEE8F
:102BD000F5E10C942632BE016F5F7F4F41E050E07B
:102BE0000E94E3148130910519F4898190E002C0BC
:102BF0008FEF9FEF2196E2E00C944232A1E0B0E02B
:102C0000E4E0F6E10C9418323C014B012A01590131
:102C1000CC24CA94DC2CEE24FF2413C0F401EE0D66
:102C2000FF1D6083A114B10419F46A3049F420C077
:102C3000C50170E00E943634009711F019C0870179
:102C4000780187010F5F1F4F04151505ECF4C301D0
:102C5000BE016F5F7F4F41E050E00E94E3146C01C2
:102C600081E0C816D10481F469816D30B9F6E7CFEF
:102C7000F401E00FF11F108202C00FEF1FEFC80137
:102C80002196E0E10C943432D7FCF7CF8701F0CFE6
:102C9000A0E0B0E0EEE4F6E10C941C32EC014A0155
:102CA0005B012A81222309F475C08A899B89AC893A
:102CB000BD8984179507A607B70708F46BC070C0D5
:102CC00081149104A104B10449F41E821F82188664
:102CD00019861A861B861C861D865AC04A855B8506
:102CE0006C857D85EC81FD81218530E0275F3F4F3C
:102CF000DB01CA010197A109B109022E04C0B695F2
:102D0000A795979587950A94D2F775016401089461
:102D1000C108D108E108F10804C0F694E794D794FB
:102D2000C7942A95D2F7C816D906EA06FB0628F0FA
:102D3000411551056105710549F48E899F89A88D5A
:102D4000B98D8E839F83A887B98716C0C81AD90A00
:102D5000EA0AFB0A11C04E815F81688579858C8102
:102D60009D8198010E94A81D0894C108D108E1081E
:102D7000F108882321F40EC08E010A5F1F4FC11491
:102D8000D104E104F10439F78A869B86AC86BD86BE
:102D900081E001C080E0CDB7DEB7ECE00C943832C2
:102DA000223009F08DCFF0CFA4E0B0E0EAEDF6E1FB
:102DB0000C9422327C01FC0186899789A08DB18D0B
:102DC00089839A83AB83BC8300E010E049815A81F8
:102DD0006B817C81D70114968D919C9115979E01F2
:102DE0002F5F3F4F0E94A81D8823B1F1D701149691
:102DF000ED91FC9115978481080F111DB0E1003011
:102E00001B0750F589819A81AB81BC8122892031D1
:102E100049F4883FEFEF9E07E0E0AE07E0E0BE0731
:102E200048F4D4CF883FFFEF9F07FFEFAF07FFE0E5
:102E3000BF0760F220E030E0A9E0000F111F221F61
:102E4000331FAA95D1F7D70152960D931D932D9359
:102E50003C93559781E001C080E02496E6E00C9415
:102E60003E32CF93DF93EC01FB018A818823D1F5B9
:102E70007D836C8382898031C9F582E08A831E8AD2
:102E80001F8A188E198E83899489A0E0B0E025E00E
:102E9000880F991FAA1FBB1F2A95D1F78A8B9B8B7E
:102EA000AC8BBD8B0FC083E08A8385899689A78907
:102EB000B08D8E8B9F8BA88FB98FCE010E94D416B8
:102EC000882381F081E089831E821F8218861986FB
:102ED0001A861B861C861D861E861F86188A198ADE
:102EE0001B8201C080E0DF91CF9108958032D1F73D
:102EF000DACF0F931F93CF93DF938C01FC01828174
:102F00008823C9F1818187FF33C0C80161E00E9435
:102F10008514EC01009779F18881853E61F1F80113
:102F20008281823040F482899389A489B5898C8F0B
:102F30009D8FAE8FBF8FF80186899789A08DB18D47
:102F40009B8F8A8FBD8BAC8BE091D004F091D10424
:102F5000309751F0BE016A5E7F4FCE0148960995C9
:102F6000888D998D9B8B8A8BF80181818F778183E6
:102F70000E94E71C04C081E0F801808380E0DF91BB
:102F8000CF911F910F910895CF93DF93EC010E9491
:102F900079171A82DF91CF9108954F925F926F92C5
:102FA0007F928F929F92AF92BF92EF92FF920F9378
:102FB0001F93CF93DF9300D000D0CDB7DEB77C0155
:102FC0004A015B01FC018281813009F085C0818169
:102FD00081FF82C095C00097A105B10509F47AC0B0
:102FE000F7014284538464847584C701B501A40148
:102FF0000E944816882309F46FC0F70184819581E7
:1030000081149104A104B10479F446895789608D33
:10301000718D0E946D1F882309F45EC0F701168A26
:10302000178A108E118E3CC0F7014681578160854A
:1030300071859E012F5F3F4F0E94A81D882309F4D0
:103040004BC0F7018481958149815A816B817C81D4
:10305000FC012289203149F4483FFFEF5F07F0E08F
:103060006F07F0E07F07E0F408C0483F2FEF5207FA
:103070002FEF62072FE0720798F40E946D1F8823DC
:1030800059F1F70146815781608571858481958169
:103090000FEF1FEF2FEF3FE00E941E1E8823E1F08D
:1030A000F701828A938AA48AB58A818180688183A4
:1030B000C7010E947917882379F0B501A40148144B
:1030C00059046A047B0410F4B301A201C7010E94F1
:1030D000481603C081E001C080E00F900F900F9070
:1030E0000F90DF91CF911F910F91FF90EF90BF90C4
:1030F000AF909F908F907F906F905F904F900895CA
:10310000F70182899389A489B58984179507A60751
:10311000B70708F060CFE0CF1F93CF93DF93EC01A8
:10312000142FE62FF0E035E0EE0FFF1F3A95E1F7A0
:10313000E552FB4F8385817121F0842F827109F064
:1031400058C08091D7049091D804A091D904B0912F
:10315000DA048E879F87A88BB98B6B834489558946
:1031600060E070E0BA0155274427828D938DA0E07E
:10317000B0E0482B592B6A2B7B2B4E8B5F8B688FD3
:10318000798F838590E088719070009751F4848DD9
:10319000958DA68DB78D8A8B9B8BAC8BBD8B81E07B
:1031A00009C08031910529F5CE010E94D4168823EB
:1031B00001F184E08A83812F8F7089831E821F82B0
:1031C000188619861A861B861C861D8614FF17C052
:1031D000CE0140E050E0BA010E94CD17882349F0AB
:1031E0000EC04A895B896C897D89CE010E94481690
:1031F00002C01A8280E0DF91CF911F91089515FDE2
:10320000F0CF81E0F8CFA0E0B0E0E9E0F9E10C9484
:103210001D326C01EB01A42E952EB22E8C819D8166
:10322000F60195838483CB0140E050E0BA010E940F
:103230004816FF2447C0CE010E94E51597FDA0C0A7
:103240008A859B85AC85BD8581509E4FAF4FBF4F12
:103250008A879B87AC87BD8700E010E0E02EB8012D
:1032600045E0660F771F4A95E1F765527B4FFB01FA
:103270008081882311F0853EB9F4FF2081F480918C
:10328000D7049091D804A091D904B091DA04F60142
:1032900086879787A08BB18BE382FF24F394FB0191
:1032A0008081882351F41CC08A2D992D4BE050E079
:1032B0000E942034009709F469C00F5F1F4F00314E
:1032C000110561F64A855B856C857D858A899B89B8
:1032D000AC89BD89481759076A077B0708F4ABCF4B
:1032E000B6FE4EC0B1FE4CC0FF2051F0F601E380A7
:1032F000C60161E00E948514EC01009759F440C0BA
:103300008A818230E9F1CE010E9409140097C1F14F
:10331000EC01EE2480E2FE0111928A95E9F7FE01AC
:10332000AA2DB92D8BE00D9001928150E1F7E0912B
:10333000D004F091D104309739F0BE01625F7F4F25
:10334000CE014096099508C081E298E2998B888B5E
:1033500080E098E09F878E87888999899B8B8A8BEC
:10336000998F888F8E859F859F8B8E8B0E94E71CFF
:10337000882331F0C6016E2D4B2D0E948C1801C0A0
:1033800080E0CDB7DEB7EBE00C943932B7FEF2CF78
:10339000F7CFA1E4B0E0EFECF9E10C9419324C0165
:1033A0006B0122965FAF4EAF2297522E1EA218A637
:1033B0001C861E866115710509F479C0FC018281A5
:1033C000882309F074C0FA0180818F3291F405C01E
:1033D00031962296FFAFEEAF22972296EEADFFAD6B
:1033E000229780818F32A1F3F60182818250823050
:1033F00050F4860166E2E62EF12CEC0EFD1E37013C
:10340000BE2CAF2C11C0F60164817581CE010C96E3
:103410000E943117882309F44AC08E01045F1F4FB0
:10342000E9CF8701EB2CFA2C22968EAD9FAD229727
:10343000BE016F5F7F4FAE01405C5F4F0E94A314DF
:10344000882331F434C031962296FFAFEEAF229735
:103450002296EEADFFAD229780818F32A1F38823B3
:10346000E9F0C701B801AE014F5F5F4F21E00E9454
:1034700003198823E1F00C151D0529F0C8010E94ED
:103480007917F8011282E614F70459F65CE0E52E8C
:10349000F12CEC0EFD1E0B2D1A2DC6CFC401B80168
:1034A000AE014F5F5F4F252D0E94031901C080E0E0
:1034B000CF5BDF4FEFE00C943532FB01242F60919E
:1034C000D2047091D304AF010E94C9190895FC0180
:1034D000128210820E945D1A08952F923F924F929D
:1034E0005F926F927F928F929F92BF92CF92DF9264
:1034F000EF92FF920F931F93CF93DF9300D000D0F2
:10350000CDB7DEB78C01B62EC72E1A01FC01828121
:10351000813009F02CC1818181FF29C143C1F801AB
:10352000428953896489758982859385A485B58587
:1035300084179507A607B70731F0C8010E944816FF
:10354000882309F414C131014B2C5C2CE1C0F80133
:1035500024813581F901B480BA94AC01BD01032EF8
:1035600039E076956795579547953A95D1F7302D7F
:10357000B4224FEF842E41E0942E88229922BB2062
:1035800009F048C08114910409F044C0F801468153
:10359000578160857185411551056105710531F1CE
:1035A000C9019E012F5F3F4F0E94A81D882309F487
:1035B000DEC089819A81AB81BC81F801248135818B
:1035C000F9012289203149F4883FFFEF9F07F0E09D
:1035D000AF07F0E0BF0798F418C0883F2FEF9207BD
:1035E0002FEFA2072FE0B20780F009C0F80186890B
:1035F0009789A08DB18D0097A105B10531F4C8015F
:103600000E94DF13882331F4B2C0F80186839783C8
:10361000A087B187F80146815781608571858481D3
:1036200095810E94851D6B017C01CB0CD11CE11C96
:10363000F11C8114910499F4F0E06F16F2E07F061A
:10364000A8F5F80182859385A485B58542895389BB
:103650006489758984179507A607B70710F441E0B8
:1036600001C045E0C701B6010E942E1D9C010097D4
:1036700009F47DC080E092E08819990963018615FC
:10368000970508F46C01C901880D991DB201A601C6
:103690000E942D34C601880D991DF2E080309F07ED
:1036A00019F50E94741D8823F9F461C08091D70434
:1036B0009091D804A091D904B091DA048C159D059D
:1036C000AE05BF0511F40E94771D8091D40490913E
:1036D000D504B701A60192010E94F62E882309F4B1
:1036E00046C0C12CF2E0DF2EA60160E070E0F801D8
:1036F00082859385A485B585840F951FA61FB71F66
:1037000082879387A487B5874C0C5D1C6C187D0855
:10371000F80182859385A485B5856114710409F04B
:1037200016CF4289538964897589481759076A07F2
:103730007B0728F4828B938BA48BB58B0AC0809176
:10374000D0049091D104009739F02114310421F074
:10375000F801818180688183F801818183FF05C040
:10376000C8010E947917882311F0C10105C081E0CA
:10377000F80180838FEF9FEF0F900F900F900F90C5
:10378000DF91CF911F910F91FF90EF90DF90CF903D
:10379000BF909F908F907F906F905F904F903F90E1
:1037A0002F90089582FDBBCECECE0F931F93CF9363
:1037B000DF93EC01662329F04E969093D304809317
:1037C000D20488A18E01025E1F4F882319F0C80120
:1037D0000E94C417BE016B5F7F4FC8010E94311762
:1037E000DF91CF911F910F9108950F931F93CF9366
:1037F000DF938C010E940E2E8823A9F0E801259604
:10380000CE01B80141E00E94BA1F882339F4CE01ED
:10381000B80140E00E94BA1F882329F0C80161E086
:103820000E94D51B01C080E0DF91CF911F910F91C5
:103830000895CF93DF93EC010CC08091C10190916A
:10384000C201DC01ED91FC910190F081E02D099520
:103850002196FE016491662381F7DF91CF9108954F
:103860000E94191C8091C1019091C2010E94690CB3
:103870000895CF93DF93EC0189818823E1F087E8F5
:1038800092E00E94191C69818091C1019091C2014E
:1038900070E040E150E00E94750D88E992E00E94DE
:1038A000191C6B818091C1019091C20170E040E1CF
:1038B00050E00E947F0DDF91CF9108950F931F93E9
:1038C000CF93DF938C01EB018CE992E00E94191CED
:1038D0008091C1019091C201BE010E948F0CC8016C
:1038E0000E94391CDF91CF911F910F9108950E9482
:1038F0005E1CFFCF0F931F93CF93DF938C01EB01DF
:1039000084EA92E00E94191CCE010E94301CC8017A
:103910000E94391CDF91CF911F910F9108950E9451
:103920007A1CFFCFCF93DF93EC018981882379F054
:1039300084EF92E00E94301C8981813021F48BE178
:1039400093E00E94301CCE010E94391C10C08F8968
:10395000882319F48CEA92E008C088A1882319F41E
:1039600089EC92E002C084EE92E00E94301CDF916C
:10397000CF9108950E94921CFFCFA1E0B0E0E3EC4C
:10398000FCE10C94263269830496BE016F5F7F4F81
:1039900041E050E00E946D1A21E030E08130910555
:1039A00011F020E030E0C9012196E2E00C944232AF
:1039B000CF93DF93EC0104960E94671A1B821A8250
:1039C0008BE292E099838883DF91CF910895809173
:1039D000D60480FF3DC04091D7045091D804609137
:1039E000D9047091DA048091D4049091D5042BED20
:1039F00034E00E94F62E882369F18091D60481FF7D
:103A000022C08091DF068230F0F04091DB065091B9
:103A1000DC066091DD067091DE068091D7049091FE
:103A2000D804A091D904B091DA04480F591F6A1F35
:103A30007B1F8091D4049091D5042BED34E00E943B
:103A4000F62E882349F08091D6048E7F8093D60489
:103A500081E0089580E0089580E00895CF92DF929C
:103A6000EF92FF92CF936B017C01C42F8091D7041A
:103A70009091D804A091D904B091DA048C159D05D9
:103A8000AE05BF05E1F00E94E71C882309F1C2FDE5
:103A90000CC08091D4049091D504B701A6012BED00
:103AA00034E00E94E02D882399F01092D604C09251
:103AB000D704D092D804E092D904F092DA04C3700B
:103AC0008091D6048C2B8093D6048BED94E002C0B9
:103AD00080E090E0CF91FF90EF90DF90CF9008953D
:103AE00042600E942E1D08950E94E71C08958FEFEA
:103AF0009FEFDC018093D7049093D804A093D9045E
:103B0000B093DA041092D60408950F931F93CF93C5
:103B1000DF93EC01DB01CA010297A109B1092C81F5
:103B200030E040E050E0BC01CD010E94BA318B0191
:103B30009C018A859B85AC85BD85080F191F2A1FAE
:103B40003B1FB801C901DF91CF911F910F910895DB
:103B5000A0E0B0E0EEEAFDE10C942032EC016A0155
:103B60007B018901423051056105710508F460C08F
:103B70008D819E81AF81B8850196A11DB11D8417ED
:103B80009507A607B70708F453C08A89803129F43E
:103B9000BB27A72F962F852F0CC0803209F048C075
:103BA000DB01CA01E7E0B695A79597958795EA9559
:103BB000D1F74E855F8568897989840F951FA61F87
:103BC000B71FBC01CD0140E00E94701D009781F13C
:103BD0002A89203191F42FEF30E040E050E0C222FA
:103BE000D322E422F522CC0CDD1CC80ED91EF6012E
:103BF00080819181A0E0B0E014C02FE730E040E088
:103C000050E0C222D322E422F522CC0CDD1CCC0CE5
:103C1000DD1CC80ED91EF60180819181A281B3817D
:103C2000BF70F80180839183A283B38381E001C0D8
:103C300080E0CDB7DEB7E8E00C943C32A0E0B0E025
:103C4000E4E2FEE10C941C32EC016A017B014801C4
:103C50005901423051056105710508F458C08D8144
:103C60009E81AF81B8850196A11DB11D841795076E
:103C7000A607B70708F44BC08A89803129F4BB270F
:103C8000A72F962F852F0CC0803209F040C0DB0192
:103C9000CA0127E0B695A795979587952A95D1F7FC
:103CA0004E855F8568897989840F951FA61FB71F88
:103CB000BC01CD0141E00E94701D009741F12A89AD
:103CC000203181F42FEF30E040E050E0C222D322D7
:103CD000E422F522F601EE0FFF1FE80FF91F918293
:103CE000808213C02FE730E040E050E0C222D322B0
:103CF000E422F522F601EE0FFF1FEE0FFF1FE80F83
:103D0000F91F80829182A282B38281E001C080E0AB
:103D1000CDB7DEB7ECE00C943832AFE0B0E0E3E9C9
:103D2000FEE10C9416321C014C875D876E877F87FD
:103D30003B872A87DC0115964D915D916D917C91B1
:103D400018974F5F5F4F6F4F7F4F4E835F8368873A
:103D50007987F90140805180628073804114510459
:103D60006104710439F00894411C511C611C711CE0
:103D70001D8207C0DC014D905D906D907C90B1E09C
:103D8000BD8353014201CC24DD247601F1018581FC
:103D90009681A781B085C816D906EA06FB0608F009
:103DA00097C04E815F8168857985481559056A05F8
:103DB0007B0550F442E0842E912CA12CB12C52E0D2
:103DC000452E512C612C712CC101B501A4019E011D
:103DD0002F5F3F4F0E94A81D882309F479C0898175
:103DE0009A81AB81BC81950184010F5F1F4F2F4FDA
:103DF0003F4F0097A105B10549F0481459046A04E2
:103E00007B0409F01D82280139010FC0D901C801C6
:103E100084199509A609B7094C855D856E857F854E
:103E200084179507A607B70759F00894C11CD11C41
:103E3000E11CF11C0894811C911CA11CB11CA6CF93
:103E4000A401B5018D81882331F0D1010D931D931B
:103E50002D933C931397C1010FEF1FEF2FEF3FE01E
:103E60000E941E1E882391F433C0680179010894D2
:103E7000C108D108E108F108C101B701A6010E94FB
:103E80001E1E882329F19701860102C09501840135
:103E9000401651066206730640F3EA85FB854081B1
:103EA000518162817381411551056105710539F0B8
:103EB000C101930182010E941E1E882349F0AA8538
:103EC000BB854D925D926D927C92139781E001C00B
:103ED00080E02F96E2E10C943232A4E0B0E0E3E718
:103EE000FFE10C941E325C016A017B01C501B70140
:103EF000A6019E012F5F3F4F0E94A81D8823A9F1B4
:103F0000C501B701A60100E010E098010E941E1E45
:103F1000882359F1F50180819181A281B381C8166E
:103F2000D906EA06FB0620F4C082D182E282F3823F
:103F3000C980DA80EB80FC80F5018289803151F400
:103F4000F8EFCF16FFEFDF06F0E0EF06F0E0FF0638
:103F500050F4CCCF88EFC8168FEFD8068FEFE80665
:103F60008FE0F80618F281E001C080E02496EAE0D4
:103F70000C943A32A0E0B0E0E0ECFFE10C94163291
:103F8000EC01042F7093D5046093D4041A8A82E064
:103F900090E0A0E0B0E088839983AA83BB8310926D
:103FA000D6048FEF9FEFDC018093D7049093D80461
:103FB000A093D904B093DA04442341F1453008F0CA
:103FC000EBC060E070E0CB0140E00E942E1D009746
:103FD00009F4E2C0E02FF0E0A4E0EE0FFF1FAA9585
:103FE000E1F7E255FE4FE80FF91F808190E08F77EF
:103FF0009070009709F0D0C040845184628473842B
:10400000411451046104710421F4C6C044245524B0
:104010003201C301B20140E00E942E1D8C010097C5
:1040200009F4BAC0FC0183859485F2E080309F07D3
:1040300009F0B2C0F8012089222309F4ADC08685B9
:104040009785009709F4A8C02093DF0645854C8327
:10405000198688E090E021E007C0220F019709F45B
:104060009BC039853F5F39874217B9F7F801C68889
:10407000D788C114D10419F0EE24FF2405C0F8013B
:10408000C4A0D5A0E6A0F7A0C092DB06D092DC06C3
:10409000E092DD06F092DE06F801868597854C01F8
:1040A000AA24BB24840C951CA61CB71C8E869F8654
:1040B000A88AB98A218832883C8A2B8A208930E0F4
:1040C00040E050E0C701B6010E94BA31DC01CB01EB
:1040D000880D991DAA1DBB1D8D8B9E8BAF8BB88F34
:1040E000A101E5E0440F551FEA95E1F741505E4F0D
:1040F000452F5527469560E070E0480F591F6A1F0D
:104100007B1F4A875B876C877D87F8018389948949
:10411000009719F0A0E0B0E005C0F80180A191A1DE
:10412000A2A1B3A173016201C41AD50AE60AF70A73
:10413000B701A601480F591F6A1F7B1F098404C0DD
:1041400076956795579547950A94D2F74D835E8388
:104150006F837887453F2FE0520720E0620720E019
:10416000720718F48CE08A8B17C0453F8FEF580711
:1041700080E0680780E0780710F480E10AC0F80169
:1041800084A595A5A6A5B7A58D8B9E8BAF8BB88F63
:1041900080E28A8B81E001C080E0CDB7DEB7E2E14A
:1041A0000C943232CF93DF93EC018E8160E00E9459
:1041B000760981E090E00E946F088E8161E00E94A4
:1041C000760981E090E00E946F088E8160E00E9495
:1041D000760984E690E00E946F08DF91CF91089500
:1041E000A0E0B0E0E6EFF0E20C9420328C01C0E0F9
:1041F000D0E0C62EDD247801EC0EFD1EF70187818C
:1042000061E00E944209B6010C2E02C075956795C7
:104210000A94E2F76170F70187810E94760921967E
:10422000C430D10541F7C8010E94D220CDB7DEB716
:10423000E8E00C943C32A0E0B0E0E1E2F1E20C9462
:1042400020328C01C0E0D0E0C62EDD247801EC0ED7
:10425000FD1EF701878161E00E944209B6010C2E24
:1042600002C0759567950A94E2F76170F70187813E
:104270000E9476092196C830D10541F7C8010E94F5
:10428000D220CDB7DEB7E8E00C943C321F93CF9339
:10429000DF93EC01162F8C81642F0E9476098D81AB
:1042A0008F3F19F060E00E9476098F8584FF05C07A
:1042B000CE01612F0E941B210FC0212F30E084E02E
:1042C000359527958A95E1F7CE01622F0E94F0205F
:1042D000CE01612F0E94F020DF91CF911F910895B0
:1042E00041E00E94462181E090E0089540E00E9474
:1042F00046210895FC016089262F2460208B6C6084
:104300000E9476210895A8E0B0E0E9E8F1E20C947B
:104310002632FE013196ADE8B1E028E00D90019221
:104320002150E1F7FC012389421710F0422F415040
:10433000E42FF0E0EE0FFF1FEC0FFD1F2181260F91
:104340002068622F0E9476212896E2E00C94423287
:1043500061E00E94762180ED97E00E946F08089549
:10436000CF93DF93EC01423018F08F8588608F8700
:104370004B8B1C8A222329F0413019F48F858460ED
:104380008F8780E593EC0E946F088C8160E00E942B
:1043900076098E8160E00E9476098D818F3F19F049
:1043A00060E00E9476096F8564FD1DC0CE0163E068
:1043B0000E94F02084E991E10E946F08CE0163E041
:1043C0000E94F02084E991E10E946F08CE0163E031
:1043D0000E94F02086E990E00E946F08CE0162E022
:1043E0000E94F02016C06062CE010E94762184E90E
:1043F00091E10E946F086F856062CE010E94762174
:1044000086E990E00E946F086F856062CE010E948D
:1044100076216F856062CE010E94762184E0888BD0
:10442000CE010E947A21CE010E94A82182E0898BD0
:10443000CE0166E00E947621DF91CF9108956F92C0
:104440007F928F92AF92CF92EF920F931F93CF9361
:10445000DF93CDB7DEB73C01162F842FF3014483E1
:1044600025830683E782C086A18682869D85938701
:104470009E8594879F8595879889968761E00E949D
:104480004209F30185818F3F19F061E00E944209E2
:10449000F301868161E00E944209112319F0F301C2
:1044A000178603C080E1F3018787C30160E141E023
:1044B00020E00E94B021DF91CF911F910F91EF90EA
:1044C000CF90AF908F907F906F9008958F92AF9222
:1044D000CF92EF920F93CF93DF93A62F742F522F8B
:1044E000302FAE2C8C2CEC011B821A82E3E3F2E01D
:1044F000F983E88300D000D0EDB7FEB73196CDB791
:10450000DEB7198211821282138261E04A2F2FEFE7
:10451000072FE52EC32E0E941F220F900F900F90A1
:104520000F90DF91CF910F91EF90CF90AF908F9040
:10453000089590E0982F8827845F9B4F44E050E0D7
:104540000E94F024089590E00496982F8827860F03
:10455000971F0E941A25089562E070E00E94A3222E
:10456000089590E00496982F8827860F971F642F50
:104570000E9492240895462F62E070E00E94B122CA
:104580000895CF93DF93C82FD62F472F60E170E0B7
:104590000E94B1228C2F61E170E04D2F0E94B12268
:1045A000DF91CF910895CF93DF93C82FD62F472F58
:1045B00064E070E00E94B1228C2F65E070E04D2F26
:1045C0000E94B122DF91CF910895CF93C82F82EE40
:1045D00096E06C2F40E10E94AC268C2F6FEF0E947A
:1045E000BB22CF910895EF92FF921F93CF93DF9359
:1045F00000D0CDB7DEB7182F7A01862F81508530D5
:1046000048F5812F2A8369830E94E5222A816981E6
:10461000422F462B812F60E070E00E94B122E1140E
:10462000F10419F0812FB7010BC06091E006709181
:10463000E1066F5F7F4F7093E1066093E006812F84
:104640000E94D32282EE96E0612F41E00E94AC26C8
:1046500081E001C080E00F900F90DF91CF911F911A
:10466000FF90EF9008951F93CF93DF93182FFB01D6
:10467000EA0180818F3F51F481818F3F91F48281E3
:104680008F3F79F483818F3F61F41DC0882349F403
:104690008181882331F48281882319F483818823DE
:1046A00091F0209781F0812FBF010E949922812FE4
:1046B000BE010E94C12282EE96E0612F44E00E947A
:1046C000AC2681E001C080E0DF91CF911F91089579
:1046D000682F82EE96E048E00E94AC260895CF92C3
:1046E000DF92EF92FF921F93CF93DF93182F6B010E
:1046F0007A0188E04130580718F0E12C68E0F62E86
:1047000082EE96E0612F0E94F725EC01812F63E095
:1047100070E00E94A322873111F08C3121F4CE1574
:10472000DF0570F302C0EE24FF2482EE96E0612FD5
:10473000A60197010E94A62582EE96E0612F40E235
:104740000E94AC260DC0812F63E070E00E94A3227E
:10475000882331F4812F0E94E522EE24FF2409C032
:10476000812F0E94AC2284FFEECF812F60E10E9456
:10477000BB22C701DF91CF911F91FF90EF90DF9097
:10478000CF900895A0E0B0E0E8ECF3E20C94203282
:10479000182F6B01EA0182EE96E0612F0E94C72577
:1047A0007C01009761F4812F63E070E00E94A322F6
:1047B0008431D1F08823C1F08C31B1F01BC0C8170F
:1047C000D9070CF47E011E141F0474F482EE96E0E7
:1047D000612FA601970100E00E94742682EE96E008
:1047E000612F40E40E94AC26C701CDB7DEB7E8E0F8
:1047F0000C943C32EE24EA94FE2CF6CF0F93282F33
:10480000AB0182EE96E0622F21E030E001E00E94F1
:10481000742681E090E00F910895AF92BF92CF92FD
:10482000DF92FF920F931F93CF93DF93F82E6B01CC
:104830005A01890182EE96E06F2D0E94F7258017BC
:10484000910740F482EE96E06F2D0E94F725D82F55
:10485000C92F02C0D02FC12F82EE96E06F2DA60186
:1048600095010D2F1C2F0E9439258D2F9C2FDF9134
:10487000CF911F910F91FF90DF90CF90BF90AF909D
:1048800008951F93CF93DF93182FFB01EA018081D6
:10489000882349F48181882331F48281882319F4A3
:1048A0008381882369F0209759F0812FBF010E94EE
:1048B0009922812FBE010E94C12281E090E002C0B6
:1048C00080E090E0DF91CF911F910895CF93C82FA2
:1048D00082EE96E06C2F40E20E94AC260CC08C2F3A
:1048E0000E94AC2283FF07C08C2F68E10E94BB228C
:1048F00080E090E00BC08C2F0E94AC2284FFEFCFB1
:104900008C2F60E10E94BB2281E090E0CF9108955E
:104910008EBD0DB407FEFDCF8EB508952A9808957B
:104920002A9A0895A2E0B0E0E8E9F4E20C94253276
:10493000182F6A8399830E948E2480EF0E94882416
:104940009981892F0E948824812F0E9488246A815E
:10495000862F0E9488240E94902481E02296E3E022
:104960000C944132CF93DF93EC016CE271E080E074
:1049700090E00E9446080E94BC26229A80E090E0C7
:1049800060E80E9492248BE190E065E50E94922409
:104990008AE190E065E50E94922480E090E49983AA
:1049A000888380E090E69987888780E098E49B83FD
:1049B0008A8380E098E69B878A8780E090E59D83E4
:1049C0008C8380E090E79D878C8780E098E59F83CB
:1049D0008E8380E098E79F878E87DF91CF9108953F
:1049E000A0E0B0E0E6EFF4E20C9420328C016A0122
:1049F0007B01C0E0D0E015C00E948E2480EF0E94B1
:104A00008824812F0E948824802F0E9488240F5F91
:104A10001F4FF70181917F010E9488240E949024FA
:104A20002196CC15DD0541F7CE01CDB7DEB7E8E024
:104A30000C943C32A1E0B0E0E0E2F5E20C942532C7
:104A4000182F99830E948E248FE00E9488249981D8
:104A5000892F0E948824812F0E94882480E00E9450
:104A6000882489830E94902489812196E3E00C9414
:104A700041326F927F928F929F92AF92BF92CF926C
:104A8000DF92FF920F931F93CF93DF935C01F62E7B
:104A90003A0149016801862F64E270E00E94A32276
:104AA000C82F8F2D65E270E00E94A3223C2F20E0EA
:104AB000082F10E0022B132B060D171DA8015770AD
:104AC0008F2D90E0880F991FA80EB91EF501208147
:104AD0003181240F351FCA018C0D9D1DF8E08130F6
:104AE0009F0798F0C0E0D8E0C41BD50BC901B40102
:104AF000AE010E94F024B4016C0F7D1FA6014C1B77
:104B00005D0BF5018081918103C0C901B401A6014B
:104B10000E94F0240C0D1D1D8F2D64E270E0412FCA
:104B20000E94B1228F2D65E270E0402F0E94B122D9
:104B3000DF91CF911F910F91FF90DF90CF90BF90A9
:104B4000AF909F908F907F906F9008950F931F93D9
:104B5000FA01890140E050E09F010E9439251F9130
:104B60000F910895CF93DF93C82F66E270E00E9403
:104B7000A322D82F8C2F67E270E00E94A3223D2F42
:104B800020E090E0822B932BDF91CF910895FF924C
:104B90000F931F93CF93DF93F62EC0E0D0E08F2DBD
:104BA0000E94B2258C01009721F08F2D0E94B22522
:104BB000EC01C017D10799F7CE01CDB7DEB7E5E01C
:104BC0000C943F32CF93DF93C82F60E270E00E94D5
:104BD000A322D82F8C2F61E270E00E94A3223D2FE8
:104BE00020E090E0822B932BDF91CF910895FF92EC
:104BF0000F931F93CF93DF93F62EC0E0D0E08F2D5D
:104C00000E94E2258C01009721F08F2D0E94E22561
:104C1000EC01C017D10799F7CE01CDB7DEB7E5E0BB
:104C20000C943F32A0E0B0E0E8E1F6E20C942032D0
:104C30008C016A017B01C0E0D0E016C00E948E2486
:104C40008FE00E948824812F0E948824802F0E9458
:104C500088240F5F1F4F80E00E948824F701819312
:104C60007F010E9490242196CC15DD0539F7CE01F5
:104C7000CDB7DEB7E8E00C943C32A0E0B0E0E3E46E
:104C8000F6E20C942032690178015770C62FD0E00B
:104C90002496CC0FDD1FC80FD91F28813981240F1E
:104CA000351FC801840F951F68E08130960790F08A
:104CB00000E018E0041B150BC901B601A8010E9411
:104CC0001226B601600F711FA701401B510B88818E
:104CD000998103C0C901B601A8010E941226CDB76F
:104CE000DEB7E8E00C943C32A0E0B0E0EAE7F6E2A0
:104CF0000C941C325C01F62E4A016901E02E862FCD
:104D000068E270E00E94A322C82F8F2D69E270E054
:104D10000E94A3223C2F20E0C82FD0E0C22BD32B2F
:104D2000C5016F2DAE01940186010E943D26EE2043
:104D300071F4CC0DDD1D8F2D68E270E04D2F0E94C7
:104D4000B1228F2D69E270E04C2F0E94B122CDB7C5
:104D5000DEB7ECE00C943832CF93C62F862F61E09B
:104D600070E00E94B1228C2F61E070E00E94A322CB
:104D70008823C9F7CF9108958AE061E00E947609FF
:104D80008AE061E00E9442098CB580618CBD8CB5DF
:104D900080648CBD8DE061E00E9442098BE061E09F
:104DA0000E94420908950E96FC0184E1DF011D92E4
:104DB0008A95E9F70895A2E3B0E0E1EEF6E20C94FB
:104DC00016324C012A013B0189010E940A086B013D
:104DD0007C01E7E4AE2EB12CA80CB91C14C00E94D3
:104DE0000A08DC01CB018C199D09AE09BF094816E0
:104DF00059066A067B0608F410C262E370E080E0A0
:104E000090E00E944608C5010E9435131816190645
:104E100034F7C501BE01695F7F4F42E250E00E9456
:104E2000CD128F81823009F0F3C1F5018589968911
:104E30008334910509F0ECC14B855C856D857E85D9
:104E4000C72EDD24EE24FF24B42FAA279927882714
:104E5000C82AD92AEA2AFB2AB62FA52F942F8827F9
:104E600080709070B070C82AD92AEA2AFB2A452F90
:104E7000562F672F7727407060707070C42AD52A2C
:104E8000E62AF72AF801C082D182E282F382B401D5
:104E9000685F7F4FCE01839646E050E00E94203449
:104EA000009799F4F40180819181A281B381C816A1
:104EB000D906EA06FB0648F084819581A681B78170
:104EC0008C159D05AE05BF0528F4C5010E94A112F1
:104ED0004424A5C18F89988DA98DBA8DF401868748
:104EE0009787A08BB18B0EEC10E0C5010E94EC12ED
:104EF00001501040D1F7442482E2682E712C680CD6
:104F0000791C96E2292E312C280C391CC4018A9672
:104F10009AA789A72AE1E22EF12CE80CF91CF401EA
:104F2000E85AFF4FFCA7EBA7C40142969EA78DA7A6
:104F3000F4017696F8ABEFA7C4014E969AAB89AB15
:104F400067015EC1C5010E94EC128333910509F42B
:104F500010C18433910594F48130910579F1823048
:104F6000910524F4009709F44BC13CC183309105AD
:104F700061F18630910509F035C142C08A3391054F
:104F800009F48CC08B33910544F48533910571F09D
:104F90008633910509F026C14EC08B33910509F483
:104FA000B2C08F3F910509F01DC12AC1C5010E9401
:104FB000EC12C5010E94EC12482E22C1C5010E94CC
:104FC000EC12C5016DA57EA55CC0C5010E94EC1266
:104FD000082FC5016FA578A944E050E00E94CD12CA
:104FE000EE24FF2410E00450104006C0C5010E94CA
:104FF000EC120894E11CF11CE016F106BCF300C1B0
:10500000C5010E94EC12082FC50169A97AA944E0E4
:1050100050E00E94CD12EE24FF2410E00450104016
:1050200006C0C5010E94EC120894E11CF11CE016B8
:10503000F106BCF3E5C0C5010E94EC12E82EF401B4
:10504000828D938DA48DB58D0097A105B105B9F022
:10505000CE010196B6010E94CE0B8B819C81AD8161
:10506000BE81EBA5FCA540815181628173818417CB
:105070009507A607B70719F000E010E00CC0C501BE
:10508000B60144E050E00E94CD12BAC0C5010E94B2
:10509000EC120F5F1F4FE016C9F7B2C0C5010E94A6
:1050A000EC12C501B10144E050E00E94CD12F401C0
:1050B00006A117A120A531A5432F552766277727DD
:1050C000B02FAA2799278827482B592B6A2B7B2B8F
:1050D000B22FA12F902F882780709070B070482B2E
:1050E000592B6A2B7B2BBB27A32F922F812F8070EC
:1050F000A070B070482B592B6A2B7B2B46A357A36B
:1051000060A771A77DC0C5010E94EC12C50169A509
:105110007AA544E050E00E94CD12F40102A513A547
:1051200024A535A5432F552766277727B02FAA2713
:1051300099278827482B592B6A2B7B2BB22FA12F1D
:10514000902F882780709070B070482B592B6A2B55
:105150007B2BBB27A32F922F812F8070A070B07064
:10516000482B592B6A2B7B2B42A753A764A775A703
:1051700047C0C5010E94EC12C501B30144E050E0F4
:105180000E94CD12F40102A113A124A135A1432F45
:10519000552766277727B02FAA2799278827482BD6
:1051A000592B6A2B7B2BB22FA12F902F8827807031
:1051B0009070B070482B592B6A2B7B2BBB27A32FE9
:1051C000922F812F8070A070B070482B592B6A2BC2
:1051D0007B2B42A353A364A375A346A757A760AB39
:1051E00071AB0EC0C5010E94EC12E82E00E010E089
:1051F00005C0C5010E94EC120F5F1F4FE016C9F7F2
:10520000C5010E948612181619060CF49BCE01C027
:105210004424C5010E94A11202C044244A94842D52
:10522000E296E2E10C943232CF93DF93EC01625FBD
:105230007F4F0E94CE0BCE01DF91CF910895CF9387
:10524000DF93EC016E5E7F4F0E94CE0BCE01DF91AB
:10525000CF910895CF93DF93EC016A5E7F4F0E9458
:10526000CE0BCE01DF91CF910895CF93DF93EC0168
:10527000625E7F4F0E94CE0BCE01DF91CF910895E9
:1052800080E3FB018083329601C0482F842F8295F2
:105290008F704F704A3010F4405D01C0495C4293FA
:1052A000882399F70895ACE2B0E0E9E5F9E20C94BF
:1052B00019327C01562E842E652E2DE0C22ED12C63
:1052C000CC0EDD1E30E2932EF601292D11922A9587
:1052D000E9F7CE0107966FEF4FEF2FEF0FEF0E9428
:1052E000C20B47E4A42EB12CAE0CBF1C89EE91E09A
:1052F0009A83898389859A85AB85BC858B839C83BA
:10530000AD83BE83C501BE016F5F7F4F43E450E0B4
:105310000E942C13EFEF8F3F9E0709F4ECC081E051
:105320008D878E8786E08F87188AF7010481158123
:1053300026813781432F552766277727B02FAA2745
:1053400099278827482B592B6A2B7B2BB22FA12F0B
:10535000902F882780709070B070482B592B6A2B43
:105360007B2BBB27A32F922F812F8070A070B07052
:10537000482B592B6A2B7B2B498B5A8B6B8B7C8B45
:105380006D8A8E8A80E890E0988F8F8BC501B60178
:105390004CE150E00E941213F60111929A94E9F741
:1053A00088E0682E712C6E0C7F1CF601D30186E01C
:1053B0000D9001928150E1F7FDE0CF2ED12CCC0E63
:1053C000DD1EC501B60140E150E00E94121380E2EB
:1053D000F60111928A95E9F706E010E09C2CCD2C9D
:1053E000C501692D7C2D40E250E00E94121301504E
:1053F0001040B1F783E68D8792E89E8793E59F87FB
:10540000888B85E3898B81E08A8B5B8A9DE39C8B0B
:1054100097E09D8B8E8BDE015796F30186E001901D
:105420000D928150E1F78CE08D8F8E8FCE014F96DB
:1054300065E971E00E944134C701BE016B5D7F4F99
:10544000F70143850E944029C701BE01695D7F4F76
:10545000F70144850E944029C701BE01675D7F4F67
:10546000F70145850E944029C501BE01635F7F4F5A
:105470004EE150E00E941213F3E05F1601F582E363
:105480008D8784E08E87F70196859F879785988B17
:105490009089998B91899A8B96E39B8B8C8B828DCB
:1054A0008D8B838D8E8B848D8F8B858D888FC501A1
:1054B000BE01635F7F4F4CE050E00E94121387E310
:1054C0008D8786E08E8791E09F8793E0988B898B0C
:1054D0008FE08A8B8AE38B8B8BE38C8B8FEF8D8BAA
:1054E000C501BE01635F7F4F49E050E00E94121387
:1054F000C5010E942713AC96EFE00C943532A8E06A
:10550000B0E0E5E8FAE20C9416328C0161E070E05C
:1055100080E090E020ED37E040E050E00E94792FFD
:10552000D80114966C93149715967C93159716963C
:105530008C93169717969C9317976C9311967C9360
:10554000119712968C93129713969C93F801E95B2E
:10555000FF4FFE83ED83CF010E9475138D819E81E5
:1055600064E470E00E948A13882309F42AC10E942F
:105570000A084B015C0122243324FF2456E4C52E83
:10558000D12CC00ED11EC801CE9698878F83E3E040
:10559000EE2EF8EE4F2EF3E05F2E612C712CFBC047
:1055A0008823F9F4F80184819581A681B781019659
:1055B000A11DB11D84839583A683B7830E940A0829
:1055C000681979098A099B09A30192010E94D931BE
:1055D000C80161E0A9010E94532981E0D6018C93A2
:1055E000BEC08430F9F4F80184819581A681B78129
:1055F0000196A11DB11D84839583A683B7830E9464
:105600000A08681979098A099B09A30192010E9475
:10561000D931C80163E0A9010E945329E2E0D60113
:10562000EC939DC0813061F5AF81B8854D915D915E
:105630006D917C91C8019E012F5F3F4F0E94DB2638
:10564000F82EB2E08B1709F08AC089819A81AB816C
:10565000BC81F80184839583A683B7830E940A08DE
:10566000681979098A099B09A30192010E94D9311D
:10567000C80163E0A9010E945329D601FC9275C0BC
:10568000823009F06CC0EF81F885408151816281E0
:105690007381C8019E012F5F3F4F0E94DB26F82EC9
:1056A000F5E08F1709F055C0D601EC92F80182A100
:1056B00093A1A4A1B5A10097A105B10541F484E887
:1056C00093E0A0E0B0E082A393A3A4A3B5A3F80164
:1056D00086A197A1A0A5B1A50097A105B10561F488
:1056E00082A193A1A4A1B5A1B695A79597958795F9
:1056F00086A397A3A0A7B1A7F80182A593A5A4A507
:10570000B5A546A157A160A571A50097A105B10552
:1057100051F4DB01CA01880F991FAA1FBB1F82A782
:1057200093A7A4A7B5A7D8019E964D935D936D93BB
:105730007C93D1979A968D919D910D90BC91A02DBF
:10574000F80182AB93ABA4ABB5AB21E0222E312C98
:105750000CC0F6E08F1719F4D6011C9206C0BFEFFB
:10576000FB1619F4F6011082FF24F1E02F16310424
:1057700091F00E940A08DC01CB0188199909AA0955
:10578000BB09F80142AD53AD64AD75AD481759077B
:105790006A077B0728F0D6018C91833009F000CF8F
:1057A0008D819E810E947513F80184819581A68167
:1057B000B7810196A11DB11D84839583A683B7830C
:1057C00002C022243324C1012896E2E10C94323233
:1057D000A0E0B0E0EEEEFBE20C941C32EC010E9483
:1057E0000A084B015C018EA99FA9A8ADB9AD8E0135
:1057F0000E5B1F4F0097A105B10509F493C0F80196
:1058000080819181A281B381A5019401281B390B6C
:105810004A0B5B0BCA01B90157FD52C0A8EECA2E54
:10582000A3E0DA2EE12CF12CC80CD91CEA1CFB1CDD
:1058300028EE33E040E050E00E94FB31DC01CB0178
:10584000C81AD90AEA0AFB0AF801C082D182E282A8
:10585000F382DA01C9010196A11DB11D4EA55FA514
:1058600068A979A98C019D01000F111F221F331F08
:1058700040175107620773072CF41EA61FA618AA2B
:1058800019AA08C0481B590B6A0B7B0B4EA75FA7D0
:1058900068AB79AB4AA95BA96CA97DA940175107F0
:1058A000620773072CF41AAA1BAA1CAA1DAA08C017
:1058B000481B590B6A0B7B0B4AAB5BAB6CAB7DABEC
:1058C000FE01EA5BFF4F8081833081F48EA59FA5A6
:1058D000A8A9B9A9181619061A061B063CF084E0F7
:1058E0008083CE010E947F2A019602C080E090E072
:1058F000FE01EA5BFF4F2081233011F02223F9F4EF
:105900004AA95BA96CA97DA91416150616061706E7
:10591000B4F01082CE010E94D326CE010E947F2ACD
:1059200003960DC0D501C40188519C4FAF4FBF4FA6
:10593000F80180839183A283B38380E090E08EAAF4
:105940009FAAA8AEB9AECDB7DEB7ECE00C94383262
:10595000A0E0B0E0EEEAFCE20C941E326C015B01C8
:10596000DA01C901F60112A213A214A215A216A20D
:1059700017A210A611A612A613A614A615A616AA5B
:1059800017AA10AE11AE82AF93AFA4AFB5AFFE961B
:10599000E082F18202831383E601289686E0FE010D
:1059A00011928A95E9F7C6010E94D326F50186E097
:1059B000019009928150E1F7F601EA5BFF4F1082F6
:1059C000C6010E947F2ACDB7DEB7EAE00C943A32D6
:1059D0000F9382EF96E060E040E020E000E00E945C
:1059E000C20B0F9108958091C10085FDFCCF80917D
:1059F000C00085FFF8CF6093C60081E090E0089575
:105A00001092FB061092FA068BE392E09093F9064F
:105A10008093F80608958FEF8EBD0DB407FEFDCF7D
:105A20008EB508958EBD0DB407FEFDCF0895FC011F
:105A3000808161E00E9476098FEF0E94122D089507
:105A4000CF93DF93EC018CEF96E06A810E943F2FA9
:105A5000888160E00E947609DF91CF910895A0E0EF
:105A6000B0E0E5E3FDE20C942032EC016B018A0129
:105A70000E940A08DC01CB017C010AC00E940A08CE
:105A80006E197F0981E06D32780710F081E108C05E
:105A90000E940B2D8B838F3F89F38E3F39F08FE06F
:105AA0008983CE010E94172D80E028C098012150E3
:105AB000304001151105C9F08FEF8EBDF60180E071
:105AC00090E04FEF07C00DB407FEFDCF5EB54EBDB1
:105AD0005193019682179307B0F30DB407FEFDCFE3
